:100000000C9416010C9437010C9437010C943701B1
:100010000C9437010C9437010C9437010C94370180
:100020000C9437010C9437010C9437010C94370170
:100030000C9437010C9437010C9457150C9437012C
:100040000C940A140C94E2130C94BA130C947813C5
:100050000C9437010C9437010C9437010C94370140
:100060000C9437010C9437010C9437010C94370130
:100070000C9437010C9437010C9437010C94370120
:100080000C9437010C9437010C9437010C94370110
:100090000C9437010C9437010C9437010C94370100
:1000A0000C9437010C9437010C9437010C943701F0
:1000B0000C9437010C9437010C9437010C943701E0
:1000C0000C9437010C9437010C9437010C943701D0
:1000D0000C9437010C9437010C9437010C943701C0
:1000E0000C9437010C9437010C9437010C943701B0
:1000F0000C9437010C9437010C9437010C943701A0
:100100000C9422050C9437010C9437010C943701A0
:100110000C9437010C9437010C9437010C9437017F
:100120000C9437010C9437010C9437010C9437016F
:100130000C9437010C942F150C9437010C94501328
:100140000C9428130C9400130C94D6120C943701C1
:100150000C9437010C9437010C9437010C9437013F
:100160000C9437010C9437010C9437010C9437012F
:100170000C9437010C9437010C9437010C9437011F
:100180000C9437010C9437010C9437010C9437010F
:100190000C9437010C9437010C9437010C943701FF
:1001A0000C94950D0C9437010C9437010C94370185
:1001B0000C9437010C9437010C9437010C943701DF
:1001C0000C9437010C9437010C9437010C943701CF
:1001D0000C9437010C9437010C9437010C943701BF
:1001E0000C9437010C943701524144494F204E4F33
:1001F0005420494E495449414C495A454420505293
:100200004F5045524C590A004255464645522046E9
:10021000554C4C2E20544F5353494E4720494E4382
:100220004F4D494E4720444154410A0011241FBEFE
:10023000CFEFDFE5DEBFCDBF00E00CBF11E2A0E0F5
:10024000B0E2E2EDF8E600E00BBF02C007900D92CD
:10025000A232B107D9F710E5A2E2B1E201C01D92C6
:10026000A03AB107E1F70E94B92E0C9467340C94C0
:10027000000084E1E2E2F1E2DF011D928A95E9F7F4
:100280000E942F0480932221909323210E949F0497
:10029000089582E291E208956F927F928F929F92E9
:1002A000BF92CF92DF92EF92FF920F931F93CF9363
:1002B000DF93CDB7DEB72A97CDBFDEBF7C014B0100
:1002C000142F28E9B22E34E3632E32E1732E58C086
:1002D000012F153608F004E6802F855F89838FEFA4
:1002E000E8168FEFF80611F081E601C081E48A83F9
:1002F000BB82809124218C838F5F809324216D8227
:100300007E82EF82F88682E2C82E81E2D82E80912A
:1003100022219091232189879A87CE010196B401E9
:10032000402F0E944504882351F18330F1F084303E
:1003300018F4813049F504C0853069F0803421F526
:100340002091292130912A212F5F3F4F209329218D
:1003500030932A2119C020912B2130912C212F5F1D
:100360003F4FF601218732870FC020912D21309118
:100370002E212F5F3F4FF6012387348705C0101BC6
:10038000112309F0A5CF80E02A96CDBFDEBFDF9113
:10039000CF911F910F91FF90EF90DF90CF90BF9082
:1003A0009F908F907F906F900895DF92EF92FF92D1
:1003B0000F931F93CF93DF938C010E944602D82E98
:1003C00087FD41C0F8018583E80126967E0105C0BE
:1003D0000E944602F70181937F018E2D8C1B8D15A3
:1003E000B8F3F801C08583859485838394838585DC
:1003F0009685818392830E945902882311F410927A
:10040000252120910020F80181819281C21739F4C1
:10041000209101203091022082179307A1F0C09310
:1004200000208093012090930220B801615F7F4FEC
:100430004D2D50E049505040C80105960E94993119
:100440008D2D8B5001C080E0DF91CF911F910F91D6
:10045000FF90EF90DF90089510923621109237218F
:100460001092382108952091372130E0F901E75C9E
:10047000FE4D80832F5F3F4F2F77307020933721C1
:10048000809138218F5F8093382108952091362103
:1004900030E0F901E75CFE4D80812F5F3F4F2F7701
:1004A00030702093362190913821915090933821CB
:1004B0000895809138210895CF93C82F8FB78093E6
:1004C000BF21F89481E00E94C51D8C2F80680E9496
:1004D000D11D0E94D11DC82F80E00E94C51D8091B2
:1004E000BF218FBF78948C2FCF91089581E00E9417
:1004F0005C028F7108958091640681608093640628
:10050000809164068D7F809364068EE78A95F1F76B
:1005100000C0809164068E7F809364060000809105
:1005200064068160809364068DE10E945C028130E4
:10053000D9F78CE10E945C028730B1F70895CF9320
:10054000C82F0E945C028C2B8F5F0E945C0280E0AF
:1005500090E0CF9108951F93CF93DF930F92CDB783
:10056000DEB7182F8FB78093BF21F89481E069839D
:100570000E94C51D812F806C0E94D11D6981862F2C
:100580000E94D11D80E00E94C51D8091BF218FBFB8
:1005900078940F90DF91CF911F9108951F93CF937F
:1005A000DF930F92CDB7DEB7182F79830E94AB028D
:1005B000812F8F5F7981672F0E94AB020F90DF91AF
:1005C000CF911F9108950F931F93CF93DF93182F0F
:1005D000EB0100E06991802F810F0E94AB020F5F59
:1005E0000830C1F7DF91CF911F910F9108950F93BC
:1005F0001F93CF93DF930F92CDB7DEB7182F062F3F
:1006000049830E945C024981642F609568234023DE
:10061000642B812F0E94AB020F90DF91CF911F912D
:100620000F910895AF92BF92DF92EF92FF920F93D6
:100630001F93CF93DF930F92CDB7DEB7182F062FFE
:10064000F42EE52ED22EE22FF0E0E60FF11DE03879
:10065000F1055CF58FB78093BF21F89481E0998311
:100660000E94C51D80E60E94D11DA12E9981B92E40
:1006700005C0F50181915F010E94D11D8A2D811B6A
:100680008017B8F30F2D1E2D05C0F80181918F0141
:100690000E94D11D802F8F198D15B8F380E00E9424
:1006A000C51D8091BF218FBF78940F90DF91CF91AE
:1006B0001F910F91FF90EF90DF90BF90AF90089542
:1006C000813051F0813028F0823049F08330E1F4FC
:1006D00011C08CE068E005C08CE06CE002C08CE0EA
:1006E0006CE14FE30E94F70286E162E043E00E9482
:1006F000F70208958CE060E04FE30E94F70286E184
:1007000063E043E00E94F7020895CF93C82F88E08A
:100710006C2F4FE10E94F7020E947602863011F0A2
:10072000893021F484E28A95F1F700C088E00E94C4
:100730005C02282F30E02F7130708C2F90E028174A
:10074000390711F480E401C083E4CF910895682F44
:1007500085E00E94AB020895CF93DF93C82F80916C
:10076000640681FD38C00E947602D82F8151823004
:1007700020F0D13011F0D23021F40E9476028D1792
:10078000E1F3C63179F0C93151F0C83099F4809164
:1007900064068D7F8093640682E063E007C0D631F3
:1007A00049F402C0D93131F482E069E04FE10E949E
:1007B000F702000082E06C2F4FE10E94F70284E212
:1007C0008A95F1F700C00E9476028C1711F480E43C
:1007D00003C083E401C084E4DF91CF910895CF93F7
:1007E000DF93EC0180E090E0BE0148E050E00E9421
:1007F0002D0684E2BE010E94E302DF91CF910895AD
:10080000BC0180E090E048E050E00E948F0608952F
:100810000F931F93CF93DF930F920F92CDB7DEB755
:1008200089839A830E9449018C0189E090E0BE018E
:100830006F5F7F4F42E050E00E942D0669817A8110
:1008400080E20E94CE0289819A81F801808391839F
:100850000F900F90DF91CF911F910F910895CF933B
:10086000DF930F920F92CDB7DEB789E090E0BE0123
:100870006F5F7F4F42E050E00E948F0689819A812E
:100880000F900F90DF91CF910895AF92BF92CF92CA
:10089000DF92FF920F931F93CF93DF930F92CDB709
:1008A000DEB76C018B01F42E0E94760289830E94D0
:1008B00049015C0129812230F9F02231E9F088E018
:1008C0000E94AC0389E10E94AC03C6016AE0A80162
:1008D0002F2D0E94120382E062E04FE10E94F70296
:1008E000F50184818823E1F3148282E00E945C0296
:1008F00082958695877001C084E40F90DF91CF9137
:100900001F910F91FF90DF90CF90BF90AF9008950F
:10091000882349F088E00E94AC03809164068260DD
:10092000809364060895809164068D7F80936406A9
:1009300080E58A95F1F786E10E94AC0308950F9354
:100940001F93CF93DF93CDB7DEB7EA97CDBFDEBF5E
:100950000E94C70680916006826080936006809145
:1009600060068160809360060E947B028EE060E0FA
:100970000E94AB0282E063E04FE10E94F70281E057
:100980000E945C028F718830D1F78EE260E440EC07
:100990000E94F7028EE06CE00E94AB0284E060E20D
:1009A00040E20E94F70281E00E94600381E00E9421
:1009B000850386E10E94AC0382E264E372E10E9457
:1009C000CE020E942F04BC0180E20E94CE02CE0122
:1009D00001960E94000484E2BE016F5F7F4F0E9477
:1009E000E3028091720681608093720680916906AD
:1009F00082608093690680916A06846080936A06AB
:100A000087E0E0EAF0E082830E947602863191F08E
:100A10008E01075F1F4FC80168EE71E00E9492319E
:100A20000F920F92EDB7FEB7018312830E94AB3194
:100A30000F900F90EA96CDBFDEBFDF91CF911F914F
:100A40000F9108951F920F920FB60F920BB60F924F
:100A500011246F927F929F92AF92BF92CF92DF92BA
:100A6000EF92FF920F931F932F933F934F935F93B8
:100A70006F937F938F939F93AF93BF93EF93FF9366
:100A8000CF93DF93CDB7DEB7E297CDBFDEBF0E9435
:100A900049017C018FB78093BF21F89481E00E94C7
:100AA000C51D8FE80E94D11D80E00E94D11D182F26
:100AB00080E00E94C51D80E8682E712C5E010894BC
:100AC000A11CB11C9DC012FF02C01B7F99C013FF67
:100AD0007EC00E947602863029F0863119F081317D
:100AE00009F06BC087E00E945C02F701828B86E010
:100AF0000E945C02881F8827881FF701838B882348
:100B000009F45EC08FB78093BF21F89481E00E9402
:100B1000C51D80E20E94D11D80E00E94D11D082FDA
:100B200083508D37B0F50E945902202F30E0A30189
:100B3000481B5109241735076CF4802F0E9433029B
:100B4000CC2480E00E94D11D0E943302C394C016C1
:100B5000C1F71FC00E9449016C01992480E00E94E6
:100B6000D11D93949016D1F7F6018585968501964F
:100B700085879687C50168E072E00E9492310F92E6
:100B80000F92EDB7FEB7A182B2820E94AB310F90F7
:100B90000F9080E00E94C51D8091BF218FBF789487
:100BA000F7018581968101968583968381E0838311
:100BB00088EC93E20E94D50103C081E0F7018483B1
:100BC000177F86E10E94AC038034D9F719C016FF65
:100BD00008C01F7BF7018785908901968787908BD6
:100BE0000FC011FF02C01D7F0BC010FF02C01E7F8F
:100BF00007C017FF05C01F77F70181898F5F818BC1
:100C0000112309F060CF8091BF218FBF78948FE0CE
:100C10000E945C02E296CDBFDEBFDF91CF91FF91D3
:100C2000EF91BF91AF919F918F917F916F915F9164
:100C30004F913F912F911F910F91FF90EF90DF9077
:100C4000CF90BF90AF909F907F906F900F900BBE12
:100C50000F900FBE0F901F901895CF92DF92EF92DA
:100C6000FF920F931F93CF93DF93EC018091CC0100
:100C7000877FE0ECF1E0848720E080ECE82E81E0E3
:100C8000F82E36E3D32EA3E3CA2E35E339C08C0108
:100C90000C0F1D1F860F971FDC018C919091CF01C7
:100CA00097FDFCCF9091CF0191FF12C0D7011A960A
:100CB000DC921A97EF93FF930F932F93EBECF1E0F5
:100CC00008ED21E004BF20832F910F91FF91EF9158
:100CD000C2860093C001912F9F71918312828483F9
:100CE0003287EF93FF930F932F93EBECF1E008ED36
:100CF00021E004BF20832F910F91FF91EF912F5F8F
:100D0000822F90E08417950708F4C1CFDF91CF912F
:100D10001F910F91FF90EF90DF90CF9008951F9358
:100D2000CF93DF939C018091CC01877FE0ECF1E0D1
:100D30008487C0E0D6E022C0DB01A80FB91F820F74
:100D4000931F1091CF0117FDFCCF8093C001892F15
:100D50008F7181831282D287EF93FF930F932F932A
:100D6000EBECF1E008ED21E004BF20832F910F911F
:100D7000FF91EF918091C4018C93CF5F8C2F90E015
:100D800084179507C8F2DF91CF911F910895E0E68F
:100D9000F6E08081806B8083E4E6F6E0808180610C
:100DA0008083A0ECB9E08C9181658C938081806117
:100DB00080830895FC0181E0838384819581861B73
:100DC00091090895FC0181E08383848195817727CF
:100DD00067FD7095861B970B0895FC0181E0838366
:100DE000848195810895FC0181E083838481089545
:100DF000FC0181E0838385810895FC018481148254
:100E00009AE29A95F1F700C084830895FC018481E9
:100E100091E0948395E59A95F1F700008483089515
:100E2000FB014423C9F024E030E040E050E061E001
:100E3000808180688083838180FFFDCF638384818C
:100E40009581480F591F2150304091F7CA0196955E
:100E500087959695879508958081806880838381A2
:100E600080FFFDCF81E08383848195810895FB011C
:100E70004423D1F044E050E020E030E061E08081A4
:100E800080688083838180FFFDCF63838481958127
:100E9000280F391F4150504091F7C90164E070E0BC
:100EA0000E941131862F089580818068808383811C
:100EB00080FFFDCF81E08383848195810895AAEC32
:100EC000B1E092E09C93E82FF0E084911C920895A9
:100ED000CF93DF93EC0182E0C030D80731F480E299
:100EE0000E945F078C8781E205C084E20E945F0751
:100EF0008C8785E20E945F078D87DF91CF910895EF
:100F00000F93CF93DF930F92CDB7DEB72FB729831F
:100F1000F8941BBEFC0108ED04BF608389818FBF7C
:100F20000F90DF91CF910F910895662311F090E219
:100F300001C090E0842B892BE0E5F0E082830895E6
:100F40006F71682BE0E5F0E065830895E0E5F0E07F
:100F50002081982F909592239083908189230895E2
:100F6000682B81E490E00E94800708951F93CF933F
:100F7000DF93182FC0E4D0E06881687F682B80E49D
:100F800090E00E94800788818123DF91CF911F919B
:100F90000895E0E4F0E09381917F9160982B938332
:100FA000089530915600282F982F9095932366230B
:100FB00009F420E0922BE0E5F0E09683813031F4F3
:100FC000809168008160809368000895823029F4E0
:100FD00080916000816080936000089583E590E0D7
:100FE00063E00E948007089582E490E061E00E943F
:100FF0008007089580EC60E04BE00E9495078091A7
:1010000050008860809350008091510083FFFCCF96
:1010100080EC62E00E94A007809150008061809384
:1010200050008091510084FFFCCF84E00E94B607FD
:1010300081E00E94A607089580915000826080930D
:10104000500080E061E00E94B0078091510081FF74
:10105000FCCF81E00E94B60781E00E94A6070895B8
:101060008091500082608093500080E060E00E9498
:10107000B0078091510081FFFCCF81E00E94B6074C
:1010800081E00E94A6070895882329F088E0E0E027
:10109000F6E0868304C088E0E0E0F6E085838AE637
:1010A0008A95F1F700C00895E0EAF6E0882369F038
:1010B00080E2818385838FEF93ECA9E0815090409B
:1010C000A040E1F700C00000089580E2868382839B
:1010D0000895E0EAF6E0882369F080E4818385835F
:1010E0008FEF93ECA9E081509040A040E1F700C061
:1010F0000000089580E4868382830895E0EAF6E0A4
:10110000882369F080E8818385838FEF93ECA9E0E1
:1011100081509040A040E1F700C0000003C080E88B
:1011200086838283AFE3BFE11197F1F700C000002F
:101130000895E0E0F6E0882321F080E28183858352
:10114000089580E2868382830895882329F080E1D0
:10115000E0E8F6E08683089580E1E0E8F6E0858344
:101160000895882329F082E0E0E4F6E0868308957C
:1011700082E0E0E4F6E08583089520E4E0E0F6E034
:1011800080FF02C0258301C0268322E0E0E2F6E072
:1011900081FF02C0258301C0268382FF05C084E051
:1011A000E0E2F6E08583089584E0E0E2F6E08683FD
:1011B0000895E0E4F6E090E1918328E3248B9583A1
:1011C0008165A0ECB8E08C9311961C92119780EA8F
:1011D00081830895E0E4F6E090E1918328E3248B95
:1011E00095838065862BA0ECB8E08C9311961C92B9
:1011F000119780EA81830895882329F080E1E0E453
:10120000F6E08683089580E1E0E4F6E085830895C2
:10121000E0E4F6E080E185831092C008868380EBED
:1012200082830895CF93DF93D82FD370C82FCC70CB
:10123000282F30E0A901457050704115510549F043
:1012400040916F50982F92959F70407F942B909370
:101250006F502A7030702115310539F090916F5020
:10126000807F9F70892B80936F5084E00E94D90803
:1012700080916F5080935F50DD2319F081E00E94D0
:10128000A508CC2319F081E00E94B10881E00E94FA
:10129000FC088FEFE0ECF8E083838091C20887FFC1
:1012A000FCCF8091C30880936B50000080915F5009
:1012B000E0ECF8E083838091C20887FFFCCF809147
:1012C000C30880936B5080E00E94FC08DD2319F076
:1012D00080E00E94A508CC2319F080E00E94B108AC
:1012E0000E940809DF91CF9108951F93CF93DF9358
:1012F0000F92CDB7DEB7182F80E069830E94D9081E
:1013000081E00E94FC0881E00E944408912F9095A2
:101310006981662331F08091594089238093594037
:1013200005C08091705089238093705080E4809331
:101330005F50662331F084E1809360508091594082
:1013400005C085E18093605080917050809361501A
:1013500080E090E0E0ECF8E0DC01A15ABF4A2C917B
:1013600023832091C20827FFFCCF2091C30820933C
:101370006B5001968330910579F780E00E94FC085C
:1013800080E00E9444080E9408090F90DF91CF91ED
:101390001F9108951F93CF93DF930F92CDB7DEB7C0
:1013A000182F80E069830E94D90881E00E94FC0820
:1013B00081E00E9444086981662331F080915940A0
:1013C000812B8093594005C080917050812B809370
:1013D000705080E480935F50662331F084E1809305
:1013E00060508091594005C085E1809360508091A4
:1013F00070508093615080E090E0E0ECF8E0DC0118
:10140000A15ABF4A2C9123832091C20827FFFCCF09
:101410002091C30820936B5001968330910579F792
:1014200080E00E94FC0880E00E9444080E940809B5
:101430000F90DF91CF911F910895CF93C62F21E098
:1014400030E002C0220F331F8A95E2F7822F61E05D
:101450000E94750980E4E0E0F6E0C0FF02C08583E9
:1014600001C0868382E0E0E2F6E0C1FF02C085832E
:1014700001C0868384E0E0E2F6E0C2FF02C085831B
:1014800001C086838AE08A95F1F700C08FEF61E0A2
:101490000E94CA09CF9108951F93CF93DF930F92B3
:1014A000CDB7DEB7182F80E069830E94D90881E0AC
:1014B0000E94FC0881E00E9444086981662339F09B
:1014C00080916E508095812380936E5006C08091EC
:1014D0009950809581238093995080E480935F5048
:1014E000662329F01092605080916E5005C081E013
:1014F000809360508091995080958093615080E0F6
:1015000090E0E0ECF8E0DC01A15ABF4A2C91238383
:101510002091C20827FFFCCF2091C30820936B5075
:1015200001968330910579F780E00E94FC0880E005
:101530000E9444080E9408090F90DF91CF911F91EB
:1015400008951F93CF93DF930F92CDB7DEB7182F77
:1015500080E069830E94D90881E00E94FC0881E054
:101560000E9444086981662331F080916E50812B7E
:1015700080936E5005C080919950812B8093995033
:1015800080E480935F50662329F010926050809130
:101590006E5005C081E08093605080919950809595
:1015A0008093615080E090E0E0ECF8E0DC01A15A2B
:1015B000BF4A2C9123832091C20827FFFCCF2091A2
:1015C000C30820936B5001968330910579F780E032
:1015D0000E94440880E00E94FC080E9408090F90C5
:1015E000DF91CF911F9108950F931F93CF93DF93B6
:1015F00000E016E0882309F444C08EEDD80111966E
:101600008C93C0E2D6E04EE04983E0E4F6E063E08C
:10161000618380E896E050E1DC0111965C9320EA5A
:1016200036E0D90111964C937EE9D80115967C934A
:1016300078E07D836583EC015D83D90115964C9339
:1016400010926F508FEF93ECA9E081509040A04032
:10165000E1F700C0000080E4828310927050109285
:1016600099501092594010926E508FEF61E00E9495
:10167000A10A8FEF61E00E94CA098FEF0E94120950
:1016800030C07EEDD80116967C93A0E2B6E04EE025
:1016900016964C93169720E436E063E0E9016E83DA
:1016A000C0E8D6E050E15E8380EA96E0FC01468324
:1016B000F801728312964C93D90112966C9312978B
:1016C0005A83EC014A8380E412968C93129710920D
:1016D0007050109299501092594010926E50109282
:1016E0006F50DF91CF911F910F9108952F923F92EC
:1016F0004F925F926F927F928F929F92AF92BF9222
:10170000CF92DF92EF92FF920F931F93CF93DF93CD
:10171000CDB7DEB72597CDBFDEBF1C016A837B83C3
:101720004C835D8381E00E94F40A80E092E00E9495
:10173000680700E012E080910102897EF801818350
:1017400080910402887F83608483809102028F7C71
:101750008283A0E2CA2EA2E0DA2E80912002807E4F
:1017600081608093200289E0F601818380910002EC
:1017700081608093000280E092E00E94060780E092
:1017800092E060E272E040E00E941007898380915D
:1017900000028E7F80930002F60111828091030285
:1017A0008F73F8018383809100028160809300022F
:1017B00080E092E00E940607809101028860F801B3
:1017C000818300E014E0882499245401412CB0E185
:1017D0005B2E612C712CCC24DD24760180912302B8
:1017E00080FFFCCF698180E292E00E94E206A0E0E7
:1017F000B0E0C80ED91EEA1EFB1E88169906AA067E
:10180000BB0610F44C015D0184159505A605B705CE
:1018100010F42C013D010150104001F780910102AC
:10182000877FE0E0F2E08183809100028260809314
:101830000002809100028E7F8093000280E00E946F
:10184000F40AC701B6012AE09695879577956795C2
:101850002A95D1F728EE33E040E050E00E94DE30D8
:10186000EFEFCE2EEFE0DE2EE12CF12CA70196015A
:101870000E942431C901C297F10180839183C5017F
:10188000B40128EE33E040E050E00E94DE30A701D2
:1018900096010E94243122533040EC81FD81208347
:1018A0003183C301B20128EE33E040E050E00E94F2
:1018B000DE30A70196010E94243122533040EA8194
:1018C000FB81208331832596CDBFDEBFDF91CF9191
:1018D0001F910F91FF90EF90DF90CF90BF90AF904E
:1018E0009F908F907F906F905F904F903F902F9040
:1018F00008952F923F924F925F926F927F928F92B4
:101900009F92AF92BF92CF92DF92EF92FF920F938E
:101910001F93CF93DF93CDB7DEB72597CDBFDEBF43
:101920001C016A837B834C835D8381E00E94F40AFF
:1019300084E060E00E94A10A84E060E00E94CA099D
:101940008FEF93ECA9E081509040A040E1F700C0F8
:10195000000080E492E00E94680700E412E08091B9
:101960004102897ED80111968C931197809144028F
:10197000887F836014968C931497809142028F7CA9
:1019800012968C9380E6C82E82E0D82E8091600259
:10199000807E81608093600289E0F601818380917E
:1019A000400281608093400280E492E00E9406073A
:1019B00080E492E060E672E040E00E9410078983D4
:1019C000809140028E7F80934002D60111961C9236
:1019D000809143028F73F80183838091400281607C
:1019E0008093400280E492E00E94060780914102C9
:1019F0008860D80111968C93119700E014E0882438
:101A000099245401412C20E1522E612C712CCC24BC
:101A1000DD2476018091630280FFFCCF698180E63E
:101A200092E00E94E206A0E0B0E0C80ED91EEA1ED5
:101A3000FB1E88169906AA06BB0610F44C015D0130
:101A400084159505A605B70510F42C013D0101503C
:101A5000104001F780914102877FE0E4F2E081834A
:101A6000809140028E7F8093400284E060E00E947B
:101A70004C0A80E00E94F40AC701B6011AE096956C
:101A80008795779567951A95D1F728EE33E040E072
:101A900050E00E94DE300FEFC02E0FE0D02EE12C80
:101AA000F12CA70196010E942431C901C297F101CE
:101AB00080839183C501B40128EE33E040E050E01B
:101AC0000E94DE30A70196010E942431225330404B
:101AD000AC81BD812D933C931197C301B20128EED7
:101AE00033E040E050E00E94DE30A70196010E9402
:101AF000243122533040EA81FB81208331832596B3
:101B0000CDBFDEBFDF91CF911F910F91FF90EF907E
:101B1000DF90CF90BF90AF909F908F907F906F900D
:101B20005F904F903F902F9008951F920F920FB6A5
:101B30000F920BB60F9211242F933F934F935F9305
:101B40006F937F938F939F93AF93BF93EF93FF9385
:101B500080915C4087FD06C080915C408F5F8093E0
:101B60005C4064C081E00E94FC0882E0E0EAF6E0AC
:101B7000868380E090E0E0ECF8E02AEA238330916D
:101B8000C20837FFFCCF3091C308DC01A15ABF4A1D
:101B90003C9301968330910589F782E0E0EAF6E014
:101BA000858380E00E94FC0880915F50E0916C503A
:101BB000F0916D50EE0FFF1FEE0FFF1FE05AFF4B2D
:101BC00087FF03C08FEF808301C01082E0916C50CB
:101BD000F0916D5080915F50EE0FFF1FEE0FFF1FD1
:101BE000E15AFF4B8083E0916C50F0916D508091F1
:101BF0006050EE0FFF1FEE0FFF1FE25AFF4B808376
:101C0000E0916C50F0916D50EE0FFF1FEE0FFF1F33
:101C1000E35AFF4B80916150808380916C5090918A
:101C20006D50019680936C5090936D50FF91EF91A1
:101C3000BF91AF919F918F917F916F915F914F91E4
:101C40003F912F910F900BBE0F900FBE0F901F90E2
:101C50001895882349F080E260E00E94A10A80E2A2
:101C600060E00E94CA09089580E260E00E944C0A88
:101C700008952F923F924F925F926F927F928F9230
:101C80009F92AF92BF92CF92DF92EF92FF920F930B
:101C90001F93CF93DF93CDB7DEB76197CDBFDEBF84
:101CA000F82ED62E4A875B872C873D870E871F87A5
:101CB00081E00E94F40A8F2D6E2D0E941D0A8D2D49
:101CC0000E9412098F2D8550833018F481E00E9404
:101CD000290E81E00E9499088F2D0E94BD0884E0A2
:101CE0000E94D90884E58093C008E0EAF6E081E02C
:101CF000828392E0908B8287818780E2E0E8F6E041
:101D00008183E0E4FAE083E2818325E130E02C196D
:101D1000310981E090E002C0880F991F2A95E2F70F
:101D2000019786A397A39695879582AF93AF8091ED
:101D3000400A807F81608093400A8091A200816088
:101D4000E0EAF0E08283789410926C5010926D502B
:101D500010925C4080916C5090916D5024E08030E6
:101D60009207C0F38091400A807F8093400A80915F
:101D7000A2008E7FE0EAF0E08283F8940E940809D6
:101D800080E00E94990880E00E94F40A10926C5052
:101D900010926D5031E038871D8250E85E836FEFFE
:101DA000698744244A9433243A9422242A948FEF56
:101DB000888B9FEF9F83AFEFA983BFE7BA831B8216
:101DC0001C82662455247724F0E0A0E010E000E0B7
:101DD000CC248824FF24E0E0EF2EA98B2E2F992419
:101DE0009A9418C1E0916C50F0916D50EE0FFF1F66
:101DF000EE0FFF1FE35AFF4B4081518162817381D7
:101E0000352FFB01DB01CA01BB0F880B982FDC01CA
:101E1000D82EB82EA82E4E0D91E04E1508F090E069
:101E20005989350F51E06989361708F050E0692F5C
:101E3000630F91E0631708F090E0592BE10F91E0F8
:101E4000E11708F090E0152F1E0F31E01E1708F083
:101E500030E0932BF00F31E0F01708F030E0092F5D
:101E60000F0F91E00F1708F090E0392BDC0C91E098
:101E7000DC1408F090E0C32ECD0C31E0CD1408F056
:101E800030E0932BB80C51E0B81408F050E0892EE4
:101E90008B0C91E08B1408F090E0592BAF0C31E0E3
:101EA000AF1408F030E0F52EFA0C91E0FA1408F0C7
:101EB00090E0392B280FE42E698B230FE0916C50B2
:101EC000F0916D50EE0FFF1FEE0FFF1FE35AFF4B17
:101ED00080819181A281B381682F392FAD01BB0F21
:101EE000880B982FDC0198899817FCF08917B9F5B1
:101EF0002916D8F0921599F53916B8F0931579F599
:101F0000491698F0941559F5951678F0591539F544
:101F1000AE81A41750F04A1711F5BD81B31728F010
:101F20003B17E9F4E885E617D0F4E0916C50F091A6
:101F30006D50EE0FFF1FEE0FFF1FE35AFF4B808126
:101F40009181A281B38188879D83AE839B2EBB0F35
:101F5000880B982FDC01482E382E282E888BE09194
:101F60006C50F0916D50EE0FFF1FEE0FFF1FE35A04
:101F7000FF4B80819181A281B381682F392FAD0100
:101F8000BB0F880B982FDC0187150CF17816C9F56B
:101F90007514E8F05714A9F55614C8F0651489F5BE
:101FA000FC816F16A0F0F61561F58B81581778F05B
:101FB000851739F59A81491750F0941711F5A981C1
:101FC0003A1728F0A317E9F4BF816B17D0F4E0911A
:101FD0006C50F0916D50EE0FFF1FEE0FFF1FE35A94
:101FE000FF4B80819181A281B3818F839983AA83E2
:101FF000BB83BB0F880B982FDC018C83682E582E77
:10200000782E80916C5090916D50019680936C5019
:1020100090936D5080916C5090916D50E4E08030C1
:102020009E0708F4DFCEA989E22F99862E2D3A2F3C
:10203000412F502F6C2D782D8F2D9E2FE7FF2BC019
:10204000215031E02E1508F030E08A2F8D5F91E0AD
:102050008A1708F090E0380F41E0381708F040E0A8
:10206000492B410F51E0411708F050E0500F61E05B
:10207000501708F060E06C0D71E06C1508F070E02E
:10208000780D81E0781508F080E08F0D91E08F15D4
:1020900008F090E09E0F0AE00E949526E0EAAE2E3E
:1020A000F5E2BF2EA6E2CA2EDD24EE24FF2400E0D6
:1020B00010E00E944E25AA24AA94BB24BA94BFE73C
:1020C000CB2E0E94FD2601E00E94212603E0A02ED7
:1020D000BB24CC2400E00E94FD2649015A01B094A3
:1020E000A09490948094811C911CA11CB11CAA8581
:1020F000BB858D929D92AD92BC92139728853D81B0
:102100004E815985642D732D822D9889E0EAAE2E7B
:10211000F5E2BF2EE6E2CE2EDD24EE24FF240E945F
:102120004E25AA24AA94BB24BA94FFE7CF2E0E947E
:10213000FD2601E00E94212603E0A02EBB24CC2432
:1021400000E00E94FD2649015A01B094A0949094A9
:102150008094811C911CA11CB11CEE85FF8580829E
:102160009182A282B3822F8139814A815B816C8105
:10217000762D852D972D0F2EF0EAAF2EF02D0F2EF8
:10218000F5E2BF2EF02D0F2EF6E2CF2EF02DDD243E
:10219000EE24FF240E944E25AA24AA94BB24BA94BC
:1021A0000F2EFFE7CF2EF02D0E94FD2601E00E94AA
:1021B000212603E0A02EBB24CC2400E00E94FD26B3
:1021C00049015A01B094A09490948094811C911C70
:1021D000A11CB11CAC85BD858D929D92AD92BC9227
:1021E00013976196CDBFDEBFDF91CF911F910F9105
:1021F000FF90EF90DF90CF90BF90AF909F908F9027
:102200007F906F905F904F903F902F9008956F92C6
:102210007F928F929F92AF92BF92CF92DF92EF9276
:10222000FF920F931F93CF93DF930F920F92CDB72F
:10223000DEB7182F3B0181E029834A830E94F40A0C
:1022400085E0F30160810E941D0A86E0F30161814F
:102250000E941D0A87E0F30162810E941D0A812FFE
:102260000E941209802F0E94290E84E00E94D90842
:1022700084E58093C00881E00E94990885E00E946F
:10228000BD08E0EAF6E082E0808B91E0928398E777
:1022900090938001E0E0F8E090EF9183E0A6F1A652
:1022A000C2A6D3A6A4A6B5A686A697A6298130E085
:1022B0002150304026A337A386838FEF87838091F8
:1022C0000008807F88608093000810925A40109226
:1022D0005B4010926C5010926D501092985010927A
:1022E000BE211092BD211092BC218091A200866077
:1022F000E0EAF0E08283789481E00E94FC0880E2CA
:10230000E0E8F6E08183E0E4FAE083E2818380E2C2
:1023100090E04A81042E02C0880F991F0A94E2F7C8
:1023200086A397A380E190E002C0880F991F4A9589
:10233000E2F782AF93AF8091400A807F8160809303
:10234000400A80916C5090916D50F5E583359F0760
:10235000C0F380910008807F809300088091400A3C
:10236000807F8093400A8091A200897FE0EAF0E0BC
:102370008283F89480E00E94FC080E94080980E0B3
:102380000E94990880E00E94F40A0F900F90DF915C
:10239000CF911F910F91FF90EF90DF90CF90BF9062
:1023A000AF909F908F907F906F9008958F929F92A3
:1023B000AF92BF92CF92DF92EF92FF920F931F9353
:1023C000CF93DF930F920F92CDB7DEB7182FF62E73
:1023D00081E02A8349830E94F40A812F4981642F76
:1023E0000E941D0A8F2D0E9412098E2D0E94290E17
:1023F00084E00E94D90884E58093C00881E00E94AF
:102400009908812F0E94BD08E0EAF6E082E0808B07
:1024100091E0928398E790938001E0E0F9E090EFFB
:102420009183C0A6D1A6A2A6B3A684A695A64A89E2
:102430005B8946A757A710E00150104006A317A3D9
:1024400086838FEF878380910009807F88608093E7
:10245000000910925A4010925B4010926C501092FA
:102460006D50109298501092BE211092BD21109282
:10247000BC218091A2008660E0EAF0E0828378943B
:1024800081E00E94FC0880E2E0E8F6E08183E0E47D
:10249000FAE083E2818380E290E02A81022E02C08A
:1024A000880F991F0A94E2F786A397A380E190E032
:1024B00002C0880F991F2A95E2F782AF93AF8091EF
:1024C000400A807F81608093400A80916C50909197
:1024D0006D5025E583359207C0F380910009807F18
:1024E000809300098091400A807F8093400A809108
:1024F000A200897FE0EAF0E08283F89480E00E9405
:10250000FC080E94080980E00E94990880E00E946F
:10251000F40A0F900F90DF91CF911F910F91FF90D0
:10252000EF90DF90CF90BF90AF909F908F900895E5
:1025300082E0E0EAF6E086838AEAE0ECF8E0838372
:102540008091C20887FFFCCFE0919850F0E0809125
:10255000C308E15AFF4A80838AEAE0ECF8E083830B
:102560008091C20887FFFCCFE0919850F0E0809105
:10257000C308E05AFF4A80838AEAE0ECF8E08383EC
:102580008091C20887FFFCCFE0919850F0E08091E5
:10259000C308EF59FF4A808382E0E0EAF6E08583D2
:1025A000809198508D5F8093985008951F920F925C
:1025B0000FB60F920BB60F9211242F933F934F93A8
:1025C0005F936F937F938F939F93AF93BF93EF939B
:1025D000FF930E94981210929850FF91EF91BF9133
:1025E000AF919F918F917F916F915F914F913F91AB
:1025F0002F910F900BBE0F900FBE0F901F9018954C
:102600001F920F920FB60F920BB60F9211242F93B9
:102610003F934F935F936F937F938F939F93AF936A
:10262000BF93EF93FF930E949812FF91EF91BF9198
:10263000AF919F918F917F916F915F914F913F915A
:102640002F910F900BBE0F900FBE0F901F901895FB
:102650001F920F920FB60F920BB60F9211242F9369
:102660003F934F935F936F937F938F939F93AF931A
:10267000BF93EF93FF930E949812FF91EF91BF9148
:10268000AF919F918F917F916F915F914F913F910A
:102690002F910F900BBE0F900FBE0F901F901895AB
:1026A0001F920F920FB60F920BB60F9211242F9319
:1026B0003F934F935F936F937F938F939F93AF93CA
:1026C000BF93EF93FF930E949812FF91EF91BF91F8
:1026D000AF919F918F917F916F915F914F913F91BA
:1026E0002F910F900BBE0F900FBE0F901F9018955B
:1026F0001F920F920FB60F920BB60F9211242F93C9
:102700003F934F935F936F937F938F939F93AF9379
:10271000BF93EF93FF930E94981210929850E0E2BB
:10272000F6E08091240681FF0BC08091040686FFAD
:1027300002C082E003C080E4E0E0F6E0878307C0E7
:1027400080E4A0E0B6E016968C9382E08583FF914A
:10275000EF91BF91AF919F918F917F916F915F9119
:102760004F913F912F910F900BBE0F900FBE0F9086
:102770001F9018951F920F920FB60F920BB60F92E3
:1027800011242F933F934F935F936F937F938F9376
:102790009F93AF93BF93EF93FF930E949812FF9183
:1027A000EF91BF91AF919F918F917F916F915F91C9
:1027B0004F913F912F910F900BBE0F900FBE0F9036
:1027C0001F9018951F920F920FB60F920BB60F9293
:1027D00011242F933F934F935F936F937F938F9326
:1027E0009F93AF93BF93EF93FF930E949812FF9133
:1027F000EF91BF91AF919F918F917F916F915F9179
:102800004F913F912F910F900BBE0F900FBE0F90E5
:102810001F9018951F920F920FB60F920BB60F9242
:1028200011242F933F934F935F936F937F938F93D5
:102830009F93AF93BF93EF93FF930E949812FF91E2
:10284000EF91BF91AF919F918F917F916F915F9128
:102850004F913F912F910F900BBE0F900FBE0F9095
:102860001F901895EF92FF921F93CF93DF93CDB7F0
:10287000DEB72897CDBFDEBF1D821E821F8218865D
:1028800080916C5090916D50019680936C50909314
:102890006D5080ED8093C00820E030E01FEFF9011B
:1028A000E15AFF4A808187FF02C01C8301C01C825D
:1028B0004FE5E42E40E5F42E80818B83F901E05A48
:1028C000FF4A80818A83F901EF59FF4A8081898319
:1028D0008D819E81AF81B88549815A816B817C81D0
:1028E000840F951FA61FB71F8D839E83AF83B88764
:1028F0002D5F3F4F2C30310591F66D817E818F81A8
:10290000988524E030E040E050E00E9446312D837D
:102910003E834F8358878D81F70182838E81818327
:102920008F8180935F5080E1E0E4F6E0868388E069
:10293000E0E2F6E08683000086E0E0ECF8E08383E6
:102940008091C20887FFFCCF8091C30880936B50B1
:10295000E0E2F6E088E0858300008683000082E004
:10296000E0ECF8E083838091C20887FFFCCF809180
:10297000C30880936B5080915B40E0ECF8E0838368
:102980008091C20887FFFCCF8091C30880936B5071
:1029900080915A40E0ECF8E083838091C20887FF81
:1029A000FCCF8091C30880936B5080915F50E0EC26
:1029B000F8E083838091C20887FFFCCF8091C30831
:1029C00080936B5080916050E0ECF8E083838091BD
:1029D000C20887FFFCCF8091C30880936B50809121
:1029E0006150E0ECF8E083838091C20887FFFCCF60
:1029F0008091C30880936B5088E0E0E2F6E0858325
:102A0000E0E4F6E080E1858394E59093C008868356
:102A100080915A4090915B40039680935A409093E6
:102A20005B409091BC2180915F50890F8093BC21C5
:102A30009091BD2180916050890F8093BD2190912C
:102A4000BE2180916150890F8093BE212896CDBF11
:102A5000DEBFDF91CF911F91FF90EF9008951F92FD
:102A60000F920FB60F920BB60F9211242F933F9334
:102A70004F935F936F937F938F939F93AF93BF9386
:102A8000EF93FF930E943214FF91EF91BF91AF91AA
:102A90009F918F917F916F915F914F913F912F9176
:102AA0000F900BBE0F900FBE0F901F9018951F92A6
:102AB0000F920FB60F920BB60F9211242F933F93E4
:102AC0004F935F936F937F938F939F93AF93BF9336
:102AD000EF93FF930E943214FF91EF91BF91AF915A
:102AE0009F918F917F916F915F914F913F912F9126
:102AF0000F900BBE0F900FBE0F901F901895CF93A5
:102B0000DF93EC0180E00E94D90880ED8093C0083B
:102B100081E00E94FC0888E0E0E2F6E086830000A5
:102B200083E0E0ECF8E083838091C20887FFFCCF6C
:102B30008091C30880936B5080915B40E0ECF8E09B
:102B400083838091C20887FFFCCF8091C308809364
:102B50006B5080915A40E0ECF8E083838091C2088A
:102B600087FFFCCF8091C30880936B5080E090E09A
:102B7000A0ECB8E02AEA0EC013962C93139730917C
:102B8000C20837FFFCCF3091C308FC01E853FC4D6D
:102B9000308301968C179D0779F788E0E0E2F6E034
:102BA000858380E00E94FC080E940809DF91CF9194
:102BB00008952F923F924F925F926F927F928F92E1
:102BC0009F92AF92BF92CF92DF92EF92FF920F93BC
:102BD0001F93CF93DF9310928350109284501092E2
:102BE0008550109286501092875010928850109203
:102BF000895010928A50EBE7F0E510927B501182D9
:102C0000128213821482158216821782DF011897AE
:102C10001092735011961C92119712961C92129753
:102C200013961C92139714961C92149715961C9247
:102C3000159716961C92169717961C921797109236
:102C4000BB211092BA211092B92110925A401092D1
:102C50005B4059E0452E512C63E0262E312CEE24AA
:102C6000EA9470E1672E712C6A0E7B1E4F015D01A4
:102C700081E79CE10E947F1580915A4090915B40D2
:102C80008F58934E80935A4090935B40CC24DD2420
:102C9000C601B1010E94FD30FC01E754FE4D2081C8
:102CA000D601A853BC4D3C91230F2083E0915D5089
:102CB000F0915E500097C1F48C91108211821282C3
:102CC00087FF06C0E382E482E582E682E78205C0F0
:102CD000138214821582168217828C91E0915D50C6
:102CE000F0915E50828308C08130910519F48C9177
:102CF000818302C08C918083C60169E070E00E94EC
:102D0000FD308230910509F069C070917350609177
:102D10007450509175504091765030917750209179
:102D2000785090917950F0907A50E0915D50F09108
:102D30005E5080811181D281C381B481A5810681D9
:102D4000E781870FF1E0871708F0F0E0160F71E0D8
:102D5000161708F070E0F10F61E0F11708F060E07D
:102D6000762BD50F61E0D51708F060E07D0F51E0BC
:102D70007D1708F050E0652BC40F51E0C41708F030
:102D800050E06C0F41E06C1708F040E0542BB30F9B
:102D900041E0B31708F040E05B0F31E05B1708F04B
:102DA00030E0432BA20F31E0A21708F030E04A0FC9
:102DB00021E04A1708F020E0322B090F21E0091723
:102DC00008F020E0300F91E0301708F090E0922BEF
:102DD000FE0E9F0D80937350D501D9C085309105AB
:102DE00009F069C070917B5060917C5050917D508A
:102DF00040917E5030917F50209180509091815031
:102E0000F0908250E0915D50F0915E508081118190
:102E1000D281C381B481A5810681E781870FF1E06A
:102E2000871708F0F0E0160F71E0161708F070E051
:102E3000F10F61E0F11708F060E0762BD50F61E04B
:102E4000D51708F060E07D0F51E07D1708F050E0E5
:102E5000652BC40F51E0C41708F050E06C0F41E03F
:102E60006C1708F040E0542BB30F41E0B31708F0A3
:102E700040E05B0F31E05B1708F030E0432BA20F1E
:102E800031E0A21708F030E04A0F21E04A1708F0BD
:102E900020E0322B090F21E0091708F020E0300F65
:102EA00091E0301708F090E0922BFE0E9F0D80937A
:102EB0007B50D4016CC08830910509F07DC07091C1
:102EC000835060918450509185504091865030914C
:102ED00087502091885090918950F0908A50E091CD
:102EE0005D50F0915E5080811181D281C381B481A7
:102EF000A5810681E781870FF1E0871708F0F0E0F0
:102F0000160F71E0161708F070E0F10F61E0F1178D
:102F100008F060E0762BD50F61E0D51708F060E08F
:102F20007D0F51E07D1708F050E0652BC40F51E094
:102F3000C41708F050E06C0F41E06C1708F040E057
:102F4000542BB30F41E0B31708F040E05B0F31E0C2
:102F50005B1708F030E0432BA20F31E0A21708F016
:102F600030E04A0F21E04A1708F020E0322B090F29
:102F700021E0091708F020E0300F91E0301708F049
:102F800090E0922BFE0E9F0D80938350D3011196FB
:102F9000FC93119712967C93129713966C93139748
:102FA00014965C93149715964C93159716963C932C
:102FB000169717969C9317970894C11CD11CB1E7DC
:102FC000CB16BCE1DB0609F063CE0894410851083A
:102FD0004114510409F04CCEDF91CF911F910F9114
:102FE000FF90EF90DF90CF90BF90AF909F908F9029
:102FF0007F906F905F904F903F902F9008958F92A9
:103000009F92AF92BF92CF92DF92EF920F930F9267
:103010000F9280E190E0EDB7FEB78183928387E065
:1030200068EC40E020E005E1EE24E394ADE0CA2E38
:10303000D12CBEE0AB2EB12C3FE0832E912C0E9410
:10304000D6110F900F9081E00E94F40A8FEC97E068
:103050000197F1F700C000000E94D91580E00E949E
:10306000F40A0F91EF90DF90CF90BF90AF909F90B8
:103070008F9008958F929F92AF92BF92CF92DF92DE
:10308000EF92FF920F93CF93DF9300D0CDB7DEB7CF
:1030900019821A821B828EECBE016F5F7F4F40E067
:1030A00025E101E05DE0E52EF12CEEE0CE2ED12C05
:1030B000FFE0AF2EB12CA0E18A2E912C0E940711C7
:1030C00081E00E94F40A8FEC97E00197F1F700C0CD
:1030D00000000E94D91580E00E94F40A2396CDBF1B
:1030E000DEBFDF91CF910F91FF90EF90DF90CF90F7
:1030F000BF90AF909F908F9008950F931F93CF93A1
:10310000DF9310925A4010925B4010926C501092D4
:103110006D501092BE211092BD211092BC2181E011
:103120000E94F40A84E00E94D90880ED8093C008D0
:103130008DE080935F5083EF8093605087E58093AC
:10314000615000E416E030E1A0E2B6E028E060EC77
:1031500078E056E0E0ECF8E042E084C0E8013E832D
:1031600016962C9316970000EB015B838091C208A2
:1031700087FFFCCF8091C30880936B5015962C93EA
:103180001597000016962C931697000043838091A4
:10319000C20887FFFCCF8091C30880936B50809159
:1031A0005B4083838091C20887FFFCCF8091C30876
:1031B00080936B5080915A4083838091C20887FF2F
:1031C000FCCF8091C30880936B5080915F508383C4
:1031D0008091C20887FFFCCF8091C30880936B5019
:1031E0008091605083838091C20887FFFCCF8091DB
:1031F000C30880936B508091615083838091C20893
:1032000087FFFCCF8091C30880936B5015962C9359
:103210001597E8013D8380915A4090915B40039659
:1032200080935A4090935B409091BC2180915F5075
:10323000890F8093BC219091BD2180916050890FAE
:103240008093BD219091BE2180916150890F809320
:10325000BE2180916C5090916D50019680936C507E
:1032600090936D5080916C5090916D50D5E5833561
:103270009D0708F473CF0E94080980E00E94F40AB9
:10328000DF91CF911F910F9108950E947D1881E0E9
:103290000E94F40A8FEC97E00197F1F700C000005C
:1032A0000E94D91580E00E94F40A08950895E0EC88
:1032B000F8E083838091C20887FFFCCF8091C30828
:1032C0000895AF92BF92CF92DF92EF92FF920F9349
:1032D0001F93CF93DF93CDB7DEB72597CDBFDEBF6A
:1032E000780180642D834C835B836A8379830E9499
:1032F00057197981872F0E9457196A81862F0E945A
:1033000057195B81852F0E9457194C81842F0E9489
:1033100057192D81822F0E94571900E010E0BDE05F
:10332000CB2ED12C18C0C801B6010E9411315C010E
:103330008FEF0E945719F501E557FF4A808380817E
:103340008F3F39F08081EBE8F0E5818380918C50EC
:1033500006C00F5F1F4F0E151F052CF38FEF25962C
:10336000CDBFDEBFDF91CF911F910F91FF90EF9006
:10337000DF90CF90BF90AF9008956F927F928F9221
:103380009F92AF92BF92CF92DF92EF92FF920F93F4
:103390001F93CF93DF936B017C01942E852E39010F
:1033A00080E00E94D90881E00E94FC08A12C12E074
:1033B000B12EA618B70880E0A81682E0B80611F46E
:1033C000AA24BB24CBE0D0E003C0219709F4FFCFAF
:1033D00088E1B701A6012FEF08E010E00E94611913
:1033E000882399F78FEF0E94571980938B508EEFA7
:1033F0000E945719C92CD82C00E010E0DDE08D2E7A
:10340000912C10C0C801B4010E941131EC01F601E9
:1034100081916F010E945719FE01E557FF4A808391
:103420000F5F1F4F061517056CF300E010E0CDE0AD
:10343000CC2ED12C0DC0C801B6010E941131EC0177
:1034400080E00E945719C557DF4A88830F5F1F4FDE
:103450000A151B0584F38FEF80938B50C0E0D0E0FA
:103460008FEF0E94571980938B502196C130D10560
:10347000B9F380918B508F3F99F380918B5005C0A9
:103480008FEF0E94571980938B5080918B508F3F04
:10349000B9F780E00E94FC080E940809DF91CF91F3
:1034A0001F910F91FF90EF90DF90CF90BF90AF9062
:1034B0009F908F907F906F900895AF92BF92CF9220
:1034C000DF92EF92FF920F931F93CF93DF936B01E5
:1034D0007C01B42EA52E80E00E94D90881E00E94D4
:1034E000FC08CBE0D0E003C0219709F4FFCF81E1D5
:1034F000B701A6012FEF08E010E00E9461198823B0
:1035000099F705C08FEF0E94571980938B508091D7
:103510008B508E3FB9F70B2D1A2DC0E0D0E08FEF06
:103520000E945719F80181938F012196F2E0C03073
:10353000DF07A9F71092975005C08FEF0E94571927
:1035400080939750809197508F3FB9F780E00E9409
:10355000FC080E940809DF91CF911F910F91FF9005
:10356000EF90DF90CF90BF90AF90089581E00E94E0
:10357000F40A81E00E9454088FEF93ECA9E0815097
:103580009040A040E1F700C0000088E060E00E94A9
:10359000A10A88E060E00E94CA098AEA96EEA6E9DC
:1035A000B1E081509040A040B040D9F7000088E0E1
:1035B00060E00E9475098AEA96EEA6E9B1E08150C2
:1035C0009040A040B040D9F70000E3CF0F931F9385
:1035D000CF93DF9381E00E94F40A81E00E945408B7
:1035E0008FEF93ECA9E081509040A040E1F700C03C
:1035F000000088E060E00E94A10A88E060E00E948C
:10360000CA0980E063E00E94EA0881E00E94FC08A9
:103610008AE090E0E0ECF8E02FEF23833091C208DD
:1036200037FFFCCF3091C308309397500197A9F72B
:1036300080E00E94FC080E94080988E060E00E9487
:10364000750980E063E00E94EA0881E00E94FC08BE
:10365000CBE0D0E003C0219709F4FFCF80E040E049
:1036600050E0BA0125E908E010E00E9461198130BC
:1036700091F78FEF93ECA9E081509040A040E1F7E3
:1036800000C00000CBE0D0E003C0219709F4FFCFD9
:1036900088E04AEA51E060E070E027E808E010E0E6
:1036A0000E946119813089F7C2E0D0E08FEF0E945B
:1036B0005719FE01E557FF4A80832196C630D10590
:1036C000A9F780918F508130A1F48091905011C062
:1036D00087E340E050E0BA012FEF08E010E00E94DD
:1036E000611981E040E050E060E070E42FEF0E945B
:1036F000611980918C50882359F7CBE0D0E003C04A
:10370000219709F4FFCF8AE340E050E0BA012FEFA0
:1037100008E010E00E946119882391F7C0E0D0E032
:103720008FEF0E945719FE01E557FF4A80832196CB
:10373000C430D105A9F780918B5080E00E94FC082D
:103740000E940809DF91CF911F910F9108952F9248
:103750003F924F925F926F927F928F929F92AF9221
:10376000BF92CF92DF92EF92FF920F931F93CF936E
:10377000DF9300D00F92CDB7DEB76B017C015A0109
:10378000890180E00E94D90881E00E94FC0820E0C5
:1037900032E0C801B9010E9411313B014901881A88
:1037A000990A80E0881682E0980621F00894611C4E
:1037B000711C02C08824992489E1B701A6012FEF6A
:1037C00008E010E00E9461196501AA24BB24F301FE
:1037D0003197E983FA83412C82E0582E4818590822
:1037E0009CE0292E312C76C08FEF0E9457198093D0
:1037F0008C508CEF0E94571980938C5089819A814C
:10380000A816B906C1F0EE24FF2430C0C801B101EA
:103810000E9411319C01F70181917F012B833C8330
:103820000E9457192B813C81F901E557FF4A80839B
:103830000F5F1F4F03C0760100E010E0041515056F
:103840002CF300E010E00EC0C801B1010E9411315C
:103850007C0180E00E945719F701E557FF4A8083F9
:103860000F5F1F4F081519057CF317C0C701B10181
:103870000E9411318C01F601EE0DFF1D80810E9426
:103880005719F801E557FF4A80830894E11CF11CA1
:10389000F0E0EF16F2E0FF0649F78FEF0E945719AC
:1038A00080938C508FEF0E94571980938C50109208
:1038B0008C5005C08FEF0E94571980938C508091D7
:1038C0008C508F3FB9F70894A11CB11C80E092E0A6
:1038D000C80ED91EA614B7040CF486CF04E010E07D
:1038E0008FEF0E94571980938C5001501040C1F700
:1038F0008DEF0E94571980938C5004E010E08FEFF9
:103900000E94571980938C5001501040C1F71092BB
:103910008C5005C08FEF0E94571980938C50809176
:103920008C508F3FB9F780E00E94FC080E94080984
:103930002496CDBFDEBFDF91CF911F910F91FF90F5
:10394000EF90DF90CF90BF90AF909F908F907F903F
:103950006F905F904F903F902F900895AF92BF92DD
:10396000CF92DF92EF92FF920F931F93CF93DF934B
:103970006B017C01EA01590180E00E94D90881E0D5
:103980000E94FC088FEF80938C5008C082E1B70141
:10399000A6012FEF08E010E00E94611980918C5081
:1039A0008823A1F78E01EE24FF24CC24CA9429C0D9
:1039B000C0928C5005C08FEF0E94571980938C5095
:1039C00080918C508E3FB9F7C0E0D0E08FEF0E941D
:1039D0005719F801EC0FFD1F8083219682E0C0305B
:1039E000D807A1F78FEF0E94571980938B508FEF64
:1039F0000E94571980938C500894E11CF11C0050D0
:103A00001E4FEA14FB04A4F28CE040E050E0BA013F
:103A10002FEF08E010E00E9461198FEF0E94571904
:103A200080938B5010928C5005C08FEF0E945719D5
:103A300080938C5080918C508F3FB9F780E00E942A
:103A4000FC080E940809DF91CF911F910F91FF9010
:103A5000EF90DF90CF90BF90AF90089588E060E046
:103A60000E944C0A88E060E00E94750980E00E9494
:103A7000D90881E00E94FC088FEF0E94571980E06E
:103A80000E94FC080E94080980E00E94F40A80E07D
:103A90000E945408089580E090E0FC01E853FC4D3A
:103AA0008083019688319105C1F764E170E080E080
:103AB00090E048EC53E228E130E00E94BD1980E03C
:103AC00090E0FC01E853FC4D10820196883191058D
:103AD000C1F764E170E080E090E048EC53E20E94BE
:103AE0005D1A20E030E0E4E6F0E0C901BF010E9489
:103AF0001131D901A853BC4D8C932F5F3F4F84E007
:103B0000223E380791F760E570E080E090E048ECF5
:103B100053E222EE34E00E94A71B80E090E0FC011B
:103B2000E853FC4D1082019624E0823E9207B9F7DB
:103B300060E570E080E090E048EC53E223E030E0A4
:103B40000E94AE1C089580E090E0FC01E853FC4D1B
:103B50008083019688319105C1F782E190E20E944D
:103B600025238093534080E090E0FC01E853FC4D16
:103B70001082019688319105C1F780E063E070E220
:103B80000E94B722809353400895882329F080E152
:103B9000E0E6F6E08683089580E1E0E6F6E08583DE
:103BA0000895E0ECF9E083838091C20987FFFCCFA0
:103BB0008091C30908950E94390181E090E00E943C
:103BC00008040000FECFCF92DF92EF92FF920F9396
:103BD0001F932091474030914840C090C423D0901B
:103BE000C523E090C623F090C72362507040804008
:103BF000904040E050E00E94DE308B019C010C0DB3
:103C00001D1D2E1D3F1DB801C9011F910F91FF9071
:103C1000EF90DF90CF9008953F924F925F926F9216
:103C20007F928F929F92AF92BF92CF92DF92EF924C
:103C3000FF920F931F93CF93DF934B015C01342EC0
:103C400028013901C0904D40D0904E4042E0880C90
:103C5000991CAA1CBB1C4A95D1F720913D4030917C
:103C60003E40EE24FF248091494090914A40A0912B
:103C70004B40B0914C40C80ED91EEA1EFB1E40E0DE
:103C800050E0C501B4010E942431C20ED31EE41ECF
:103C9000F51E20913D4030913E4040E050E0C5018E
:103CA000B4010E942431DC01CB01EC01C701B60153
:103CB00040EC51E20E945D1AC054DE4D332031F4D5
:103CC000088119812A813B813F700FC04882598247
:103CD0006A827B82C701B60140EC51E220E032E00B
:103CE0000E94BD1900E010E09801B801C901DF9100
:103CF000CF911F910F91FF90EF90DF90CF90BF90E9
:103D0000AF909F908F907F906F905F904F903F907B
:103D10000895CF92DF92EF92FF920F931F93CF936C
:103D2000082FC62F69017A018091494090914A403D
:103D3000A0914B40B0914C400196A11DB11DBC011A
:103D4000CD0140EC51E20E945D1A8091C02190911A
:103D5000C121A091C221B091C321823522E59207F1
:103D600021E6A20721E4B20709F05DC08091A423F7
:103D70009091A523A091A623B091A723823722E793
:103D8000920721E4A20721E6B20709F04CC0809116
:103D9000BC239091BD23A091BE23B091BF2380305E
:103DA00020E0920725E5A2072AEAB207E1F5CC2335
:103DB000A1F4013049F40091A8231091A923209186
:103DC000AA233091AB2332C00091AC231091AD23D4
:103DD0002091AE233091AF2329C0013049F4C09225
:103DE000A823D092A923E092AA23F092AB2308C083
:103DF000C092AC23D092AD23E092AE23F092AF23D9
:103E00008091494090914A40A0914B40B0914C40E4
:103E10000196A11DB11DBC01CD0140EC51E220E095
:103E200032E00E94BD190FEF1FEF9801B801C901E0
:103E3000CF911F910F91FF90EF90DF90CF90089559
:103E4000EF92FF920F931F93CF93DF93109249400D
:103E500010924A4010924B4010924C4060E070E04B
:103E6000CB0140EC51E20E945D1A8091C021893E55
:103E700031F18B3E21F18091BE239091BF232AEA3C
:103E80008535920709F0B6C060918623709187232B
:103E900080918823909189236093494070934A4090
:103EA00080934B4090934C4040EC51E20E945D1A4D
:103EB0008091C021893E19F08B3E09F09BC0809112
:103EC000CB219091CC2180933D4090933E408091B6
:103ED000CD2190E08093474090934840E090CE21E0
:103EE000F090CF21E0924D40F0924E408091EC2135
:103EF0009091ED21A091EE21B091EF21809343406C
:103F000090934440A0934540B0934640C0914D40AB
:103F1000D0914E406091D02170E080E090E02091FF
:103F2000E4213091E5214091E6215091E7210E9462
:103F3000DE308B019C01CE01A0E0B0E04091DC219D
:103F40005091DD216091DE217091DF21840F951F5A
:103F5000A61FB71F800F911FA21FB31F8093C423FA
:103F60009093C523A093C623B093C723E091474005
:103F7000F0914840A70160E070E08091E0219091CD
:103F8000E121A091E221B091E321841B950BA60BC6
:103F9000B70B801B910BA20BB30B9F0140E050E0CD
:103FA000BC01CD010E94243120933F40309340401A
:103FB000409341405093424081E060E020E030E097
:103FC000A9010E94891EAB01BC0180913F409091E4
:103FD0004040A0914140B091424084179507A60708
:103FE000B70718F41092544003C081E08093544006
:103FF00080E001C081E0DF91CF911F910F91FF9090
:10400000EF900895CF93DF93CDB7DEB72B97CDBF59
:10401000DEBFBC01FC0150E021912E3221F05F5F38
:104020005C30D1F751C0593008F04EC09E012F5F6F
:104030003F4FD901FC0102C041914D934E2F481BC7
:104040004517D0F3452FA0E208C0E1E0F0E0EC0F07
:10405000FD1FE40FF11DA0834F5F4830B1F75F5F94
:10406000B0E2FC01E50FF11DA081AA2349F0E1E0D7
:10407000F0E0EC0FFD1FE40FF11DA0835F5F0AC0AD
:10408000E1E0F0E0EC0FFD1FE40FF11DB0834F5FA6
:104090004B30B0F34F5F4B3020F3F9018BE0908150
:1040A000492F41564A3110F49052908381503196F5
:1040B0008823A9F78BE0F90191919F01FB0191936E
:1040C000BF018150C1F701C081E02B96CDBFDEBF9B
:1040D000DF91CF9108954F925F926F927F928F926E
:1040E0009F92AF92BF92CF92DF92EF92FF92CF93C7
:1040F000DF9300D00F92CDB7DEB74B015C0180E8B3
:104100009FEFAFEFBFEF88229922AA22BB2244245F
:1041100055243201D501C401E2E0880F991FAA1F7E
:10412000BB1FEA95D1F789839A83AB83BC8356C0C2
:10413000C0904D40D0904E4020913D4030913E4047
:10414000EE24FF248091494090914A40A0914B4039
:10415000B0914C40C80ED91EEA1EFB1E69817A81BF
:104160008B819C81640D751D861D971D40E050E07C
:104170000E942431C20ED31EE41EF51EC701B601F3
:1041800040EC51E20E945D1A20E0E22FF0E0EE0FD9
:10419000FF1FEE0FFF1FE054FE4D80819181A28131
:1041A000B381BF700097A105B10529F4820E911C5F
:1041B000A11CB11C24C02F5F203839F780E890E0A3
:1041C000A0E0B0E0880E991EAA1EBB1E80E092E01F
:1041D000A0E0B0E0480E591E6A1E7B1E80913F4051
:1041E00090914040A0914140B0914240881699067C
:1041F000AA06BB0608F49CCF882499245401B40174
:10420000C5012496CDBFDEBFDF91CF91FF90EF9027
:10421000DF90CF90BF90AF909F908F907F906F90E6
:104220005F904F900895CF92DF92EF92FF92CF93DD
:10423000C82FDB01CA019170A070B07029E076959B
:104240006795579547952A95D1F70097A105B10530
:1042500021F04F5F5F4F6F4F7F4FDB01CA018770C7
:104260009070A070B0706A017B01F3E0F694E7945F
:10427000D794C794FA95D1F70097A105B10529F015
:104280000894C11CD11CE11CF11C8091544088236E
:10429000F1F081E060E020E030E0A9010E94891E99
:1042A000DC01CB01CC2329F4C80ED91EEA1EFB1E6B
:1042B00008C09C01AD012C193D094E095F09690137
:1042C0007A0181E061E0A70196010E94891ECF91E9
:1042D000FF90EF90DF90CF9008952F923F924F92F2
:1042E0005F926F927F928F929F92AF92BF92CF9286
:1042F000DF92EF92FF920F931F93CF93DF9300D043
:1043000000D0CDB7DEB7382E262E7D83C090434037
:10431000D0904440E0904540F090464081508E83DC
:10432000C701B6010E94E31D69837A838B839C8356
:10433000882499245401CFC049805A806B807C80A6
:10434000480C591C6A1C7B1CC301B20140EC51E2B1
:104350000E945D1A20E030E0B1C0B90160547E4D8A
:10436000FB018081882309F4DBC0853E09F4A4C0E9
:1043700083858F3009F4A0C0FE81F23008F09CC024
:10438000A22DBD818BE0A901FB0121919D912917EF
:1043900009F091C08150C9F79A018B01FB01848813
:1043A0009588428D538DF1E03F16A1F5409255401E
:1043B000509256406092574070925840C901A0E018
:1043C000B0E08093C0239093C123A093C223B09305
:1043D000C323AA24BB2454019924882460E070E0FC
:1043E000842A952AA62AB72A80924F40909250405C
:1043F000A0925140B0925240F801848D958DA68DC7
:10440000B78D8093394090933A40A0933B40B0934E
:104410003C4088C0AA24BB24540199248824CA01A2
:10442000A0E0B0E0882A992AAA2ABB2A85EEFB01DF
:104430008083C301B20140EC51E220E032E00E94EF
:10444000BD19F801448D558D668D778D80E00E94F1
:10445000132182E060E020E030E0A9010E94891E83
:10446000DC01CB0188169906AA06BB0630F482E06F
:1044700061E0A50194010E94891EC501B40140E0DC
:1044800000E010E098010E940C1E6B017C01C50148
:10449000B40141E000E010E098010E940C1EF7EF2B
:1044A000CF16FFEFDF06FFEFEF06FFE0FF06C0F5D8
:1044B00046015701E2CF9A01205E3F4F80913D4077
:1044C00090913E402817390708F447CF0894811C83
:1044D000911CA11CB11C8091474090914840A0E0E4
:1044E000B0E088169906AA06BB0608F425CFC701D6
:1044F000B60140E000E010E098010E940C1E6B0144
:104500007C0187EFC8168FEFD8068FEFE8068FE0A3
:10451000F80630F4C114D104E104F10409F000CF2D
:1045200000E010E0C8012696CDBFDEBFDF91CF913D
:104530001F910F91FF90EF90DF90CF90BF90AF90C1
:104540009F908F907F906F905F904F903F902F90B3
:104550000895CF93DF93EC010E940220882321F479
:1045600082E0BE010E946D21DF91CF9108958F926C
:104570009F92AF92BF92CF92DF92EF92FF920F93F2
:104580001F93CF93DF93182FEB01CB010E940220E2
:10459000882309F04AC081E0BE010E946D21FC0120
:1045A000009729F481E0112309F442C03CC0113086
:1045B000F1F1C488D588EE24FF247601DD24CC24D3
:1045C000828D938DA0E0B0E0C82AD92AEA2AFB2A7E
:1045D000C701B6010E94E31D4B015C01C0E00BC0A6
:1045E000C501B4016C0F711D811D911D48EC53E292
:1045F0000E945D1ACF5F80914740909148402C2FD8
:1046000030E02817390760F3C701B60140E000E049
:1046100010E098010E940C1E6B017C016115710570
:1046200081059105A9F680E003C082E001C081E028
:10463000DF91CF911F910F91FF90EF90DF90CF907E
:10464000BF90AF909F908F9008952F923F924F927E
:104650005F926F927F928F929F92AF92BF92CF9212
:10466000DF92EF92FF920F931F93CF93DF93CDB71B
:10467000DEB72797CDBFDEBF8D839E8381E06D813E
:104680007E810E94B722813009F06BC0C0904F40FC
:10469000D0905040E0905140F090524088249924AE
:1046A0005401C701B60140E000E010E098010E940B
:1046B0000C1EDC01CB018F3F2FEF92072FEFA207DB
:1046C0002FE0B20741F00894811C911CA11CB11C81
:1046D0006C017D01E6CF20914740309148406091C8
:1046E0003D4070913E4000913D4010913E4080E041
:1046F00090E040E050E00E94DE30A50194010E946D
:10470000DE30AB01BC018091394090913A40A091DC
:104710003B40B0913C40841B950BA60BB70B980116
:1047200040E050E0BC01CD010E942431822EB60150
:10473000C7010E94E31DDC01CB019924880E991E5C
:10474000B40180E090E040EC51E20E945D1A80915B
:104750003D4090913E401B821C8219821A8211E0DA
:1047600042C0823009F47DC182E060E020E030E0A8
:10477000A9010E94891E00913F4010914040209164
:10478000414030914240061717072807390740F487
:1047900060914340709144408091454090914640E3
:1047A0000E946B206B017C016115710581059105EB
:1047B00009F459C141E00FEF1FEF2FEF3FE00E94D6
:1047C0000C1EE982FA82CB82DC8210923940109270
:1047D0003A4010923B4010923C40C701B6010E9403
:1047E000E31D4B0110E08091394090913A40A09137
:1047F0003B40B0913C4080509E4FAF4FBF4F8093A5
:10480000394090933A40A0933B40B0933C40B40170
:1048100080E090E048EC53E220E032E00E94BD19D5
:10482000809147409091484082E061E0A701960165
:104830000E94891E1123F1F16091554070915640FC
:10484000809157409091584040EC51E20E945D1A8F
:10485000E091C023F091C123E054FE4D128A138AE7
:104860008091394090913A40A0913B40B0913C40BA
:10487000448D558D668D778D6C017D01C41AD50AE6
:10488000E60AF70A848F958FA68FB78F60915540FF
:1048900070915640809157409091584040EC51E2C1
:1048A00020E032E00E94BD1981E0B701A6010E941C
:1048B0001321DBC08090434090904440A09045403D
:1048C000B090464080E0E0E23E2E282E02C0460135
:1048D0005701C501B4010E94E31D2B013C0180E09A
:1048E0002F82282E7BC073016201C20CD11CE11CF7
:1048F000F11CC701B60140EC51E20E945D1A00E2D2
:1049000010E04F815FC0442309F0AFC0B80160568A
:104910007E4DC80180549E4DFC01B097208122231A
:1049200021F0253E09F04CC001C040E0A42FB0E0CA
:104930002D813E812A0F3B1FF9012081FB01EA0FE7
:10494000FB1F20834F5F4B3089F7FC017597308246
:10495000FC0174971082FC0173971082FC013E9752
:1049600010821182FC013C9729813A812083318396
:10497000FC013697AB81BC81A083B183FC013497E5
:104980008091394090913A40A0913B40B0913C4099
:1049900080839183A283B383C701B60140EC51E2C7
:1049A00020E032E00E94BD194091394050913A40D8
:1049B00060913B4070913C4081E00E94132141E0B6
:1049C000005E1F4F20913D4030913E40C8018097CE
:1049D0008217930708F497CF4F8323942091474081
:1049E00030914840822D90E08217930708F47BCFE6
:1049F0002F80C501B40140E000E010E098010E9462
:104A00000C1E6B017C01673FBFEF7B07BFEF8B077D
:104A1000BFE09B07F0F06F3FEFEF7E07EFEF8E07F1
:104A2000EFE09E0721F5C501B4010E946B206B01E8
:104A30007C01C501B40141E0970186010E940C1E72
:104A4000C701B60141E00FEF1FEF2FEF3FE00E94DB
:104A50000C1EC114D104E104F10409F038CF84E044
:104A600007C081E005C082E003C080E001C083E0B0
:104A70002796CDBFDEBFDF91CF911F910F91FF90A1
:104A8000EF90DF90CF90BF90AF909F908F907F90EE
:104A90006F905F904F903F902F900895A0E3B0E00B
:104AA000E4E5F5E20C946331298F3A8F4B8F5C8FEC
:104AB0006D8F7E8F8F8F98A3A98ABA8ACB8ADC8A62
:104AC000ED8AFE8A0F8B188F098D1A8D2B8D3C8DE8
:104AD00009A31AA32BA33CA3680179018FEF9FEFD1
:104AE000A0E0B0E0C822D922EA22FB2289012227D5
:104AF000332709A71AA72BA73CA709891A892B894D
:104B00003C890DA31EA32FA338A748015901882271
:104B10009922AA22BB22290166247724C501B40167
:104B2000A70196010E94DE306DA77EA78FA798ABE4
:104B3000C301B2010E94DE306B017C01C501B401EA
:104B400029A53AA54BA55CA50E94DE304B015C016E
:104B5000C301B2010E94DE30AB01BC01C80CD91CFC
:104B6000EA1CFB1C0DA51EA52FA538A9C901AA2763
:104B7000BB27C80ED91EEA1EFB1EC814D904EA04BE
:104B8000FB0420F4405050406F4F7F4FC701AA27CD
:104B9000BB27840F951FA61FB71F8D839E83AF83EE
:104BA000B8877601DD24CC244DA55EA56FA578A934
:104BB00060707070C40ED51EE61EF71EC982DA82C0
:104BC000EB82FC821C2D0A818B804C808D878E812C
:104BD0008E878F818F878885888B2D893E894F8925
:104BE000588D69A17AA18BA19CA10E94DE306B0136
:104BF0007C012D8D3E8D4F8D58A16DA17EA18FA181
:104C000098A50E94DE30DC01CB01C80ED91EEA1E39
:104C1000FB1E8D859E85AF85B8898C0D9D1DAE1DB3
:104C2000BF1D8D879E87AF87B88B682F7E85212F0C
:104C3000302F482D542D8F859889E096E0E10C9413
:104C40007C31CF92DF92EF92FF920F93CF93DF935D
:104C5000CDB7DEB76097CDBFDEBF002309F45AC0E1
:104C600029873A874B875C876D877E878F87988BEC
:104C700080E2801B49855A856B857C851816B4F0C7
:104C800019821A821B821C82992787FD9095909524
:104C900081959F4F04C0440F551F661F771F8A954B
:104CA000D2F74D835E836F8378872CC06A017B01C6
:104CB000002E04C0CC0CDD1CEE1CFF1C0A94D2F7A5
:104CC000C982DA82EB82FC826A017B0104C0F6941D
:104CD000E794D794C7948A95D2F7D701C6014D853A
:104CE0005E856F85788904C0440F551F661F771F46
:104CF0000A95D2F7842B952BA62BB72B8D839E83F9
:104D0000AF83B88729813A814B815C816D817E8137
:104D10008F8198856096CDBFDEBFDF91CF910F91D7
:104D2000FF90EF90DF90CF9008950F93CF93DF9394
:104D3000CDB7DEB76097CDBFDEBF002309F456C004
:104D400029873A874B875C876D877E878F87988B0B
:104D500020E2201B8D859E85AF85B889AC01BD0101
:104D60001216B4F0770F440B542FBA014D835E83B3
:104D70006F837887332727FD3095309521953F4FF6
:104D800004C0B595A795979587952A95D2F722C027
:104D9000002E04C075956795579547950A94D2F7EC
:104DA0004D835E836F83788704C0880F991FAA1F85
:104DB000BB1F2A95D2F749855A856B857C8504C02F
:104DC00076956795579547950A95D2F7842B952B3D
:104DD000A62BB72B89839A83AB83BC8329813A8125
:104DE0004B815C816D817E818F8198856096CDBF7E
:104DF000DEBFDF91CF910F910895A8E4B0E0E3E02A
:104E0000F7E20C946231F50129A33AA34BA35CA30A
:104E10006DA37EA38FA398A7A98EFA8FCB8EDC8E6D
:104E2000ED8EFE8E0F8F18A38DA09EA0AFA0B8A40C
:104E3000B7FE67C02195B1E0121608F0B0E03195D9
:104E4000A1E0131608F0A0E0B32EBB1ABB2D8824F6
:104E500083943B1508F08824A829419531E0141665
:104E600008F030E0B42EBA1AAB2D882483944B1589
:104E700008F088243829519541E0151608F040E0E3
:104E8000452E431A31E0541508F030E0432B61956C
:104E900031E0161608F030E0862E841A41E06815DD
:104EA00008F040E0342B719541E0171608F040E01F
:104EB000572F531B31E0751708F030E0432B8195D5
:104EC00031E0181608F030E0682F641B462F61E0CF
:104ED000841708F060E0362B9195931B29A3BAA3A1
:104EE000ABA34CA28DA25EA34FA398A78FEF9FEF19
:104EF000AFEFBFEF25968CAF9DAFAEAFBFAF25979D
:104F000006C025961CAE1DAE1EAE1FAE25978D8D1C
:104F10009E8DAF8DB8A1B7FF68C025962CAD3DAD75
:104F20004EAD5FAD259720953095409550952596CF
:104F30002CAF3DAF4EAF5FAF2597E19581E01E16D8
:104F400008F080E0F19591E01F1608F090E04F2FF7
:104F5000481B81E0F41708F080E0982BC19481E0B1
:104F60001C1408F080E06C2D691B91E0C61608F057
:104F700090E0892BD19491E01D1408F090E05D2D14
:104F8000581B81E0D51608F080E0982BE19481E071
:104F90001E1408F080E03E2D391B91E0E31608F066
:104FA00090E0892BF19491E01F1408F090E02F2DF0
:104FB000281B81E0F21608F080E0982B019581E033
:104FC000101608F080E0702F791B972F71E00917F9
:104FD00008F070E0872B1195181BE98F4A8F6B8FB3
:104FE0005C8F3D8F2E8F9F8F18A3798D6A8D5B8D7F
:104FF0004C8D3D8D2E8D9F8D88A1E9A1E98BEAA175
:10500000EA8BEBA1EB8BECA1EC8BEDA1ED8BEEA190
:10501000EE8BEFA1EF8BE8A5E88F79876A875B8736
:105020004C873D872E879F87888B89849A84AB84A1
:10503000BC848D859E85AF85B889E988FA880B89FF
:105040001C89EDAAFEAA0FAB18AFCD88DE88EF88C9
:10505000F88C0097A105B10509F0BDC3C814D904A7
:10506000EA04FB0408F04DC100E0801600E0900661
:1050700001E0A00600E0B00658F41FEF811691048D
:10508000A104B10409F090F480E090E0DC0117C0C5
:1050900020E0821620E0920620E0A20621E0B2067F
:1050A00050F480E190E0A0E0B0E009C088E090E03A
:1050B000A0E0B0E004C088E190E0A0E0B0E0B5017D
:1050C000A401082E04C076956795579547950A94D4
:1050D000D2F7FA01EF5DFF4D208140E250E060E041
:1050E00070E0481B590B6A0B7B0B421B510961098D
:1050F00071094115510561057105A1F1042E04C026
:10510000880C991CAA1CBB1C0A94D2F79701860133
:10511000042E04C0000F111F221F331F0A94D2F760
:1051200080E290E0841B950BCDA8DEA8EFA8F8AC38
:1051300004C0F694E794D794C7948A95D2F7C02A0E
:10514000D12AE22AF32A0DA91EA92FA938AD04C03D
:10515000000F111F221F331F4A95D2F70DAB1EAB54
:105160002FAB38AF25016624772495018401207088
:10517000307009AB1AAB2BAB3CABC701B601A30136
:1051800092010E9424312DA73EA74FA758AB69A7D3
:105190007AA78BA79CA7C701B601A30192010E9421
:1051A0002431CA01B90129A93AA94BA95CA90E94D5
:1051B000DE30AB01BC0109A51AA52BA53CA57801E1
:1051C000DD24CC240DA91EA92FA938ADC901AA2719
:1051D000BB27C82AD92AEA2AFB2A0DA51EA52FA576
:1051E00038A9C416D506E606F70638F50150104072
:1051F0002040304009A71AA72BA73CA7C80CD91CF0
:10520000EA1CFB1CC814D904EA04FB04D0F0C41641
:10521000D506E606F706A8F40DA51EA52FA538A904
:10522000025010402040304009A71AA72BA73CA7E6
:10523000C80CD91CEA1CFB1C04C009A71AA72BA781
:105240003CA7C41AD50AE60AF70AC701B601A301AA
:1052500092010E9424312DA73EA74FA758AB69AFFA
:105260007AAF8BAF9CAFC701B601A30192010E9438
:105270002431CA01B90129A93AA94BA95CA90E9404
:10528000DE306B017C0149AD5AAD6BAD7CAD9A014E
:10529000112700274DA95EA96FA978AD60707070C5
:1052A000042B152B262B372B8DA59EA5AFA5B8A9B2
:1052B0000C151D052E053F05C0F40197A109B10984
:1052C000080D191D2A1D3B1D081519052A053B054A
:1052D00060F00C151D052E053F0538F48DA59EA523
:1052E000AFA5B8A90297A109B10909A51AA52BA5CF
:1052F0003CA57801DD24CC24C82AD92AEA2AFB2A35
:10530000B7C481149104A104B10451F461E070E0C8
:1053100080E090E0A50194010E94243149015A01E6
:1053200010E0811610E0910611E0A10610E0B10630
:1053300058F42FEF82169104A104B10409F090F4FF
:1053400080E090E0DC0117C030E0831630E0930687
:1053500030E0A30631E0B30650F480E190E0A0E035
:10536000B0E009C088E090E0A0E0B0E004C088E1CF
:1053700090E0A0E0B0E0B501A401082E04C076954D
:105380006795579547950A94D2F7FA01EF5DFF4D5F
:105390002081AC01BD01420F511D611D711D80E2D4
:1053A00090E0A0E0B0E0841B950BA60BB70B51F486
:1053B000C818D908EA08FB08F1E04F2E512C612CDF
:1053C000712C28C1082E04C0880C991CAA1CBB1C77
:1053D0000A94D2F797018601042E04C036952795CA
:1053E000179507950A94D2F709AB1AAB2BAB3CABD8
:1053F00097018601082E04C0000F111F221F331FC2
:105400000A94D2F70DA71EA72FA738ABEDA8FEA8C8
:105410000FA918AD04C016950795F794E7944A951F
:10542000D2F7B801A7010DA51EA52FA538A9042BF9
:10543000152B262B372B0DA71EA72FA738ABEDA8B2
:10544000FEA80FA918AD04C0EE0CFF1C001F111F11
:105450008A95D2F7EDAAFEAA0FAB18AF25016624F4
:105460007724950184012070307009AF1AAF2BAFFB
:105470003CAF69A97AA98BA99CA9A30192010E94BA
:10548000243129A73AA74BA75CA76B017C0169A926
:105490007AA98BA99CA9A30192010E942431CA0177
:1054A000B90129AD3AAD4BAD5CAD0E94DE30AB0128
:1054B000BC017601DD24CC240DA51EA52FA538A99D
:1054C000C901AA27BB27C82AD92AEA2AFB2A09A583
:1054D0001AA52BA53CA5C416D506E606F70638F591
:1054E000015010402040304009AB1AAB2BAB3CAB15
:1054F000C80CD91CEA1CFB1CC814D904EA04FB0420
:10550000D0F0C416D506E606F706A8F409A51AA534
:105510002BA53CA5025010402040304009AB1AABEF
:105520002BAB3CABC80CD91CEA1CFB1C04C009AB60
:105530001AAB2BAB3CABC41AD50AE60AF70AC70173
:10554000B601A30192010E94243129A73AA74BA7D3
:105550005CA721966CAF7DAF8EAF9FAF2197C7013F
:10556000B601A30192010E942431CA01B90129ADFB
:105570003AAD4BAD5CAD0E94DE308B019C012196B3
:105580004CAD5DAD6EAD7FAD2197DA0199278827CF
:105590004DA55EA56FA578A960707070842B952BC2
:1055A000A62BB72B49A55AA56BA57CA580179107FB
:1055B000A207B307F0F44150504060407040880D9E
:1055C000991DAA1DBB1D88159905AA05BB0588F064
:1055D00080179107A207B30760F449A55AA56BA5E8
:1055E0007CA54250504060407040880D991DAA1D16
:1055F000BB1D6C017D01C01AD10AE20AF30A09A998
:105600001AA92BA93CA9380155244424442A552A17
:10561000662A772A8501222733270DA71EA72FA7E1
:1056200038AB950184012070307009AF1AAF2BAFF1
:105630003CAFC701B6012DA53EA54FA558A90E94B4
:10564000243129A73AA74BA75CA769AB7AAB8BABF0
:105650009CABC701B6012DA53EA54FA558A90E9438
:105660002431CA01B90129AD3AAD4BAD5CAD0E9400
:10567000DE30AB01BC0109A91AA92BA93CA978010C
:10568000DD24CC240DA91EA92FA938ADC901AA2754
:10569000BB27C82AD92AEA2AFB2A09A51AA52BA5BD
:1056A0003CA5C416D506E606F70638F501501040AD
:1056B0002040304009AB1AAB2BAB3CABC80CD91C1B
:1056C000EA1CFB1CC814D904EA04FB04D0F0C4167D
:1056D000D506E606F706A8F409A51AA52BA53CA54C
:1056E000025010402040304009AB1AAB2BAB3CAB12
:1056F000C80CD91CEA1CFB1C04C009AB1AAB2BABB1
:105700003CABC41AD50AE60AF70AC701B6012DA5B3
:105710003EA54FA558A90E94243129A73AA74BA717
:105720005CA721966CAF7DAF8EAF9FAF2197C7016D
:10573000B6012DA53EA54FA558A90E942431CA0146
:10574000B90129AD3AAD4BAD5CAD0E94DE308B01A5
:105750009C0121964CAD5DAD6EAD7FAD2197DA0118
:10576000992788274DA95EA96FA978AD60707070E0
:10577000842B952BA62BB72B49A55AA56BA57CA5E9
:1057800080179107A207B307D0F441505040604002
:105790007040880D991DAA1DBB1D88159905AA0585
:1057A000BB0568F080179107A207B30740F449A52D
:1057B0005AA56BA57CA5425050406040704009A995
:1057C0001AA92BA93CA97801DD24CC24C42AD52A06
:1057D000E62AF72A50C2C816D906EA06FB0608F4DC
:1057E00037C2803010E0910711E0A10710E0B10747
:1057F00050F48F3F9105A105B10509F088F400E050
:1058000010E0980116C0803020E0920720E0A20747
:1058100021E0B20750F400E110E020E030E009C0E0
:1058200008E010E020E030E004C008E110E020E0F3
:1058300030E0AC01BD01002E04C076956795579508
:1058400047950A94D2F7FA01EF5DFF4D4081040FAE
:10585000111D211D311D40E250E060E070E0401B51
:10586000510B620B730BA1F48C159D05AE05BF05A2
:1058700008F4F5C1EDA8FEA80FA918AD44245524DD
:105880003201E814F9040A051B0508F0EBC1E3C175
:10589000342E2C013D0104C0440C551C661C771CA1
:1058A0004A95D2F7D501C401002E04C0B695A7953C
:1058B000979587950A94D2F7482A592A6A2A7B2A0B
:1058C000A5019401032C04C0220F331F441F551F50
:1058D0000A94D2F729AF3AAF4BAF5CAFB701A6013C
:1058E000002E04C076956795579547950A94D2F790
:1058F00049AB5AAB6BAB7CABC701B601032C04C000
:10590000660F771F881F991F0A94D2F76DA77EA78D
:105910008FA798AB8DA99EA9AFA9B8AD04C0B695C5
:10592000A795979587950A95D2F74DA55EA56FA582
:1059300078A9482B592B6A2B7B2B4DA75EA76FA705
:1059400078AB4301AA24BB249301820120703070FC
:1059500021960CAF1DAF2EAF3FAF219769A97AA951
:105960008BA99CA9A50194010E94243129A73AA7DB
:105970004BA75CA76B017C0169A97AA98BA99CA99B
:10598000A50194010E942431CA01B90121962CADD0
:105990003DAD4EAD5FAD21970E94DE30DC01CB0105
:1059A0007601DD24CC240DA51EA52FA538A9A901BB
:1059B00066277727C42AD52AE62AF72A09A51AA531
:1059C0002BA53CA5C816D906EA06FB0638F50150FA
:1059D00010402040304009AB1AAB2BAB3CABC40CA1
:1059E000D51CE61CF71CC414D504E604F704D0F05B
:1059F000C816D906EA06FB06A8F409A51AA52BA520
:105A00003CA5025010402040304009AB1AAB2BABF4
:105A10003CABC40CD51CE61CF71C04C009AB1AAB8C
:105A20002BAB3CABC81AD90AEA0AFB0AC701B6017C
:105A3000A50194010E94243129A73AA74BA75CA78E
:105A400029966CAF7DAF8EAF9FAF2997C701B60186
:105A5000A50194010E942431CA01B90121962CADFF
:105A60003DAD4EAD5FAD21970E94DE304B015C0134
:105A700029964CAD5DAD6EAD7FAD29979A0111278A
:105A800000278DA59EA5AFA5B8A9A070B070082B62
:105A9000192B2A2B3B2B89A59AA5ABA5BCA50815CC
:105AA00019052A053B05E0F40197A109B109040D88
:105AB000151D261D371D041515052605370580F013
:105AC000081519052A053B0558F489A59AA5ABA523
:105AD000BCA50297A109B109040D151D261D371D8E
