:100000000C94F4000C9415010C9415010C9415013A
:100010000C9415010C9415010C9415010C94150108
:100020000C9415010C9415010C9415010C941501F8
:100030000C9415010C9415010C94820F0C9415016D
:100040000C94350E0C940D0E0C94E50D0C94A30D30
:100050000C9415010C9415010C9415010C941501C8
:100060000C9415010C9415010C9415010C941501B8
:100070000C9415010C9415010C9415010C941501A8
:100080000C9415010C9415010C9415010C94150198
:100090000C9415010C9415010C9415010C94150188
:1000A0000C9415010C9415010C9415010C94150178
:1000B0000C9415010C9415010C9415010C94150168
:1000C0000C9415010C9415010C9415010C94150158
:1000D0000C9415010C9415010C9415010C94150148
:1000E0000C9415010C9415010C9415010C94150138
:1000F0000C9415010C9415010C9415010C94150128
:100100000C9415010C9415010C9415010C94150117
:100110000C9415010C9415010C9415010C94150107
:100120000C9415010C9415010C9415010C941501F7
:100130000C9415010C945A0F0C9415010C947B0D22
:100140000C94530D0C942B0D0C94010D0C94150173
:100150000C9415010C9415010C9415010C941501C7
:100160000C9415010C9415010C9415010C941501B7
:100170000C9415010C9415010C9415010C941501A7
:100180000C9415010C9415010C9415010C94150197
:100190000C9415010C9415010C9415010C94150187
:1001A0000C94C0070C9415010C9415010C941501C6
:1001B0000C9415010C9415010C9415010C94150167
:1001C0000C9415010C9415010C9415010C94150157
:1001D0000C9415010C9415010C9415010C94150147
:1001E0000C9415010C94150111241FBECFEFDFE50F
:1001F000DEBFCDBF00E00CBF11E2A0E0B0E2E4E260
:10020000F1E400E00BBF02C007900D92A030B107EF
:10021000D9F71DE4A0E0B1E201C01D92A83BB107EF
:10022000E1F70E94C11D0C9490200C940000FC0189
:1002300081E0838384819581861B91090895FC0167
:1002400081E0838384819581772767FD7095861B84
:10025000970B0895FC0181E0838384819581089543
:10026000FC0181E0838384810895FC0181E0838324
:1002700085810895FC01848114829AE29A95F1F7B0
:1002800000C084830895FC01848191E0948395E506
:100290009A95F1F7000084830895FB014423C9F087
:1002A00024E030E040E050E061E0808180688083BD
:1002B000838180FFFDCF638384819581480F591F1F
:1002C0002150304091F7CA0196958795969587956C
:1002D0000895808180688083838180FFFDCF81E0E5
:1002E0008383848195810895FB014423D1F044E008
:1002F00050E020E030E061E080818068808383818D
:1003000080FFFDCF638384819581280F391F415081
:10031000504091F7C90164E070E00E940F20862FE1
:100320000895808180688083838180FFFDCF81E094
:100330008383848195810895AAECB1E092E09C9337
:10034000E82FF0E084911C920895CF93DF93EC01A5
:1003500082E0C030D80731F480E20E949C018C8793
:1003600081E205C084E20E949C018C8785E20E94A4
:100370009C018D87DF91CF9108950F93CF93DF93E9
:100380000F92CDB7DEB72FB72983F8941BBEFC01BF
:1003900008ED04BF608389818FBF0F90DF91CF91FB
:1003A0000F910895662311F090E201C090E0842B34
:1003B000892BE0E5F0E0828308956F71682BE0E51A
:1003C000F0E065830895E0E5F0E02081982F9095B6
:1003D00092239083908189230895682B81E490E093
:1003E0000E94BD0108951F93CF93DF93182FC0E49F
:1003F000D0E06881687F682B80E490E00E94BD01B6
:1004000088818123DF91CF911F910895E0E4F0E08E
:100410009381917F9160982B93830895309156003A
:10042000282F982F90959323662309F420E0922B90
:10043000E0E5F0E09683813031F4809168008160DE
:10044000809368000895823029F480916000816073
:1004500080936000089583E590E063E00E94BD0111
:10046000089582E490E061E00E94BD01089580EC6F
:1004700060E04BE00E94D201809150008860809340
:1004800050008091510083FFFCCF80EC62E00E941D
:10049000DD01809150008061809350008091510077
:1004A00084FFFCCF84E00E94F30181E00E94E3011D
:1004B00008958091500082608093500080E061E058
:1004C0000E94ED018091510081FFFCCF81E00E94EC
:1004D000F30181E00E94E301089580915000826061
:1004E0008093500080E060E00E94ED018091510017
:1004F00081FFFCCF81E00E94F30181E00E94E301D3
:100500000895882329F088E0E0E0F6E0868304C0BF
:1005100088E0E0E0F6E085838AE68A95F1F700C09E
:100520000895E0EAF6E0882369F080E2818385831C
:100530008FEF93ECA9E081509040A040E1F700C01C
:100540000000089580E2868382830895E0EAF6E061
:10055000882369F080E4818385838FEF93ECA9E0A1
:1005600081509040A040E1F700C00000089580E471
:10057000868382830895E0EAF6E0882369F080E8C4
:10058000818385838FEF93ECA9E081509040A04058
:10059000E1F700C0000003C080E886838283AFE3F8
:1005A000BFE11197F1F700C000000895E0E0F6E028
:1005B000882321F080E281838583089580E2868309
:1005C00082830895882329F080E1E0E8F6E08683BD
:1005D000089580E1E0E8F6E085830895882329F016
:1005E00082E0E0E4F6E08683089582E0E0E4F6E06D
:1005F0008583089520E4E0E0F6E080FF02C02583D3
:1006000001C0268322E0E0E2F6E081FF02C02583FC
:1006100001C0268382FF05C084E0E0E2F6E0858326
:10062000089584E0E0E2F6E086830895E0E4F6E0F1
:1006300090E1918328E3248B95838165A0ECB8E059
:100640008C9311961C92119780EA818308958823D8
:1006500029F080E1E0E4F6E08683089580E1E0E4BB
:10066000F6E085830895E0E4F6E080E1858310926A
:10067000C008868380EB82830895CF93DF93D82FC1
:10068000D370C82FCC70282F30E0A901457050706E
:100690004115510549F040918D4D982F92959F70CD
:1006A000407F942B90938D4D2A7030702115310529
:1006B00039F090918D4D807F9F70892B80938D4D67
:1006C00084E00E94160380918D4D80937D4DDD2343
:1006D00019F081E00E94E202CC2319F081E00E942F
:1006E000EE0281E00E9427038FEFE0ECF8E08383C5
:1006F0008091C20887FFFCCF8091C3088093894D09
:10070000000080917D4DE0ECF8E083838091C20889
:1007100087FFFCCF8091C3088093894D80E00E94C1
:100720002703DD2319F080E00E94E202CC2319F0B8
:1007300080E00E94EE020E943303DF91CF91089582
:100740001F93CF93DF930F92CDB7DEB7182F80E0C2
:1007500069830E94160381E00E94270381E00E94C2
:100760008102912F90956981662331F08091062155
:1007700089238093062105C080918E4D8923809323
:10078000B74D80E480937D4D662331F084E1809302
:100790007E4D8091062105C085E180937E4D80913C
:1007A0008E4D80937F4D80E090E0E0ECF8E0DC013E
:1007B000A358B24B2C9123832091C20827FFFCCF72
:1007C0002091C3082093894D01968330910579F7D4
:1007D00080E00E94270380E00E9481020E94330390
:1007E0000F90DF91CF911F9108951F93CF93DF93C7
:1007F0000F92CDB7DEB7182F80E069830E941603F1
:1008000081E00E94270381E00E94810269816623C2
:1008100031F080910621812B8093062105C08091C3
:100820008E4D812B80938E4D80E480937D4D662389
:1008300031F084E180937E4D8091062105C085E1F1
:1008400080937E4D80918E4D80937F4D80E090E02F
:10085000E0ECF8E0DC01A358B24B2C91238320910B
:10086000C20827FFFCCF2091C3082093894D019631
:100870008330910579F780E00E94270380E00E9491
:1008800081020E9433030F90DF91CF911F91089551
:10089000CF93C62F21E030E002C0220F331F8A958C
:1008A000E2F7822F61E00E94A00380E4E0E0F6E03E
:1008B000C0FF02C0858301C0868382E0E0E2F6E0EB
:1008C000C1FF02C0858301C0868384E0E0E2F6E0D8
:1008D000C2FF02C0858301C086838AE08A95F1F752
:1008E00000C08FEF61E00E94F503CF9108951F9340
:1008F000CF93DF930F92CDB7DEB7182F80E06983D7
:100900000E94160381E00E94270381E00E94810279
:100910006981662339F080918C4D80958123809385
:100920008C4D06C08091B74D809581238093B74D43
:1009300080E480937D4D662329F010927E4D809156
:100940008C4D05C081E080937E4D8091B74D8095A0
:1009500080937F4D80E090E0E0ECF8E0DC01A3586C
:10096000B24B2C9123832091C20827FFFCCF20910A
:10097000C3082093894D01968330910579F780E073
:100980000E94270380E00E9481020E9433030F909F
:10099000DF91CF911F9108951F93CF93DF930F9213
:1009A000CDB7DEB7182F80E069830E94160381E07F
:1009B0000E94270381E00E9481026981662331F051
:1009C00080918C4D812B80938C4D05C08091B74DCB
:1009D000812B8093B74D80E480937D4D662329F071
:1009E00010927E4D80918C4D05C081E080937E4DAC
:1009F0008091B74D809580937F4D80E090E0E0EC52
:100A0000F8E0DC01A358B24B2C9123832091C2085B
:100A100027FFFCCF2091C3082093894D0196833096
:100A2000910579F780E00E94810280E00E9427030F
:100A30000E9433030F90DF91CF911F9108950F9380
:100A40001F93CF93DF9300E016E0882309F444C09E
:100A50008EEDD80111968C93C0E2D6E04EE049832A
:100A6000E0E4F6E063E0618380E896E050E1DC01D9
:100A700011965C9320EA36E0D90111964C937EE9F9
:100A8000D80115967C9378E07D836583EC015D83C6
:100A9000D90115964C9310928D4D8FEF93ECA9E0F0
:100AA00081509040A040E1F700C0000080E48283C4
:100AB00010928E4D1092B74D1092062110928C4DCF
:100AC0008FEF61E00E94CC048FEF61E00E94F5039C
:100AD0008FEF0E943D0330C07EEDD80116967C93C7
:100AE000A0E2B6E04EE016964C93169720E436E06E
:100AF00063E0E9016E83C0E8D6E050E15E8380EAFE
:100B000096E0FC014683F801728312964C93D9015A
:100B100012966C9312975A83EC014A8380E41296E2
:100B20008C93129710928E4D1092B74D1092062111
:100B300010928C4D10928D4DDF91CF911F910F919E
:100B400008952F923F924F925F926F927F928F9271
:100B50009F92AF92BF92CF92DF92EF92FF920F934C
:100B60001F93CF93DF93CDB7DEB72597CDBFDEBF01
:100B70001C016A837B834C835D8381E00E941F0597
:100B800080E092E00E94A50100E012E08091010265
:100B9000897EF801818380910402887F8360848349
:100BA000809102028F7C8283A0E2CA2EA2E0DA2E1C
:100BB00080912002807E81608093200289E0F6018E
:100BC00081838091000281608093000280E092E046
:100BD0000E94430180E092E060E272E040E00E9407
:100BE0004D018983809100028E7F80930002F6017F
:100BF0001182809103028F73F80183838091000238
:100C000081608093000280E092E00E944301809125
:100C100001028860F801818300E014E088249924AF
:100C20005401412CB0E15B2E612C712CCC24DD24CD
:100C300076018091230280FFFCCF698180E292E0FF
:100C40000E941F01A0E0B0E0C80ED91EEA1EFB1EE4
:100C500088169906AA06BB0610F44C015D0184159E
:100C60009505A605B70510F42C013D010150104073
:100C700001F780910102877FE0E0F2E081838091BB
:100C80000002826080930002809100028E7F809338
:100C9000000280E00E941F05C701B6012AE0969578
:100CA0008795779567952A95D1F728EE33E040E050
:100CB00050E00E94DC1FEFEFCE2EEFE0DE2EE12CA5
:100CC000F12CA70196010E942220C901C297F101CF
:100CD00080839183C501B40128EE33E040E050E009
:100CE0000E94DC1FA70196010E942220225330405F
:100CF000EC81FD8120833183C301B20128EE33E012
:100D000040E050E00E94DC1FA70196010E942220D3
:100D100022533040EA81FB81208331832596CDBF69
:100D2000DEBFDF91CF911F910F91FF90EF90DF9089
:100D3000CF90BF90AF909F908F907F906F905F907B
:100D40004F903F902F9008952F923F924F925F9235
:100D50006F927F928F929F92AF92BF92CF92DF92CB
:100D6000EF92FF920F931F93CF93DF93CDB7DEB730
:100D70002597CDBFDEBF1C016A837B834C835D83D7
:100D800081E00E941F0584E060E00E94CC0484E0C2
:100D900060E00E94F5038FEF93ECA9E08150904052
:100DA000A040E1F700C0000080E492E00E94A501AD
:100DB00000E412E080914102897ED80111968C9363
:100DC000119780914402887F836014968C931497C6
:100DD000809142028F7C12968C9380E6C82E82E02E
:100DE000D82E80916002807E81608093600289E0CD
:100DF000F60181838091400281608093400280E40B
:100E000092E00E94430180E492E060E672E040E0FC
:100E10000E944D018983809140028E7F8093400221
:100E2000D60111961C92809143028F73F80183833F
:100E30008091400281608093400280E492E00E94B1
:100E40004301809141028860D80111968C931197DB
:100E500000E014E0882499245401412C20E1522E12
:100E6000612C712CCC24DD2476018091630280FFFB
:100E7000FCCF698180E692E00E941F01A0E0B0E013
:100E8000C80ED91EEA1EFB1E88169906AA06BB06C6
:100E900010F44C015D0184159505A605B70510F405
:100EA0002C013D010150104001F780914102877FE4
:100EB000E0E4F2E08183809140028E7F80934002E3
:100EC00084E060E00E94770480E00E941F05C70173
:100ED000B6011AE096958795779567951A95D1F79B
:100EE00028EE33E040E050E00E94DC1F0FEFC02E00
:100EF0000FE0D02EE12CF12CA70196010E942220B8
:100F0000C901C297F10180839183C501B40128EE24
:100F100033E040E050E00E94DC1FA70196010E94F0
:100F2000222022533040AC81BD812D933C931197F8
:100F3000C301B20128EE33E040E050E00E94DC1F24
:100F4000A70196010E94222022533040EA81FB81B2
:100F5000208331832596CDBFDEBFDF91CF911F91D6
:100F60000F91FF90EF90DF90CF90BF90AF909F9048
:100F70008F907F906F905F904F903F902F9008954B
:100F80001F920F920FB60F920BB60F9211242F9350
:100F90003F934F935F936F937F938F939F93AF9301
:100FA000BF93EF93FF9380917A3D87FD06C08091B8
:100FB0007A3D8F5F80937A3D64C081E00E94270371
:100FC00082E0E0EAF6E0868380E090E0E0ECF8E0A2
:100FD0002AEA23833091C20837FFFCCF3091C3083F
:100FE000DC01A358B24B3C9301968330910589F7FD
:100FF00082E0E0EAF6E0858380E00E9427038091AA
:101000007D4DE0918A4DF0918B4DEE0FFF1FEE0F5D
:10101000FF1FE258F24C87FF03C08FEF808301C0AF
:101020001082E0918A4DF0918B4D80917D4DEE0FB5
:10103000FF1FEE0FFF1FE358F24C8083E0918A4DB3
:10104000F0918B4D80917E4DEE0FFF1FEE0FFF1F35
:10105000E458F24C8083E0918A4DF0918B4DEE0F75
:10106000FF1FEE0FFF1FE558F24C80917F4D8083EC
:1010700080918A4D90918B4D019680938A4D9093EB
:101080008B4DFF91EF91BF91AF919F918F917F9188
:101090006F915F914F913F912F910F900BBE0F90E9
:1010A0000FBE0F901F901895882349F080E260E0F2
:1010B0000E94CC0480E260E00E94F503089580E283
:1010C00060E00E94770408952F923F924F925F92C2
:1010D0006F927F928F929F92AF92BF92CF92DF9248
:1010E000EF92FF920F931F93CF93DF93CDB7DEB7AD
:1010F0006197CDBFDEBFF82ED62E4A875B872C873F
:101100003D870E871F8781E00E941F058F2D6E2D62
:101110000E9448048D2D0E943D038F2D8550833001
:1011200018F481E00E94540881E00E94D6028F2DBD
:101130000E94FA0284E00E94160384E58093C008AE
:10114000E0EAF6E081E0828392E0908B82878187FB
:1011500080E2E0E8F6E08183E0E4FAE083E2818384
:1011600025E130E02C19310981E090E002C0880FC0
:10117000991F2A95E2F7019786A397A396958795DD
:1011800082AF93AF8091400A807F81608093400A54
:101190008091A2008160E0EAF0E08283789410926E
:1011A0008A4D10928B4D10927A3D80918A4D90918C
:1011B0008B4D24E080309207C0F38091400A807FFD
:1011C0008093400A8091A2008E7FE0EAF0E0828363
:1011D000F8940E94330380E00E94D60280E00E94CF
:1011E0001F0510928A4D10928B4D31E038871D8279
:1011F00050E85E836FEF698744244A9433243A941D
:1012000022242A948FEF888B9FEF9F83AFEFA983CF
:10121000BFE7BA831B821C82662455247724F0E042
:10122000A0E010E000E0CC248824FF24E0E0EF2ED2
:10123000A98B2E2F99249A9418C1E0918A4DF09190
:101240008B4DEE0FFF1FEE0FFF1FE558F24C408154
:10125000518162817381352FFB01DB01CA01BB0F14
:10126000880B982FDC01D82EB82EA82E4E0D91E0B9
:101270004E1508F090E05989350F51E0698936170D
:1012800008F050E0692F630F91E0631708F090E0D9
:10129000592BE10F91E0E11708F090E0152F1E0F98
:1012A00031E01E1708F030E0932BF00F31E0F0171B
:1012B00008F030E0092F0F0F91E00F1708F090E0D1
:1012C000392BDC0C91E0DC1408F090E0C32ECD0C3F
:1012D00031E0CD1408F030E0932BB80C51E0B81495
:1012E00008F050E0892E8B0C91E08B1408F090E010
:1012F000592BAF0C31E0AF1408F030E0F52EFA0CAA
:1013000091E0FA1408F090E0392B280FE42E698B55
:10131000230FE0918A4DF0918B4DEE0FFF1FEE0FE2
:10132000FF1FE558F24C80819181A281B381682F23
:10133000392FAD01BB0F880B982FDC0198899817C6
:10134000FCF08917B9F52916D8F0921599F53916D8
:10135000B8F0931579F5491698F0941559F5951646
:1013600078F0591539F5AE81A41750F04A1711F5E8
:10137000BD81B31728F03B17E9F4E885E617D0F4F0
:10138000E0918A4DF0918B4DEE0FFF1FEE0FFF1F86
:10139000E558F24C80819181A281B38188879D8339
:1013A000AE839B2EBB0F880B982FDC01482E382E66
:1013B000282E888BE0918A4DF0918B4DEE0FFF1F08
:1013C000EE0FFF1FE558F24C80819181A281B3811D
:1013D000682F392FAD01BB0F880B982FDC018715C3
:1013E0000CF17816C9F57514E8F05714A9F55614E0
:1013F000C8F0651489F5FC816F16A0F0F61561F54B
:101400008B81581778F0851739F59A81491750F074
:10141000941711F5A9813A1728F0A317E9F4BF81B1
:101420006B17D0F4E0918A4DF0918B4DEE0FFF1FBA
:10143000EE0FFF1FE558F24C80819181A281B381AC
:101440008F839983AA83BB83BB0F880B982FDC0102
:101450008C83682E582E782E80918A4D90918B4DDA
:10146000019680938A4D90938B4D80918A4D9091F7
:101470008B4DE4E080309E0708F4DFCEA989E22F8F
:1014800099862E2D3A2F412F502F6C2D782D8F2D90
:101490009E2FE7FF2BC0215031E02E1508F030E0E1
:1014A0008A2F8D5F91E08A1708F090E0380F41E0B5
:1014B000381708F040E0492B410F51E0411708F080
:1014C00050E0500F61E0501708F060E06C0D71E0E3
:1014D0006C1508F070E0780D81E0781508F080E078
:1014E0008F0D91E08F1508F090E09E0F0AE00E94AA
:1014F0009D15E0EAAE2EF5E2BF2EA6E2CA2EDD244F
:10150000EE24FF2400E010E00E945614AA24AA94BE
:10151000BB24BA94BFE7CB2E0E94051601E00E94BF
:10152000291503E0A02EBB24CC2400E00E94051660
:1015300049015A01B094A09490948094811C911C0C
:10154000A11CB11CAA85BB858D929D92AD92BC92C7
:10155000139728853D814E815985642D732D822DE9
:101560009889E0EAAE2EF5E2BF2EE6E2CE2EDD242B
:10157000EE24FF240E945614AA24AA94BB24BA94F1
:10158000FFE7CF2E0E94051601E00E94291503E017
:10159000A02EBB24CC2400E00E94051649015A016C
:1015A000B094A09490948094811C911CA11CB11CB7
:1015B000EE85FF8580829182A282B3822F8139815C
:1015C0004A815B816C81762D852D972D0F2EF0EA57
:1015D000AF2EF02D0F2EF5E2BF2EF02D0F2EF6E2DE
:1015E000CF2EF02DDD24EE24FF240E945614AA24D1
:1015F000AA94BB24BA940F2EFFE7CF2EF02D0E94A1
:10160000051601E00E94291503E0A02EBB24CC247E
:1016100000E00E94051649015A01B094A0949094EC
:101620008094811C911CA11CB11CAC85BD858D9240
:101630009D92AD92BC9213976196CDBFDEBFDF91B4
:10164000CF911F910F91FF90EF90DF90CF90BF90BF
:10165000AF909F908F907F906F905F904F903F9052
:101660002F9008956F927F928F929F92AF92BF9228
:10167000CF92DF92EF92FF920F931F93CF93DF935E
:101680000F920F92CDB7DEB7182F3B0181E029836F
:101690004A830E941F0585E0F30160810E9448048F
:1016A00086E0F30161810E94480487E0F3016281D2
:1016B0000E944804812F0E943D03802F0E945408FD
:1016C00084E00E94160384E58093C00881E00E94B4
:1016D000D60285E00E94FA02E0EAF6E082E0808B22
:1016E00091E0928398E790938001E0E0F8E090EF3A
:1016F0009183E0A6F1A6C2A6D3A6A4A6B5A686A607
:1017000097A6298130E02150304026A337A3868355
:101710008FEF878380910008807F88608093000826
:101720001092783D1092793D10928A4D10928B4D17
:101730001092B64D109205211092042110920321AF
:101740008091A2008660E0EAF0E08283789481E0F4
:101750000E94270380E2E0E8F6E08183E0E4FAE01B
:1017600083E2818380E290E04A81042E02C0880FE8
:10177000991F0A94E2F786A397A380E190E002C044
:10178000880F991F4A95E2F782AF93AF8091400A84
:10179000807F81608093400A80918A4D90918B4D2B
:1017A000F5E583359F07C0F380910008807F809323
:1017B00000088091400A807F8093400A8091A200B7
:1017C000897FE0EAF0E08283F89480E00E942703BA
:1017D0000E94330380E00E94D60280E00E941F0531
:1017E0000F900F90DF91CF911F910F91FF90EF908D
:1017F000DF90CF90BF90AF909F908F907F906F9031
:1018000008958F929F92AF92BF92CF92DF92EF9204
:10181000FF920F931F93CF93DF930F920F92CDB749
:10182000DEB7182FF62E81E02A8349830E941F0518
:10183000812F4981642F0E9448048F2D0E943D030F
:101840008E2D0E94540884E00E94160384E5809344
:10185000C00881E00E94D602812F0E94FA02E0EACD
:10186000F6E082E0808B91E0928398E7909380018C
:10187000E0E0F9E090EF9183C0A6D1A6A2A6B3A6BE
:1018800084A695A64A895B8946A757A710E0015010
:10189000104006A317A386838FEF878380910009EA
:1018A000807F8860809300091092783D1092793D86
:1018B00010928A4D10928B4D1092B64D10920521C8
:1018C00010920421109203218091A2008660E0EA28
:1018D000F0E08283789481E00E94270380E2E0E8D0
:1018E000F6E08183E0E4FAE083E2818380E290E045
:1018F0002A81022E02C0880F991F0A94E2F786A35C
:1019000097A380E190E002C0880F991F2A95E2F723
:1019100082AF93AF8091400A807F81608093400ABC
:1019200080918A4D90918B4D25E583359207C0F3C8
:1019300080910009807F809300098091400A807F18
:101940008093400A8091A200897FE0EAF0E08283E0
:10195000F89480E00E9427030E94330380E00E94F5
:10196000D60280E00E941F050F900F90DF91CF916B
:101970001F910F91FF90EF90DF90CF90BF90AF90AD
:101980009F908F90089582E0E0EAF6E086838AEAED
:10199000E0ECF8E083838091C20887FFFCCFE09100
:1019A000B64DF0E08091C308E358F24B80838AEA99
:1019B000E0ECF8E083838091C20887FFFCCFE091E0
:1019C000B64DF0E08091C308E258F24B80838AEA7A
:1019D000E0ECF8E083838091C20887FFFCCFE091C0
:1019E000B64DF0E08091C308E158F24B808382E06D
:1019F000E0EAF6E085838091B64D8D5F8093B64D29
:101A000008951F920F920FB60F920BB60F921124EA
:101A10002F933F934F935F936F937F938F939F93F6
:101A2000AF93BF93EF93FF930E94C30C1092B64DF8
:101A3000FF91EF91BF91AF919F918F917F916F91A6
:101A40005F914F913F912F910F900BBE0F900FBE62
:101A50000F901F9018951F920F920FB60F920BB612
:101A60000F9211242F933F934F935F936F937F9324
:101A70008F939F93AF93BF93EF93FF930E94C30CF9
:101A8000FF91EF91BF91AF919F918F917F916F9156
:101A90005F914F913F912F910F900BBE0F900FBE12
:101AA0000F901F9018951F920F920FB60F920BB6C2
:101AB0000F9211242F933F934F935F936F937F93D4
:101AC0008F939F93AF93BF93EF93FF930E94C30CA9
:101AD000FF91EF91BF91AF919F918F917F916F9106
:101AE0005F914F913F912F910F900BBE0F900FBEC2
:101AF0000F901F9018951F920F920FB60F920BB672
:101B00000F9211242F933F934F935F936F937F9383
:101B10008F939F93AF93BF93EF93FF930E94C30C58
:101B2000FF91EF91BF91AF919F918F917F916F91B5
:101B30005F914F913F912F910F900BBE0F900FBE71
:101B40000F901F9018951F920F920FB60F920BB621
:101B50000F9211242F933F934F935F936F937F9333
:101B60008F939F93AF93BF93EF93FF930E94C30C08
:101B70001092B64DE0E2F6E08091240681FF0BC0A2
:101B80008091040686FF02C082E003C080E4E0E0AA
:101B9000F6E0878307C080E4A0E0B6E016968C9359
:101BA00082E08583FF91EF91BF91AF919F918F91DB
:101BB0007F916F915F914F913F912F910F900BBE4D
:101BC0000F900FBE0F901F9018951F920F920FB697
:101BD0000F920BB60F9211242F933F934F935F9365
:101BE0006F937F938F939F93AF93BF93EF93FF93E5
:101BF0000E94C30CFF91EF91BF91AF919F918F9184
:101C00007F916F915F914F913F912F910F900BBEFC
:101C10000F900FBE0F901F9018951F920F920FB646
:101C20000F920BB60F9211242F933F934F935F9314
:101C30006F937F938F939F93AF93BF93EF93FF9394
:101C40000E94C30CFF91EF91BF91AF919F918F9133
:101C50007F916F915F914F913F912F910F900BBEAC
:101C60000F900FBE0F901F9018951F920F920FB6F6
:101C70000F920BB60F9211242F933F934F935F93C4
:101C80006F937F938F939F93AF93BF93EF93FF9344
:101C90000E94C30CFF91EF91BF91AF919F918F91E3
:101CA0007F916F915F914F913F912F910F900BBE5C
:101CB0000F900FBE0F901F901895EF92FF921F93F9
:101CC000CF93DF93CDB7DEB72897CDBFDEBF1D82A0
:101CD0001E821F82188680918A4D90918B4D0196AD
:101CE00080938A4D90938B4D80ED8093C00820E0C7
:101CF00030E01FEFF901E358F24B808187FF02C00B
:101D00001C8301C01C824DE7E42E4DE4F42E80813B
:101D10008B83F901E258F24B80818A83F901E15803
:101D2000F24B808189838D819E81AF81B885498105
:101D30005A816B817C81840F951FA61FB71F8D83ED
:101D40009E83AF83B8872D5F3F4F2C30310591F6CE
:101D50006D817E818F81988524E030E040E050E005
:101D60000E9444202D833E834F8358878D81F70145
:101D700082838E8181838F8180937D4D80E1E0E439
:101D8000F6E0868388E0E0E2F6E08683000086E005
:101D9000E0ECF8E083838091C20887FFFCCF80915C
:101DA000C3088093894DE0E2F6E088E08583000077
:101DB0008683000082E0E0ECF8E083838091C20833
:101DC00087FFFCCF8091C3088093894D8091793D36
:101DD000E0ECF8E083838091C20887FFFCCF80911C
:101DE000C3088093894D8091783DE0ECF8E08383CF
:101DF0008091C20887FFFCCF8091C3088093894DF2
:101E000080917D4DE0ECF8E083838091C20887FFEC
:101E1000FCCF8091C3088093894D80917E4DE0EC8A
:101E2000F8E083838091C20887FFFCCF8091C308CC
:101E30008093894D80917F4DE0ECF8E08383809121
:101E4000C20887FFFCCF8091C3088093894D88E04A
:101E5000E0E2F6E08583E0E4F6E080E1858394E566
:101E60009093C00886838091783D9091793D039648
:101E70008093783D9093793D9091032180917D4DA1
:101E8000890F809303219091042180917E4D890FC9
:101E9000809304219091052180917F4D890F80933B
:101EA00005212896CDBFDEBFDF91CF911F91FF9016
:101EB000EF9008951F920F920FB60F920BB60F92EC
:101EC00011242F933F934F935F936F937F938F933F
:101ED0009F93AF93BF93EF93FF930E945D0EFF918B
:101EE000EF91BF91AF919F918F917F916F915F9192
:101EF0004F913F912F910F900BBE0F900FBE0F90FF
:101F00001F9018951F920F920FB60F920BB60F925B
:101F100011242F933F934F935F936F937F938F93EE
:101F20009F93AF93BF93EF93FF930E945D0EFF913A
:101F3000EF91BF91AF919F918F917F916F915F9141
:101F40004F913F912F910F900BBE0F900FBE0F90AE
:101F50001F901895CF93DF93EC0180E00E94160349
:101F600080ED8093C00881E00E94270388E0E0E2D2
:101F7000F6E08683000083E0E0ECF8E08383809164
:101F8000C20887FFFCCF8091C3088093894D809160
:101F9000793DE0ECF8E083838091C20887FFFCCFB5
:101FA0008091C3088093894D8091783DE0ECF8E002
:101FB00083838091C20887FFFCCF8091C308809300
:101FC000894D80E090E0A0ECB8E02AEA0EC01396BC
:101FD0002C9313973091C20837FFFCCF3091C30880
:101FE000FC01E95FFE4D308301968C179D0779F760
:101FF00088E0E0E2F6E0858380E00E9427030E940B
:102000003303DF91CF9108952F923F924F925F92C9
:102010006F927F928F929F92AF92BF92CF92DF92F8
:10202000EF92FF920F931F93CF93DF931092A14DE6
:102030001092A24D1092A34D1092A44D1092A54D56
:102040001092A64D1092A74D1092A84DE9E9FDE41B
:102050001092994D11821282138214821582168277
:102060001782DF0118971092914D11961C921197CB
:1020700012961C92129713961C92139714961C9208
:10208000149715961C92159716961C9216971796EC
:102090001C92179710920221109201211092002198
:1020A0001092783D1092793D59E0452E512C63E015
:1020B000262E312CEE24EA9470E1672E712C6A0EE4
:1020C0007B1E4F015D0181E79CE10E94AA0F809178
:1020D000783D9091793D8F58934E8093783D9093C1
:1020E000793DCC24DD24C601B1010E94FB1FFC0117
:1020F000E050FF4D2081D601A95FBE4D3C91230FDA
:102100002083E0917B4DF0917C4D0097C1F48C9140
:1021100010821182128287FF06C0E382E482E58288
:10212000E682E78205C01382148215821682178226
:102130008C91E0917B4DF0917C4D828308C0813081
:10214000910519F48C91818302C08C918083C60122
:1021500069E070E00E94FB1F8230910509F069C0C0
:102160007091914D6091924D5091934D4091944D4D
:102170003091954D2091964D9091974DF090984DBE
:10218000E0917B4DF0917C4D80811181D281C381A2
:10219000B481A5810681E781870FF1E0871708F0F8
:1021A000F0E0160F71E0161708F070E0F10F61E033
:1021B000F11708F060E0762BD50F61E0D51708F035
:1021C00060E07D0F51E07D1708F050E0652BC40FF3
:1021D00051E0C41708F050E06C0F41E06C1708F0B4
:1021E00040E0542BB30F41E0B31708F040E05B0F21
:1021F00031E05B1708F030E0432BA20F31E0A2176B
:1022000008F030E04A0F21E04A1708F020E0322BB6
:10221000090F21E0091708F020E0300F91E0301796
:1022200008F090E0922BFE0E9F0D8093914DD5010A
:10223000D9C08530910509F069C07091994D6091C0
:102240009A4D50919B4D40919C4D30919D4D2091C8
:102250009E4D90919F4DF090A04DE0917B4DF0915F
:102260007C4D80811181D281C381B481A581068199
:10227000E781870FF1E0871708F0F0E0160F71E0B3
:10228000161708F070E0F10F61E0F11708F060E058
:10229000762BD50F61E0D51708F060E07D0F51E097
:1022A0007D1708F050E0652BC40F51E0C41708F00B
:1022B00050E06C0F41E06C1708F040E0542BB30F76
:1022C00041E0B31708F040E05B0F31E05B1708F026
:1022D00030E0432BA20F31E0A21708F030E04A0FA4
:1022E00021E04A1708F020E0322B090F21E00917FE
:1022F00008F020E0300F91E0301708F090E0922BCA
:10230000FE0E9F0D8093994DD4016CC088309105CD
:1023100009F07DC07091A14D6091A24D5091A34DE7
:102320004091A44D3091A54D2091A64D9091A74D7F
:10233000F090A84DE0917B4DF0917C4D8081118112
:10234000D281C381B481A5810681E781870FF1E045
:10235000871708F0F0E0160F71E0161708F070E02C
:10236000F10F61E0F11708F060E0762BD50F61E026
:10237000D51708F060E07D0F51E07D1708F050E0C0
:10238000652BC40F51E0C41708F050E06C0F41E01A
:102390006C1708F040E0542BB30F41E0B31708F07E
:1023A00040E05B0F31E05B1708F030E0432BA20FF9
:1023B00031E0A21708F030E04A0F21E04A1708F098
:1023C00020E0322B090F21E0091708F020E0300F40
:1023D00091E0301708F090E0922BFE0E9F0D809355
:1023E000A14DD3011196FC93119712967C931297ED
:1023F00013966C93139714965C93149715964C93BD
:10240000159716963C93169717969C9317970894D2
:10241000C11CD11CB1E7CB16BCE1DB0609F063CED1
:102420000894410851084114510409F04CCEDF9141
:10243000CF911F910F91FF90EF90DF90CF90BF90C1
:10244000AF909F908F907F906F905F904F903F9054
:102450002F9008958F929F92AF92BF92CF92DF926A
:10246000EF920F930F920F9280E190E0EDB7FEB7DD
:102470008183928387E068EC40E020E005E1EE2470
:10248000E394ADE0CA2ED12CBEE0AB2EB12C3FE0E0
:10249000832E912C0E94010C0F900F9081E00E94DE
:1024A0001F058FEC97E00197F1F700C000000E9434
:1024B000041080E00E941F050F91EF90DF90CF90F5
:1024C000BF90AF909F908F9008958F929F92AF9200
:1024D000BF92CF92DF92EF92FF920F93CF93DF9351
:1024E00000D0CDB7DEB719821A821B828EECBE01F6
:1024F0006F5F7F4F40E025E101E05DE0E52EF12CCC
:10250000EEE0CE2ED12CFFE0AF2EB12CA0E18A2E32
:10251000912C0E94320B81E00E941F058FEC97E006
:102520000197F1F700C000000E94041080E00E94B3
:102530001F052396CDBFDEBFDF91CF910F91FF9096
:10254000EF90DF90CF90BF90AF909F908F900895C5
:102550000F931F93CF93DF931092783D1092793DA4
:1025600010928A4D10928B4D1092052110920421E9
:102570001092032181E00E941F0584E00E9416034F
:1025800080ED8093C0088DE080937D4D83EF809334
:102590007E4D87E580937F4D00E416E030E1A0E2B8
:1025A000B6E028E060EC78E056E0E0ECF8E042E0ED
:1025B00084C0E8013E8316962C9316970000EB0129
:1025C0005B838091C20887FFFCCF8091C308809312
:1025D000894D15962C931597000016962C931697F7
:1025E000000043838091C20887FFFCCF8091C3081D
:1025F0008093894D8091793D83838091C20887FFC4
:10260000FCCF8091C3088093894D8091783D83836E
:102610008091C20887FFFCCF8091C3088093894DC9
:1026200080917D4D83838091C20887FFFCCF80918C
:10263000C3088093894D80917E4D83838091C20829
:1026400087FFFCCF8091C3088093894D80917F4D97
:1026500083838091C20887FFFCCF8091C308809359
:10266000894D15962C931597E8013D838091783D0F
:102670009091793D03968093783D9093793D909128
:10268000032180917D4D890F809303219091042136
:1026900080917E4D890F8093042190910521809136
:1026A0007F4D890F8093052180918A4D90918B4DAC
:1026B000019680938A4D90938B4D80918A4D909195
:1026C0008B4DD5E583359D0708F473CF0E94330306
:1026D00080E00E941F05DF91CF911F910F91089517
:1026E0000E94A81281E00E941F058FEC97E00197DD
:1026F000F1F700C000000E94041080E00E941F0556
:1027000008950895E0ECF8E083838091C20887FF84
:10271000FCCF8091C3080895EF92FF920F931F930F
:10272000CF93DF93CDB7DEB72597CDBFDEBF8064F3
:102730002D834C835B836A8379830E948213798122
:10274000872F0E9482136A81862F0E9482135B81E9
:10275000852F0E9482134C81842F0E9482132D8129
:10276000822F0E948213EE24FF240AC08FEF0E9462
:102770008213F701E755F24B80830894E11CF11CAA
:10278000E016F1069CF32596CDBFDEBFDF91CF9119
:102790001F910F91FF90EF9008950F931F93A0E466
:1027A000B6E080914106816011968C931197E0EA22
:1027B000F6E08091A1068064818380914506816066
:1027C00015968C938091A5068064858381E00E9494
:1027D000910280E00E94160381E00E942703E0EC52
:1027E000F8E0138280E00E9427030E94330388E010
:1027F00060E00E94CC0488E060E00E94F50380E085
:102800000E94160381E00E94270380E040E050E030
:10281000BA0125E902E010E00E948C138091AB4DD3
:1028200009C081E040E050E0BA0120E002E010E0A1
:102830000E948C138091AB4D882399F78AEA80938C
:10284000AB4D11C087E340E050E0BA0120E002E068
:1028500010E00E948C1389E240E050E060E070E4F8
:1028600020E00E948C138091AB4D882359F78AE3B6
:1028700040E050E0BA0120E006E010E00E948C1336
:102880008091AC4D86FF0AC080E140E052E060E0FC
:1028900070E020E002E010E00E948C1380E00E94D3
:1028A00027030E9433031F910F910895A0E3B0E026
:1028B000ECE5F4E10C946120298F3A8F4B8F5C8F0B
:1028C0006D8F7E8F8F8F98A3A98ABA8ACB8ADC8A74
:1028D000ED8AFE8A0F8B188F098D1A8D2B8D3C8DFA
:1028E00009A31AA32BA33CA3680179018FEF9FEFE3
:1028F000A0E0B0E0C822D922EA22FB2289012227E7
:10290000332709A71AA72BA73CA709891A892B895E
:102910003C890DA31EA32FA338A748015901882283
:102920009922AA22BB22290166247724C501B40179
:10293000A70196010E94DC1F6DA77EA78FA798AB09
:10294000C301B2010E94DC1F6B017C01C501B4010F
:1029500029A53AA54BA55CA50E94DC1F4B015C0193
:10296000C301B2010E94DC1FAB01BC01C80CD91C21
:10297000EA1CFB1C0DA51EA52FA538A9C901AA2775
:10298000BB27C80ED91EEA1EFB1EC814D904EA04D0
:10299000FB0420F4405050406F4F7F4FC701AA27DF
:1029A000BB27840F951FA61FB71F8D839E83AF8300
:1029B000B8877601DD24CC244DA55EA56FA578A946
:1029C00060707070C40ED51EE61EF71EC982DA82D2
:1029D000EB82FC821C2D0A818B804C808D878E813E
:1029E0008E878F818F878885888B2D893E894F8937
:1029F000588D69A17AA18BA19CA10E94DC1F6B015B
:102A00007C012D8D3E8D4F8D58A16DA17EA18FA192
:102A100098A50E94DC1FDC01CB01C80ED91EEA1E5E
:102A2000FB1E8D859E85AF85B8898C0D9D1DAE1DC5
:102A3000BF1D8D879E87AF87B88B682F7E85212F1E
:102A4000302F482D542D8F859889E096E0E10C9425
:102A50007A20CF92DF92EF92FF920F93CF93DF9382
:102A6000CDB7DEB76097CDBFDEBF002309F45AC0F3
:102A700029873A874B875C876D877E878F87988BFE
:102A800080E2801B49855A856B857C851816B4F0D9
:102A900019821A821B821C82992787FD9095909536
:102AA00081959F4F04C0440F551F661F771F8A955D
:102AB000D2F74D835E836F8378872CC06A017B01D8
:102AC000002E04C0CC0CDD1CEE1CFF1C0A94D2F7B7
:102AD000C982DA82EB82FC826A017B0104C0F6942F
:102AE000E794D794C7948A95D2F7D701C6014D854C
:102AF0005E856F85788904C0440F551F661F771F58
:102B00000A95D2F7842B952BA62BB72B8D839E830A
:102B1000AF83B88729813A814B815C816D817E8149
:102B20008F8198856096CDBFDEBFDF91CF910F91E9
:102B3000FF90EF90DF90CF9008950F93CF93DF93A6
:102B4000CDB7DEB76097CDBFDEBF002309F456C016
:102B500029873A874B875C876D877E878F87988B1D
:102B600020E2201B8D859E85AF85B889AC01BD0113
:102B70001216B4F0770F440B542FBA014D835E83C5
:102B80006F837887332727FD3095309521953F4F08
:102B900004C0B595A795979587952A95D2F722C039
:102BA000002E04C075956795579547950A94D2F7FE
:102BB0004D835E836F83788704C0880F991FAA1F97
:102BC000BB1F2A95D2F749855A856B857C8504C041
:102BD00076956795579547950A95D2F7842B952B4F
:102BE000A62BB72B89839A83AB83BC8329813A8137
:102BF0004B815C816D817E818F8198856096CDBF90
:102C0000DEBFDF91CF910F910895A8E4B0E0EBE033
:102C1000F6E10C946020F50129A33AA34BA35CA331
:102C20006DA37EA38FA398A7A98EFA8FCB8EDC8E7F
:102C3000ED8EFE8E0F8F18A38DA09EA0AFA0B8A41E
:102C4000B7FE67C02195B1E0121608F0B0E03195EB
:102C5000A1E0131608F0A0E0B32EBB1ABB2D882408
:102C600083943B1508F08824A829419531E0141677
:102C700008F030E0B42EBA1AAB2D882483944B159B
:102C800008F088243829519541E0151608F040E0F5
:102C9000452E431A31E0541508F030E0432B61957E
:102CA00031E0161608F030E0862E841A41E06815EF
:102CB00008F040E0342B719541E0171608F040E031
:102CC000572F531B31E0751708F030E0432B8195E7
:102CD00031E0181608F030E0682F641B462F61E0E1
:102CE000841708F060E0362B9195931B29A3BAA3B3
:102CF000ABA34CA28DA25EA34FA398A78FEF9FEF2B
:102D0000AFEFBFEF25968CAF9DAFAEAFBFAF2597AE
:102D100006C025961CAE1DAE1EAE1FAE25978D8D2E
:102D20009E8DAF8DB8A1B7FF68C025962CAD3DAD87
:102D30004EAD5FAD259720953095409550952596E1
:102D40002CAF3DAF4EAF5FAF2597E19581E01E16EA
:102D500008F080E0F19591E01F1608F090E04F2F09
:102D6000481B81E0F41708F080E0982BC19481E0C3
:102D70001C1408F080E06C2D691B91E0C61608F069
:102D800090E0892BD19491E01D1408F090E05D2D26
:102D9000581B81E0D51608F080E0982BE19481E083
:102DA0001E1408F080E03E2D391B91E0E31608F078
:102DB00090E0892BF19491E01F1408F090E02F2D02
:102DC000281B81E0F21608F080E0982B019581E045
:102DD000101608F080E0702F791B972F71E009170B
:102DE00008F070E0872B1195181BE98F4A8F6B8FC5
:102DF0005C8F3D8F2E8F9F8F18A3798D6A8D5B8D91
:102E00004C8D3D8D2E8D9F8D88A1E9A1E98BEAA186
:102E1000EA8BEBA1EB8BECA1EC8BEDA1ED8BEEA1A2
:102E2000EE8BEFA1EF8BE8A5E88F79876A875B8748
:102E30004C873D872E879F87888B89849A84AB84B3
:102E4000BC848D859E85AF85B889E988FA880B8911
:102E50001C89EDAAFEAA0FAB18AFCD88DE88EF88DB
:102E6000F88C0097A105B10509F0BDC3C814D904B9
:102E7000EA04FB0408F04DC100E0801600E0900673
:102E800001E0A00600E0B00658F41FEF811691049F
:102E9000A104B10409F090F480E090E0DC0117C0D7
:102EA00020E0821620E0920620E0A20621E0B20691
:102EB00050F480E190E0A0E0B0E009C088E090E04C
:102EC000A0E0B0E004C088E190E0A0E0B0E0B5018F
:102ED000A401082E04C076956795579547950A94E6
:102EE000D2F7FA01E050F04E208140E250E060E07D
:102EF00070E0481B590B6A0B7B0B421B510961099F
:102F000071094115510561057105A1F1042E04C037
:102F1000880C991CAA1CBB1C0A94D2F79701860145
:102F2000042E04C0000F111F221F331F0A94D2F772
:102F300080E290E0841B950BCDA8DEA8EFA8F8AC4A
:102F400004C0F694E794D794C7948A95D2F7C02A20
:102F5000D12AE22AF32A0DA91EA92FA938AD04C04F
:102F6000000F111F221F331F4A95D2F70DAB1EAB66
:102F70002FAB38AF2501662477249501840120709A
:102F8000307009AB1AAB2BAB3CABC701B601A30148
:102F900092010E9422202DA73EA74FA758AB69A7F8
:102FA0007AA78BA79CA7C701B601A30192010E9433
:102FB0002220CA01B90129A93AA94BA95CA90E94FA
:102FC000DC1FAB01BC0109A51AA52BA53CA5780106
:102FD000DD24CC240DA91EA92FA938ADC901AA272B
:102FE000BB27C82AD92AEA2AFB2A0DA51EA52FA588
:102FF00038A9C416D506E606F70638F50150104084
:103000002040304009A71AA72BA73CA7C80CD91C01
:10301000EA1CFB1CC814D904EA04FB04D0F0C41653
:10302000D506E606F706A8F40DA51EA52FA538A916
:10303000025010402040304009A71AA72BA73CA7F8
:10304000C80CD91CEA1CFB1C04C009A71AA72BA793
:103050003CA7C41AD50AE60AF70AC701B601A301BC
:1030600092010E9422202DA73EA74FA758AB69AF1F
:103070007AAF8BAF9CAFC701B601A30192010E944A
:103080002220CA01B90129A93AA94BA95CA90E9429
:10309000DC1F6B017C0149AD5AAD6BAD7CAD9A0173
:1030A000112700274DA95EA96FA978AD60707070D7
:1030B000042B152B262B372B8DA59EA5AFA5B8A9C4
:1030C0000C151D052E053F05C0F40197A109B10996
:1030D000080D191D2A1D3B1D081519052A053B055C
:1030E00060F00C151D052E053F0538F48DA59EA535
:1030F000AFA5B8A90297A109B10909A51AA52BA5E1
:103100003CA57801DD24CC24C82AD92AEA2AFB2A46
:10311000B7C481149104A104B10451F461E070E0DA
:1031200080E090E0A50194010E94222049015A010B
:1031300010E0811610E0910611E0A10610E0B10642
:1031400058F42FEF82169104A104B10409F090F411
:1031500080E090E0DC0117C030E0831630E0930699
:1031600030E0A30631E0B30650F480E190E0A0E047
:10317000B0E009C088E090E0A0E0B0E004C088E1E1
:1031800090E0A0E0B0E0B501A401082E04C076955F
:103190006795579547950A94D2F7FA01E050F04E9B
:1031A0002081AC01BD01420F511D611D711D80E2E6
:1031B00090E0A0E0B0E0841B950BA60BB70B51F498
:1031C000C818D908EA08FB08F1E04F2E512C612CF1
:1031D000712C28C1082E04C0880C991CAA1CBB1C89
:1031E0000A94D2F797018601042E04C036952795DC
:1031F000179507950A94D2F709AB1AAB2BAB3CABEA
:1032000097018601082E04C0000F111F221F331FD3
:103210000A94D2F70DA71EA72FA738ABEDA8FEA8DA
:103220000FA918AD04C016950795F794E7944A9531
:10323000D2F7B801A7010DA51EA52FA538A9042B0B
:10324000152B262B372B0DA71EA72FA738ABEDA8C4
:10325000FEA80FA918AD04C0EE0CFF1C001F111F23
:103260008A95D2F7EDAAFEAA0FAB18AF2501662406
:103270007724950184012070307009AF1AAF2BAF0D
:103280003CAF69A97AA98BA99CA9A30192010E94CC
:10329000222029A73AA74BA75CA76B017C0169A94B
:1032A0007AA98BA99CA9A30192010E942220CA019C
:1032B000B90129AD3AAD4BAD5CAD0E94DC1FAB014D
:1032C000BC017601DD24CC240DA51EA52FA538A9AF
:1032D000C901AA27BB27C82AD92AEA2AFB2A09A595
:1032E0001AA52BA53CA5C416D506E606F70638F5A3
:1032F000015010402040304009AB1AAB2BAB3CAB27
:10330000C80CD91CEA1CFB1CC814D904EA04FB0431
:10331000D0F0C416D506E606F706A8F409A51AA546
:103320002BA53CA5025010402040304009AB1AAB01
:103330002BAB3CABC80CD91CEA1CFB1C04C009AB72
:103340001AAB2BAB3CABC41AD50AE60AF70AC70185
:10335000B601A30192010E94222029A73AA74BA7F8
:103360005CA721966CAF7DAF8EAF9FAF2197C70151
:10337000B601A30192010E942220CA01B90129AD20
:103380003AAD4BAD5CAD0E94DC1F8B019C012196D8
:103390004CAD5DAD6EAD7FAD2197DA0199278827E1
:1033A0004DA55EA56FA578A960707070842B952BD4
:1033B000A62BB72B49A55AA56BA57CA5801791070D
:1033C000A207B307F0F44150504060407040880DB0
:1033D000991DAA1DBB1D88159905AA05BB0588F076
:1033E00080179107A207B30760F449A55AA56BA5FA
:1033F0007CA54250504060407040880D991DAA1D28
:10340000BB1D6C017D01C01AD10AE20AF30A09A9A9
:103410001AA92BA93CA9380155244424442A552A29
:10342000662A772A8501222733270DA71EA72FA7F3
:1034300038AB950184012070307009AF1AAF2BAF03
:103440003CAFC701B6012DA53EA54FA558A90E94C6
:10345000222029A73AA74BA75CA769AB7AAB8BAB15
:103460009CABC701B6012DA53EA54FA558A90E944A
:103470002220CA01B90129AD3AAD4BAD5CAD0E9425
:10348000DC1FAB01BC0109A91AA92BA93CA9780131
:10349000DD24CC240DA91EA92FA938ADC901AA2766
:1034A000BB27C82AD92AEA2AFB2A09A51AA52BA5CF
:1034B0003CA5C416D506E606F70638F501501040BF
:1034C0002040304009AB1AAB2BAB3CABC80CD91C2D
:1034D000EA1CFB1CC814D904EA04FB04D0F0C4168F
:1034E000D506E606F706A8F409A51AA52BA53CA55E
:1034F000025010402040304009AB1AAB2BAB3CAB24
:10350000C80CD91CEA1CFB1C04C009AB1AAB2BABC2
:103510003CABC41AD50AE60AF70AC701B6012DA5C5
:103520003EA54FA558A90E94222029A73AA74BA73C
:103530005CA721966CAF7DAF8EAF9FAF2197C7017F
:10354000B6012DA53EA54FA558A90E942220CA016B
:10355000B90129AD3AAD4BAD5CAD0E94DC1F8B01CA
:103560009C0121964CAD5DAD6EAD7FAD2197DA012A
:10357000992788274DA95EA96FA978AD60707070F2
:10358000842B952BA62BB72B49A55AA56BA57CA5FB
:1035900080179107A207B307D0F441505040604014
:1035A0007040880D991DAA1DBB1D88159905AA0597
:1035B000BB0568F080179107A207B30740F449A53F
:1035C0005AA56BA57CA5425050406040704009A9A7
:1035D0001AA92BA93CA97801DD24CC24C42AD52A18
:1035E000E62AF72A50C2C816D906EA06FB0608F4EE
:1035F00037C2803010E0910711E0A10710E0B10759
:1036000050F48F3F9105A105B10509F088F400E061
:1036100010E0980116C0803020E0920720E0A20759
:1036200021E0B20750F400E110E020E030E009C0F2
:1036300008E010E020E030E004C008E110E020E005
:1036400030E0AC01BD01002E04C07695679557951A
:1036500047950A94D2F7FA01E050F04E4081040FEA
:10366000111D211D311D40E250E060E070E0401B63
:10367000510B620B730BA1F48C159D05AE05BF05B4
:1036800008F4F5C1EDA8FEA80FA918AD44245524EF
:103690003201E814F9040A051B0508F0EBC1E3C187
:1036A000342E2C013D0104C0440C551C661C771CB3
:1036B0004A95D2F7D501C401002E04C0B695A7954E
:1036C000979587950A94D2F7482A592A6A2A7B2A1D
:1036D000A5019401032C04C0220F331F441F551F62
:1036E0000A94D2F729AF3AAF4BAF5CAFB701A6014E
:1036F000002E04C076956795579547950A94D2F7A2
:1037000049AB5AAB6BAB7CABC701B601032C04C011
:10371000660F771F881F991F0A94D2F76DA77EA79F
:103720008FA798AB8DA99EA9AFA9B8AD04C0B695D7
:10373000A795979587950A95D2F74DA55EA56FA594
:1037400078A9482B592B6A2B7B2B4DA75EA76FA717
:1037500078AB4301AA24BB2493018201207030700E
:1037600021960CAF1DAF2EAF3FAF219769A97AA963
:103770008BA99CA9A50194010E94222029A73AA700
:103780004BA75CA76B017C0169A97AA98BA99CA9AD
:10379000A50194010E942220CA01B90121962CADF5
:1037A0003DAD4EAD5FAD21970E94DC1FDC01CB012A
:1037B0007601DD24CC240DA51EA52FA538A9A901CD
:1037C00066277727C42AD52AE62AF72A09A51AA543
:1037D0002BA53CA5C816D906EA06FB0638F501500C
:1037E00010402040304009AB1AAB2BAB3CABC40CB3
:1037F000D51CE61CF71CC414D504E604F704D0F06D
:10380000C816D906EA06FB06A8F409A51AA52BA531
:103810003CA5025010402040304009AB1AAB2BAB06
:103820003CABC40CD51CE61CF71C04C009AB1AAB9E
:103830002BAB3CABC81AD90AEA0AFB0AC701B6018E
:10384000A50194010E94222029A73AA74BA75CA7B3
:1038500029966CAF7DAF8EAF9FAF2997C701B60198
:10386000A50194010E942220CA01B90121962CAD24
:103870003DAD4EAD5FAD21970E94DC1F4B015C0159
:1038800029964CAD5DAD6EAD7FAD29979A0111279C
:1038900000278DA59EA5AFA5B8A9A070B070082B74
:1038A000192B2A2B3B2B89A59AA5ABA5BCA50815DE
:1038B00019052A053B05E0F40197A109B109040D9A
:1038C000151D261D371D041515052605370580F025
:1038D000081519052A053B0558F489A59AA5ABA535
:1038E000BCA50297A109B109040D151D261D371DA0
:1038F000B901A801481959096A097B094DA75EA7B2
:103900006FA778AB09A91AA92BA93CA97801DD24D6
:10391000CC24C82AD92AEA2AFB2AFFEF8F2EFFEFF0
:103920009F2EA12CB12C8C209D20AE20BF20870182
:103930002227332709A71AA72BA73CA749AC5AACC3
:103940006BAC7CAC2FEF3FEF40E050E042225322C3
:103950006422752229AD3AAD4BAD5CAD8A012227B8
:10396000332709AB1AAB2BAB3CABC501B401A301A8
:1039700092010E94DC1F69AF7AAF8BAF9CAFC5018B
:10398000B40129A93AA94BA95CA90E94DC1F4B01EB
:103990005C0169A57AA58BA59CA5A30192010E9453
:1039A000DC1F2B013C0169A57AA58BA59CA529A943
:1039B0003AA94BA95CA90E94DC1FAB01BC01840C95
:1039C000951CA61CB71C09AD1AAD2BAD3CADC901A9
:1039D000AA27BB27880E991EAA1EBB1E8414950415
:1039E000A604B70420F4405050406F4F7F4FC501EC
:1039F000AA27BB27840F951FA61FB71F0DA51EA5BD
:103A00002FA538A9081719072A073B0718F18017AF
:103A10009107A207B307A1F554019924882489AD21
:103A20009AADABADBCADA070B070880E991EAA1E49
:103A3000BB1E4DA95EA96FA978AD032C04C0440F2D
:103A4000551F661F771F0A94D2F7481559056A0556
:103A50007B05B0F40894C108D108E108F10810C052
:103A6000442455243201CC24DD2476010CC04424A6
:103A70005524320181E0C82ED12CE12CF12C03C059
:103A8000442455243201FE01319688E0DF011D9265
:103A90008A95E9F7C982DA82EB82FC824D825E82E6
:103AA0006F8278862C2D3A814B815C81642D7E81DA
:103AB0008F8198852596ECACFDAC0EAD1FAD25979A
:103AC000E114F1040105110509F456C02195E1E066
:103AD000121608F0E0E03195F1E0131608F0F0E07E
:103AE000032F0E1BE1E0301708F0E0E0FE2B4195BC
:103AF000E1E0141608F0E0E0142F1F1B31E041173D
:103B000008F030E0E32B5195F1E0151608F0F0E0F5
:103B1000B52FBE1B31E05B1708F030E0F32B619549
:103B2000E1E0161608F0E0E0462E4F1A31E0641589
:103B300008F030E0E32B7195F1E0171608F0F0E0A3
:103B4000A72FAE1B31E07A1708F030E0F32B8195F8
:103B5000E1E0181608F0E0E0F82EFF1AFF2D31E042
:103B60008F1508F030E0E32B9195302F412F5B2F1C
:103B7000642D7A2F8F2F9E1BC85BDF4FE1E10C94E1
:103B80007920CF93DF93CDB7DEB7C256D140CDBFFA
:103B9000DEBF0E946D02CE014196BE01615F7F4F84
:103BA000AE01435F5F4F0E94A1050E94CD13CE017D
:103BB0000B96BE01675F7F4FAE01495F5F4F0E946A
:103BC000A105CE010596BE016D5F7F4FAE014F5F2F
:103BD0005F4F0E94A406000080E061ECAE01415AF4
:103BE0005E4F9E01255A3E4F8E01095A1E4FEE240C
:103BF000E394ECE0CE2E0E94640880E061ECAE011C
:103C00004D5A5E4F9E01215B3E4F8E01055B1E4F5C
:103C1000EE240E94640880E00E949102000081E08E
:103C20000E94910280E061ECAE01495B5E4F9E0113
:103C30002D5B3E4F8E01015C1E4F0E94640880E0A8
:103C40000E949102000081E00E94910280E061ECFC
:103C5000AE01455C5E4F9E01295C3E4F8E010D5CBE
:103C60001E4F0E94640880E061ECAE01415D5E4F32
:103C70009E01255D3E4F8E01095D1E4FEE24E394AB
:103C80000E94640880E00E949102000081E00E948E
:103C9000910281E062ECAE014D5D5E4F9E01215EBE
:103CA0003E4F8E01055E1E4F0E94640881E062EC6B
:103CB000AE01495E5E4F9E012D5E3E4F8E01015F5B
:103CC0001E4FEE240E94640880E00E9491020000D2
:103CD00081E00E94910281E062ECAE01455F5E4F9F
:103CE0009E01295F3E4F8E010D5F1E4F0E946408AA
:103CF00080E00E949102000081E00E94910281E038
:103D000062ECAE0141505F4F9E0125503F4F8E0146
:103D100009501F4F0E94640881E062ECAE014D50D3
:103D20005F4F9E0121513F4F8E0105511F4FEE24E1
:103D3000E3940E94640880E00E949102000081E008
:103D40000E94910281E00E94BB0283E068ECAE0118
:103D500049515F4F9E012D513F4F8E0101521F4F20
:103D6000EE240E94640880E00E94BB0280E00E9472
:103D70009102000081E00E94910281E00E94BB025A
:103D800083E068ECAE0145525F4F9E0129523F4FE0
:103D90008E010D521F4F0E94640880E00E94BB02FA
:103DA00080E00E949102000081E00E94910281E087
:103DB0000E94BB0284E061ECAE0141535F4F9E0163
:103DC00025533F4F8E0109531F4F0E94640880E026
:103DD0000E94BB0280E00E949102000081E00E94EC
:103DE000910281E00E94BB0284E061ECAE014D5380
:103DF0005F4F9E0121543F4F8E0105541F4F0E947B
:103E0000640880E00E94BB0280E00E9491020000F2
:103E100081E00E9491020E9470130E9465120E942C
:103E20002A1281E00E949102000081E00E9491022A
:103E300084E061ECAE0149545F4F9E012D543F4F29
:103E40008E0101551F4F0E94640884E061ECAE01B1
:103E500045555F4F9E0129553F4F8E010D551F4F10
:103E60000E94640880E00E949102000085E062ECFC
:103E7000AE0141565F4F9E0125563F4F8E010956B8
:103E80001F4F0E94640885E062ECAE014D565F4F03
:103E90009E0121573F4F8E0105571F4F0E94640816
:103EA00086E064ECAE0149575F4F9E012D573F4FAE
:103EB0008E0101581F4F0E94640886E064ECAE0139
:103EC00045585F4F9E0129583F4F8E010D581F4F97
:103ED0000E94640887E064ECAE0141595F4F9E0187
:103EE00025593F4F8E0109591F4F0E94640887E0F2
:103EF00064ECAE014D595F4F9E01215A3F4F8E0138
:103F0000055A1F4F0E946408000085E062ECAE0174
:103F1000495A5F4F9E012D5A3F4F8E01015B1F4F43
:103F2000F4E0EF2E0E946408000085E062ECAE0130
:103F3000455B5F4F9E01295B3F4F8E010D5B1F4F1D
:103F40000E946408000086E064ECAE01415C5F4FB3
:103F50009E01255C3F4F8E01095C1F4F0E94640843
:103F6000000086E064ECAE014D5C5F4F9E01215D78
:103F70003F4F8E01055D1F4F0E946408000087E0DF
:103F800064ECAE01495D5F4F9E012D5D3F4F8E0198
:103F9000015E1F4F0E946408000087E064ECAE01E0
:103FA000455E5F4F9E01295E3F4F8E010D5E1F4FA4
:103FB0000E9464080000FFCF629FD001739FF00150
:103FC000829FE00DF11D649FE00DF11D929FF00DA9
:103FD000839FF00D749FF00D659FF00D9927729FE0
:103FE000B00DE11DF91F639FB00DE11DF91FBD016B
:103FF000CF0111240895AA1BBB1B51E107C0AA1FC2
:10400000BB1FA617B70710F0A61BB70B881F991F79
:104010005A95A9F780959095BC01CD01089597FB1D
:10402000092E07260AD077FD04D0E5DF06D0002050
:104030001AF4709561957F4F0895F6F790958195E4
:104040009F4F0895A1E21A2EAA1BBB1BFD010DC0B4
:10405000AA1FBB1FEE1FFF1FA217B307E407F50738
:1040600020F0A21BB30BE40BF50B661F771F881F14
:10407000991F1A9469F760957095809590959B01AA
:10408000AC01BD01CF01089597FB092E05260ED086
:1040900057FD04D0D7DF0AD0001C38F45095409566
:1040A000309521953F4F4F4F5F4F0895F6F790950C
:1040B0008095709561957F4F8F4F9F4F08952F92F8
:1040C0003F924F925F926F927F928F929F92AF92A8
:1040D000BF92CF92DF92EF92FF920F931F93CF93F5
:1040E000DF93CDB7DEB7CA1BDB0BCDBFDEBF1994A4
:1040F0002A88398848885F846E847D848C849B8478
:10410000AA84B984C884DF80EE80FD800C811B8185
:10411000AA81B981CE0FD11DCDBFDEBFED010895BB
:04412000F894FFCF41
:10412400000102020303030304040404040404045A
:10413400050505050505050505050505050505052B
:10414400060606060606060606060606060606060B
:1041540006060606060606060606060606060606FB
:1041640007070707070707070707070707070707DB
:1041740007070707070707070707070707070707CB
:1041840007070707070707070707070707070707BB
:1041940007070707070707070707070707070707AB
:1041A400080808080808080808080808080808088B
:1041B400080808080808080808080808080808087B
:1041C400080808080808080808080808080808086B
:1041D400080808080808080808080808080808085B
:1041E400080808080808080808080808080808084B
:1041F400080808080808080808080808080808083B
:10420400080808080808080808080808080808082A
:10421400080808080808080808080808080808081A
:00000001FF
