:100000000C9416010C9437010C9437010C943701B1
:100010000C9437010C9437010C9437010C94370180
:100020000C9437010C9437010C9437010C94370170
:100030000C9437010C9437010C9460090C9437012F
:100040000C9411080C94E9070C94C1070C947B07DD
:100050000C9437010C9437010C9437010C94370140
:100060000C9437010C9437010C9437010C94370130
:100070000C9437010C9437010C9437010C94370120
:100080000C9437010C9437010C9437010C94370110
:100090000C9437010C9437010C9437010C94370100
:1000A0000C9437010C9437010C9437010C943701F0
:1000B0000C9437010C9437010C9437010C943701E0
:1000C0000C9437010C9437010C9437010C943701D0
:1000D0000C9437010C9437010C9437010C943701C0
:1000E0000C9437010C9437010C9437010C943701B0
:1000F0000C9437010C9437010C9437010C943701A0
:100100000C94BA170C9437010C9437010C943701F6
:100110000C9437010C9437010C9437010C9437017F
:100120000C9437010C9437010C9437010C9437016F
:100130000C9437010C9438090C9437010C94530734
:100140000C942B070C9403070C94D9060C943701DC
:100150000C9437010C9437010C9437010C9437013F
:100160000C9437010C9437010C9437010C9437012F
:100170000C9437010C9437010C9437010C9437011F
:100180000C9437010C9437010C9437010C9437010F
:100190000C9437010C9437010C9437010C943701FF
:1001A0000C94EE050C94B6040C9437010C943701B2
:1001B0000C9437010C9437010C9437010C943701DF
:1001C0000C9437010C9437010C9437010C943701CF
:1001D0000C9437010C9437010C9437010C943701BF
:1001E0000C9437010C943701524144494F204E4F33
:1001F0005420494E495449414C495A454420505293
:100200004F5045524C590A004255464645522046E9
:10021000554C4C2E20544F5353494E4720494E4382
:100220004F4D494E4720444154410A0011241FBEFE
:10023000CFEFDFE5DEBFCDBF00E00CBF11E2A0E0F5
:10024000B0E2EAE4F1E700E00BBF02C007900D92D4
:10025000AC31B107D9F710E5ACE1B1E201C01D92B4
:10026000A93BB107E1F70E94AB2B0C94A3380C9487
:100270000000CF93C62F21E030E0A90102C0440F57
:10028000551F8A95E2F7CA0161E00E94361BC0FF44
:1002900005C080E4E0E0F6E0858304C080E4E0E0AF
:1002A000F6E08683C1FF05C082E0E0E2F6E08583E8
:1002B00004C082E0E0E2F6E08683C2FF05C084E08D
:1002C000E0E2F6E0858304C084E0E0E2F6E08683C5
:1002D0005AE05A95F1F700C08FEF61E00E948D1B44
:1002E000CF910895CF93DF93C82FC370D82FDC70C0
:1002F000282F30E0A901457050704115510549F093
:1003000090915D50482F42954F70907F942B909321
:100310005D502A7030702115310539F090915D5093
:10032000807F9F70892B80935D5084E00E94FD1A2E
:1003300080915D5080934750CC2319F081E00E945A
:10034000E51ADD2319F081E00E94F11A81E00E9494
:10035000201B8FEFE0ECF8E0838382818823ECF7A9
:10036000E0ECF8E08381809353500000A3E5B0E512
:100370001C978C91838382818823ECF7E0ECF8E072
:1003800083818093535080E00E94201BCC2319F07E
:1003900080E00E94E51ADD2319F080E00E94F11A46
:1003A0000E942C1BDF91CF9108950F931F93CF9341
:1003B000DF93882309F446C000E016E08EEDD801F3
:1003C00011968C93C0E2D6E04EE04983E0E4F6E07B
:1003D00063E0618380E896E050E1DC0111965C9374
:1003E00020EA36E0D90111964C937EE9D8011596A2
:1003F0007C9378E07D836583EC015D83D90115965C
:100400004C9310925D508FEF97E8A3E1815090409C
:10041000A040E1F700C0000080E4828310925E50AB
:100420001092B0501092B923109256508FEF61E0A5
:100430000E943A1C8FEF61E00E948D1B8FEF0E949B
:10044000720132C000E016E07EEDD80116967C9372
:10045000A0E2B6E04EE016964C93169720E436E004
:1004600063E0E9016E83C0E8D6E050E15E8380EA94
:1004700096E0FC014683F801728312964C93D901F1
:1004800012966C9312975A83EC014A8380E4129679
:100490008C93129710925E501092B0501092B92324
:1004A0001092565010925D50DF91CF911F910F9195
:1004B00008954F925F926F927F928F929F92AF9228
:1004C000BF92EF92FF920F931F93CF93DF93CDB71D
:1004D000DEB72B97CDBFDEBF8E839F83688779877A
:1004E0004A875B8781E00E94D50184E060E00E943A
:1004F0003A1C84E060E00E948D1B2FEF33EC49E052
:10050000215030404040E1F700C0000080E492E01C
:100510000E94671300E412E0D80111968C911197A4
:10052000897E11968C93119714968C911497887FDD
:10053000836014968C93149712968C9112978F7CEB
:1005400012968C9312970F2EF0E6EF2EF2E0FF2E0C
:10055000F02DF7018081807E8160808389E0818336
:100560008C9181608C9380E492E00E94EC1280E494
:1005700092E060E672E040E00E94F6128983D801C2
:100580008C918E7F8C93F701118213968C91139727
:100590008F7313968C9313978C9181608C9380E466
:1005A00092E00E94EC12D80111968C91119788600C
:1005B00011968C93EE24FF246894F2F84424552479
:1005C000320120E030E140E050E02A833B834C835D
:1005D0005D8388249924540100E612E0D801139623
:1005E0008C91139780FFFACF6981C8010E94C812CD
:1005F000A0E0B0E0880E991EAA1EBB1E4816590640
:100600006A067B0610F42C013D012A813B814C8156
:100610005D8182179307A407B50720F48A839B8323
:10062000AC83BD830894E108F108E114F104B1F64C
:10063000E0E4F2E08181877F818380818E7F808307
:1006400084E060E00E94E21B80E00E94D501C501C9
:10065000B401052E5AE096958795779567955A953A
:10066000D1F7502D28EE33E040E050E00E941A35DB
:100670000F2EFFEF8F2EFFE09F2EF0E0AF2EF0E069
:10068000BF2EF02DA50194010E946035C901C297CB
:10069000AE81BF818D939C93C301B20128EE33E0FC
:1006A00040E050E00E941A35A50194010E94603597
:1006B000C901C297EA85FB85808391836A817B812A
:1006C0008C819D8128EE33E040E050E00E941A3595
:1006D000A50194010E94603522533040A885B98558
:1006E0002D933C9311972B96CDBFDEBFDF91CF9119
:1006F0001F910F91FF90EF90BF90AF909F908F90C0
:100700007F906F905F904F9008954F925F926F929D
:100710007F928F929F92AF92BF92EF92FF920F9330
:100720001F93CF93DF93CDB7DEB72B97CDBFDEBF3F
:100730008E839F83688779874A875B8781E00E94E1
:10074000D50180E092E00E94671300E012E0D8013A
:1007500011968C911197897E11968C93119714960E
:100760008C911497887F836014968C9314971296BB
:100770008C9112978F7C12968C9312970F2EF0E229
:10078000EF2EF2E0FF2EF02DF7018081807E816058
:10079000808389E081838C9181608C9380E092E0FA
:1007A0000E94EC1280E092E060E272E040E00E9481
:1007B000F6128983D8018C918E7F8C93F701118278
:1007C00013968C9113978F7313968C9313978C9128
:1007D00081608C9380E092E00E94EC12D801119627
:1007E0008C911197886011968C93EE24FF24689465
:1007F000F2F844245524320120E030E140E050E09A
:100800002A833B834C835D8388249924540100E22E
:1008100012E0D80113968C91139780FFFACF69816B
:10082000C8010E94C812A0E0B0E0880E991EAA1E5E
:10083000BB1E481659066A067B0610F42C013D01C2
:100840002A813B814C815D8182179307A407B507FC
:1008500020F48A839B83AC83BD830894E108F1086C
:10086000E114F104B1F6E0E0F2E08181877F818359
:1008700080818260808380818E7F808380E00E947F
:10088000D501C501B401052E5AE096958795779557
:1008900067955A95D1F7502D28EE33E040E050E0AF
:1008A0000E941A350F2EFFEF8F2EFFE09F2EF0E0F3
:1008B000AF2EF0E0BF2EF02DA50194010E9460350F
:1008C000C901C297AE81BF818D939C93C301B201D0
:1008D00028EE33E040E050E00E941A35A501940173
:1008E0000E946035C901C297EA85FB8580839183A8
:1008F0006A817B818C819D8128EE33E040E050E06D
:100900000E941A35A50194010E946035225330409F
:10091000A885B9852D933C9311972B96CDBFDEBF4B
:10092000DF91CF911F910F91FF90EF90BF90AF900B
:100930009F908F907F906F905F904F900895882345
:1009400031F0E0E0F6E080E2818385830895E0E025
:10095000F6E080E286838283089588E060E00E946A
:10096000E21B88E060E00E94361B08951F920F9200
:100970000FB60F920BB60F921124AF92BF92CF9287
:10098000DF92EF92FF920F931F932F933F934F931A
:100990005F936F937F938F939F93AF93BF93EF93E7
:1009A000FF93CF93DF93CDB7DEB72A97CDBFDEBFDE
:1009B00080918050909181508A30910520F00E9462
:1009C0005A2B0000FECF80914040882334F0809164
:1009D00040408F5F80934040E1C084E00E94FD1A58
:1009E00084E58093C00881E00E94201B82E0E0EA59
:1009F000F6E0868380E090E0A0ECB8E04AEA27E4E5
:100A000030E513964C93139712965C9112975523E9
:100A1000DCF713965C911397F901E80FF91F5083E7
:100A200001968330910569F782E0E0EAF6E085837C
:100A300080E00E94201B80914750882324F48FEF90
:100A40008093484002C01092484080914750E7E4AC
:100A5000F0E48093474080914850DF0111978C93D8
:100A6000809149503297808380819181A281B381A6
:100A7000AC01BD01770F440B542FBA018093825013
:100A800090938350A0938450B093855040938650A8
:100A9000409387504093885040938950E091545040
:100AA000F091555020918250309183504091845064
:100AB00050918550609186507091875080918850F8
:100AC00090918950EE0FFF1FEE0FFF1FDF01AE5315
:100AD000BC4DA987BA870F2EF0EAAF2EF02D0F2E4E
:100AE000F5E2BF2EF02D0F2EF6E2CF2EF02DDD24F5
:100AF000EE24FF2400E010E00E94AF2BAA24AA9469
:100B0000BB24BA940F2EFFE7CF2EF02D0E945E2D4E
:100B100001E00E94822C0F2EF3E0AF2EF02DBB24BB
:100B2000CC2400E00E945E2D29833A834B835C83B2
:100B30006D837E838F83988789819A81AB81BC8105
:100B4000B095A095909581959F4FAF4FBF4FE98588
:100B5000FA8580839183A283B383809154509091CE
:100B60005550019680935450909355508091545015
:100B7000909155508038910588F080E090E20E9475
:100B80008A24109254501092555080918050909128
:100B90008150019680938050909381502A96CDBFCA
:100BA000DEBFDF91CF91FF91EF91BF91AF919F9108
:100BB0008F917F916F915F914F913F912F911F91F5
:100BC0000F91FF90EF90DF90CF90BF90AF900F907C
:100BD0000BBE0F900FBE0F901F9018951F920F9293
:100BE0000FB60F920BB60F9211242F933F934F9392
:100BF0005F936F937F938F939F93AF93BF93EF9385
:100C0000FF9380914040882334F0809140408F5F73
:100C1000809340406EC081E00E94201B82E0E0EAA9
:100C2000F6E0868380E090E0E0ECF8E05AEA27E422
:100C300030E5538342814423ECF74381D901A80F67
:100C4000B91F4C9301968330910599F782E0E0EA51
:100C5000F6E0858380E00E94201B80914750882326
:100C60006CF4E0915450F0915550EE0FFF1FEE0FD1
:100C7000FF1FE85BFF4B8FEF80830BC0E091545068
:100C8000F0915550EE0FFF1FEE0FFF1FE85BFF4B7B
:100C90001082E0915450F091555080914750EE0FE2
:100CA000FF1FEE0FFF1FE95BFF4B8083E091545065
:100CB000F091555080914850EE0FFF1FEE0FFF1F2F
:100CC000EA5BFF4B8083E0915450F0915550EE0F5A
:100CD000FF1FEE0FFF1FEB5BFF4B8091495080839E
:100CE0008091545090915550019680935450909318
:100CF0005550FF91EF91BF91AF919F918F917F914F
:100D00006F915F914F913F912F910F900BBE0F907C
:100D10000FBE0F901F901895882349F080E260E085
:100D20000E943A1C80E260E00E948D1B089580E2E0
:100D300060E00E94E21B089582E0E0EAF6E086832C
:100D40008AEAE0ECF8E0838382818823ECF79091D3
:100D5000AA50E0ECF8E08381A7E4B0E5A90FB11D4B
:100D60008C938AEA838382818823ECF7A091AA502E
:100D7000B0E0E0ECF8E08381A85BBF4A8C938AEA9C
:100D8000838382818823ECF7E091AA50F0E0A0EC05
:100D9000B8E013968C911397E75BFF4A808382E05B
:100DA000E0EAF6E085838091AA508D5F8093AA5097
:100DB00008951F920F920FB60F920BB60F92112447
:100DC0002F933F934F935F936F937F938F939F9353
:100DD000AF93BF93EF93FF930E949C061092AA508B
:100DE000FF91EF91BF91AF919F918F917F916F9103
:100DF0005F914F913F912F910F900BBE0F900FBEBF
:100E00000F901F9018951F920F920FB60F920BB66E
:100E10000F9211242F933F934F935F936F937F9380
:100E20008F939F93AF93BF93EF93FF930E949C0682
:100E3000FF91EF91BF91AF919F918F917F916F91B2
:100E40005F914F913F912F910F900BBE0F900FBE6E
:100E50000F901F9018951F920F920FB60F920BB61E
:100E60000F9211242F933F934F935F936F937F9330
:100E70008F939F93AF93BF93EF93FF930E949C0632
:100E8000FF91EF91BF91AF919F918F917F916F9162
:100E90005F914F913F912F910F900BBE0F900FBE1E
:100EA0000F901F9018951F920F920FB60F920BB6CE
:100EB0000F9211242F933F934F935F936F937F93E0
:100EC0008F939F93AF93BF93EF93FF930E949C06E2
:100ED000FF91EF91BF91AF919F918F917F916F9112
:100EE0005F914F913F912F910F900BBE0F900FBECE
:100EF0000F901F9018951F920F920FB60F920BB67E
:100F00000F9211242F933F934F935F936F937F938F
:100F10008F939F93AF93BF93EF93FF930E949C0691
:100F20001092AA50E0E2F6E0848181FF0FC0E0E079
:100F3000F6E0848186FF05C082E0E0E2F6E0878388
:100F40000DC080E4E0E0F6E0878308C080E4E0E0E4
:100F5000F6E0868382E0E0E2F6E08583FF91EF91A0
:100F6000BF91AF919F918F917F916F915F914F91C1
:100F70003F912F910F900BBE0F900FBE0F901F90BF
:100F800018951F920F920FB60F920BB60F92112465
:100F90002F933F934F935F936F937F938F939F9381
:100FA000AF93BF93EF93FF930E949C06FF91EF9145
:100FB000BF91AF919F918F917F916F915F914F9171
:100FC0003F912F910F900BBE0F900FBE0F901F906F
:100FD00018951F920F920FB60F920BB60F92112415
:100FE0002F933F934F935F936F937F938F939F9331
:100FF000AF93BF93EF93FF930E949C06FF91EF91F5
:10100000BF91AF919F918F917F916F915F914F9120
:101010003F912F910F900BBE0F900FBE0F901F901E
:1010200018951F920F920FB60F920BB60F921124C4
:101030002F933F934F935F936F937F938F939F93E0
:10104000AF93BF93EF93FF930E949C06FF91EF91A4
:10105000BF91AF919F918F917F916F915F914F91D0
:101060003F912F910F900BBE0F900FBE0F901F90CE
:101070001895FF920F931F93CF93DF93CDB7DEB7F1
:101080002897CDBFDEBF19821A821B821C828091F5
:1010900054509091555001968093545090935550D0
:1010A00080ED8093C00820E030E007E410E5FF24E5
:1010B000FA94C901F801E20FF31F4081442314F4AC
:1010C000F88601C01886800F911FFC0180818F83F4
:1010D000F9013196E00FF11F80818E83F90132967C
:1010E000E00FF11F80818D8349815A816B817C8162
:1010F0008D819E81AF81B885840F951FA61FB71F74
:1011000089839A83AB83BC832D5F3F4F2C3031059D
:1011100081F669817A818B819C8124E030E040E016
:1011200050E00E94823529833A834B835C83298176
:1011300089E490E5209349502A81FC01319720836E
:101140002B810297FC01208380E1E0E4F6E08683B6
:1011500088E0E0E2F6E08683000086E0E0ECF8E07C
:10116000838382818823ECF7E0ECF8E0838180932D
:101170005350A0E2B6E088E015968C9315970000D6
:1011800016968C931697000082E0838382818823D1
:10119000ECF7E0ECF8E083818093535080913B4082
:1011A000838382818823ECF7E0ECF8E083818093ED
:1011B000535080913A40838382818823ECF7E0EC9E
:1011C000F8E08381809353508091475083838281DC
:1011D0008823ECF7E0ECF8E0838180935350809112
:1011E0004850838382818823ECF7E0ECF8E0838128
:1011F0008093535080914950838382818823ECF7F8
:10120000A0ECB8E013968C9113978093535088E02C
:10121000E0E2F6E08583E0E4F6E080E1858394E5B2
:101220009C93868380913A4090913B4003968093B3
:101230003A4090933B4080911F21E7E4F0E5908194
:10124000890F80931F21809120219181890F8093A4
:101250002021809121219281890F8093212128963C
:10126000CDBFDEBFDF91CF911F910F91FF90089509
:101270001F920F920FB60F920BB60F9211242F935D
:101280003F934F935F936F937F938F939F93AF930E
:10129000BF93EF93FF930E943908FF91EF91BF91A5
:1012A000AF919F918F917F916F915F914F913F91FE
:1012B0002F910F900BBE0F900FBE0F901F9018959F
:1012C0001F920F920FB60F920BB60F9211242F930D
:1012D0003F934F935F936F937F938F939F93AF93BE
:1012E000BF93EF93FF930E943908FF91EF91BF9155
:1012F000AF919F918F917F916F915F914F913F91AE
:101300002F910F900BBE0F900FBE0F901F9018954E
:101310002F923F924F925F926F927F928F929F9205
:10132000AF92BF92CF92DF92EF92FF920F931F93F3
:10133000CF93DF9300D000D0CDB7DEB7E7E7F0E57D
:1013400010927750109278501092795010927A50F3
:1013500010927B5010927C5010927D5010927E50D3
:10136000DF0118971C9211961C92119712961C92ED
:10137000129713961C92139714961C921497159615
:101380001C92159716961C92169717961C9270979A
:1013900010821182128213821482158216821782A1
:1013A0008EE191E210921E21FC013197108202978A
:1013B000DC011C9210923A4010923B40E9E0F0E0D0
:1013C000E983FA830F2EF2EC8F2EF3E29F2EF02D9D
:1013D00044244A9407E710E50F2EFFE6EF2EF0E5D0
:1013E000FF2EF02D0F2EF7E6CF2EF0E5DF2EF02D9D
:1013F00081E79CE10E94901C80913A4090913B4093
:101400008F58934E80933A4090933B4020E030E0D9
:101410000F2EF9E02F2E3324F02DC90163E070E088
:101420000E943935AC01ACE1B1E2A80FB91F8C9133
:10143000F401E20FF31F9081890F8C934115510540
:1014400049F5F401E20FF31F808188236CF4E091E9
:101450004550F0914650108211821282438244829C
:101460004582468247820CC0E0914550F09146503B
:1014700010821182128213821482158216821782C0
:10148000F401E20FF31F8081E0914550F091465046
:10149000828318C04130510561F4A0914550B0914C
:1014A0004650F401E20FF31F808111968C9311973F
:1014B00009C0A0914550B0914650F401E20FF31FCE
:1014C00080818C93C901B1010E9439358230910528
:1014D00009F074C0F601A081718162815381448159
:1014E00095818681F781FD83E0914550F0914650CA
:1014F0005080B181BB83B281B380A4807580668047
:10150000E7815A0E5E82F1E05A1608F0F0E05B8047
:10151000570E5C82A1E0571608F0A0E07C817F0F97
:101520007B8371E0FB815C80F51508F070E0A72BF0
:10153000B60F71E0B61708F070E0AB0F61E0AB17C3
:1015400008F060E0762BB50E61E0B51608F060E0BB
:101550007B0D51E07B1508F050E0652BA40E51E0A7
:10156000A41608F050E06A0D41E06A1508F040E06A
:10157000542B790E41E0791608F040E0570D91E0C8
:10158000571508F090E0492B680E91E0681608F0B6
:1015900090E0460D81E0461508F080E0982B8D81A3
:1015A000E80F9E0F5E80F60150828B818183A283BB
:1015B00073836483558346839783EFC08530910599
:1015C00009F074C0F701A081718162815381448167
:1015D00095818681F781FD83E0914550F0914650D9
:1015E0005080B181BB83B281B380A4807580668056
:1015F000E7815A0E5E82F1E05A1608F0F0E05B8057
:10160000570E5C82A1E0571608F0A0E07C817F0FA6
:101610007B8371E0FB815C80F51508F070E0A72BFF
:10162000B60F71E0B61708F070E0AB0F61E0AB17D2
:1016300008F060E0762BB50E61E0B51608F060E0CA
:101640007B0D51E07B1508F050E0652BA40E51E0B6
:10165000A41608F050E06A0D41E06A1508F040E079
:10166000542B790E41E0791608F040E0570D91E0D7
:10167000571508F090E0492B680E91E0681608F0C5
:1016800090E0460D81E0461508F080E0982B8D81B2
:10169000E80F9E0F5E80F70150828B818183A283C9
:1016A0007383648355834683978377C0883091051D
:1016B00009F073C0F801A081718162815381448176
:1016C00095818681F781FD83E0914550F0914650E8
:1016D0005080B181BB83B281B380A4807580668065
:1016E000E7815A0E5E82F1E05A1608F0F0E05B8066
:1016F000570E5C82A1E0571608F0A0E07C817F0FB6
:101700007B8371E0FB815C80F51508F070E0A72B0E
:10171000B60F71E0B61708F070E0AB0F61E0AB17E1
:1017200008F060E0762BB50E61E0B51608F060E0D9
:101730007B0D51E07B1508F050E0652BA40E51E0C5
:10174000A41608F050E06A0D41E06A1508F040E088
:10175000542B790E41E0791608F040E0570D91E0E6
:10176000571508F090E0492B680E91E0681608F0D4
:1017700090E0460D81E0461508F080E0982B8D81C1
:10178000E80F9E0F5E80F80150828B818183A283D7
:10179000738364835583468397832F5F3F4F9CE118
:1017A0002137390709F039CEA981BA811197A98368
:1017B000BA83109709F01CCE2696CDBFDEBFDF910D
:1017C000CF911F910F91FF90EF90DF90CF90BF903E
:1017D000AF909F908F907F906F905F904F903F90D1
:1017E0002F9008952F923F924F925F926F927F9227
:1017F0008F929F92AF92BF92CF92DF92EF92FF9221
:101800000F931F93CF93DF9310923A4010923B4077
:10181000109254501092555081E291E21092212181
:10182000FC01319710820297EC01188281E00E943E
:10183000D50184E00E94FD1A80ED8093C0088DE000
:101840008093475083EF8093485087E580934950B9
:101850008091545090915550D5E583359D0708F0FF
:10186000ACC000E416E030E128E0E0ECF8E00F2E38
:10187000F6E09F2EF02DA3E5B0E58824689481F86A
:101880000F2EFAE3EF2EF0E4FF2EF02DBD016C5089
:1018900070400F2EF5EF6F2EFFEF7F2EF02D6A0EAA
:1018A0007B1E0F2EF6EF4F2EFFEF5F2EF02D4A0E10
:1018B0005B1E4FE151E26A010894C11CD11C1B015F
:1018C0000894211C311CAA24BB246894A1F8A40EFE
:1018D000B51EE8013E832093260600009382828194
:1018E0008823ECF783818C932093250600002093B6
:1018F00026060000838282818823ECF783818C9303
:10190000E7018981838382818823ECF783818C932B
:10191000E7018881838382818823ECF783818C931C
:10192000EB018881838382818823ECF783818C9308
:10193000E3018881838382818823ECF783818C9300
:10194000E2018881838382818823ECF783818C93F1
:1019500020932506E8013D8380913A4090913B40D9
:10196000039680933A4090933B40EA018881EB01D3
:101970009881890FEA018883E6018881E1019881D5
:10198000890FE6018883E5018881C9E4D0E5988163
:10199000890FE501888380915450909155500196AC
:1019A000809354509093555080915450909155503D
:1019B000D5E583359D0708F48CCF0E942C1B80E071
:1019C0000E94D501DF91CF911F910F91FF90EF9071
:1019D000DF90CF90BF90AF909F908F907F906F904F
:1019E0005F904F903F902F90089580FF05C020E4B6
:1019F000E0E0F6E0258304C020E4E0E0F6E02683A2
:101A000081FF05C022E0E0E2F6E0258304C022E089
:101A1000E0E2F6E0268382FF05C084E0E0E2F6E043
:101A20008583089584E0E0E2F6E0868308956F926E
:101A30007F928F929F92AF92BF92CF92DF92EF925E
:101A4000FF920F931F93CF93DF93CDB7DEB7182F7D
:101A5000762EF42E622E81E00E94D501812F6F2D0B
:101A60000E943901872D0E9472018E2D0E948C06E2
:101A700084E00E94FD1A84E58093C00881E00E9402
:101A80009F04812F0E94F50CE0EAF6E082E0808B53
:101A900091E0928398E790938001E0E0F9E090EF85
:101AA0009183C0A6D1A6A2A6B3A684A695A62A898C
:101AB0003B8926A737A710E00150104006A317A3C3
:101AC00086838FEF87838081807F886080831092F8
:101AD0003A4010923B401092545010925550109240
:101AE000AA5081E291E210922121FC0131971082EB
:101AF0000297FC011082E0EAF0E082818660828336
:101B0000789481E00E94201B80E2E0E8F6E0818387
:101B1000E0E4FAE083E2818380E290E0062C02C0F8
:101B2000880F991F0A94E2F786A397A380E190E0BB
:101B30009C0102C0220F331F6A94E2F722AF33AF39
:101B40008081807F81608083809154509091555036
:101B500035E583359307C0F3E0E0F9E08081807FCD
:101B60008083E0E4FAE08081807F8083E0EAF0E037
:101B70008281897F8283F89480E00E94201B0E94EA
:101B80002C1B80E00E949F0480E00E94D501DF9121
:101B9000CF911F910F91FF90EF90DF90CF90BF906A
:101BA000AF909F908F907F906F900895CF93DF9329
:101BB000CDB7DEB7182F3B01542E422E81E00E9494
:101BC000D50185E0F30160810E94390186E0F301CF
:101BD00061810E94390187E0F30162810E9439012D
:101BE000812F0E947201802F0E948C0684E00E9447
:101BF000FD1A84E58093C00881E00E949F0485E07F
:101C00000E94F50CE0EAF6E082E0808B91E092839E
:101C100098E790938001E0E0F8E090EF9183E0A6F0
:101C2000F1A6C2A6D3A6A4A6B5A686A697A6242DDD
:101C300030E02150304026A337A386838FEF87837F
:101C40008081807F8860808310923A4010923B4070
:101C500010925450109255501092AA5081E291E285
:101C600010922121FC01319710820297FC01108211
:101C7000E0EAF0E0828186608283789481E00E94CD
:101C8000201B80E2E0E8F6E08183E0E4FAE083E212
:101C9000818380E290E0052C02C0880F991F0A948E
:101CA000E2F786A397A380E190E002C0880F991F16
:101CB0005A94E2F782AF93AF8081807F8160808306
:101CC0000000FECF4F925F926F927F928F929F9211
:101CD000AF92BF92CF92DF92EF92FF920F931F933A
:101CE000CF93DF93CDB7DEB7182F3B01542E422E92
:101CF00081E00E94D50185E0F30160810E943901F5
:101D000086E0F30161810E94390187E0F30162817D
:101D10000E943901812F0E947201802F0E948C063F
:101D200084E00E94FD1A84E58093C00881E00E944F
:101D30009F0485E00E94F50CE0EAF6E082E0808BEB
:101D400091E0928398E790938001E0E0F8E090EFD3
:101D50009183E0A6F1A6C2A6D3A6A4A6B5A686A6A0
:101D600097A6242D30E02150304026A337A3868348
:101D70008FEF87838081807F8860808310923A40D4
:101D800010923B4010925450109255501092AA500D
:101D900081E291E210922121FC0131971082029799
:101DA000FC011082E0EAF0E0828186608283789410
:101DB00081E00E94201B80E2E0E8F6E08183E0E41D
:101DC000FAE083E2818380E290E0052C02C0880F74
:101DD000991F0A94E2F786A397A380E190E002C0DE
:101DE000880F991F5A94E2F782AF93AF8081807F6A
:101DF000816080838091545090915550F5E58335F2
:101E00009F07C0F3E0E0F8E08081807F8083E0E41A
:101E1000FAE08081807F8083E0EAF0E08281897F40
:101E20008283F89480E00E94201B0E942C1B80E09B
:101E30000E949F0480E00E94D501DF91CF911F9105
:101E40000F91FF90EF90DF90CF90BF90AF909F9059
:101E50008F907F906F905F904F9008950F931F9396
:101E6000CF93DF93D82F162F042FC22F81E00E942B
:101E7000D5010E94D91F8D2F602F0E943901812F1B
:101E80000E9472018D2F8550833018F481E00E94EA
:101E90008C0681E00E949F048D2F0E94F50C84E047
:101EA0000E94FD1A84E58093C008E0EAF6E081E034
:101EB000828392E0908B838784E0818780E2E0E8F0
:101EC000F6E08183E0E4FAE083E2818325E130E01B
:101ED0002C1B310981E090E002C0880F991F2A95E0
:101EE000E2F7019786A397A39695879582AF93AF64
:101EF0008081807F81608083E0EAF0E08281816080
:101F000082837894109254501092555010928050C1
:101F10001092815010924040DF91CF911F910F910C
:101F200008952F923F924F925F926F927F928F927D
:101F30009F92AF92BF92CF92DF92EF92FF920F9358
:101F40001F93CF93DF93CDB7DEB76297CDBFDEBFD0
:101F5000F82ED62E4B875C872D873E870F87188BF0
:101F600081E00E94D5018F2D6E2D0E9439018D2DAB
:101F70000E9472018F2D8550833018F481E00E94F9
:101F80008C0681E00E949F048F2D0E94F50C84E056
:101F90000E94FD1A84E58093C008E0EAF6E081E043
:101FA000828392E0908B8287818780E2E0E8F6E08E
:101FB0008183E0E4FAE083E2818385E190E09C01A3
:101FC0002C19310981E090E002C0880F991F2A95F1
:101FD000E2F7019786A397A39695879582AF93AF73
:101FE0008081807F81608083E0EAF0E0828181608F
:101FF0008283789410925450109255501092404021
:10200000809154509091555024E080309207C0F355
:10201000E0E4FAE08081807F8083E0EAF0E0828182
:102020008E7F8283F8940E942C1B80E00E949F0484
:1020300080E00E94D501109254501092555080912A
:1020400054509091555054E08030950708F055C198
:1020500061E06A871F8280E888879FEF9C83EFEFAB
:10206000EA8333243A9455245A9477247A94FFEFE0
:10207000F9872FEF2D835FE75E831B82198222246D
:1020800044246624E0E030E040E010E000E08824F2
:10209000FF2499240F2EF5E4AF2EF0E4BF2EF02D8F
:1020A000E98B4A8BE0915450F0915550EE0FFF1F91
:1020B000EE0FFF1FEA0DFB1D40815181628173818C
:1020C000C52ED62EE72EDB01CA01BB0F880B982F39
:1020D000DC01F82FE82F282F9989490F91E05989C1
:1020E000451708F090E0C30E51E0C31608F050E029
:1020F000392F3C0D91E03C1508F090E0592B6A898E
:10210000D60E91E0D61608F090E0752F7D0D51E0C7
:102110007D1508F050E0952BE10E51E0E11608F036
:1021200050E0192F1E0D91E01E1508F090E0592B7C
:10213000F00F91E0F01708F090E0052F0F0F51E03D
:102140000F1708F050E0952BE80D61E0E81508F056
:1021500060E0892E8E0E91E08E1608F090E0692BDB
:102160002F0D51E02F1508F050E0F62EF20E91E001
:10217000F21608F090E0592B980E498B7A8B950E49
:10218000E0915450F0915550EE0FFF1FEE0FFF1FDE
:10219000EA0DFB1D80819181A281B381682F492FB7
:1021A0005A2F2B2FBB0F880B982FDC01782F781616
:1021B0000CF18715C9F55816E8F08515A9F53816FC
:1021C000C8F0831589F58A818717A0F0781761F523
:1021D0009C81921778F0291739F5E885E51750F0BA
:1021E0005E1711F5FF81F41728F04F17E9F42A85DF
:1021F0002617D0F4E0915450F0915550EE0FFF1F88
:10220000EE0FFF1FEA0DFB1D80819181A281B3813A
:102210008A879F83A887BC83BB0F880B982FDC011C
:102220008A83382E582E782EE0915450F0915550D4
:10223000EE0FFF1FEE0FFF1FEA0DFB1D8081918146
:10224000A281B381682F492F5A2F2B2FBB0F880BE8
:10225000982FDC01782F86150CF16816C9F58415C6
:10226000E8F04816A9F58215C8F0281689F5898185
:102270007817A0F0871761F59B81291778F09217DE
:1022800039F5EE815E1750F0E51711F5FD814F1716
:1022900028F0F417E9F429856217D0F4E09154503E
:1022A000F0915550EE0FFF1FEE0FFF1FEA0DFB1DC3
:1022B00080819181A281B38189879D83AE83BB8315
:1022C000BB0F880B982FDC018983282E482E682E9F
:1022D0008091545090915550019680935450909312
:1022E0005550809154509091555054E0803095074E
:1022F00008F4D8CEE9894A8922C061E06A871F8242
:1023000080E888879FEF9C83EFEFEA8333243A9439
:1023100055245A9477247A94FFEFF9872FEF2D8371
:102320005FE75E831B821982222444246624E0E056
:1023300030E040E010E000E08824FF2499242E2FB4
:10234000512F602F782D8F2D992D99200CF042C0A0
:10235000AE2FA150F1E0AE1708F0F0E0E32FED5FF3
:1023600021E0E31708F020E0FE0F31E0FE1708F04F
:1023700030E0232B30E0B22FB40F21E0B41708F087
:1023800020E0322B20E0132F150F31E0151708F055
:1023900030E0232B30E0022F060F21E0061708F073
:1023A00020E0322B20E0832E870E31E0871608F0E4
:1023B00030E0232BF82EE0E0822F8F0D21E08F15E7
:1023C00008F020E0E22B2A2F3F2F4B2F512F602FB8
:1023D000782D9E0F0AE00E94F62C0F2EF0EAAF2E09
:1023E000F02D0F2EF5E2BF2EF02D0F2EF6E2CF2EA0
:1023F000F02DDD24EE24FF2400E010E00E94AF2B3E
:10240000AA24AA94BB24BA940F2EFFE7CF2EF02D56
:102410000E945E2D01E00E94822C0F2EF3E0AF2E71
:10242000F02DBB24CC2400E00E945E2D822E932E42
:10243000A42EB52EB094A09490948094811C911CED
:10244000A11CB11CEB85FC8580829182A282B382A3
:102450002A853F8148855C816A81732D852D972D62
:102460000F2EF0EAAF2EF02D0F2EF5E2BF2EF02D3D
:102470000F2EF6E2CF2EF02DDD24EE24FF240E9455
:10248000AF2BAA24AA94BB24BA940F2EFFE7CF2E19
:10249000F02D0E945E2D01E00E94822C0F2EF3E0B1
:1024A000AF2EF02DBB24CC2400E00E945E2D822EA6
:1024B000932EA42EB52EB094A09490948094811C59
:1024C000911CA11CB11CEF85F88980829182A282A7
:1024D000B38229853D814E815B816981722D842D76
:1024E000962D0F2EF0EAAF2EF02D0F2EF5E2BF2E17
:1024F000F02D0F2EF6E2CF2EF02DDD24EE24FF245A
:102500000E94AF2BAA24AA94BB24BA940F2EFFE7F3
:10251000CF2EF02D0E945E2D01E00E94822C0F2E06
:10252000F3E0AF2EF02DBB24CC2400E00E945E2D02
:10253000822E932EA42EB52EB094A09490948094C5
:10254000811C911CA11CB11CED85FE8580829182AD
:10255000A282B3826296CDBFDEBFDF91CF911F9181
:102560000F91FF90EF90DF90CF90BF90AF909F9032
:102570008F907F906F905F904F903F902F90089535
:10258000FC0181E0838384819581861B91090895F4
:10259000FC0181E0838384819581772767FD7095B5
:1025A000861B970B0895FC0181E0838384819581CC
:1025B0000895FC0181E0838384810895FC0181E01A
:1025C000838385810895FC01848114829AE29A951F
:1025D000F1F700C084830895FC01848191E0948325
:1025E00095E59A95F1F7000084830895EF92FF92A4
:1025F0000F931F93CF93DF93EB014423C9F004E0C3
:1026000010E0EE24FF248881806888838B8180FF1E
:10261000FDCFCE0160E00E94C012E80EF91E01500D
:10262000104089F7C701969587959695879509C0BB
:102630008881806888838B8180FFFDCFCE010E94D6
:10264000D312DF91CF911F910F91FF90EF900895DA
:10265000EF92FF920F931F93CF93DF93EB014423ED
:10266000E1F004E010E0EE24FF2488818068888394
:102670008B8180FFFDCFCE0160E00E94C812E80E82
:10268000F91E0150104089F7C70199230CF40396F5
:1026900095958795959587950AC0888180688883E8
:1026A0008B8180FFFDCFCE0160E00E94C812DF91D8
:1026B000CF911F910F91FF90EF900895AAECB1E098
:1026C00092E09C93E82FF0E084911C920895CF93C0
:1026D000DF93EC0182E0C030D80759F480E20E9419
:1026E0005E13C0E0D2E08C8781E20E945E138D878A
:1026F00008C084E20E945E138C8785E20E945E130C
:102700008D87DF91CF91089584E1E2E2F1E2DF016C
:102710001D928A95E9F70E94F414809322219093E8
:1027200023210E943117089582E291E208952F92A9
:102730003F924F925F926F927F928F929F92AF9251
:10274000BF92CF92DF92EF92FF920F931F93CF939E
:10275000DF93CDB7DEB72E97CDBFDEBF8B879C87CB
:102760006D877E8749015A012115310541055105C3
:1027700009F485C0EE240F2EFDE26F2EF1E27F2ECC
:10278000F02D0F2EF9E24F2EF1E25F2EF02D0F2EDD
:10279000FBE22F2EF1E23F2EF02DF82C25E68216DB
:1027A0009104A104B10420F00F2EF4E6FF2EF02DC9
:1027B0008F2D855F89838B859C85EFEF8F3F9E07EB
:1027C00011F081E601C081E48A8388E98B83E4E229
:1027D000F1E280818C838F5F808384E392E18D833B
:1027E0009E838B859C858F8398873297808191818A
:1027F00089879A8700E010E0CD84DE84CE0CD11C5E
:10280000CE010196B6014F2D0E947416282F8330F9
:10281000B9F0843018F48130C9F404C0853049F02F
:102820008034A1F4F20180819181019680839183AB
:102830000DC0F1018081918101968083918306C052
:10284000F30180819181019680839183112324F08B
:10285000F1E2FA95F1F700000431110589F00F5FFC
:102860001F4F222369F6EF0C8F189108A108B108B9
:1028700081149104A104B10409F08FCF01C020E0BC
:10288000822F2E96CDBFDEBFDF91CF911F910F918A
:10289000FF90EF90DF90CF90BF90AF909F908F9080
:1028A0007F906F905F904F903F902F900895DF92B0
:1028B000EF92FF920F931F93CF93DF937C010E94BF
:1028C000D214D82E88230CF446C0F70185838823C0
:1028D00071F0E70126968701095F1F4F8150080FAD
:1028E000111D0E94D2148993C017D107D1F7F701A7
:1028F000C08583859485838394838585968581832C
:1029000092830E94E914882311F41092252180916A
:102910000F20C81751F4F7012181328180911020D6
:102920009091112028173907C1F0C0930F20F701AB
:10293000818192818093102090931120B701615F73
:102940007F4F4D2D50E049505040C7010E94D53572
:102950008D2D8B5003C080E001C080E0DF91CF91CE
:102960001F910F91FF90EF90DF9008951092362104
:10297000109237211092382108952091372130E0AC
:10298000F901E75CFE4D8083C901019660E870E0C3
:102990000E944D3580933721809138218F5F80933D
:1029A000382108952091362130E0F901E75CFE4D91
:1029B00040812F5F3F4FC90160E870E00E944D35B4
:1029C0008093362180913821815080933821842F43
:1029D0000895809138210895BC0180E090E048E09E
:1029E00050E00E9470190895CF93DF930F920F92D9
:1029F000CDB7DEB789E090E0BE016F5F7F4F42E068
:102A000050E00E94701989819A810F900F90DF9198
:102A1000CF910895882329F080E1E0E6F6E08683EF
:102A2000089580E1E0E6F6E085830895DF92EF9275
:102A3000FF920F931F93CF93DF938C01C62F7A01E0
:102A4000D22E822F90E0860F911D803891058CF553
:102A50008FB780933940F89481E00E940A1580E690
:102A60000E94BB19CC2379F0C8010196C1509C018A
:102A70002C0F311DE901F80181918F010E94BB19D2
:102A80000C171D07C1F7DD2069F0E7012196DA94E4
:102A9000CD0DD11DF70181917F010E94BB19EC166C
:102AA000FD06C1F780E00E940A15809139408FBF72
:102AB0007894DF91CF911F910F91FF90EF90DF906D
:102AC0000895CF93DF93D82FC62F8FB780933940C7
:102AD000F89481E00E940A158D2F806C0E94BB192A
:102AE0008C2F0E94BB1980E00E940A15809139400A
:102AF0008FBF7894DF91CF910895682F85E00E9471
:102B0000611508950F931F93CF93DF93082FC62F5E
:102B1000D72F10E06991812F800F0E9461151F5FF0
:102B20001830C1F7DF91CF911F910F910895CF9386
:102B3000DF93EC0180E090E0BE0148E050E00E94AD
:102B40000D1984E2BE010E948215DF91CF91089594
:102B5000CF93DF93C82FD72F0E9461158C2F8F5FE3
:102B60006D2F0E946115DF91CF9108950F931F93F0
:102B7000CF93DF930F920F92CDB7DEB789839A83FD
:102B80000E9494138C0189E090E0BE016F5F7F4F3B
:102B900042E050E00E940D1969817A8180E20E9432
:102BA000A81589819A81F801808391830F900F90F5
:102BB000DF91CF911F910F910895CF93C82F8FB7B9
:102BC00080933940F89481E00E940A158C2F806828
:102BD0000E94BB190E94BB19C82F80E00E940A15F1
:102BE000809139408FBF78948C2FCF91089581E0E8
:102BF0000E94DD158F7108951F93CF93DF93C82F27
:102C0000162FD42F0E94DD156D2F60956823D123D8
:102C10006D2B8C2F0E946115DF91CF911F9108952C
:102C2000CF93DF93D82F8091640681FD40C00E942E
:102C3000F715C82F8151823020F0C13011F0C23019
:102C400021F40E94F7158C17E1F3D631C9F0D93180
:102C500071F0D830E9F4E4E6F6E080818D7F80837E
:102C600082E063E04FE10E94FC15000011C0C63114
:102C700079F482E069E04FE10E94FC15000008C091
:102C8000C93131F482E069E04FE10E94FC15000097
:102C900082E06D2F4FE10E94FC1584E28A95F1F7E6
:102CA00000C00E94F7158D1721F480E403C084E46E
:102CB00001C083E4DF91CF910895882349F088E033
:102CC0000E941016E4E6F6E0808182608083089519
:102CD000E4E6F6E080818D7F808380E58A95F1F7D8
:102CE00086E10E9410160895CF92DF92EF92FF9234
:102CF0000F931F93CF93DF937C016B01042F0E94EE
:102D0000F715182F0E949413EC011230F1F01231D4
:102D1000F1F088E00E94101689E10E941016C701A8
:102D20006AE0A601202F0E94161582E062E04FE1C2
:102D30000E94FC158C818823E9F31C8282E00E94AA
:102D4000DD1582958695877003C084E401C084E414
:102D5000DF91CF911F910F91FF90EF90DF90CF9077
:102D60000895813091F0813028F08230C9F08330AD
:102D700061F521C08CE068E04FE30E94FC1586E11C
:102D800062E043E00E94FC1508958CE06CE04FE3A4
:102D90000E94FC1586E162E043E00E94FC15089564
:102DA0008CE06CE14FE30E94FC1586E162E043E0B9
:102DB0000E94FC1508958CE060E04FE30E94FC1532
:102DC00086E163E043E00E94FC150895CF93C82F8D
:102DD00088E06C2F4FE10E94FC150E94F7158630A9
:102DE00011F0893021F484E28A95F1F700C088E07F
:102DF0000E94DD1590E08F7190706C2F70E0861747
:102E0000970711F480E401C083E4CF910895CF9334
:102E1000C82F0E94DD158C2B8F5F0E94DD1580E08E
:102E200090E0CF910895E4E6F6E0808181608083B0
:102E300080818D7F80838EE78A95F1F700C0808145
:102E40008E7F808300008081816080838DE10E947D
:102E5000DD158130D9F78CE10E94DD158730B1F79F
:102E600008950F931F93CF93DF93CDB7DEB7EA9703
:102E7000CDBFDEBF0E94A819E0E6F6E08081826047
:102E800080838081816080830E9413178EE060E0E0
:102E90000E94611582E063E04FE10E94FC1581E031
:102EA0000E94DD158F718830D1F78EE260E440EC2E
:102EB0000E94FC158EE06CE00E94611584E060E2E7
:102EC00040E20E94FC1581E00E94B11681E00E9460
:102ED000E61686E10E94101682E264E372E10E9427
:102EE000A8150E94F414BC0180E20E94A815CE012E
:102EF00001960E94EC1484E2BE016F5F7F4F0E9436
:102F00008215E2E7F6E0808181608083E9E6F6E001
:102F1000808182608083EAE6F6E08081846080833D
:102F200087E0E0EAF0E082830E94F715863191F0B5
:102F30008E01075F1F4FC80168EE71E00E94CE3519
:102F40000F920F92EDB7FEB7018312830E94E7350F
:102F50000F900F901092A6501092A7501092A85068
:102F60001092A950EA96CDBFDEBFDF91CF911F919D
:102F70000F9108951F920F920FB60F920BB60F92FA
:102F800011246F927F928F929F92AF92BF92DF92A5
:102F9000EF92FF920F931F932F933F934F935F9363
:102FA0006F937F938F939F93AF93BF93EF93FF9311
:102FB000CF93DF93CDB7DEB7E297CDBFDEBF0E94E0
:102FC00094137C018FB780933940F89481E00E947C
:102FD0000A158FE80E94BB1980E00E94BB19182FC8
:102FE00080E00E940A15112309F4EDC0AA24BB2435
:102FF0006894A7F80F2EF8E08F2EF2E09F2EF02DA8
:1030000012FF02C01B7FDCC013FFC1C00E94F71576
:10301000863029F0863119F0813109F0AEC088E0A0
:103020000E94101687E00E94DD15F701828B86E072
:103030000E94DD15881F8827881FF701838B88234E
:1030400009F49EC08FB780933940F89481E00E94C4
:103050000A1580E20E94BB1980E00E94BB19D82E9D
:1030600083508D37F0F50E94E9142D2D30E0A50135
:10307000481B5109241735077CF48D2D0E94BD147F
:10308000DD2079F100E080E00E94BB190E94BD14B0
:103090000F5F0D15C1F725C00E9494133C01DD2080
:1030A00039F000E080E00E94BB190F5F0D15D1F7E9
:1030B000F30185859685019685879687CE010196D1
:1030C000B4010E94CE350F920F9241E050E04C0FB8
:1030D0005D1FEDB7FEB7418352830E94E7350F9025
:1030E0000F9080E00E940A15809139408FBF78943C
:1030F000F7018581968101968583968381E083839C
:103100008091A6509091A750A091A850B091A9503D
:103110008E539C4D0E9457144091A6505091A75039
:103120006091A8507091A950480F511D611D711DEB
:103130004093A6505093A7506093A8507093A95005
:103140008091A6509091A750A091A850B091A950FD
:1031500080589F4FAF4FBF4F8137FCE19F07F0E092
:10316000AF07F0E0BF0760F01092A6501092A75092
:103170001092A8501092A95003C081E0F7018483F7
:10318000177F86E10E9410168034D9F719C016FF08
:1031900008C01F7BF7018785908901968787908BF0
:1031A0000FC011FF02C01D7F0BC010FF02C01E7FA9
:1031B00007C011232CF41F77F70181898F5F818B62
:1031C000112309F01DCF809139408FBF78948FE093
:1031D0000E94DD15E296CDBFDEBFDF91CF91FF915A
:1031E000EF91BF91AF919F918F917F916F915F917F
:1031F0004F913F912F911F910F91FF90EF90DF9092
:10320000BF90AF909F908F907F906F900F900BBE6C
:103210000F900FBE0F901F9018950F931F93CF9391
:10322000DF938C01E0ECF1E08485877F8487411592
:10323000510509F450C0E0E0F0E020E0A0ECB1E07E
:10324000D6E3C3E335E3CF01800F911FE60FF71FED
:10325000F0811F96EC911F97EE23DCF31F96EC9103
:103260001F97E1FF11C01A96DC931A97EF93FF9313
:103270000F932F93EBECF1E008ED21E004BF2083E6
:103280002F910F91FF91EF911A96CC931A978C93EF
:10329000892F8F7111968C93119712961C92129709
:1032A0001496FC9314971A963C931A97EF93FF93F6
:1032B0000F932F93EBECF1E008ED21E004BF2083A6
:1032C0002F910F91FF91EF912F5FE22FF0E0E41724
:1032D000F50708F4B8CFDF91CF911F910F910895B2
:1032E0001F93CF93DF939C01E0ECF1E08485877F0F
:1032F00084874115510541F180E090E0C0E0D6E0BF
:10330000DB01A80FB91F820F931F17851123ECF360
:103310008083892F8F7181831282D287EF93FF93ED
:103320000F932F93EBECF1E008ED21E004BF208335
:103330002F910F91FF91EF9184818C93CF5F8C2F10
:1033400090E084179507E0F2DF91CF911F910895E7
:10335000E0E6F6E08081806B8083E4E6F6E0808141
:1033600080618083A0ECB9E08C9181658C93808131
:10337000806180830895E0ECF9E083838281882373
:10338000ECF7E0ECF9E0838108950F93CF93DF939E
:103390000F92CDB7DEB72FB72983F8941BBEFC017F
:1033A00008ED04BF608389818FBF0F90DF91CF91BB
:1033B0000F910895662311F090E201C090E0842BF4
:1033C000892BE0E5F0E0828308956F71862BE0E5BC
:1033D000F0E085830895E0E5F0E09081282F2095C6
:1033E00092239083908189230895682B81E490E053
:1033F0000E94C51908951F93CF93DF93182FC0E43F
:10340000D0E06881687F682B80E490E00E94C51955
:1034100088818123DF91CF911F910895E0E4F0E04E
:103420009381917F9160892B83830895E0E5F0E09B
:103430002681982F382F30952323662309F490E0B6
:10344000922BE0E5F0E09683813031F4E8E6F0E09D
:103450008081816080830895823029F4E0E6F0E085
:10346000808181608083089583E590E063E00E941D
:10347000C519089582E490E061E00E94C51908959D
:1034800080EC60E04BE00E94DA19E0E5F0E080813A
:1034900088608083818183FFFDCF80EC62E00E94A1
:1034A000E519E0E5F0E0808180618083818184FF1F
:1034B000FDCF84E00E94FB1981E00E94EB19089582
:1034C000E0E5F0E080818260808380E061E00E943E
:1034D000F519E0E5F0E0818181FFFDCF81E00E94F8
:1034E000FB1981E00E94EB190895E0E5F0E080818E
:1034F0008260808380E060E00E94F519E0E5F0E002
:10350000818181FFFDCF81E00E94FB1981E00E9453
:10351000EB190895882329F088E0E0E0F6E086833F
:1035200004C088E0E0E0F6E085838AE68A95F1F75A
:1035300000C00895882379F0E0EAF6E080E2818314
:1035400085838FEF93ECA9E081509040A040E1F794
:1035500000C000000895E0EAF6E080E286838283FE
:103560000895882379F0E0EAF6E080E4818385839A
:103570008FEF93ECA9E081509040A040E1F700C0AC
:1035800000000895E0EAF6E080E4868382830895EF
:10359000882379F0E0EAF6E080E8818385838FEF85
:1035A00093ECA9E081509040A040E1F700C00000FA
:1035B00005C0E0EAF6E080E886838283AFE3BFE1FE
:1035C0001197F1F700C000000895882329F080E1E9
:1035D000E0E8F6E08683089580E1E0E8F6E08583A0
:1035E0000895882329F082E0E0E4F6E086830895D8
:1035F00082E0E0E4F6E085830895E0E4F6E090E11F
:10360000918328E3248B95838165A0ECB8E08C93AB
:1036100011961C92119780EA81830895E0E4F6E008
:1036200090E1918328E3248B95838065682BA0EC3F
:10363000B8E06C9311961C92119780EA81830895EB
:10364000882329F080E1E0E4F6E08683089580E1B4
:10365000E0E4F6E085830895E0E4F6E080E1858328
:103660001092C008868380EB82830895CF93DF9306
:10367000C82FD62F80E00E94FD1A81E00E94201BF7
:1036800081E00E948A1ADD2389F08091B923C095D8
:10369000C823C093B92380E48093475084E180938A
:1036A00048508091B9238093495010C080915E505A
:1036B000C095C823C0935E5080E48093475085E155
:1036C0008093485080915E508093495080E090E014
:1036D00027E430E5A0ECB8E0C3E5D0E5F901E80F58
:1036E000F91F408113964C93139712964C911297A1
:1036F0004423DCF713964C9113974883019683304B
:10370000910561F780E00E94201B80E00E948A1AE8
:103710000E942C1BDF91CF910895CF93DF93C82F88
:10372000D62F80E00E94FD1A81E00E94201B81E0DC
:103730000E948A1ADD2381F08091B923C82BC0939F
:10374000B92380E48093475084E18093485080916E
:10375000B923809349500FC080915E50C82BC0930D
:103760005E5080E48093475085E18093485080917B
:103770005E508093495080E090E027E430E5A0EC73
:10378000B8E0C3E5D0E5F901E80FF91F40811396D1
:103790004C93139712964C9112974423DCF713968F
:1037A0004C911397488301968330910561F780E02F
:1037B0000E94201B80E00E948A1A0E942C1BDF912D
:1037C000CF910895CF93DF93C82FD62F80E00E942A
:1037D000FD1A81E00E94201B81E00E948A1ADD23ED
:1037E00089F0809156508095C823C093565080E44C
:1037F0008093475010924850809156508095809306
:10380000495011C08091B0508095C823C093B050EA
:1038100080E48093475081E0809348508091B0507D
:1038200080958093495080E090E027E430E5A0EC5B
:10383000B8E0C3E5D0E5F901E80FF91F4081139620
:103840004C93139712964C9112974423DCF71396DE
:103850004C911397488301968330910561F780E07E
:103860000E94201B80E00E948A1A0E942C1BDF917C
:10387000CF910895CF93DF93C82FD62F80E00E9479
:10388000FD1A81E00E94201B81E00E948A1ADD233C
:1038900081F080915650C82BC093565080E480939D
:1038A00047501092485080915650809580934950CF
:1038B00010C08091B050C82BC093B05080E480936A
:1038C000475081E0809348508091B050809580931C
:1038D000495080E090E027E430E5A0ECB8E0C3E593
:1038E000D0E5F901E80FF91F408113964C93139727
:1038F00012964C9112974423DCF713964C91139730
:10390000488301968330910561F780E00E948A1A0E
:1039100080E00E94201B0E942C1BDF91CF91089514
:103920000F931F93CF93DF93EC0180E00E94FD1A69
:1039300000EC18E080EDF801808381E00E94201BFC
:1039400088E0E0E2F6E08683000083E0F80183830C
:1039500082818823ECF7E0ECF8E083818093535078
:1039600080913B40838382818823ECF7E0ECF8E090
:1039700083818093535080913A408383828188234E
:10398000ECF7E0ECF8E08381809353502097D1F07E
:1039900080E090E0A0ECB8E05AEA22EC33E2139623
:1039A0005C93139712964C9112974423DCF713966D
:1039B0004C911397F901E80FF91F408301968C177A
:1039C0009D0769F788E0E0E2F6E0858380E00E94E9
:1039D000201B0E942C1BDF91CF911F910F91089506
:1039E0008F929F92AF92BF92CF92DF92EF92FF920F
:1039F0000F93CF93DF9300D0CDB7DEB719821A8231
:103A00001B828EECBE016F5F7F4F40E025E101E03D
:103A10000F2EFDE0EF2EFF24F02D0F2EFEE0CF2E17
:103A2000DD24F02D0F2EFFE0AF2EBB24F02D8824D7
:103A30009924689484F80E94620E81E00E94D50166
:103A40008FEC97E00197F1F700C000000E94880911
:103A500080E00E94D5012396CDBFDEBFDF91CF91DC
:103A60000F91FF90EF90DF90CF90BF90AF909F901D
:103A70008F9008958F929F92AF92BF92CF92DF92D4
:103A8000EF920F930F920F9280E190E0EDB7FEB7A7
:103A90008183928387E068EC40E020E005E1EE243A
:103AA000E3940F2EFDE0CF2EDD24F02D0F2EFEE04F
:103AB000AF2EBB24F02D0F2EFFE08F2E9924F02D7A
:103AC0000E94170D0F900F9081E00E94D5018FEC9E
:103AD00097E00197F1F700C000000E94880980E09C
:103AE0000E94D5010F91EF90DF90CF90BF90AF90E3
:103AF0009F908F9008950E94F20B81E00E94D50163
:103B00008FEC97E00197F1F700C000000E94880950
:103B100080E00E94D501089581E00E94D50181E0F6
:103B20000E949A1A8FEF93ECA9E081509040A04038
:103B3000E1F700C0000088E060E00E943A1C88E0E5
:103B400060E00E948D1B8AEA96EEA6E9B1E0815002
:103B50009040A040B040D9F7000088E060E00E94AB
:103B6000361B8AEA96EEA6E9B1E081509040A0406B
:103B7000B040D9F70000E3CF0F931F93CF93DF93AB
:103B800080E090E022EC33E2F901E80FF91F808336
:103B9000019688319105C1F764E170E080E090E022
:103BA00042EC53E228E130E00E94362880E090E0C9
:103BB00022EC33E2F901E80FF91F108201968831F7
:103BC0009105C1F764E170E080E090E042EC53E2DF
:103BD0000E94EB2820E030E0C4E6D0E002EC13E2E3
:103BE000C901BE010E944D35F801E20FF31F808329
:103BF0002F5F3F4F44E0223E340791F760E570E0CD
:103C000080E090E042EC53E222EE34E00E94522940
:103C100080E090E022EC33E2F901E80FF91F108216
:103C2000019644E0823E9407B9F760E570E080E0D9
:103C300090E042EC53E223E030E00E94AC2ADF91B6
:103C4000CF911F910F91089580E090E022EC33E234
:103C5000F901E80FF91F8083019688319105C1F7BA
:103C600082E190E20E948A2480937F5080E090E07D
:103C700022EC33E2F901E80FF91F10820196883136
:103C80009105C1F780E062E170E20E940C2480930C
:103C90007F5008950E94841382E090E00E94B61540
:103CA0000000FECFEF92FF920F931F93CF93DF930D
:103CB0000E9458270E94D91F20E030E0C9E7D0E0D9
:103CC00002EC13E2C901BE010E944D35F801E20F7A
:103CD000F31F80832F5F3F4F82E02030380791F73A
:103CE000C0E002EC13E20F2EF2E1EF2EF0E2FF2E25
:103CF000F02DF801C083C7010E948A24CF5FC7332B
:103D0000C1F7DF91CF911F910F91FF90EF90089530
:103D1000CF92DF92EF92FF922091575030915850FE
:103D2000C090BE23D090BF23E090C023F090C12369
:103D3000625070408040904040E050E00E941A3550
:103D4000DC01CB01C80ED91EEA1EFB1E6C2D7D2D99
:103D50008E2D9F2DFF90EF90DF90CF9008952F92A2
:103D60003F924F925F927F928F929F92AF92BF92BB
:103D7000CF92DF92EF92FF920F931F93CF93DF9337
:103D8000DC01CB01742E18012901C0905F50D09046
:103D900060504C015D01880C991CAA1CBB1C880C4E
:103DA000991CAA1CBB1C2091374030913840EE244E
:103DB000FF248091595090915A50A0915B50B0913E
:103DC0005C50C80ED91EEA1EFB1E40E050E0C50143
:103DD000B4010E946035C20ED31EE41EF51E209170
:103DE00037403091384040E050E0C501B4010E94B6
:103DF0006035DC01CB01EC01C701B60149EB51E2B2
:103E00000E94EB28C754DE4D772031F408811981D8
:103E10002A813B813F700FC0288239824A825B82AF
:103E2000C701B60149EB51E220E032E00E9436289A
:103E300000E010E09801602F712F822F932FDF9107
:103E4000CF911F910F91FF90EF90DF90CF90BF9097
:103E5000AF909F908F907F905F904F903F902F906A
:103E60000895CF92DF92EF92FF920F931F93CF931B
:103E7000C82F062F69017A018091595090915A50AC
:103E8000A0915B50B0915C50BC01CD016F5F7F4F42
:103E90008F4F9F4F49EB51E20E94EB288091B9214F
:103EA0009091BA21A091BB21B091BC21823522E52D
:103EB000920721E6A20721E4B20709F063C08091CE
:103EC0009D2390919E23A0919F23B091A0238237A0
:103ED00022E7920721E4A20721E6B20709F056C0C3
:103EE0008091B5239091B623A091B723B091B823C8
:103EF000803020E0920725E5A2072AEAB20709F000
:103F000049C00023A1F4C13049F40091A1231091CC
:103F1000A2232091A3233091A4233FC00091A52385
:103F20001091A6232091A7233091A82336C0C13039
:103F300049F4C092A123D092A223E092A323F0924D
:103F4000A42308C0C092A523D092A623E092A72361
:103F5000F092A8238091595090915A50A0915B50B3
:103F6000B0915C50BC01CD016F5F7F4F8F4F9F4F71
:103F700049EB51E220E032E00E9436280FEF1FEFBC
:103F800098010BC00FEF1FEF980107C00FEF1FEF55
:103F9000980103C00FEF1FEF9801602F712F822F40
:103FA000932FCF911F910F91FF90EF90DF90CF90C3
:103FB0000895EF92FF920F931F93CF93DF93109288
:103FC000595010925A5010925B5010925C5060E021
:103FD00070E0CB0149EB51E20E94EB288091B921BE
:103FE000893E31F18B3E21F18091B7239091B82326
:103FF0002AEA8535920709F0B7C060917F23709156
:1040000080238091812390918223609359507093F3
:104010005A5080935B5090935C5049EB51E20E9460
:10402000EB288091B921893E19F08B3E09F09EC0A2
:104030008091C4219091C52180933740909338405E
:104040008091C62190E08093575090935850E09013
:10405000C721F090C821E0925F50F09260508091AB
:10406000E5219091E621A091E721B091E82180938C
:10407000414090934240A0934340B0934440C0914C
:104080005F50D09160506091C92170E080E090E075
:104090002091DD213091DE214091DF215091E021FE
:1040A0000E941A358B019C01AE0160E070E08091A6
:1040B000D5219091D621A091D721B091D821840FFC
:1040C000951FA61FB71F800F911FA21FB31F8093BC
:1040D000BE239093BF23A093C023B093C123E0914C
:1040E0005750F0915850C701A0E0B0E04091D9215D
:1040F0005091DA216091DB217091DC21481B590B32
:104100006A0B7B0BCB01BA01601B710B820B930B0B
:104110009F0140E050E00E94603520933C40309386
:104120003D4040933E4050933F4081E060E020E0BE
:1041300030E0A9010E94311FAB01BC0180913C40DD
:1041400090913D40A0913E40B0913F40841795072B
:10415000A607B70720F41092AB5080E008C081E0BA
:104160008093AB5080E003C081E001C081E0DF912B
:10417000CF911F910F91FF90EF900895CF93DF9310
:10418000CDB7DEB72B97CDBFDEBF9C01FC01808190
:104190008E3289F0319641E081918E3221F04F5F6D
:1041A0004C30D1F705C0842F8950833008F462C0A9
:1041B000442329F401C040E0842F90E214C0D901C7
:1041C000FE013196842F815062E070E06C0F7D1FFC
:1041D000680F711DCB015D915193E817F907D9F76D
:1041E000483050F30AC0E1E0F0E0EC0FFD1FE80FAB
:1041F000F11D90838F5F8830B0F34C3009F04F5F32
:1042000088E0F901E40FF11D9081992319F48B30B6
:1042100050F015C0E1E0F0E0EC0FFD1FE80FF11DDC
:1042200090834F5F0CC090E2E1E0F0E0EC0FFD1FE7
:10423000E80FF11D90838F5F8B30B1F703C08F5F64
:104240008B30F8F2FE013196CE010C96DF014C91D5
:10425000542F51565A3110F440524C931196A817CE
:10426000B907A9F7D90121912D93E817F907D9F7D3
:1042700080E001C081E02B96CDBFDEBFDF91CF9102
:1042800008954F925F926F927F928F929F92AF921A
:10429000BF92CF92DF92EF92FF92CF93DF932B01E9
:1042A0003C0120E83FEF4FEF5FEF422253226422B0
:1042B000752280913C4090913D40A0913E40B0914C
:1042C0003F40481659066A067B0608F077C053013E
:1042D0004201880C991CAA1CBB1C880C991CAA1CA6
:1042E000BB1CC9EBD1E2C0905F50D09060502091D0
:1042F000374030913840EE24FF24809159509091FE
:104300005A50A0915B50B0915C50C80ED91EEA1E65
:10431000FB1E40E050E0C501B4010E946035C701BA
:10432000B601620F731F841F951FAE010E94EB2818
:1043300088819981AA81BB81BF700097A105B105D1
:1043400099F021E0E22FF0E0EE0FFF1FEE0FFF1FCC
:10435000E754FE4D80819181A281B381BF700097A7
:10436000A105B10539F401C020E0420E511C611CC9
:10437000711C27C02F5F32F780E890E0A0E0B0E02A
:10438000480E591E6A1E7B1E80913C4090913D4014
:10439000A0913E40B0913F4020E032E040E050E04C
:1043A000820E931EA41EB51E481659066A067B0689
:1043B00008F499CF44245524320103C044245524E1
:1043C0003201642D752D862D972DDF91CF91FF90B1
:1043D000EF90DF90CF90BF90AF909F908F907F90A5
:1043E0006F905F904F900895CF92DF92EF92FF927F
:1043F000CF93C82FDB01CA019170A070B0700097F5
:10440000A105B10551F4032E39E0769567955795CE
:1044100047953A95D1F7302D0DC0032E39E07695AA
:104420006795579547953A95D1F7302D4F5F5F4F78
:104430006F4F7F4FDB01CA0187709070A070B07022
:104440000097A105B10559F46A017B01689412F83F
:10445000F694E794D794C7941694D1F70FC06A01E5
:104460007B01689412F8F694E794D794C794169455
:10447000D1F70894C11CD11CE11CF11C8091AB50F8
:104480008823D1F081E060E020E030E0A9010E94C3
:10449000311FCC2339F49B01AC012C0D3D1D4E1D69
:1044A0005F1D06C09B01AC012C193D094E095F0937
:1044B00081E061E00E94311FCF91FF90EF90DF908B
:1044C000CF9008952F923F924F925F926F927F927A
:1044D0008F929F92AF92BF92CF92DF92EF92FF9214
:1044E0000F931F93CF93DF93CDB7DEB72C97CDBF3C
:1044F000DEBF882E7B018091414090914240A09187
:104500004340B091444089879A87AB87BC870F2E80
:10451000F9EB2F2EF1E23F2EF02DC82CCA94D22CAD
:10452000932C5B010894A11CB11C69857A858B854D
:104530009C850E94881E6D837E838F8398878091DF
:10454000575090915850009709F413C144245524B2
:1045500032011C2D8D819E81AF81B885840D951D02
:10456000A61DB71D89839A83AB83BC83BC01CD0193
:104570004D2D592D0E94EB28809137409091384065
:10458000009709F4E4C0D1018C91882309F410C18B
:104590004D2D592D20E030E008C0A90147545E4D53
:1045A000FA018081882309F406C1853E09F4C5C05B
:1045B000DA011B968C911B978F3009F4BEC0123024
:1045C00008F0FCC09C91F7018081981709F0B5C0F4
:1045D000FA013196D50181E0BA0141919D914917C7
:1045E00031F48F5F8B30C9F78B016B0105C08B30C5
:1045F00009F0A3C08B016B01F1E08F1609F041C0F7
:1046000089819A81AB81BC818093AC509093AD50ED
:10461000A093AE50B093AF50C901A0E0B0E080933A
:10462000BA239093BB23A093BC23B093BD23D601A0
:1046300054964D915C91559760E070E0BA01552712
:1046400044275A968D919C915B97A0E0B0E0842B13
:10465000952BA62BB72B8093635090936450A09317
:104660006550B0936650F601848D958DA68DB78DFB
:104670008093334090933440A0933540B0933640BC
:10468000A5C0D60154968D919C915597A0E0B0E0BD
:104690003C0155244424F601828D938DA0E0B0E0C6
:1046A000482A592A6A2A7B2A85EE808369817A8181
:1046B0008B819C8149EB51E220E032E00E94362858
:1046C000D6015C964D915D916D917C915F9780E0F4
:1046D0000E94F42182E060E020E030E0A9010E9425
:1046E000311FDC01CB01481659066A067B0630F4FF
:1046F00082E061E0A30192010E94311FC301B20177
:1047000040E000E010E098010E94AF1E6B017C01C8
:10471000C301B20141E000E010E098010E94AF1E29
:10472000B7EFCB16BFEFDB06BFEFEB06BFE0FB0634
:1047300008F047C026013701E1CF205E3F4F80914E
:104740003740909138402817390708F426CF08944D
:10475000411C511C611C711C809157509091585004
:10476000A0E0B0E0481659066A067B0608F4F2CECF
:10477000C12E69857A858B859C8540E000E010E03C
:1047800098010E94AF1E69877A878B879C87673F55
:10479000EFEF7E07EFEF8E07EFE09E07A8F46115BD
:1047A00071058105910509F0C0CE00E010E00EC052
:1047B00000E010E00BC000E010E008C000E010E0F6
:1047C00005C000E010E002C000E010E0802F912F53
:1047D0002C96CDBFDEBFDF91CF911F910F91FF903F
:1047E000EF90DF90CF90BF90AF909F908F907F9091
:1047F0006F905F904F903F902F900895CF93DF93ED
:10480000EC010E94BE20882321F482E0BE010E94B8
:104810006222DF91CF9108954F925F926F927F92C3
:10482000AF92BF92CF92DF92EF92FF920F931F93BE
:10483000CF93DF93182FEB01CB010E94BE2088237A
:1048400009F056C081E0BE010E946222FC0100977F
:1048500031F481E0112309F44EC080E04CC01130E6
:1048600009F448C0448855886624772432015524C9
:104870004424828D938DA0E0B0E0482A592A6A2A08
:104880007B2A0F2EF2ECAF2EF3E2BF2EF02DC301E8
:10489000B2010E94881E6B017C018091575090915B
:1048A00058500097A1F0C0E0C701B6016C0F711D10
:1048B000811D911DA5010E94EB28CF5F809157506B
:1048C000909158502C2F30E02817390768F3C30116
:1048D000B20140E000E010E098010E94AF1E2B0101
:1048E0003C01611571058105910589F680E003C0E1
:1048F00082E001C081E0DF91CF911F910F91FF9085
:10490000EF90DF90CF90BF90AF907F906F905F90CF
:104910004F9008952F923F924F925F926F927F92A5
:104920008F929F92AF92BF92CF92DF92EF92FF92BF
:104930000F931F93CF93DF93CDB7DEB72997CDBFEA
:10494000DEBF89839A8381E06981792F0E940C24DC
:10495000813009F06FC08090635090906450A090B7
:104960006550B0906650CC24DD247601C501B401B9
:1049700040E000E010E098010E94AF1EDC01CB0196
:104980008F3F0FEF90070FEFA0070FE0B00741F048
:104990000894C11CD11CE11CF11C4C015D01E6CF47
:1049A0002091575030915850809137409091384025
:1049B0006090374070903840BC0180E090E040E06B
:1049C00050E00E941A35A70196010E941A35DC01B9
:1049D000CB0140913340509134406091354070910B
:1049E00036408A019B01081B190B2A0B3B0BC9019E
:1049F000B801930140E050E00E946035022F682D1D
:104A0000792D8A2D9B2D0E94881EAB01BC01802F21
:104A100090E06C01C40ED51EB60180E090E049EB39
:104A200051E20E94EB284424552422243324662496
:104A3000639443C0823009F4AFC182E060E020E0BB
:104A400030E0A9010E94311F00913C4010913D408F
:104A500020913E4030913F4006171707280739073D
:104A600040F4609141407091424080914340909168
:104A700044400E9441214B015C0161157105810593
:104A8000910509F48BC141E00FEF1FEF2FEF3FE0DD
:104A90000E94AF1E15012401109233401092344041
:104AA0001092354010923640C501B4010E94881E14
:104AB000DC01CB016C01662400E0809133409091D1
:104AC0003440A0913540B091364080509E4FAF4F5A
:104AD000BF4F8093334090933440A0933540B093C0
:104AE0003640B60180E090E042EC53E220E032E054
:104AF0000E94362820915750309158500F5F802FD8
:104B000090E082179307F1F4C501B4010E9441219E
:104B10006B017C01611571058105910509F440C1A6
:104B2000C501B40141E0970186010E94AF1EC70193
:104B3000B60141E00FEF1FEF2FEF3FE00E94AF1EE5
:104B40004601570182E061E0A50194010E94311FF6
:104B5000662009F43FC06091AC507091AD508091D7
:104B6000AE509091AF5009EB11E2A8010E94EB28E2
:104B7000E091BA23F091BB23E00FF11F128A138A50
:104B80008091334090913440A0913540B0913640AF
:104B9000448D558D668D778D6C017D01C41AD50AC3
:104BA000E60AF70A848F958FA68FB78F6091AC5075
:104BB0007091AD508091AE509091AF50A80120E01F
:104BC00032E00E94362881E0B701A6010E94F4215C
:104BD00080E0EDC08091414090914240A0914340DF
:104BE000B09144408E839F83A887B987BB248824D3
:104BF000689485F80F2EF9EB6F2EF1E27F2EF02DE1
:104C00009980AA8004C0CE82DF82E886F9866E8110
:104C10007F81888599850E94881E6A837B838C8327
:104C20009D838091575090915850009709F476C019
:104C30001982CA80DB80EC80FD800981C00ED11C06
:104C4000E11CF11CC701B601A3010E94EB28809171
:104C5000374090913840009709F453C0A301BB201E
:104C600009F0A0C000E010E02B2D06C0A8014754B9
:104C70005E4D222309F098C0DA018C91882329F433
:104C8000E92DFA2DDA0180E003C0853E79F5F8CFF1
:104C900091919D938F5F8B30D9F7FA0183861486AB
:104CA0001586128A138A248A358A428E538E809101
:104CB000334090913440A0913540B0913640848F7C
:104CC000958FA68FB78FC701B601A30120E032E010
:104CD0000E943628409133405091344060913540D5
:104CE0007091364081E00E94F42121E0005E1F4F68
:104CF00080913740909138400817190708F4B6CFD3
:104D0000B22E09810F5F098320915750309158507E
:104D1000802F90E08217930708F48BCF6E817F81FC
:104D20008885998540E000E010E098010E94AF1E60
:104D30006B017C01673F1FEF71071FEF81071FE0C9
:104D4000910710F16F3F2FEF72072FEF82072FE0CF
:104D5000920761F56E817F81888599850E94412146
:104D60006B017C016E817F818885998541E0970187
:104D700086010E94AF1EC701B60141E00FEF1FEF91
:104D80002FEF3FE00E94AF1EC114D104E104F104F3
:104D900009F039CF84E00BC081E009C082E007C090
:104DA00082E005C080E003C080E001C083E0299676
:104DB000CDBFDEBFDF91CF911F910F91FF90EF909C
:104DC000DF90CF90BF90AF909F908F907F906F902B
:104DD0005F904F903F902F900895E0ECF8E0838330
:104DE00082818823ECF7E0ECF8E0838108958F92CC
:104DF0009F92AF92BF92CF92DF92EF92FF920F936A
:104E00001F93CF93DF93842EA52EC62EC72FD22FAC
:104E1000780180640E94ED268C2F0E94ED268C2D57
:104E20000E94ED268A2D0E94ED26882D0E94ED26F7
:104E30008D2F0E94ED261016110664F500E010E09B
:104E40000F2EFDE0CF2EDD24F02D0F2EFAE8AF2E31
:104E5000F0E5BF2EF02DC801B6010E944D35EC01E2
:104E60008FEF0E94ED26F501EC0FFD1F80838081FE
:104E70008F3F49F0FE01E657FF4A808180938B50B7
:104E800080918B5008C00F5F1F4F0E151F0519F73B
:104E90008FEF01C08FEFDF91CF911F910F91FF90A6
:104EA000EF90DF90CF90BF90AF909F908F9008953C
:104EB000FF920F931F93CF93DF9381E00E94D50160
:104EC00081E00E949A1A8FEF93ECA9E08150904004
:104ED000A040E1F700C0000088E060E00E943A1CBA
:104EE00088E060E00E948D1B80E090E063E070E06D
:104EF0000E940E1B81E00E94201B8AE090E0E0EC03
:104F0000F8E03FEFA6E9B0E5338322812223ECF7F6
:104F100023812C930197C1F780E00E94201B0E94FF
:104F20002C1B88E060E00E94361B80E090E063E08C
:104F300070E00E940E1B81E00E94201BCBE0D0E0BD
:104F400002C0219769F080E040E050E0BA0125E915
:104F500008E010E00E94F726813099F7FF2402C094
:104F6000FF24F3948FEF93ECA9E081509040A04090
:104F7000E1F700C00000CBE0D0E002C0219769F06B
:104F800088E04AEA51E060E070E027E808E010E0DD
:104F90000E94F726813091F702C0FF24F394C2E00B
:104FA000D0E00AE810E58FEF0E94ED26F801EC0F43
:104FB000FD1F80832196C630D105A9F780918E50C0
:104FC000813029F480918F508A3A21F405C0FF2462
:104FD000F39402C0FF24F394CBE8D0E587E340E0EC
:104FE00050E0BA012FEF08E010E00E94F72681E0C0
:104FF00040E050E060E070E42FEF0E94F7268881E7
:10500000882361F7CBE0D0E002C0219761F08AE30A
:1050100040E050E0BA012FEF08E010E00E94F726D0
:10502000882399F702C0FF24F394C0E0D0E00AE897
:1050300010E58FEF0E94ED26F801EC0FFD1F808335
:105040002196C430D105A9F780918A5080E00E9452
:10505000201B0E942C1B88E060E00E948D1B8F2D7E
:10506000DF91CF911F910F91FF9008956F927F92E2
:105070008F929F92AF92BF92CF92DF92EF92FF9268
:105080000F931F93CF93DF934B015C01742E652E1A
:10509000690188E060E00E94361B80E00E94FD1AF2
:1050A00081E00E94201B80E092E07C01EC18FD086A
:1050B00080E0E81682E0F80611F4EE24FF24CBE04D
:1050C000D0E003C0219709F4FFCF88E1B501A40126
:1050D0002FEF08E010E00E94F726882399F78FEF62
:1050E0000E94ED2680938A508EEF0E94ED261C14BC
:1050F0001D04BCF4872C962C00E010E0C8016DE084
:1051000070E00E944D35EC01F40181914F010E9445
:10511000ED26C657DF4A88830F5F1F4F0C151D050C
:1051200069F71E141F04ECF400E010E00F2EFDE000
:10513000CF2EDD24F02D0F2EFAE88F2EF0E59F2ED6
:10514000F02DC801B6010E944D35EC0180E00E94AF
:10515000ED26C80DD91D88830F5F1F4F0E151F0543
:1051600081F78FEF80938A50C0E0D0E00AE810E525
:105170008FEF0E94ED26F80180832196C230D10581
:10518000BCF380818F3FA1F380918A5080918A5037
:105190008F3F49F0CAE8D0E58FEF0E94ED26888363
:1051A00088818F3FC9F780E00E94201B0E942C1B42
:1051B00088E060E00E948D1BDF91CF911F910F91DD
:1051C000FF90EF90DF90CF90BF90AF909F908F9027
:1051D0007F906F900895AF92BF92CF92DF92EF923F
:1051E000FF920F931F93CF93DF936B017C01B42E3B
:1051F000A52E88E060E00E94361B80E00E94FD1A28
:1052000081E00E94201BCBE0D0E003C0219709F48D
:10521000FFCF81E1B701A6012FEF08E010E00E9467
:10522000F726882399F780918A508E3F49F0CAE883
:10523000D0E58FEF0E94ED26888388818E3FC9F7E5
:105240000B2D1A2DC0E0D0E08FEF0E94ED26F80163
:1052500081938F012196F2E0C030DF07A9F7109209
:105260009650809196508F3F49F0C6E9D0E58FEF78
:105270000E94ED26888388818F3FC9F780E00E94D5
:10528000201B0E942C1B88E060E00E948D1BDF9198
:10529000CF911F910F91FF90EF90DF90CF90BF9033
:1052A000AF9008952F923F924F925F926F927F92AC
:1052B0008F929F92AF92BF92CF92DF92EF92FF9226
:1052C0000F931F93CF93DF93CDB7DEB72A97CDBF50
:1052D000DEBF6B017C014F835887890188E060E065
:1052E0000E94361B80E00E94FD1A81E00E94201B74
:1052F000C801112314F481509E4F9C01232F330FBA
:10530000330B25952B833C8320E032E0C801B901A3
:105310000E944D352901481A590A30E0431632E0FF
:10532000530631F08B819C8101968B839C8302C054
:105330004424552489E1B701A6012FEF08E010E0CD
:105340000E94F7268823B1F7EB81FC811E161F0609
:105350000CF0ACC03197ED83FE839F01322F2227E2
:10536000330F8F81988589839A83662477240F2E43
:10537000FBE88F2EF0E59F2EF02D0F2EFCE0CF2EB8
:10538000DD24F02D0F2EFAE8AF2EF0E5BF2EF02D24
:1053900080E092E01C0124183508EF81F885E20FC7
:1053A000F31FEF83F8878FEF0E94ED26F4018083CF
:1053B0008CEF0E94ED26F40180832D813E8126151D
:1053C000370509F041C012141304CCF4EF80F884BF
:1053D00000E010E0C801B6010E944D3589879A8728
:1053E000F70181917F010E94ED26E985FA85EA0D9A
:1053F000FB1D80830F5F1F4F0215130559F714140F
:1054000015049CF400E010E0C801B6010E944D357F
:105410007C0180E00E94ED26F501EE0DFF1D8083EA
:105420000F5F1F4F0415150579F78FEF0E94ED26CA
:10543000F40180838FEF0E94ED26F40180831082B7
:1054400080818F3FE1F423C0E980FA8000E010E022
:10545000C801B6010E944D3589879A87F70181916D
:105460007F010E94ED26E985FA85EA0DFB1D808308
:105470000F5F1F4FF2E000301F0751F7D6CF8FEFBD
:105480000E94ED26F401808380818F3FC1F708944C
:10549000611C711C29813A8120503E4F29833A8337
:1054A0008B819C816816790609F07DCFEE24FF245C
:1054B0006894E2F80BE810E58FEF0E94ED26F80102
:1054C00080830894E108F108E114F104A9F78DEF55
:1054D0000E94ED2680938B50EE24FF246894E2F81E
:1054E0000BE810E58FEF0E94ED26F8018083089409
:1054F000E108F108E114F104A9F710928B508091B2
:105500008B508F3F51F00BE810E58FEF0E94ED2696
:10551000F801808380818F3FC1F780E00E94201BCB
:105520000E942C1B88E060E00E948D1B2A96CDBF54
:10553000DEBFDF91CF911F910F91FF90EF90DF9031
:10554000CF90BF90AF909F908F907F906F905F9023
:105550004F903F902F9008952F923F924F925F92DD
:105560006F927F928F929F92AF92BF92CF92DF9273
:10557000EF92FF920F931F93CF93DF936B017C0108
:10558000C42F852E390188E060E00E94361B80E040
:105590000E94FD1A81E00E94201B82E1B701A60152
:1055A0002FEF08E010E00E94F7268823B1F71614C9
:1055B00017040CF046C0AC2EB82C882499240F2E6A
:1055C000FBE8CF2EF0E5DF2EF02DFF24FA94EF2C30
:1055D0000F2EFAE84F2EF0E55F2EF02D1201089401
:1055E000211C311CF601E08280818E3F41F08F2D1D
:1055F0000E94ED26F601808380818E3FC1F78501F0
:10560000C0E0D0E08F2D0E94ED26F80181938F013C
:105610002196F2E0C030DF07A9F78F2D0E94ED261A
:10562000F20180838F2D0E94ED26F1018083089482
:10563000811C911C80E092E0A80EB91E861497048C
:1056400089F68CE040E050E0BA012FEF08E010E06E
:105650000E94F7268FEF0E94ED2680938A501092C9
:105660008B5080918B508F3F49F0CBE8D0E58FEF86
:105670000E94ED26888388818F3FC9F780E00E94D1
:10568000201B0E942C1B88E060E00E948D1BDF9194
:10569000CF911F910F91FF90EF90DF90CF90BF902F
:1056A000AF909F908F907F906F905F904F903F90C2
:1056B0002F90089588E060E00E943A1C88E060E046
:1056C0000E948D1B80E00E94FD1A81E00E94201B39
:1056D0008FEF0E94ED2680E00E94201B0E942C1B71
:1056E00080E00E94D50180E00E949A1A0895CF932D
:1056F000DF93C82FD92F20E030E047E950E507C0FD
:105700006991FA01E20FF31F60832F5F3F4FA82FCB
:10571000B92FFD0101900020E9F73197EA1BFB0B3F
:105720002E173F0720F02F3031052CF011C02F30FD
:10573000310531F70DC04AE150E287E990E5FC01FF
:10574000E20FF31F40832F5F3F4F2F303105B9F732
:10575000DF91CF9108950E94521E0000FECFA0E37A
:10576000B0E0E5EBFBE20C949F35298F3A8F4B8F2D
:105770005C8F6D8F7E8F8F8F98A3A98ABA8ACB8A10
:10578000DC8AED8AFE8A0F8B188F098D1A8D2B8D7E
:105790003C8D09A31AA32BA33CA3680179018FEFC9
:1057A0009FEFA0E0B0E0C822D922EA22FB228901C3
:1057B0002227332709A71AA72BA73CA709891A89EB
:1057C0002B893C890DA31EA32FA338A7480159019B
:1057D00088229922AA22BB22290166247724C501A6
:1057E000B401A70196010E941A356DA77EA78FA765
:1057F00098ABC301B2010E941A356B017C01C5014F
:10580000B40129A53AA54BA55CA50E941A354B0108
:105810005C01C301B2010E941A35AB01BC01C80C86
:10582000D91CEA1CFB1C0DA51EA52FA538A9C90172
:10583000AA27BB27C80ED91EEA1EFB1EC814D9040E
:10584000EA04FB0420F4405050406F4F7F4FC701E3
:10585000AA27BB27840F951FA61FB71F8D839E8382
:10586000AF83B8877601DD24CC244DA55EA56FA556
:1058700078A960707070C40ED51EE61EF71EC9822E
:10588000DA82EB82FC821C2D0A818B804C808D8712
:105890008E818E878F818F878885888B2D893E8921
:1058A0004F89588D69A17AA18BA19CA10E941A35BC
:1058B0006B017C012D8D3E8D4F8D58A16DA17EA178
:1058C0008FA198A50E941A35DC01CB01C80ED91E04
:1058D000EA1EFB1E8D859E85AF85B8898C0D9D1DAA
:1058E000AE1DBF1D8D879E87AF87B88B682F7E85C5
:1058F000212F302F482D542D8F859889E096E0E197
:105900000C94B835CF92DF92EF92FF920F93CF9322
:10591000DF93CDB7DEB76097CDBFDEBF002309F4BC
:105920005AC029873A874B875C876D877E878F8728
:10593000988B80E2801B49855A856B857C8518167B
:10594000B4F019821A821B821C82992787FD9095D8
:10595000909581959F4F04C0440F551F661F771F78
:105960008A95D2F74D835E836F8378872CC06A0156
:105970007B01002E04C0CC0CDD1CEE1CFF1C0A9425
:10598000D2F7C982DA82EB82FC826A017B0104C011
:10599000F694E794D794C7948A95D2F7D701C601B5
:1059A0004D855E856F85788904C0440F551F661F3D
:1059B000771F0A95D2F7842B952BA62BB72B8D83B7
:1059C0009E83AF83B88729813A814B815C816D8149
:1059D0007E818F8198856096CDBFDEBFDF91CF91AC
:1059E0000F91FF90EF90DF90CF9008950F93CF939A
:1059F000DF93CDB7DEB76097CDBFDEBF002309F4DC
:105A000056C029873A874B875C876D877E878F874B
:105A1000988B20E2201B8D859E85AF85B889AC01CF
:105A2000BD011216B4F0770F440B542FBA014D8309
:105A30005E836F837887332727FD309530952195D6
:105A40003F4F04C0B595A795979587952A95D2F7AE
:105A500022C0002E04C075956795579547950A9406
:105A6000D2F74D835E836F83788704C0880F991FB8
:105A7000AA1FBB1F2A95D2F749855A856B857C855D
:105A800004C076956795579547950A95D2F7842B6C
:105A9000952BA62BB72B89839A83AB83BC83298153
:105AA0003A814B815C816D817E818F819885609682
:105AB000CDBFDEBFDF91CF910F910895A8E4B0E094
:105AC000E4E6FDE20C949E35F50129A33AA34BA32D
:105AD0005CA36DA37EA38FA398A7A98EFA8FCB8E0C
