:100000000C9416010C9437010C9437010C943701B1
:100010000C9437010C9437010C9437010C94370180
:100020000C9437010C9437010C9437010C94370170
:100030000C9437010C9437010C945B140C94370129
:100040000C946F130C949F130C94CF130C94FF1308
:100050000C9437010C9437010C9437010C94370140
:100060000C9437010C9437010C9437010C94370130
:100070000C9437010C9437010C9437010C94370120
:100080000C9437010C9437010C9437010C94370110
:100090000C9437010C9437010C9437010C94370100
:1000A0000C9437010C9437010C9437010C94AB403D
:1000B0000C9437010C9437010C9437010C943701E0
:1000C0000C9437010C9437010C9437010C943701D0
:1000D0000C9437010C9437010C9437010C943701C0
:1000E0000C9437010C9437010C9437010C943701B0
:1000F0000C9437010C9437010C9437010C943701A0
:100100000C9418300C9437010C9437010C9437017F
:100110000C9437010C9437010C9437010C9437017F
:100120000C9437010C9437010C9437010C9437016F
:100130000C9437010C9460160C9437010C949E15A6
:100140000C94CE150C94FE150C942E160C94EA010A
:100150000C9437010C9437010C9437010C9437013F
:100160000C9437010C9437010C9437010C9437012F
:100170000C9437010C9437010C9437010C9437011F
:100180000C9437010C9437010C9437010C9437010F
:100190000C9437010C9437010C9437010C943701FF
:1001A0000C947A100C94B80E0C9437010C9437010F
:1001B0000C9437010C9437010C9437010C943701DF
:1001C0000C9437010C9437010C9437010C943701CF
:1001D0000C9437010C9437010C9437010C943701BF
:1001E0000C9437010C94370142554646455220463F
:1001F000554C4C2E20544F5353494E4720494E43A3
:100200004F4D494E4720444154410A005241444910
:100210004F204E4F5420494E495449414C495A456C
:10022000442050524F5045524C590A0011241FBED1
:10023000CFEFDFE5DEBFCDBF00E00CBF11E2A0E0F5
:10024000B0E2E6E7F4EC00E00BBF02C007900D92CD
:10025000AE32B107D9F710E5AEE2B1E201C01D92AE
:10026000AB3EB107E1F70E9439010C9439620C945E
:100270000000CF93DF9300D000D0CDB7DEB70E944F
:1002800047200E941C4D0E94834182E090E08D83B4
:100290009E8346C08091D0509091D150A091D25071
:1002A000B091D350803022E0920720E0A20720E0F6
:1002B000B207B0F1F89419821A821B821C8216C010
:1002C00080E090E229813A814B815C81BA01A901E9
:1002D0000E94184889819A81AB81BC8180509E4FD1
:1002E000AF4FBF4F89839A83AB83BC838091D0503B
:1002F0009091D150A091D250B091D35029813A81A0
:100300004B815C81281739074A075B07C8F21092B6
:10031000D0501092D1501092D2501092D350789465
:100320002091695030916A508D819E81281739073C
:1003300008F4B0CF1092695010926A500000F0CFCC
:10034000CF93DF930F920F92CDB7DEB789839A8355
:1003500086E090E28093AC5083E08093534080E845
:1003600091E028ECFC01218380E499E029E0FC0184
:10037000208380E499E023E0FC01268380E499E077
:1003800069817A8144EF51E0649F9001659F300D4F
:10039000749F300D1124FC0126A337A380E498E05C
:1003A00020E03AEFFC0126A337A380E498E022E0A6
:1003B000FC01268380E498E021E0FC01208380EAB0
:1003C00090E027E0FC01228378940F900F90DF915A
:1003D000CF9108951F920F920FB60F9200903B009D
:1003E0000F921124EF92FF920F931F932F933F933D
:1003F0004F935F936F937F938F939F93AF93BF932D
:10040000EF93FF93CF93DF9300D00F92CDB7DEB77A
:100410000DB71EB78DB79EB77C0180E498E0FC0154
:10042000108280E499E0FC01108280E498E02CE0E6
:10043000FC01218780E499E02CE0FC0121870E94E7
:1004400047208091E3509091E450FC01808191819C
:100450000E94DB2D20910520822F90E00197898357
:100460009A83822F90E02DB73EB7281B390B2DBF02
:100470003EBF8DB79EB7019600968B839C838B8180
:100480009C812CEA30E5B9010E94375F8091E350EE
:100490009091E450FC01808191812BED30E5B90110
:1004A0004AE050E00E944C5F8B819C812BED30E54F
:1004B000B9010E942C5F82E0809353400E94A10EFC
:1004C0006B817C818B819C819C01F90101900020D2
:1004D000E9F7CF010197821B930B9C0140E050E0AC
:1004E00080E090E00E940E21EDBEFEBE0DBF1EBF5B
:1004F0002496CDBFDEBFDF91CF91FF91EF91BF91E9
:10050000AF919F918F917F916F915F914F913F91AB
:100510002F911F910F91FF90EF900F9000923B0051
:100520000F900FBE0F901F901895CF93DF93CDB70C
:10053000DEB76B97CDBFDEBF8E8B9F8B688F798FB9
:100540004A8F5B8F19821A821B821C8280E090E1A5
:10055000A0E0B0E08D839E83AF83B88719861A86AA
:100560001B861C8681E00E94260680E092E00E94A5
:10057000A41C80E092E020E032E0F9012181297E94
:10058000FC01218380E092E020E032E0F901248147
:10059000287F2360FC01248380E092E020E032E0A9
:1005A000F90122812F7CFC01228380E292E020E28B
:1005B00032E0F9012081207E2160FC01208380E26D
:1005C00092E029E0FC01218380E092E020E032E02B
:1005D000F90120812160FC01208380E092E00E94EB
:1005E0005C1E80E092E060E272E040E00E94531FF7
:1005F0008D8B80E092E020E032E0F90120812E7FB7
:10060000FC01208380E292E0FC01118280E092E014
:1006100020E032E0F90123812F73FC01238380E085
:1006200092E020E032E0F90120812160FC0120838A
:1006300080E092E00E945C1E80E092E020E032E0E8
:10064000F90121812860FC0121831D861E8656C088
:1006500080E292E0FC018381882F90E081709070AD
:100660000097B1F32D8980E292E0622F0E94FD1C79
:100670008F87988B8F859889CC01A0E0B0E0298185
:100680003A814B815C81820F931FA41FB51F898320
:100690009A83AB83BC838F8598899C0140E050E0AE
:1006A00089859A85AB85BC8582179307A407B50712
:1006B00048F48F859889CC01A0E0B0E089879A87BB
:1006C000AB87BC878F8598899C0140E050E08D8185
:1006D0009E81AF81B885281739074A075B0748F420
:1006E0008F859889CC01A0E0B0E08D839E83AF8395
:1006F000B8878D859E8501968D879E878D859E8581
:10070000F4E080309F0708F4A3CF80E092E020E07F
:1007100032E0F9012181277FFC01218380E092E012
:1007200020E032E0F90120812260FC01208380E09A
:1007300092E020E032E0F90120812E7FFC0120834D
:1007400080E00E94260689819A81AB81BC81072EB8
:100750007AE0B695A795979587957A95D1F7702DFC
:10076000898B9A8BAB8BBC8B89899A89AB89BC8925
:1007700028EE33E040E050E0BC01CD010E945F5E16
:10078000DC01CB012FEF3FE040E050E0BC01CD01A8
:100790000E94A55EDA01C9019C01225330408E8976
:1007A0009F89FC012083318389859A85AB85BC852F
:1007B00028EE33E040E050E0BC01CD010E945F5ED6
:1007C000DC01CB012FEF3FE040E050E0BC01CD0168
:1007D0000E94A55EDA01C9019C01225330408A8D36
:1007E0009B8DFC01208331838D819E81AF81B885F3
:1007F00028EE33E040E050E0BC01CD010E945F5E96
:10080000DC01CB012FEF3FE040E050E0BC01CD0127
:100810000E94A55EDA01C9019C0122533040888DF7
:10082000998DFC01208331836B96CDBFDEBFDF91B4
:10083000CF9108950F931F93CF93DF93CDB7DEB77A
:10084000A997CDBFDEBF8CA39DA36EA37FA348A7AE
:1008500059A719821A821B821C8280E090E1A0E0D5
:10086000B0E08D839E83AF83B88719861A861B8676
:100870001C8681E00E94260684E060E00E94243508
:1008800084E060E00E94F03580E090E0A8ECB2E403
:100890008D8B9E8BAF8BB88F6D897E898F89988D5C
:1008A00020E030E04AEF55E40E94FC5DDC01CB0122
:1008B000898F9A8FAB8FBC8F11E0698D7A8D8B8D6C
:1008C0009C8D20E030E040E85FE30E94EB5C8823F1
:1008D0000CF010E0112329F081E090E08D8F9E8FC5
:1008E00046C011E0698D7A8D8B8D9C8D20E03FEFA5
:1008F0004FE757E40E94F85D18160CF010E0112342
:1009000061F16D897E898F89988D20E030E040E229
:1009100051E40E94FC5DDC01CB01BC01CD010E94D1
:10092000575DDC01CB018D8F9E8F12C080E293E07A
:100930008F8F98A38F8D98A18C01C8010197F1F733
:100940008C010F8F18A38D8D9E8D01978D8F9E8F9B
:100950008D8D9E8D009751F717C0698D7A8D8B8D87
:100960009C8D0E94575DDC01CB018D8F9E8F8D8DFC
:100970009E8D89A39AA389A19AA18C01F801319730
:10098000F1F78F0109A31AA380E492E00E94A41C4E
:1009900080E492E020E432E0F9012181297EFC012B
:1009A000218380E492E020E432E0F9012481287F71
:1009B0002360FC01248380E492E020E432E0F9012A
:1009C00022812F7CFC01228380E692E020E632E047
:1009D000F9012081207E2160FC01208380E692E0E5
:1009E00029E0FC01218380E492E020E432E0F90177
:1009F00020812160FC01208380E492E00E945C1E43
:100A000080E492E060E672E040E00E94531F8BA316
:100A100080E492E020E432E0F90120812E7FFC01A5
:100A2000208380E692E0FC01118280E492E020E4E1
:100A300032E0F90123812F73FC01238380E492E0EB
:100A400020E432E0F90120812160FC01208380E470
:100A500092E00E945C1E80E492E020E432E0F90122
:100A600021812860FC0121831D861E8656C080E6F8
:100A700092E0FC018381882F90E081709070009754
:100A8000B1F32BA180E692E0622F0E94FD1C8F87BC
:100A9000988B8F859889CC01A0E0B0E029813A81BC
:100AA0004B815C81820F931FA41FB51F89839A839A
:100AB000AB83BC838F8598899C0140E050E0898599
:100AC0009A85AB85BC8582179307A407B50748F4C0
:100AD0008F859889CC01A0E0B0E089879A87AB87A1
:100AE000BC878F8598899C0140E050E08D819E8174
:100AF000AF81B885281739074A075B0748F48F8507
:100B00009889CC01A0E0B0E08D839E83AF83B88745
:100B10008D859E8501968D879E878D859E85F4E0C7
:100B200080309F0708F4A3CF80E492E020E432E015
:100B3000F9012181277FFC01218380E492E020E4F8
:100B400032E0F90120812E7FFC01208389819A8186
:100B5000AB81BC81072E7AE0B695A79597958795CE
:100B60007A95D1F7702D898B9A8BAB8BBC8B84E0F7
:100B700060E00E94883580E00E94260689899A8973
:100B8000AB89BC8928EE33E040E050E0BC01CD01E8
:100B90000E945F5EDC01CB012FEF3FE040E050E0C0
:100BA000BC01CD010E94A55EDA01C9019C0122535E
:100BB00030408CA19DA1FC012083318389859A85D9
:100BC000AB85BC8528EE33E040E050E0BC01CD01B0
:100BD0000E945F5EDC01CB012FEF3FE040E050E080
:100BE000BC01CD010E94A55EDA01C9019C0122531E
:100BF000304088A599A5FC01208331838D819E8199
:100C0000AF81B88528EE33E040E050E0BC01CD0173
:100C10000E945F5EDC01CB012FEF3FE040E050E03F
:100C2000BC01CD010E94A55EDA01C9019C012253DD
:100C300030408EA19FA1FC0120833183A996CDBFB6
:100C4000DEBFDF91CF911F910F9108950F931F93F6
:100C5000CF93DF93CDB7DEB72F97CDBFDEBF8F87A2
:100C60008F85882309F4CEC080E096E02EEDFC014C
:100C7000218380E296E02EE0FC01218380E496E06F
:100C800023E0FC01218380E896E020E1FC01218340
:100C900080EA96E02EE0FC01218380E096E02EE9D8
:100CA000FC01258380E296E028E0FC01258380E4B6
:100CB00096E023E0FC01258380E896E020E1FC013A
:100CC000258380EA96E02EE0FC0125831092725085
:100CD00080E090E0A8ECB2E489839A83AB83BC8384
:100CE00069817A818B819C8120E030E04AEF55E474
:100CF0000E94FC5DDC01CB018D839E83AF83B887AE
:100D000011E06D817E818F81988520E030E040E8A0
:100D10005FE30E94EB5C88230CF010E0112329F0C4
:100D200081E090E089879A8746C011E06D817E81DD
:100D30008F81988520E03FEF4FE757E40E94F85DF0
:100D400018160CF010E0112361F169817A818B8112
:100D50009C8120E030E040E251E40E94FC5DDC0137
:100D6000CB01BC01CD010E94575DDC01CB0189871D
:100D70009A8712C080E293E08B879C878B859C8545
:100D80008C01C8010197F1F78C010B871C878985BD
:100D90009A85019789879A8789859A85009751F75F
:100DA00017C06D817E818F8198850E94575DDC011F
:100DB000CB0189879A8789859A858D879E878D85BE
:100DC0009E858C01F8013197F1F78F010D871E8701
:100DD00080E496E020E4FC01228380E0809373505D
:100DE0008093DA508093CB2380936B508FEF61E038
:100DF0000E9424358FEF61E00E94F0358FEF0E9452
:100E00007B0842C080E096E02EEDFC01268380E264
:100E100096E02EE0FC01268380E496E023E0FC01CE
:100E2000268380E896E020E1FC01268380EA96E0B4
:100E30002EE0FC01268380E096E02EEDFC0122836B
:100E400080E296E02EE0FC01228380E496E023E03D
:100E5000FC01228380E896E020E1FC01228380EA05
:100E600096E02EE0FC01228380E496E020E4FC0181
:100E7000228380E0809373508093DA508093CB2359
:100E800080936B50109272502F96CDBFDEBFDF91D2
:100E9000CF911F910F9108950F931F93CF93DF93DD
:100EA000CDB7DEB76A97CDBFDEBF898F6A8F898DD8
:100EB000282F30E081E090E002C0880F991F2A952A
:100EC000E2F761E00E9453368A8D882F90E08170AE
:100ED0009070882331F080E096E020E4FC012583C7
:100EE00005C080E096E020E4FC0126838A8D882FEF
:100EF00090E082709070009731F080E296E022E0FE
:100F0000FC01258305C080E296E022E0FC012683F7
:100F10008A8D882F90E084709070009731F080E285
:100F200096E024E0FC01258305C080E296E024E001
:100F3000FC01268380E090E0A0E8BFE389839A83E8
:100F4000AB83BC8369817A818B819C812BEA3AEAED
:100F50004AE251E40E94FC5DDC01CB018D839E835B
:100F6000AF83B88711E06D817E818F81988520E005
:100F700030E040E85FE30E94EB5C88230CF010E077
:100F8000112319F081E08987A3C011E06D817E8172
:100F90008F81988520E030E04FE753E40E94F85DB0
:100FA00018160CF010E0112309F489C069817A81C8
:100FB0008B819C8120E030E04AE754E40E94EF5CA2
:100FC000DC01CB018A879B87AC87BD876A857B85DF
:100FD0008C859D8520E030E04AEF55E40E94FC5D61
:100FE000DC01CB018E879F87A88BB98B11E06E85C2
:100FF0007F858889998920E030E040E85FE30E949E
:10100000EB5C88230CF010E0112329F081E090E0E4
:101010008A8B9B8B46C011E06E857F858889998974
:1010200020E03FEF4FE757E40E94F85D18160CF000
:1010300010E0112361F16A857B858C859D8520E018
:1010400030E040E251E40E94FC5DDC01CB01BC01D8
:10105000CD010E94575DDC01CB018A8B9B8B12C0B6
:1010600080E293E08C8B9D8B8C899D898C01C801DB
:101070000197F1F78C010C8B1D8B8A899B89019755
:101080008A8B9B8B8A899B89009751F728C06E8534
:101090007F85888999890E94575DDC01CB018A8B05
:1010A0009B8B8A899B898E8B9F8B8E899F898C01D4
:1010B000F8013197F1F78F010E8B1F8B10C06D81F6
:1010C0007E818F8198850E94575DDC01CB018987E5
:1010D0008985888F888D182F1A95F1F7188F8FEFD3
:1010E00061E00E94F0356A96CDBFDEBFDF91CF91FF
:1010F0001F910F910895CF93DF9300D0CDB7DEB746
:101100008B838B81837089838B818C708A838B81A5
:10111000882F90E085709070009751F08091725008
:10112000982F907F8B8182958F70892B809372503E
:101130008B81882F90E08A709070009749F08B81A6
:10114000982F907F809172508F70892B809372506E
:1011500084E00E94C0398091725080935A508981F6
:10116000882319F081E00E9490398A81882319F040
:1011700081E00E94A83981E00E94153A80EC98E055
:101180002FEFFC012383000080EC98E0FC018281BA
:101190008823D4F780EC98E0FC018381809366502B
:1011A000000080EC98E020915A50FC01238300005D
:1011B00080EC98E0FC0182818823D4F780EC98E0F1
:1011C000FC0183818093665080E00E94153A8981FA
:1011D000882319F080E00E9490398A81882319F0D1
:1011E00080E00E94A8390E942D3A2396CDBFDEBF31
:1011F000DF91CF910895CF93DF930F92CDB7DEB7F4
:1012000089838981882359F080E096E020E2FC01FF
:10121000218380E096E020E2FC0125830AC080E083
:1012200096E020E2FC01268380E096E020E2FC01CB
:1012300022830F90DF91CF9108952F923F924F928A
:101240005F926F927F928F929F92AF92BF92CF9256
:10125000DF92EF92FF920F931F93CF93DF93CDB75F
:10126000DEB7EC97CDBFDEBF8BA36CA34DA35EA30F
:101270002FA338A709A71AA7EBA6CCA619821A8212
:101280001B821C821D821E821F8218868FEF898717
:101290008FEF8A878FE78B871C861D861E861F86A9
:1012A000188A81E0898B1A8A80E88B8B8FEF8C8B70
:1012B0008FEF8D8B8FEF8E8B8FEF8F8B8FEF888FD4
:1012C00081E00E9426068BA16BA50E944C078CA191
:1012D0000E947B088BA1853031F08BA1863019F0FC
:1012E0008BA1873019F481E00E94381181E00E94BF
:1012F000FB088BA10E94641C84E00E94C03980EC32
:1013000098E024E5FC01208380EA96E021E0FC01DE
:10131000228380EA96E022E0FC01208B80EA96E0BE
:1013200021E0FC01228780EA96E021E0FC01218790
:1013300080E896E020E2FC01218380E49AE023E249
:10134000FC0121838CA5882F90E025E130E0281B4B
:10135000390B81E090E002C0880F991F2A95E2F7CF
:101360000197898F9A8F80E49AE0298D3A8DFC014C
:1013700026A337A380E49AE0298D3A8D36952795E8
:10138000FC0122AF33AF80E49AE020E43AE0F901B7
:101390002081207F2160FC01208380EA90E020EA08
:1013A00030E0F90122812160FC01228378941092BF
:1013B0006750109268501092524000008091675020
:1013C00090916850F4E080309F07C0F380E49AE089
:1013D00020E43AE0F9012081207FFC01208380EAAB
:1013E00090E020EA30E0F90122812E7FFC01228387
:1013F000F8940E942D3A80E00E94FB0880E00E9451
:101400002606109267501092685069C1809167500B
:1014100090916850880F991F880F991F885A9F4B89
:10142000FC0180819181A281B3818DA79EA7AFA786
:10143000B8ABBB0F880B982FDC0189AB8AAB8BABA9
:101440008CABA980BA80CB80DC80ED80FE800F81E0
:1014500018852DA52A0DE1E02A1508F0E0E03EA54B
:101460003B0DA1E03B1508F0A0E0FE2FF30FE1E0FB
:10147000F31708F0E0E0AE2B3F2F4FA54C0DB1E085
:101480004C1508F0B0E0FA2FF40FE1E0F41708F083
:10149000E0E0BE2B4F2F58A95D0DA1E05D1508F0CF
:1014A000A0E0FB2FF50FE1E0F51708F0E0E0AE2B30
:1014B0005F2F69A96E0DB1E06E1508F0B0E0FA2F4C
:1014C000F60FE1E0F61708F0E0E0BE2B6F2F7AA9E7
:1014D0007F0DA1E07F1508F0A0E0FB2FF70FE1E002
:1014E000F71708F0E0E0AE2B7F2F8BA9800FF1E01B
:1014F000801708F0F0E0A80FE1E0A81708F0E0E09E
:10150000FE2B8A2F9CA9910FEF2FE90F9E2F298385
:101510003A834B835C836D837E838F83988780912E
:10152000675090916850880F991F880F991F885AAB
:101530009F4BFC0180819181A281B3811C012D010F
:10154000BB0F880B982FDC01682E782E882E982EE2
:10155000888D89155CF1888D891509F042C08F89C5
:10156000881520F18F898815E1F58E898715F0F0AF
:101570008E898715B1F58D898615C0F08D89861500
:1015800081F58C89851590F08C89851551F58B89AD
:10159000841560F08B89841521F58A89831530F0D4
:1015A0008A898315F1F489898215D8F4809167506E
:1015B00090916850880F991F880F991F885A9F4BE8
:1015C000FC0180819181A281B381898B9A8BAB8B45
:1015D000BC8BBB0F880B982FDC018D8B8E8B8F8B78
:1015E000888F8091675090916850880F991F880F5D
:1015F000991F885A9F4BFC0180819181A281B38100
:101600008DAB9EABAFABB8AFBB0F880B982FDC0197
:1016100089AF8AAF8BAF8CAF8889FCADF817DCF14E
:1016200088892CAD821709F051C08F859BAD981722
:1016300090F18F85EBAD8E1709F048C08E85FAAD1D
:10164000F81748F18E852AAD821709F03FC08D85C5
:1016500099AD981700F18D85E9AD8E17B9F58C8598
:10166000F8ADF817C0F08C8528AD821779F58B8519
:101670009FA9981780F08B85EFA98E1739F58A8579
:10168000FEA9F81740F08A852EA98217F9F48985FA
:101690009DA99817D8F48091675090916850880F51
:1016A000991F880F991F885A9F4BFC018081918157
:1016B000A281B38189879A87AB87BC87BB0F880BD0
:1016C000982FDC018D878E878F87888B809167505C
:1016D00090916850019680936750909368508091E4
:1016E000675090916850F4E080309F0708F48ECEE8
:1016F00029813A814B815C816D817E818F819885C2
:10170000A22EB32EC42ED52EE62EF72E082F192F7B
:1017100011230CF06CC022242A940F2EF3E03F2EEC
:10172000F02D4424552466247724882499242A2DD6
:10173000220DE1E02A1508F0E0E03B2D330DF1E049
:101740003B1508F0F0E0E30FA1E0E31708F0A0E09C
:10175000FA2B3E2F4C2D440DE1E04C1508F0E0E053
:10176000F40FA1E0F41708F0A0E0EA2B4F2F5D2D55
:10177000550DF1E05D1508F0F0E0E50FA1E0E5178B
:1017800008F0A0E0FA2B5E2F6E2D660DE1E06E15DD
:1017900008F0E0E0F60FA1E0F61708F0A0E0EA2B71
:1017A0006F2F7F2D770DF1E07F1508F0F0E0E70F48
:1017B000A1E0E71708F0A0E0FA2B7E2F802F880D1C
:1017C000E1E0801708F0E0E0F80FA1E0F81708F07A
:1017D000A0E0EA2B8F2F912F990DE90F9E2FA22EBB
:1017E000B32EC42ED52EE62EF72E082F192F2A2D14
:1017F0003B2D4C2D5D2D6E2D7F2D802F912F0AE0DE
:101800000E94C754A22EB32EC42ED52EE62EF72E3C
:10181000082F192FAB8EBC8ECD8EDE8EEF8EF8A2E8
:1018200009A31AA32B8D3C8D4D8D5E8D6F8D78A1F4
:1018300089A19AA10F2EF0EAAF2EF02D0F2EF5E21E
:10184000BF2EF02D0F2EF6E2CF2EF02DDD24EE244C
:10185000FF2400E010E00E948053222E332E442EFD
:10186000552E662E772E882E992EA22CB32CC42CA2
:10187000D52CE62CF72C082D192D2A2D3B2D4C2D7F
:101880005D2D6E2D7F2D802F912FAA24AA94BB242D
:10189000BA940F2EFFE7CF2EF02DDD24EE24FF2487
:1018A00000E010E00E942F55222E332E442E552E9C
:1018B000662E772E882E992EA22CB32CC42CD52CD4
:1018C000E62CF72C082D192D2A2D3B2D4C2D5D2DA6
:1018D0006E2D7F2D802F912F01E00E945354222ED8
:1018E000332E442E552E662E772E882E992EA22C1E
:1018F000B32CC42CD52CE62CF72C082D192D2A2D11
:101900003B2D4C2D5D2D6E2D7F2D802F912F0F2E79
:10191000F3E0AF2EF02DBB24CC24DD24EE24FF24F5
:1019200000E010E00E942F55A22EB32EC42ED52E1B
:10193000E62EF72E082F192F2A2D3B2D4C2D5D2D2D
:101940006E2D7F2D802F912FDA01C901B095A095C2
:10195000909581959F4FAF4FBF4F2DA13EA1F901AB
:1019600080839183A283B38329893A894B895C89D7
:101970006D897E898F89988D0F2EF0EAAF2EF02D1C
:101980000F2EF5E2BF2EF02D0F2EF6E2CF2EF02D0A
:10199000DD24EE24FF2400E010E00E948053222E7C
:1019A000332E442E552E662E772E882E992EA22C5D
:1019B000B32CC42CD52CE62CF72C082D192D2A2D50
:1019C0003B2D4C2D5D2D6E2D7F2D802F912FAA2428
:1019D000AA94BB24BA940F2EFFE7CF2EF02DDD245E
:1019E000EE24FF2400E010E00E942F55222E332E1B
:1019F000442E552E662E772E882E992EA22CB32C8F
:101A0000C42CD52CE62CF72C082D192D2A2D3B2D76
:101A10004C2D5D2D6E2D7F2D802F912F01E00E948A
:101A20005354222E332E442E552E662E772E882E7A
:101A3000992EA22CB32CC42CD52CE62CF72C082DD7
:101A4000192D2A2D3B2D4C2D5D2D6E2D7F2D802F98
:101A5000912F0F2EF3E0AF2EF02DBB24CC24DD24EC
:101A6000EE24FF2400E010E00E942F55A22EB32E9A
:101A7000C42ED52EE62EF72E082F192F2A2D3B2DFA
:101A80004C2D5D2D6E2D7F2D802F912FDA01C901F8
:101A9000B095A095909581959F4FAF4FBF4F29A5C9
:101AA0003AA5F90180839183A283B38329853A857E
:101AB0004B855C856D857E858F8598890F2EF0EA34
:101AC000AF2EF02D0F2EF5E2BF2EF02D0F2EF6E2E9
:101AD000CF2EF02DDD24EE24FF2400E010E00E9444
:101AE0008053222E332E442E552E662E772E882E8E
:101AF000992EA22CB32CC42CD52CE62CF72C082D17
:101B0000192D2A2D3B2D4C2D5D2D6E2D7F2D802FD7
:101B1000912FAA24AA94BB24BA940F2EFFE7CF2EAC
:101B2000F02DDD24EE24FF2400E010E00E942F556C
:101B3000222E332E442E552E662E772E882E992E49
:101B4000A22CB32CC42CD52CE62CF72C082D192D47
:101B50002A2D3B2D4C2D5D2D6E2D7F2D802F912F0D
:101B600001E00E945354222E332E442E552E662E11
:101B7000772E882E992EA22CB32CC42CD52CE62C93
:101B8000F72C082D192D2A2D3B2D4C2D5D2D6E2D5A
:101B90007F2D802F912F0F2EF3E0AF2EF02DBB2441
:101BA000CC24DD24EE24FF2400E010E00E942F5519
:101BB000A22EB32EC42ED52EE62EF72E082F192FC7
:101BC0002A2D3B2D4C2D5D2D6E2D7F2D802F912F9D
:101BD000DA01C901B095A095909581959F4FAF4FBF
:101BE000BF4F2FA138A5F90180839183A283B383CE
:101BF000EC96CDBFDEBFDF91CF911F910F91FF908B
:101C0000EF90DF90CF90BF90AF909F908F907F909C
:101C10006F905F904F903F902F900895CF93DF93F8
:101C200000D000D0CDB7DEB78B836C834D832E837D
:101C300081E00E9426060E9483418B816D810E9473
:101C40004C078C810E947B088B81853031F08B8121
:101C5000863019F08B81873019F481E00E943811A9
:101C600081E00E94FB088B810E94641C84E00E943A
:101C7000C03980EC98E024E5FC01208380EA96E0FE
:101C800021E0FC01228380EA96E022E0FC01208B27
:101C900080EA96E021E0FC01238780EA96E024E0D8
:101CA000FC01218780E896E020E2FC01218380E4AA
:101CB0009AE023E2FC0121838E81882F90E025E1C8
:101CC00030E0281B390B81E090E002C0880F991F9B
:101CD0002A95E2F7019789839A8380E49AE0298123
:101CE0003A81FC0126A337A380E49AE029813A8156
:101CF00036952795FC0122AF33AF80E49AE020E4CB
:101D00003AE0F9012081207F2160FC01208380EAF4
:101D100090E020EA30E0F90122812160FC01228379
:101D200078941092675010926850109295501092CB
:101D30009650109252402696CDBFDEBFDF91CF91D4
:101D40000895CF93DF93CDB7DEB780EA96E0FC012C
:101D50001386DF91CF910895CF93DF93CDB7DEB790
:101D600080EA96E021E0FC012387DF91CF9108957E
:101D70001F920F920FB60F9200903B000F9211240A
:101D80002F923F924F925F926F927F928F929F928B
:101D9000AF92BF92CF92DF92EF92FF920F931F9379
:101DA0002F933F934F935F936F937F938F939F9363
:101DB000AF93BF93EF93FF93CF93DF9300D0CDB753
:101DC000DEB780919550909196508A30910520F021
:101DD0000E9410530000FECF80915240882334F0BF
:101DE000809152408F5F809352405BC184E00E949B
:101DF000C03980EC98E024E5FC01208381E00E945A
:101E0000153A80EA96E022E0FC01268319821AC086
:101E100080EC98E02AEAFC012383000080EC98E043
:101E2000FC0182818823D4F78981882F90E020ECFF
:101E300038E0F9012381865A9F4AFC012083898179
:101E40008F5F89838981833018F380EA96E022E0EE
:101E5000FC01258380E00E94153A80915A50882326
:101E600034F48BE590E42FEFFC01208304C08BE574
:101E700090E4FC0110828AE590E420915A50FC0124
:101E8000208389E590E420915B50FC01208388E564
:101E900090E420915C50FC01208380915840909107
:101EA0005940A0915A40B0915B405C016D01BB0F5D
:101EB000880B982FDC01E82EF82E082F182FA092FF
:101EC0009750B0929850C0929950D0929A50E09208
:101ED0009B50F0929C5000939D5010939E50809187
:101EE000675090916850880F991F880F991F9C0127
:101EF0002C523C4D2A833B83A0909750B090985031
:101F0000C0909950D0909A50E0909B50F0909C5087
:101F100000919D5010919E502A2D3B2D4C2D5D2DF2
:101F20006E2D7F2D802F912F0F2EF0EAAF2EF02DEA
:101F30000F2EF5E2BF2EF02D0F2EF6E2CF2EF02D54
:101F4000DD24EE24FF2400E010E00E948053222EC6
:101F5000332E442E552E662E772E882E992EA22CA7
:101F6000B32CC42CD52CE62CF72C082D192D2A2D9A
:101F70003B2D4C2D5D2D6E2D7F2D802F912FAA2472
:101F8000AA94BB24BA940F2EFFE7CF2EF02DDD24A8
:101F9000EE24FF2400E010E00E942F55222E332E65
:101FA000442E552E662E772E882E992EA22CB32CD9
:101FB000C42CD52CE62CF72C082D192D2A2D3B2DC1
:101FC0004C2D5D2D6E2D7F2D802F912F01E00E94D5
:101FD0005354222E332E442E552E662E772E882EC5
:101FE000992EA22CB32CC42CD52CE62CF72C082D22
:101FF000192D2A2D3B2D4C2D5D2D6E2D7F2D802FE3
:10200000912F0F2EF3E0AF2EF02DBB24CC24DD2436
:10201000EE24FF2400E010E00E942F55A22EB32EE4
:10202000C42ED52EE62EF72E082F192F2A2D3B2D44
:102030004C2D5D2D6E2D7F2D802F912FDA01C90142
:10204000B095A095909581959F4FAF4FBF4FEA8176
:10205000FB8180839183A283B383809167509091A9
:1020600068500196809367509093685080916750B4
:102070009091685080389105A0F08CE090E240E0AB
:1020800050E0BA010E9418481092675010926850B0
:102090008091955090919650019680939550909391
:1020A00096502396CDBFDEBFDF91CF91FF91EF9188
:1020B000BF91AF919F918F917F916F915F914F9160
:1020C0003F912F911F910F91FF90EF90DF90CF9054
:1020D000BF90AF909F908F907F906F905F904F9048
:1020E0003F902F900F9000923B000F900FBE0F90EB
:1020F0001F9018951F920F920FB60F9200903B0001
:102100000F9211242F933F934F935F936F937F937D
:102110008F939F93AF93BF93EF93FF93CF93DF93EF
:102120000F92CDB7DEB780915240882334F0809172
:1021300052408F5F8093524084C081E00E94153AE4
:1021400080EA96E022E0FC01268319821AC080EC26
:1021500098E02AEAFC012383000080EC98E0FC016F
:1021600082818823D4F78981882F90E020EC38E0A1
:10217000F9012381865A9F4AFC01208389818F5F60
:1021800089838981833018F380EA96E022E0FC019C
:10219000258380E00E94153A80915A5088237CF470
:1021A0008091675090916850880F991F880F991FF0
:1021B0000396885A9F4B2FEFFC0120830DC080911E
:1021C000675090916850880F991F880F991F039648
:1021D000885A9F4BFC011082809167509091685003
:1021E000880F991F880F991F0296885A9F4B20913C
:1021F0005A50FC0120838091675090916850880F5D
:10220000991F880F991F0196885A9F4B20915B5008
:10221000FC0120838091675090916850880F991F2E
:10222000880F991F885A9F4B20915C50FC01208396
:102230008091675090916850019680936750909379
:1022400068500F90DF91CF91FF91EF91BF91AF91C7
:102250009F918F917F916F915F914F913F912F91BE
:102260000F9000923B000F900FBE0F901F9018959B
:10227000CF93DF930F92CDB7DEB78983898188230F
:1022800049F080E260E00E94243580E260E00E9434
:10229000F03504C080E260E00E9488350F90DF9145
:1022A000CF9108958F929F92AF92BF92CF92DF927B
:1022B000EF92FF920F93CF93DF93CDB7DEB72E97B8
:1022C000CDBFDEBF89836A837B834C832D830E83DE
:1022D000EF82F886C986DA86AB86BC868D869E86B6
:1022E00081E00E9426068A819B81FC01908185E025
:1022F000692F0E944C078A819B810196FC01908185
:1023000086E0692F0E944C078A819B810296FC011E
:10231000908187E0692F0E944C0789810E947B0889
:102320008E810E94381184E00E94C03980EC98E0D0
:1023300024E5FC01208381E00E94FB0885E00E94E7
:10234000641C80EA96E022E0FC01208B80EA96E0A3
:1023500021E0FC01228380E891E028E7FC01208352
:1023600080E098E020EFFC01218380E098E02F815D
:102370003885FC0120A731A780E098E029853A85BF
:10238000FC0122A733A780E098E02B853C85FC0167
:1023900024A735A780E098E02D853E85FC0126A77F
:1023A00037A780E098E02D81222F30E02150304087
:1023B000FC0126A337A380E098E022E0FC012683FD
:1023C00080E098E02FEFFC01278380E098E020E098
:1023D00038E0F9012081207F2860FC0120831092E1
:1023E0004C4010924D4010926750109268501092DD
:1023F000D45080E08093302180932F2180932E2130
:1024000080EA90E020EA30E0F90122812660FC01B8
:102410002283789481E00E94153A80E896E020E2D9
:10242000FC01218380E49AE023E2FC01218380E423
:102430009AE02C81422F50E020E230E002C0220FCF
:10244000331F4A95E2F7FC0126A337A380E49AE004
:102450002C81422F50E020E130E0042E02C0220FF8
:10246000331F0A94E2F7FC0122AF33AF80E49AE015
:1024700020E43AE0F9012081207F2160FC012083E3
:1024800000008091675090916850F5E583359F0773
:10249000C0F380E098E020E038E0F9012081207F5F
:1024A000FC01208380E49AE020E43AE0F9012081F5
:1024B000207FFC01208380EA90E020EA30E0F901EF
:1024C0002281297FFC012283F89480E00E94153A42
:1024D0000E942D3A80E00E94FB0880E00E942606C0
:1024E0002E96CDBFDEBFDF91CF910F91FF90EF9081
:1024F000DF90CF90BF90AF909F908F9008958F9274
:102500009F92AF92BF92CF92DF92EF92FF920F9382
:10251000CF93DF93CDB7DEB72E97CDBFDEBF8983D4
:102520006A837B834C832D830E83EF82F886C98672
:10253000DA86AB86BC868D869E8681E00E94260662
:102540008A819B81FC01908185E0692F0E944C0764
:102550008A819B810196FC01908186E0692F0E940F
:102560004C078A819B810296FC01908187E0692F4C
:102570000E944C0789810E947B088E810E9438113D
:1025800084E00E94C03980EC98E024E5FC012083BF
:1025900081E00E94FB0885E00E94641C80EA96E0CE
:1025A00022E0FC01208B80EA96E021E0FC012283FE
:1025B00080E891E028E7FC01208380E098E020EFAC
:1025C000FC01218380E098E02F813885FC0120A761
:1025D00031A780E098E029853A85FC0122A733A73E
:1025E00080E098E02B853C85FC0124A735A780E09E
:1025F00098E02D853E85FC0126A737A780E098E06E
:102600002D81222F30E021503040FC0126A337A33A
:1026100080E098E022E0FC01268380E098E02FEF44
:10262000FC01278380E098E020E038E0F901208178
:10263000207F2860FC01208310924C4010924D4076
:1026400010926750109268501092D45080E080939E
:10265000302180932F2180932E2180EA90E020EA80
:1026600030E0F90122812660FC012283789481E028
:102670000E94153A80E896E020E2FC01218380E484
:102680009AE023E2FC01218380E49AE02C81422F2E
:1026900050E020E230E002C0220F331F4A95E2F7FB
:1026A000FC0126A337A380E49AE02C81422F50E05E
:1026B00020E130E0042E02C0220F331F0A94E2F71B
:1026C000FC0122AF33AF80E49AE020E43AE0F90164
:1026D0002081207F2160FC0120830000FECF1F921B
:1026E0000F920FB60F9200903B000F9211242F9380
:1026F0003F934F935F936F937F938F939F93AF938A
:10270000BF93EF93FF93CF93DF93CDB7DEB70E94D4
:102710009016DF91CF91FF91EF91BF91AF919F9173
:102720008F917F916F915F914F913F912F910F907A
:1027300000923B000F900FBE0F901F9018951F92B4
:102740000F920FB60F9200903B000F9211242F931F
:102750003F934F935F936F937F938F939F93AF9329
:10276000BF93EF93FF93CF93DF93CDB7DEB70E9474
:102770009016DF91CF91FF91EF91BF91AF919F9113
:102780008F917F916F915F914F913F912F910F901A
:1027900000923B000F900FBE0F901F9018951F9254
:1027A0000F920FB60F9200903B000F9211242F93BF
:1027B0003F934F935F936F937F938F939F93AF93C9
:1027C000BF93EF93FF93CF93DF93CDB7DEB70E9414
:1027D0009016DF91CF91FF91EF91BF91AF919F91B3
:1027E0008F917F916F915F914F913F912F910F90BA
:1027F00000923B000F900FBE0F901F9018951F92F4
:102800000F920FB60F9200903B000F9211242F935E
:102810003F934F935F936F937F938F939F93AF9368
:10282000BF93EF93FF93CF93DF93CDB7DEB70E94B3
:1028300090161092D45080E296E0FC018481882F9B
:1028400090E0827090700097B1F080E096E0FC011B
:102850008481882F90E080749070009731F080E23E
:1028600096E022E0FC01278310C080E096E020E49F
:10287000FC0127830AC080E096E020E4FC01268367
:1028800080E296E022E0FC012583DF91CF91FF9169
:10289000EF91BF91AF919F918F917F916F915F91D8
:1028A0004F913F912F910F9000923B000F900FBEE0
:1028B0000F901F9018951F920F920FB60F920090D5
:1028C0003B000F9211242F933F934F935F936F938D
:1028D0007F938F939F93AF93BF93EF93FF93CF9388
:1028E000DF93CDB7DEB70E94F016DF91CF91FF9155
:1028F000EF91BF91AF919F918F917F916F915F9178
:102900004F913F912F910F9000923B000F900FBE7F
:102910000F901F9018958F929F92AF92BF92CF9277
:10292000DF92EF920F93CF93DF93CDB7DEB72C9763
:10293000CDBFDEBF89836A834B832C830D83EE82F8
:10294000CF82D886A986BA868B869C8681E00E9433
:10295000260689816B810E944C078A810E947B0830
:102960008E810E94381184E00E94C03980EC98E08A
:1029700024E5FC01208381E00E94FB0889810E94FC
:10298000641C80EA96E022E0FC01208B80EA96E05D
:1029900021E0FC01228380E891E028E7FC0120830C
:1029A00080E099E020EFFC01218380E099E02F8115
:1029B0003885FC0120A731A780E099E029853A8578
:1029C000FC0122A733A780E099E02B853C85FC0120
:1029D00024A735A780E099E02A8D3B8DFC0126A72E
:1029E00037A780E099E02D81222F30E02150304040
:1029F000FC0126A337A380E099E022E0FC012683B6
:102A000080E099E02FEFFC01278380E099E020E04F
:102A100039E0F9012081207F2860FC012083109299
:102A20004C4010924D401092675010926850109296
:102A3000D45080E08093302180932F2180932E21E9
:102A400080EA90E020EA30E0F90122812660FC0172
:102A50002283789481E00E94153A80E896E020E293
:102A6000FC01218380E49AE023E2FC01218380E4DD
:102A70009AE02C81422F50E020E230E002C0220F89
:102A8000331F4A95E2F7FC0126A337A380E49AE0BE
:102A90002C81422F50E020E130E0042E02C0220FB2
:102AA000331F0A94E2F7FC0122AF33AF80E49AE0CF
:102AB00020E43AE0F9012081207F2160FC0120839D
:102AC00000008091675090916850F5E583359F072D
:102AD000C0F380E099E020E039E0F9012081207F17
:102AE000FC01208380E49AE020E43AE0F9012081AF
:102AF000207FFC01208380EA90E020EA30E0F901A9
:102B00002281297FFC012283F89480E00E94153AFB
:102B10000E942D3A80E00E94FB0880E00E94260679
:102B20002C96CDBFDEBFDF91CF910F91EF90DF905C
:102B3000CF90BF90AF909F908F9008951F920F926B
:102B40000FB60F9200903B000F9211242F933F93EA
:102B50004F935F936F937F938F939F93AF93BF93A5
:102B6000EF93FF93CF93DF93CDB7DEB70E9490161C
:102B7000DF91CF91FF91EF91BF91AF919F918F9195
:102B80007F916F915F914F913F912F910F900092A4
:102B90003B000F900FBE0F901F9018951F920F9241
:102BA0000FB60F9200903B000F9211242F933F938A
:102BB0004F935F936F937F938F939F93AF93BF9345
:102BC000EF93FF93CF93DF93CDB7DEB70E949016BC
:102BD000DF91CF91FF91EF91BF91AF919F918F9135
:102BE0007F916F915F914F913F912F910F90009244
:102BF0003B000F900FBE0F901F9018951F920F92E1
:102C00000FB60F9200903B000F9211242F933F9329
:102C10004F935F936F937F938F939F93AF93BF93E4
:102C2000EF93FF93CF93DF93CDB7DEB70E9490165B
:102C3000DF91CF91FF91EF91BF91AF919F918F91D4
:102C40007F916F915F914F913F912F910F900092E3
:102C50003B000F900FBE0F901F9018951F920F9280
:102C60000FB60F9200903B000F9211242F933F93C9
:102C70004F935F936F937F938F939F93AF93BF9384
:102C8000EF93FF93CF93DF93CDB7DEB70E949016FB
:102C90001092D450DF91CF91FF91EF91BF91AF91FE
:102CA0009F918F917F916F915F914F913F912F9164
:102CB0000F9000923B000F900FBE0F901F90189541
:102CC0001F920F920FB60F9200903B000F921124AB
:102CD0002F933F934F935F936F937F938F939F9324
:102CE000AF93BF93EF93FF93CF93DF93CDB7DEB74F
:102CF0000E94F016DF91CF91FF91EF91BF91AF91BC
:102D00009F918F917F916F915F914F913F912F9103
:102D10000F9000923B000F900FBE0F901F901895E0
:102D2000CF93DF93CDB7DEB780EA96E022E0FC01D7
:102D3000268380EC98E02AEAFC012383000080ECE3
:102D400098E0FC0182818823D4F78091D450882FA9
:102D500090E020EC38E0F9012381865A9F4AFC017B
:102D6000208380EC98E02AEAFC012383000080ECB9
:102D700098E0FC0182818823D4F78091D450882F79
:102D800090E0019620EC38E0F9012381865A9F4AB1
:102D9000FC01208380EC98E02AEAFC0123830000F8
:102DA00080EC98E0FC0182818823D4F78091D45094
:102DB000882F90E0029620EC38E0F9012381865AB2
:102DC0009F4AFC01208380EA96E022E0FC012583F3
:102DD0008091D4508D5F8093D450DF91CF9108952E
:102DE000CF93DF93CDB7DEB72997CDBFDEBF1A8271
:102DF0001B821C821D8280916750909168500196C1
:102E0000809367509093685080EC98E020EDFC012F
:102E1000208319824FC08981882F90E0865A9F4A6B
:102E2000FC01808188233CF4CE01069603962FEFA7
:102E3000FC01208305C0CE0106960396FC0110829A
:102E4000CE01069602962981222F30E0265A3F4A6B
:102E5000F9012081FC012083CE010696019629818B
:102E6000222F30E02F5F3F4F265A3F4AF901208141
:102E7000FC012083CE0106962981222F30E02E5FAF
:102E80003F4F265A3F4AF9012081FC0120832A81C5
:102E90003B814C815D818E819F81A885B985820FA0
:102EA000931FA41FB51F8A839B83AC83BD83898135
:102EB0008D5F898389818C3008F4ADCF8A819B81B5
:102EC000AC81BD8124E030E040E050E0BC01CD01A8
:102ED0000E94C75EDA01C9018A839B83AC83BD83EC
:102EE000CE010296FC01808180935C50CE01029657
:102EF000FC01818180935B50CE010296FC018281AE
:102F000080935A5080E496E020E1FC01268380E221
:102F100096E028E0FC012683000080EC98E026E0A3
:102F2000FC012383000080EC98E0FC01828188236F
:102F3000D4F780EC98E0FC0183818093665080E2B6
:102F400096E028E0FC012583000080E296E028E07E
:102F5000FC012683000080EC98E022E0FC01238342
:102F6000000080EC98E0FC0182818823D4F780EC9B
:102F700098E0FC0183818093665080EC98E020917A
:102F80004D40FC012383000080EC98E0FC0182812D
:102F90008823D4F780EC98E0FC018381809366500D
:102FA00080EC98E02CE430E4F9012081FC012383DB
:102FB000000080EC98E0FC0182818823D4F780EC4B
:102FC00098E0FC0183818093665080EC98E020912A
:102FD0005A50FC012383000080EC98E0FC018281C0
:102FE0008823D4F780EC98E0FC01838180936650BD
:102FF00080EC98E020915B50FC012383000080EC82
:1030000098E0FC0182818823D4F780EC98E0FC01F1
:1030100083818093665080EC98E020915C50FC01A5
:103020002383000080EC98E0FC0182818823D4F7A0
:1030300080EC98E0FC0183818093665080E296E00A
:1030400028E0FC01258380E496E020E1FC01258353
:1030500080EC98E024E5FC01208380E496E020E108
:10306000FC01268380914C4090914D4003968093C3
:103070004C4090934D4090912E2180915A50890F51
:1030800080932E2190912F2180915B50890F809306
:103090002F219091302180915C50890F80933021B5
:1030A0002996CDBFDEBFDF91CF9108952F923F9239
:1030B0004F925F926F927F928F929F92AF92BF9248
:1030C000CF92DF92EF92FF920F931F93CF93DF93F4
:1030D00000D00F92CDB7DEB7AA24BB24CC24DD24C8
:1030E000EE24FF2400E010E0A0928C50B0928D50AE
:1030F000C0928E50D0928F50E0929050F0929150AA
:1031000000939250109393502A2D3B2D4C2D5D2D02
:103110006E2D7F2D802F912F2093845030938550DA
:103120004093865050938750609388507093895095
:1031300080938A5090938B5020937C5030937D5095
:1031400040937E5050937F50609380507093815095
:10315000809382509093835080E0809333218093BA
:1031600032218093312110924C4010924D401982AF
:103170001A8288C281E79CE10E94473A80914C40C4
:1031800090914D408F58934E80934C4090934D407A
:103190001B821C826BC28B819C8123E030E0B901D1
:1031A0000E947E5E9C012F5C3E4DF90140812B8187
:1031B0003C812C523C4DF9012081240F8F5C9E4DA7
:1031C000FC0120838B819C8123E030E0B9010E94C7
:1031D0007E5E009709F044C08B819C818C529C4D8F
:1031E000FC0180818823D4F48091585090915950EB
:1031F000FC011082FC011182FC0112822FEFFC0104
:1032000023832FEFFC0124832FEFFC0125832FEF75
:10321000FC0126832FEFFC01278314C080915850B6
:1032200090915950FC011082FC011182FC01128224
:10323000FC011382FC011482FC011582FC01168240
:10324000FC011782809158509091595002962B8121
:103250003C812C523C4DF9012081FC01208324C08B
:103260008B819C8123E030E0B9010E947E5E813039
:10327000910571F4809158509091595001962B818D
:103280003C812C523C4DF9012081FC0120830CC073
:1032900080915850909159502B813C812C523C4D3B
:1032A000F9012081FC0120838B819C8129E030E0A1
:1032B000B9010E947E5E8230910509F094C0A09011
:1032C0007C50B0907D50C0907E50D0907F50E09068
:1032D0008050F090815000918250109183508091E5
:1032E000585090915950FC012080FC013180FC0124
:1032F0004280FC015380FC016480FC017580FC016C
:103300008680FC0197802A2D220DE1E02A1508F025
:10331000E0E03B2D330DF1E03B1508F0F0E0E30F6A
:10332000A1E0E31708F0A0E0FA2B3E2F4C2D440D4E
:10333000E1E04C1508F0E0E0F40FA1E0F41708F02C
:10334000A0E0EA2B4F2F5D2D550DF1E05D1508F043
:10335000F0E0E50FA1E0E51708F0A0E0FA2B5E2F02
:103360006E2D660DE1E06E1508F0E0E0F60FA1E0CD
:10337000F61708F0A0E0EA2B6F2F7F2D770DF1E014
:103380007F1508F0F0E0E70FA1E0E71708F0A0E0F4
:10339000FA2B7E2F802F880DE1E0801708F0E0E007
:1033A000F80FA1E0F81708F0A0E0EA2B8F2F912F7B
:1033B000990DE90F9E2FA22EB32EC42ED52EE62EE8
:1033C000F72E082F192FA0927C50B0927D50C092FA
:1033D0007E50D0927F50E0928050F09281500093C6
:1033E0008250109383508B819C8129E030E0B90199
:1033F0000E947E5E8530910509F094C0A0908450B3
:10340000B0908550C0908650D0908750E090885002
:10341000F090895000918A5010918B5080915850B3
:1034200090915950FC012080FC013180FC014280C8
:10343000FC015380FC016480FC017580FC018680E6
:10344000FC0197802A2D220DE1E02A1508F0E0E02A
:103450003B2D330DF1E03B1508F0F0E0E30FA1E068
:10346000E31708F0A0E0FA2B3E2F4C2D440DE1E0CD
:103470004C1508F0E0E0F40FA1E0F41708F0A0E02C
:10348000EA2B4F2F5D2D550DF1E05D1508F0F0E0B2
:10349000E50FA1E0E51708F0A0E0FA2B5E2F6E2DF6
:1034A000660DE1E06E1508F0E0E0F60FA1E0F6171A
:1034B00008F0A0E0EA2B6F2F7F2D770DF1E07F154C
:1034C00008F0F0E0E70FA1E0E71708F0A0E0FA2B22
:1034D0007E2F802F880DE1E0801708F0E0E0F80FE4
:1034E000A1E0F81708F0A0E0EA2B8F2F912F990D9B
:1034F000E90F9E2FA22EB32EC42ED52EE62EF72E28
:10350000082F192FA0928450B0928550C0928650F7
:10351000D0928750E0928850F092895000938A5060
:1035200010938B508B819C8129E030E0B9010E947F
:103530007E5E8830910509F094C0A0908C50B090C8
:103540008D50C0908E50D0908F50E0909050F09061
:1035500091500091925010919350809158509091B9
:103560005950FC012080FC013180FC014280FC01AB
:103570005380FC016480FC017580FC018680FC01A5
:1035800097802A2D220DE1E02A1508F0E0E03B2D7E
:10359000330DF1E03B1508F0F0E0E30FA1E0E31795
:1035A00008F0A0E0FA2B3E2F4C2D440DE1E04C1525
:1035B00008F0E0E0F40FA1E0F41708F0A0E0EA2B37
:1035C0004F2F5D2D550DF1E05D1508F0F0E0E50F92
:1035D000A1E0E51708F0A0E0FA2B5E2F6E2D660D36
:1035E000E1E06E1508F0E0E0F60FA1E0F61708F054
:1035F000A0E0EA2B6F2F7F2D770DF1E07F1508F00B
:10360000F0E0E70FA1E0E71708F0A0E0FA2B7E2F2B
:10361000802F880DE1E0801708F0E0E0F80FA1E0CE
:10362000F81708F0A0E0EA2B8F2F912F990DE90FE2
:103630009E2FA22EB32EC42ED52EE62EF72E082FA7
:10364000192FA0928C50B0928D50C0928E50D09273
:103650008F50E0929050F0929150009392501093BE
:1036600093508B819C8101968B839C838B819C8161
:10367000FCE181379F0708F48ECD89819A810196FC
:1036800089839A8389819A818930910508F472CD62
:103690002496CDBFDEBFDF91CF911F910F91FF9098
:1036A000EF90DF90CF90BF90AF909F908F907F90E2
:1036B0006F905F904F903F902F900895CF93DF933E
:1036C000CDB7DEB710924C4010924D40109267502B
:1036D0001092685080E08093302180932F21809356
:1036E0002E2181E00E94260684E00E94C03980ECF1
:1036F00098E020EDFC0120838DE080935A5083EF09
:1037000080935B5087E580935C50CDC080E496E069
:1037100020E1FC01268380E296E028E0FC0126837C
:10372000000080EC98E026E0FC012383000080ECA0
:1037300098E0FC0182818823D4F780EC98E0FC01BA
:1037400083818093665080E296E028E0FC01258327
:10375000000080E296E028E0FC012683000080EC77
:1037600098E022E0FC012383000080EC98E0FC015B
:1037700082818823D4F780EC98E0FC0183818093D8
:10378000665080EC98E020914D40FC0123830000BE
:1037900080EC98E0FC0182818823D4F780EC98E0EB
:1037A000FC0183818093665080EC98E02CE430E447
:1037B000F9012081FC012383000080EC98E0FC01EA
:1037C00082818823D4F780EC98E0FC018381809388
:1037D000665080EC98E020915A50FC012383000051
:1037E00080EC98E0FC0182818823D4F780EC98E09B
:1037F000FC0183818093665080EC98E020915B50BF
:10380000FC012383000080EC98E0FC018281882386
:10381000D4F780EC98E0FC0183818093665080ECC3
:1038200098E020915C50FC012383000080EC98E03C
:10383000FC0182818823D4F780EC98E0FC0183812D
:103840008093665080E296E028E0FC01258380E4C6
:1038500096E020E1FC01258380914C4090914D4001
:10386000039680934C4090934D4090912E218091EF
:103870005A50890F80932E2190912F2180915B5077
:10388000890F80932F219091302180915C50890F76
:103890008093302180916750909168500196809379
:1038A0006750909368508091675090916850F5E50B
:1038B00083359F0708F42ACF0E942D3A80E00E94AA
:1038C0002606DF91CF910895CF93DF930F92CDB766
:1038D000DEB789838981882F90E08170907088237A
:1038E00031F080E096E020E4FC01258305C080E013
:1038F00096E020E4FC0126838981882F90E0827085
:103900009070009731F080E296E022E0FC01258380
:1039100005C080E296E022E0FC0126838981882FA1
:1039200090E084709070009731F080E296E024E09F
:10393000FC01258305C080E296E024E0FC0126839B
:103940000F90DF91CF910895CF93DF930F920F9255
:10395000CDB7DEB789839A8389819A8122E080304E
:10396000920789F480E20E942120282F89819A8180
:10397000FC01248781E20E942120282F89819A81DD
:10398000FC01258710C084E20E942120282F898114
:103990009A81FC01248785E20E942120282F8981B9
:1039A0009A81FC0125870F900F90DF91CF910895A8
:1039B000CF93DF93CDB7DEB72597CDBFDEBF8B8327
:1039C0009C836D838B819C8121E0FC0123838B810F
:1039D0009C81FC01248135818D81882F90E0A90193
:1039E000481B590BCA0189839A8389819A8125963C
:1039F000CDBFDEBFDF91CF910895CF93DF93CDB7D9
:103A0000DEB72597CDBFDEBF8B839C836D838B8113
:103A10009C8121E0FC0123838B819C81FC0124811A
:103A200035818D81992787FD9095A901481B590BF8
:103A3000CA0189839A8389819A812596CDBFDEBF89
:103A4000DF91CF910895CF93DF930F920F92CDB76F
:103A5000DEB789839A8389819A8121E0FC012383DF
:103A600089819A81FC01848195810F900F90DF916B
:103A7000CF910895CF93DF930F920F92CDB7DEB71A
:103A800089839A8389819A8121E0FC01238389813A
:103A90009A81FC0184810F900F90DF91CF9108955E
:103AA000CF93DF930F920F92CDB7DEB789839A83BE
:103AB00089819A8121E0FC01238389819A81FC011B
:103AC00085810F900F90DF91CF9108950F931F93F1
:103AD000CF93DF93CDB7DEB76B97CDBFDEBF8A8FB5
:103AE0009B8F8A8D9B8DFC01848189838A8D9B8D20
:103AF000FC01148280E090E0A0E8B2E48A839B831A
:103B0000AC83BD836A817B818C819D812BEA3AEAFB
:103B10004AE25FE30E94FC5DDC01CB018E839F8360
:103B2000A887B98711E06E817F818885998520E01B
:103B300030E040E85FE30E94EB5C88230CF010E08B
:103B4000112319F081E08A87A3C011E06E817F8183
:103B50008885998520E030E04FE753E40E94F85DC6
:103B600018160CF010E0112309F489C06A817B81DA
:103B70008C819D8120E030E04AE754E40E94EF5CB4
:103B8000DC01CB018B879C87AD87BE876B857C85ED
:103B90008D859E8520E030E04AEF53E40E94FC5D75
:103BA000DC01CB018F87988BA98BBA8B11E06F85D5
:103BB000788989899A8920E030E040E85FE30E94B3
:103BC000EB5C88230CF010E0112329F081E090E0F9
:103BD0008B8B9C8B46C011E06F85788989899A8987
:103BE00020E03FEF4FE757E40E94F85D18160CF015
:103BF00010E0112361F16B857C858D859E8520E029
:103C000030E040E251E40E94FC5DDC01CB01BC01EC
:103C1000CD010E94575DDC01CB018B8B9C8B12C0C8
:103C200082E390E08D8B9E8B8D899E898C01C801EB
:103C30000197F1F78C010D8B1E8B8B899C89019765
:103C40008B8B9C8B8B899C89009751F728C06F8543
:103C5000788989899A890E94575DDC01CB018B8B19
:103C60009C8B8B899C898F8B988F8F89988D8C01E9
:103C7000F8013197F1F78F010F8B188F10C06E810B
:103C80007F81888599850E94575DDC01CB018A87F9
:103C90008A85898F898D182F1A95F1F7198F8A8D4A
:103CA0009B8D2981FC0124836B96CDBFDEBFDF9104
:103CB000CF911F910F9108950F931F93CF93DF938F
:103CC000CDB7DEB76B97CDBFDEBF8A8F9B8F8A8D56
:103CD0009B8DFC01848189838A8D9B8D21E0FC0171
:103CE000248380E090E0A0E0B3E48A839B83AC83EC
:103CF000BD836A817B818C819D812BEA3AEA4AE20D
:103D00005FE30E94FC5DDC01CB018E839F83A8876B
:103D1000B98711E06E817F818885998520E030E048
:103D200040E85FE30E94EB5C88230CF010E0112375
:103D300019F081E08A87A3C011E06E817F818885B8
:103D4000998520E030E04FE753E40E94F85D1816B3
:103D50000CF010E0112309F489C06A817B818C8109
:103D60009D8120E030E04AE754E40E94EF5CDC01F2
:103D7000CB018B879C87AD87BE876B857C858D85C6
:103D80009E8520E030E04AEF53E40E94FC5DDC01B8
:103D9000CB018F87988BA98BBA8B11E06F857889BF
:103DA00089899A8920E030E040E85FE30E94EB5C7B
:103DB00088230CF010E0112329F081E090E08B8B38
:103DC0009C8B46C011E06F85788989899A8920E0AB
:103DD0003FEF4FE757E40E94F85D18160CF010E033
:103DE000112361F16B857C858D859E8520E030E017
:103DF00040E251E40E94FC5DDC01CB01BC01CD013D
:103E00000E94575DDC01CB018B8B9C8B12C082E33F
:103E100090E08D8B9E8B8D899E898C01C8010197C6
:103E2000F1F78C010D8B1E8B8B899C8901978B8BF5
:103E30009C8B8B899C89009751F728C06F85788966
:103E400089899A890E94575DDC01CB018B8B9C8B01
:103E50008B899C898F8B988F8F89988D8C01F80125
:103E60003197F1F78F010F8B188F10C06E817F8112
:103E7000888599850E94575DDC01CB018A878A85F8
:103E8000898F898D182F1A95F1F7198F8A8D9B8D3F
:103E90002981FC0124836B96CDBFDEBFDF91CF91DA
:103EA0001F910F910895CF93DF93CDB7DEB72A9777
:103EB000CDBFDEBF8E839F83688779874A878A85D7
:103EC0008823A9F119821A821B821C8224C088854A
:103ED0009985FC018081282F206888859985FC01BF
:103EE000208388859985FC018381882F90E08170EB
:103EF00090700097B1F38885998560E00E94D81C86
:103F000029813A81820F931F89839A838B819C81B7
:103F100001968B839C838B819C8184309105BCF2BC
:103F200089819A8196958795969587951BC01D8264
:103F300088859985FC018081282F2068888599854E
:103F4000FC01208388859985FC018381882F90E07E
:103F5000817090700097B1F3888599850E94231D28
:103F60008D838D812A96CDBFDEBFDF91CF910895DD
:103F7000CF93DF93CDB7DEB72A97CDBFDEBF8E8359
:103F80009F83688779874A878A858823C1F1198248
:103F90001A821B821C8224C088859985FC0180813D
:103FA000282F206888859985FC012083888599853C
:103FB000FC018381882F90E0817090700097B1F3AD
:103FC0008885998560E00E94FD1C29813A81820FD5
:103FD000931F89839A838B819C8101968B839C8319
:103FE0008B819C8184309105BCF289819A819923CF
:103FF0000CF4039695958795959587951CC01D8221
:1040000088859985FC018081282F2068888599857D
:10401000FC01208388859985FC018381882F90E0AD
:10402000817090700097B1F38885998560E00E9457
:10403000FD1C8D838D812A96CDBFDEBFDF91CF9190
:1040400008951F93CF93DF93CDB7DEB72597CDBFEC
:10405000DEBF8D838AEC91E022E0FC0120838D811C
:10406000882F90E089839A8389819A81FC01149139
:104070001B838B818C838AEC91E0FC0110828C8104
:104080002596CDBFDEBFDF91CF911F910895CF93CD
:10409000DF93CDB7DEB724E184E391E2FC01322F58
:1040A00011923A95E9F70E94072E8093342190935C
:1040B00035210E94FB2F0E946020DF91CF9108954F
:1040C000CF93DF93CDB7DEB780E896E024E0FC0124
:1040D000218380E896E024E0FC01268380E896E0D6
:1040E00022E0FC01208B80E896E024E0FC0122879E
:1040F00080E896E021E0FC01218780EA90E020EA58
:1041000030E0F90122812160FC0122837894DF9163
:10411000CF910895CF93DF93CDB7DEB784E391E2DB
:10412000DF91CF910895CF93DF93CDB7DEB7279777
:10413000CDBFDEBF8B839C836D837E834F838B815A
:104140009C8189839A838F81282F255F89819A8119
:10415000FC01208389819A81019689839A838D81CC
:104160009E81FFEF8F3F9F0711F021E601C021E400
:1041700089819A81FC01208389819A8101968983B2
:104180009A8389819A8128E9FC01208389819A8117
:10419000019689839A832091362189819A81FC0135
:1041A000208389819A81019689839A83822F8F5FE8
:1041B0008093362189819A8124E332E1FC012083B6
:1041C000318389819A81029689839A8389819A8130
:1041D0002D813E81FC012083318389819A81029661
:1041E00089839A83209134213091352189819A8164
:1041F000FC012083318389819A81029689839A8385
:1042000029813A818B819C81A901481B590BCA01E4
:104210002796CDBFDEBFDF91CF910895EF92FF9239
:104220000F931F93CF93DF93CDB7DEB7E097CDBF4A
:10423000DEBF89A79AA76BA77CA72DA73EA74FA78C
:1042400058AB19825CC18DA59EA5AFA5B8A98536CE
:104250009105A105B10520F084E690E0A0E0B0E072
:104260008C83CE014F9629A53AA5B9014C810E94B5
:1042700093208D831A821B828981882F90E02BA541
:104280003CA5280F391FCE014F96B9014C810E94E1
:10429000212E8E838E81882F90E08330910509F145
:1042A0008430910524F48130910539F024C08530A3
:1042B000910569F080349105F1F480913B21909152
:1042C0003C21019680933B2190933C2115C0809125
:1042D0003D2190913E21019680933D2190933E2176
:1042E0000BC080913F2190914021019680933F2106
:1042F0009093402101C000008A819B8199230CF496
:10430000D5C080E090E0A8ECB2E48F839887A987BD
:10431000BA876F81788589859A852BEA3AEA4AEAD5
:104320005EE30E94FC5DDC01CB018B879C87AD873F
:10433000BE8711E06B857C858D859E8520E030E011
:1043400040E85FE30E94EB5C88230CF010E011234F
:1043500019F081E08F87A3C011E06B857C858D8586
:104360009E8520E030E04FE753E40E94F85D181688
:104370000CF010E0112309F489C06F8178858985DC
:104380009A8520E030E04AE754E40E94EF5CDC01CB
:10439000CB01888B998BAA8BBB8B688979898A8999
:1043A0009B8920E030E04AE753E40E94FC5DDC0199
:1043B000CB018C8B9D8BAE8BBF8B11E06C897D8983
:1043C0008E899F8920E030E040E85FE30E94EB5C4B
:1043D00088230CF010E0112329F081E090E0888F11
:1043E000998F46C011E06C897D898E899F8920E074
:1043F0003FEF4FE757E40E94F85D18160CF010E00D
:10440000112361F1688979898A899B8920E030E0EC
:1044100040E251E40E94FC5DDC01CB01BC01CD0116
:104420000E94575DDC01CB01888F998F12C089E112
:1044300090E08A8F9B8F8A8D9B8D8C01C80101979C
:10444000F1F78C010A8F1B8F888D998D0197888FCA
:10445000998F888D998D009751F728C06C897D8937
:104460008E899F890E94575DDC01CB01888F998FCF
:10447000888D998D8C8F9D8F8C8D9D8D8C01C80121
:104480000197F1F78C010C8F1D8F10C06B857C8517
:104490008D859E850E94575DDC01CB018F878F85BE
:1044A0008E8F8E8D182F1A95F1F71E8F8A819B8122
:1044B0008431910511F48E812CC08A819B810196F3
:1044C0008A839B838E81882309F0D6CE99818C8143
:1044D000890F89838C81882F90E0A0E0B0E02DA522
:1044E0003EA54FA558A979018A01E81AF90A0A0BD5
:1044F0001B0BD801C7018DA79EA7AFA7B8AB8DA591
:104500009EA5AFA5B8A90097A105B10509F09BCE5E
:1045100080E0E096CDBFDEBFDF91CF911F910F917C
:10452000FF90EF900895CF93DF93CDB7DEB7279735
:10453000CDBFDEBF8E839F838E819F8105968A8348
:104540009B830E9460238C838C81882314F480E0F9
:1045500080C08A819B812C81FC0120838A819B8180
:1045600001968A839B8319820FC00E946023282FA3
:104570008A819B81FC0120838A819B8101968A83A9
:104580009B8389818F5F898399818C81981768F3D8
:104590008E819F8108968A839B838A819B81FC01FF
:1045A00080818D838E819F810B968A839B838A81F4
:1045B0009B81FC01208131818E819F81FC012383BD
:1045C00034838A819B8102968A839B838A819B8123
:1045D000FC01208131818E819F81FC012183328306
:1045E0008A819B8102968A839B830E9484238823ED
:1045F00011F410923721809111209D81981771F448
:104600008E819F81FC0121813281809112209091C5
:1046100013202817390711F480E01BC08D81809387
:1046200011208E819F81FC018181928180931220D3
:10463000909313208C81882F90E009979C018E81A4
:104640009F814A815B81BA01A9010E941A5F8C8116
:104650008B502796CDBFDEBFDF91CF910895CF93CA
:10466000DF93CDB7DEB71092C8211092C921109206
:10467000CA21DF91CF910895CF93DF930F92CDB7E9
:10468000DEB789838091C921882F90E0885B9E4D99
:104690002981FC0120838091C921882F90E0019617
:1046A00020E830E0B9010E94925E8093C921809198
:1046B000CA218F5F8093CA210F90DF91CF91089517
:1046C000CF93DF930F92CDB7DEB78091C821882FAB
:1046D00090E0885B9E4DFC01808189838091C82198
:1046E000882F90E0019620E830E0B9010E94925EA8
:1046F0008093C8218091CA2181508093CA218981E9
:104700000F90DF91CF910895CF93DF93CDB7DEB7B0
:104710008091CA21DF91CF910895CF93DF93CDB7D8
:10472000DEB781E00E9491258F71DF91CF910895CE
:10473000CF93DF93CDB7DEB782E00E9491258295BB
:1047400086958770DF91CF9108950F931F93CF9334
:10475000DF93CDB7DEB7E097CDBFDEBF84E696E04E
:1047600024E636E0F90120812160FC01208384E603
:1047700096E024E636E0F90120812D7FFC012083BC
:1047800080E090E0AEEBB3E489839A83AB83BC8393
:1047900069817A818B819C812BEA3AEA4AEA5EE35D
:1047A0000E94FC5DDC01CB018D839E83AF83B887C3
:1047B00011E06D817E818F81988520E030E040E8B6
:1047C0005FE30E94EB5C88230CF010E0112319F0EA
:1047D00081E08987A3C011E06D817E818F819885FA
:1047E00020E030E04FE753E40E94F85D18160CF02B
:1047F00010E0112309F489C069817A818B819C8141
:1048000020E030E04AE754E40E94EF5CDC01CB0199
:104810008A879B87AC87BD876A857B858C859D85CC
:1048200020E030E04AE753E40E94FC5DDC01CB016C
:104830008E879F87A88BB98B11E06E857F858889CD
:10484000998920E030E040E85FE30E94EB5C882338
:104850000CF010E0112329F081E090E08A8B9B8B13
:1048600046C011E06E857F858889998920E03FEFF9
:104870004FE757E40E94F85D18160CF010E0112382
:1048800061F16A857B858C859D8520E030E040E282
:1048900051E40E94FC5DDC01CB01BC01CD010E9412
:1048A000575DDC01CB018A8B9B8B12C089E190E0C4
:1048B0008C8B9D8B8C899D898C01C8010197F1F7A8
:1048C0008C010C8B1D8B8A899B8901978A8B9B8B12
:1048D0008A899B89009751F728C06E857F858889D2
:1048E00099890E94575DDC01CB018A8B9B8B8A8959
:1048F0009B898E8B9F8B8E899F898C01F8013197C4
:10490000F1F78F010E8B1F8B10C06D817E818F811F
:1049100098850E94575DDC01CB0189878985888F46
:10492000888D182F1A95F1F7188F84E696E024E603
:1049300036E0F90120812E7FFC01208380E090E0A9
:10494000A0E8BFE3898F9A8FAB8FBC8F698D7A8D7A
:104950008B8D9C8D2BEA3AEA4AEA5EE30E94FC5D6D
:10496000DC01CB018D8F9E8FAF8FB8A311E06D8DD1
:104970007E8D8F8D98A120E030E040E85FE30E94BB
:10498000EB5C88230CF010E0112319F081E089A37F
:10499000A3C011E06D8D7E8D8F8D98A120E030E059
:1049A0004FE753E40E94F85D18160CF010E0112355
:1049B00009F489C0698D7A8D8B8D9C8D20E030E063
:1049C0004AE754E40E94EF5CDC01CB018AA39BA37D
:1049D000ACA3BDA36AA17BA18CA19DA120E030E086
:1049E0004AE753E40E94FC5DDC01CB018EA39FA348
:1049F000A8A7B9A711E06EA17FA188A599A520E07D
:104A000030E040E85FE30E94EB5C88230CF010E0AC
:104A1000112329F081E090E08AA79BA746C011E00E
:104A20006EA17FA188A599A520E03FEF4FE757E44D
:104A30000E94F85D18160CF010E0112361F16AA1D4
:104A40007BA18CA19DA120E030E040E251E40E94D6
:104A5000FC5DDC01CB01BC01CD010E94575DDC0196
:104A6000CB018AA79BA712C089E190E08CA79DA7E4
:104A70008CA59DA58C01C8010197F1F78C010CA7AD
:104A80001DA78AA59BA501978AA79BA78AA59BA579
:104A9000009751F728C06EA17FA188A599A50E9413
:104AA000575DDC01CB018AA79BA78AA59BA58EA792
:104AB0009FA78EA59FA58C01F8013197F1F78F0173
:104AC0000EA71FA710C06D8D7E8D8F8D98A10E949F
:104AD000575DDC01CB0189A389A188AB88A9182F78
:104AE0001A95F1F718AB84E696E024E636E0F90172
:104AF00020812160FC01208301C000008DE10E9423
:104B000091258130D1F78CE10E9491258730A9F75A
:104B10000000E096CDBFDEBFDF91CF911F910F91D6
:104B20000895CF93DF930F920F92CDB7DEB78A83AC
:104B300019828A8180688A838FE390E0FC018081FA
:104B400080934B40F89481E00E9412318A810E9448
:104B50006F32898389810E946F32898380E00E944D
:104B600012318FE390E020914B40FC012083789438
:104B700089810F900F90DF91CF910895CF93DF93AC
:104B800000D00F92CDB7DEB78C831A821B821982B8
:104B90001DC09C818981890F0E949125882F90E0FA
:104BA0002981222F30E0220F331F220F331F220FC3
:104BB000331F022E02C0880F991F0A94E2F7982F24
:104BC0008C81892B8C8389818F5F89838981823055
:104BD00000F38A819B812496CDBFDEBFDF91CF9108
:104BE0000895CF93DF9300D0CDB7DEB78A836B8370
:104BF0008A81806C8A838FE390E0FC0180818093BE
:104C00004B40F89481E00E9412318A810E946F32F9
:104C100089838B810E946F32898380E00E941231E8
:104C20008FE390E020914B40FC0120837894239601
:104C3000CDBFDEBFDF91CF910895CF93DF9300D03A
:104C40000F92CDB7DEB78A836B837C8319821DC038
:104C50009A818981492F480F8981882F90E09C0192
:104C6000220F331F220F331F220F331F8B819C8192
:104C700002C0969587952A95E2F7982F842F692F81
:104C80000E94F12589818F5F89838981823000F3B9
:104C90002496CDBFDEBFDF91CF910895CF93DF93F0
:104CA00000D00F92CDB7DEB78A836B837C831982E5
:104CB00014C09A818981492F480F8981882F90E0FB
:104CC0002B813C81820F931FFC019081842F692FDF
:104CD0000E94F12589818F5F89838981883048F31B
:104CE0002496CDBFDEBFDF91CF910895CF93DF93A0
:104CF00000D00F92CDB7DEB78A836B834C838A8155
:104D00000E94912589839B818C8189238B838C814F
:104D1000982F909589818923898399818B81892B0B
:104D200089838A8169810E94F1252496CDBFDEBFE7
:104D3000DF91CF910895CF93DF93CDB7DEB728975A
:104D4000CDBFDEBF8B839C836D834E835F832887BB
:104D50008D81282F30E08885882F90E0820F931F67
:104D6000803891050CF045C08FE390E0FC01808114
:104D700080934B40F89481E00E94123180E60E94BB
:104D80006F328A83198210C08B819C81FC01208143
:104D90008B819C8101968B839C83822F0E946F3232
:104DA0008A8389818F5F898399818D81981760F3C8
:104DB000198210C08E819F81FC0120818E819F818C
:104DC00001968E839F83822F0E946F328A8389810E
:104DD0008F5F898399818885981760F380E00E94AE
:104DE00012318FE390E020914B40FC0120837894B6
:104DF00001C000002896CDBFDEBFDF91CF9108959E
:104E00000F931F93CF93DF93CDB7DEB7E797CDBF57
:104E1000DEBF8FE390E0FC01808180934B40F894EB
:104E200081E00E94123180E20E946F3280E00E9495
:104E30006F328A838A81833008F466C08A8188232E
:104E40000CF462C08A81082F10E00E948423882F0E
:104E500090E020E830E0A901481B590BCA0108176F
:104E60001907F4F48A810E943C2319820AC080E069
:104E70000E946F328B838B810E943C2389818F5FDC
:104E8000898399818A81981790F380E896E024E0DD
:104E9000FC01258380E896E024E0FC01268334C0F1
:104EA0000E948A208C839D83198207C080E00E9423
:104EB0006F328B8389818F5F898399818A8198176B
:104EC000A8F38C819D81FC01858596859C012F5FCF
:104ED0003F4F8C819D81FC0125873687CE01069648
:104EE00028EE31E0B9010E94135F0F920F928DB747
:104EF0009EB701969E012A5F3F4FFC0120833183BC
:104F00000E946D5F0F900F9080E00E9412318FE33E
:104F100090E020914B40FC0120837894E796CDBF30
:104F2000DEBFDF91CF911F910F910895CF93DF9353
:104F30000F92CDB7DEB789838981882F90E08130C9
:104F40009105C1F0823091051CF4009741F033C007
:104F500082309105D1F08330910511F12CC08CE0A5
:104F600068E04FE30E94762686E162E043E00E941B
:104F7000762621C08CE06CE04FE30E94762686E125
:104F800062E043E00E94762616C08CE06CE14FE3BD
:104F90000E94762686E162E043E00E9476260BC0FE
:104FA0008CE060E04FE30E94762686E163E043E018
:104FB0000E94762600000F90DF91CF9108950F9305
:104FC0001F93CF93DF93CDB7DEB76A97CDBFDEBF18
:104FD0008A8F88E06A8D4FE10E9476260E948D2399
:104FE00089838981863021F08981893009F0D5C093
:104FF00080E090E0ACEDB2E48A839B83AC83BD8318
:105000006A817B818C819D812BEA3AEA4AEA5EE3E0
:105010000E94FC5DDC01CB018E839F83A887B9874A
:1050200011E06E817F818885998520E030E040E83D
:105030005FE30E94EB5C88230CF010E0112319F071
:1050400081E08A87A3C011E06E817F818885998580
:1050500020E030E04FE753E40E94F85D18160CF0B2
:1050600010E0112309F489C06A817B818C819D81C4
:1050700020E030E04AE754E40E94EF5CDC01CB0121
:105080008B879C87AD87BE876B857C858D859E854C
:1050900020E030E04AE753E40E94FC5DDC01CB01F4
:1050A0008F87988BA98BBA8B11E06F857889898956
:1050B0009A8920E030E040E85FE30E94EB5C8823BF
:1050C0000CF010E0112329F081E090E08B8B9C8B99
:1050D00046C011E06F85788989899A8920E03FEF81
:1050E0004FE757E40E94F85D18160CF010E011230A
:1050F00061F16B857C858D859E8520E030E040E206
:1051000051E40E94FC5DDC01CB01BC01CD010E9499
:10511000575DDC01CB018B8B9C8B12C089E190E049
:105120008D8B9E8B8D899E898C01C8010197F1F72B
:105130008C010D8B1E8B8B899C8901978B8B9C8B93
:105140008B899C89009751F728C06F857889898958
:105150009A890E94575DDC01CB018B8B9C8B8B89DC
:105160009C898F8B988F8F89988D8C01C8010197AE
:10517000F1F78C010F8B188F10C06E817F818885AD
:1051800099850E94575DDC01CB018A878A85898FCA
:10519000898D182F1A95F1F7198F88E00E949125B3
:1051A000882F90E09C012F7130708A8D882F90E0BD
:1051B0002817390711F480E401C083E46A96CDBF53
:1051C000DEBFDF91CF911F910F910895CF93DF93B1
:1051D0000F92CDB7DEB7898385E069810E94F12502
:1051E0000F90DF91CF9108950F931F93CF93DF938B
:1051F000CDB7DEB7C256D040CDBFDEBF9E012E591F
:105200003F4FF901808384E696E0FC018081882F7E
:1052100090E082709070009711F084E491C40E9435
:105220008D2389838981823149F08981813131F0EF
:105230008981813019F08981823039F400000E941F
:105240008D23982F89819817D1F3CE018E599F4FC6
:10525000FC018081882F90E08631910509F4CDC151
:105260008931910509F4E9C08830910509F0F7C248
:1052700084E696E024E636E0F90120812D7FFC01EA
:10528000208382E063E04FE10E94762680E090E098
:10529000A0E8BFE38A839B83AC83BD836A817B8163
:1052A0008C819D812BEA3AEA4AEA5EE30E94FC5D2A
:1052B000DC01CB018E839F83A887B98711E06E81C3
:1052C0007F818885998520E030E040E85FE30E9497
:1052D000EB5C88230CF010E0112319F081E08A8741
:1052E000A3C011E06E817F818885998520E030E040
:1052F0004FE753E40E94F85D18160CF010E01123FC
:1053000009F489C06A817B818C819D8120E030E035
:105310004AE754E40E94EF5CDC01CB018B879C8759
:10532000AD87BE876B857C858D859E8520E030E0CE
:105330004AE753E40E94FC5DDC01CB018F87988B28
:10534000A98BBA8B11E06F85788989899A8920E0C9
:1053500030E040E85FE30E94EB5C88230CF010E053
:10536000112329F081E090E08B8B9C8B46C011E0EB
:105370006F85788989899A8920E03FEF4FE757E464
:105380000E94F85D18160CF010E0112361F16B8596
:105390007C858D859E8520E030E040E251E40E94CE
:1053A000FC5DDC01CB01BC01CD010E94575DDC013D
:1053B000CB018B8B9C8B12C089E190E08D8B9E8BF7
:1053C0008D899E898C01C8010197F1F78C010D8BA5
:1053D0001E8B8B899C8901978B8B9C8B8B899C89DD
:1053E000009751F729C06F85788989899A890E9429
:1053F000575DDC01CB018B8B9C8B8B899C898F8BC0
:10540000988F8F89988D8C01F8013197F1F78F0172
:105410000F8B188F24C26E817F81888599850E94A9
:10542000575DDC01CB018A878A85898F898D182F8A
:105430001A95F1F7198F13C212C28981863109F0CA
:105440000BC282E069E04FE10E94762680E090E0A6
:10545000A0E8BFE38A8F9B8FAC8FBD8F6A8D7B8D59
:105460008C8D9D8D2BEA3AEA4AEA5EE30E94FC5D50
:10547000DC01CB018E8F9F8FA8A3B9A311E06E8DA5
:105480007F8D88A199A120E030E040E85FE30E9491
:10549000EB5C88230CF010E0112319F081E08AA363
:1054A000A3C011E06E8D7F8D88A199A120E030E02E
:1054B0004FE753E40E94F85D18160CF010E011233A
:1054C00009F489C06A8D7B8D8C8D9D8D20E030E044
:1054D0004AE754E40E94EF5CDC01CB018BA39CA360
:1054E000ADA3BEA36BA17CA18DA19EA120E030E065
:1054F0004AE753E40E94FC5DDC01CB018FA398A72F
:10550000A9A7BAA711E06FA178A589A59AA520E05F
:1055100030E040E85FE30E94EB5C88230CF010E091
:10552000112329F081E090E08BA79CA746C011E0F1
:105530006FA178A589A59AA520E03FEF4FE757E432
:105540000E94F85D18160CF010E0112361F16BA1B8
:105550007CA18DA19EA120E030E040E251E40E94B8
:10556000FC5DDC01CB01BC01CD010E94575DDC017B
:10557000CB018BA79CA712C089E190E08DA79EA7C5
:105580008DA59EA58C01C8010197F1F78C010DA78F
:105590001EA78BA59CA501978BA79CA78BA59CA557
:1055A000009751F729C06FA178A589A59AA50E94F7
:1055B000575DDC01CB018BA79CA78BA59CA58FA772
:1055C00098AB8FA598A98C01F8013197F1F78F015D
:1055D0000FA718AB41C16E8D7F8D88A199A10E9444
:1055E000575DDC01CB018AA38AA189AB89A9182F59
:1055F0001A95F1F719AB30C12FC18981893109F0B2
:105600002DC182E069E04FE10E94762680E090E0C3
:10561000A0E8BFE38AAB9BABACABBDAB6AA97BA9EF
:105620008CA99DA92BEA3AEA4AEA5EE30E94FC5D56
:10563000DC01CB018EAB9FABA8AFB9AF11E06EA977
:105640007FA988AD99AD20E030E040E85FE30E949B
:10565000EB5C88230CF010E0112319F081E08AAF95
:10566000E6C011E06EA97FA988AD99AD20E030E0D9
:105670004FE753E40E94F85D18160CF010E0112378
:1056800009F4CCC06AA97BA98CA99DA920E030E0CF
:105690004AE754E40E94EF5CDC01CB018BAF9CAF86
:1056A000ADAFBEAF8E01015C1F4F6BAD7CAD8DAD5C
:1056B0009EAD20E030E04AE753E40E94FC5DDC014F
:1056C000CB01F80180839183A283B383CE01CF966F
:1056D00011E0FC01608171818281938120E030E0E2
:1056E00040E85FE30E94EB5C88230CF010E011239C
:1056F00049F0CE018D5B9F4F21E030E0FC0120831B
:1057000031836EC0CE01CF9611E0FC0160817181C2
:105710008281938120E03FEF4FE757E40E94F85DDC
:1057200018160CF010E0112309F449C06BAD7CADE4
:105730008DAD9EAD20E030E040E251E40E94FC5D82
:10574000DC01CB018E010D5B1F4FBC01CD010E941E
:10575000575DDC01CB01F8018083918327C0CE0126
:105760008B5B9F4F29E130E0FC0120833183CE0128
:105770008B5B9F4FFC01808191818C01C801019757
:10578000F1F78C01CE018B5B9F4FFC0100831183ED
:10579000CE018D5B9F4F9E012D5B3F4FF901208114
:1057A000318121503040FC0120833183CE018D5B5B
:1057B0009F4FFC0180819181009789F64CC08E013A
:1057C0000D5B1F4FCE01CF96FC01608171818281FC
:1057D00093810E94575DDC01CB01F80180839183A6
:1057E000CE01895B9F4F9E012D5B3F4FF9012081C8
:1057F0003181FC0120833183CE01895B9F4FFC0105
:10580000808191818C01C8010197F1F78C01CE0153
:10581000895B9F4FFC010083118320C06EA97FA983
:1058200088AD99AD0E94575DDC01CB018AAFCE01F6
:10583000875B9F4F2AADFC012083CE01875B9F4F82
:10584000FC018081182F1A95F1F7CE01875B9F4FDD
:10585000FC01108303C002C0000001C000009E01D3
:105860002E593F4F82E0F90160814FE10E94762678
:105870009E01265B3F4F80E090E0ACEDB2E4F90181
:1058800080839183A283B3838E01025B1F4FCE017D
:10589000865B9F4FFC0160817181828193812BEA3D
:1058A0003AEA4AEA5EE30E94FC5DDC01CB01F801C2
:1058B00080839183A283B383CE01825B9F4F11E0EB
:1058C000FC01608171818281938120E030E040E8B9
:1058D0005FE30E94EB5C88230CF010E0112339F0A9
:1058E000CE018E5A9F4F21E0FC01208305C1CE01DD
:1058F000825B9F4F11E0FC01608171818281938105
:1059000020E030E04FE753E40E94F85D18160CF0F9
:1059100010E0112309F4DFC0CE01865B9F4FFC012C
:10592000608171818281938120E030E04AE754E414
:105930000E94EF5CDC01CB019E012D5A3F4FF90123
:1059400080839183A283B3838E01095A1F4FCE01B6
:105950008D5A9F4FFC01608171818281938120E08B
:1059600030E04AE753E40E94FC5DDC01CB01F80122
:1059700080839183A283B383CE01895A9F4F11E024
:10598000FC01608171818281938120E030E040E8F8
:105990005FE30E94EB5C88230CF010E0112349F0D8
:1059A000CE01855A9F4F21E030E0FC0120833183F6
:1059B00074C0CE01895A9F4F11E0FC016081718152
:1059C0008281938120E03FEF4FE757E40E94F85D2A
:1059D00018160CF010E0112309F44DC0CE018D5AB9
:1059E0009F4FFC01608171818281938120E030E0D2
:1059F00040E251E40E94FC5DDC01CB018E01055ABE
:105A00001F4FBC01CD010E94575DDC01CB01F801A5
:105A10008083918327C0CE01835A9F4F29E130E0D4
:105A2000FC0120833183CE01835A9F4FFC0180818A
:105A300091818C01C8010197F1F78C01CE01835A45
:105A40009F4FFC0100831183CE01855A9F4F9E0119
:105A5000255A3F4FF9012081318121503040FC010E
:105A600020833183CE01855A9F4FFC018081918133
:105A7000009789F658C08E01055A1F4FCE01895AEA
:105A80009F4FFC0160817181828193810E94575DEB
:105A9000DC01CB01F80180839183CE01815A9F4FB5
:105AA0009E01255A3F4FF90120813181FC0120835D
:105AB0003183CE01815A9F4FFC01808191818C01FD
:105AC000C8010197F1F78C01CE01815A9F4FFC016B
:105AD0000083118328C08E010E5A1F4FCE01825BB6
