:100000000C9416010C9437010C9437010C943701B1
:100010000C9437010C9437010C9437010C94370180
:100020000C9437010C9437010C9437010C94370170
:100030000C9437010C9437010C94DE0B0C943701AF
:100040000C94A3100C947B100C9453100C940D1072
:100050000C94300A0C9437010C9437010C9437013E
:100060000C9437010C9437010C9437010C94370130
:100070000C9437010C9437010C9437010C94370120
:100080000C9437010C9437010C9437010C94370110
:100090000C9437010C9437010C9437010C94370100
:1000A0000C9437010C9437010C9437010C943701F0
:1000B0000C9437010C9437010C9437010C943701E0
:1000C0000C9437010C9437010C9437010C943701D0
:1000D0000C9437010C9437010C9437010C943701C0
:1000E0000C9437010C9437010C9437010C943701B0
:1000F0000C9437010C9437010C9437010C943701A0
:100100000C94EC1A0C9437010C9437010C943701C1
:100110000C9437010C9437010C9437010C9437017F
:100120000C9437010C9437010C9437010C9437016F
:100130000C9437010C94860D0C9437010C94E50F48
:100140000C94BD0F0C94950F0C946B0F0C94350709
:100150000C9437010C9437010C9437010C9437013F
:100160000C9437010C9437010C9437010C9437012F
:100170000C9437010C9437010C9437010C9437011F
:100180000C9437010C9437010C9437010C9437010F
:100190000C9437010C9437010C9437010C943701FF
:1001A0000C94C20A0C9437010C9437010C9437015B
:1001B0000C9437010C9437010C9437010C943701DF
:1001C0000C9437010C9437010C9437010C943701CF
:1001D0000C9437010C9437010C9437010C943701BF
:1001E0000C9437010C943701524144494F204E4F33
:1001F0005420494E495449414C495A454420505293
:100200004F5045524C590A004255464645522046E9
:10021000554C4C2E20544F5353494E4720494E4382
:100220004F4D494E4720444154410A0011241FBEFE
:10023000CFEFDFE5DEBFCDBF00E00CBF11E2A0E0F5
:10024000B0E2EEE9F3E700E00BBF02C007900D92C9
:10025000AE30B107D9F710E5AEE0B1E201C01D92B2
:10026000A33BB107E1F70E94B6060C94CD390C947C
:100270000000CF92DF92EF92FF920F931F93CF93E4
:10028000DF93F82EE92E8B0181E00E94A30580E028
:100290000E94AD03C0ECD8E080ED888381E00E942D
:1002A000D00388E0E0E2F6E08683000086E08B83FE
:1002B000E0ECF8E082818823ECF7E0ECF8E0838161
:1002C00080932C3EA0E2B6E088E015968C931597BB
:1002D000000016968C931697000082E0838382813B
:1002E0008823ECF7E0ECF8E0838180932C3E80914A
:1002F0001E3E838382818823ECF7E0ECF8E0838163
:1003000080932C3E80911D3E838382818823ECF76D
:10031000E0ECF8E0838180932C3EA80160E070E07F
:100320004115510561057105C9F0CF2CDE2C80E027
:1003300090E0DC012CE23EE3E601F9906E01F382ED
:10034000F280FF20ECF7F380E901F8820196A11D0D
:10035000B11D84179507A607B70770F388E0E0E2A0
:10036000F6E0858380E00E94D00380911D3E90914D
:100370001E3E080F191F00931D3E10931E3EDF9175
:10038000CF911F910F91FF90EF90DF90CF90089544
:100390000F931F93CF93DF938C0181E00E94A305FD
:1003A00080E00E94AD03C0ECD8E080ED888381E05E
:1003B0000E94D00388E0E0E2F6E08683000083E05C
:1003C0008B83E0ECF8E082818823ECF7E0ECF8E046
:1003D000838180932C3E80911E3E8383828188237B
:1003E000ECF7E0ECF8E0838180932C3E80911D3E99
:1003F000838382818823ECF7E0ECF8E083818093AB
:100400002C3E01151105B1F0ECEAF1E20E0F1F1FB1
:10041000A0ECB8E09AEA13969C93139712968C91ED
:1004200012978823DCF713968C9113978193E0172A
:10043000F10789F788E0E0E2F6E0858380E00E943A
:10044000D0030E94DC03DF91CF911F910F9108959B
:10045000CF92DF92EF92FF920F931F93CF93DF9390
:100460006B017C01DC01CB0188559240A040B0407B
:10047000893E2FE392072FE0A20720E0B20708F0A1
:100480005CC00E942503E0E4F6E088E08183858378
:1004900084E08283CC0CDD1CEE1CFF1CCC0CDD1C2C
:1004A000EE1CFF1CC701B601660F771F881F991F3E
:1004B000660F771F881F991F0E9429359B01AC0189
:1004C00060E074E284EF9BE40E94953420E030E029
:1004D00040E85FE30E943034C62FD72F182F092F32
:1004E000862F9D2FA12FB02FBC01CD010E94FD347E
:1004F0006B017C0180E090E00E9429359B01AC01FA
:100500008C2F9D2FA12FB02FBC01CD010E94303424
:1005100020E030E040E05FE30E94B73588231CF024
:100520000894C11CD11CE0EAF8E0C682D78283E0BF
:10053000858388E1848381E001C080E0DF91CF91F1
:100540001F910F91FF90EF90DF90CF900895E0EA18
:10055000F8E0918195FFFDCF8093A0080895E0EA2F
:10056000F8E081818823ECF78091A00808958F92AC
:100570009F92AF92BF92CF92DF92EF92FF92CF9372
:10058000DF936A017B01411551056105710591F009
:10059000C82FD92F88249924540189910E94A70239
:1005A0000894811C911CA11CB11C8C149D04AE04E8
:1005B000BF0499F7DF91CF91FF90EF90DF90CF903C
:1005C000BF90AF909F908F900895E0EAF8E084810B
:1005D000877E8483E0E4F6E088E086838283089562
:1005E00080EC60E04BE00E94CD1CE0E5F0E0808113
:1005F00088608083818183FFFDCF80EC62E00E9470
:10060000D81CE0E5F0E0808180618083818184FFF7
:10061000FDCF84E00E94EE1C81E00E94DE1C089564
:10062000E0E5F0E080818260808380E061E00E940C
:10063000E81CE0E5F0E0818181FFFDCF81E00E94D0
:10064000EE1C81E00E94DE1C0895E0E5F0E0808170
:100650008260808380E060E00E94E81CE0E5F0E0DA
:10066000818181FFFDCF81E00E94EE1C81E00E942C
:10067000DE1C0895882329F088E0E0E0F6E0868318
:1006800004C088E0E0E0F6E085838AE68A95F1F729
:1006900000C00895882379F0E0EAF6E080E28183E3
:1006A00085838FEF93ECA9E081509040A040E1F763
:1006B00000C000000895E0EAF6E080E286838283CD
:1006C0000895882379F0E0EAF6E080E48183858369
:1006D0008FEF93ECA9E081509040A040E1F700C07B
:1006E00000000895E0EAF6E080E4868382830895BE
:1006F000882379F0E0EAF6E080E8818385838FEF54
:1007000093ECA9E081509040A040E1F700C00000C8
:1007100005C0E0EAF6E080E886838283AFE3BFE1CC
:100720001197F1F700C000000895882329F080E1B7
:10073000E0E8F6E08683089580E1E0E8F6E085836E
:100740000895882329F082E0E0E4F6E086830895A6
:1007500082E0E0E4F6E085830895E0E4F6E090E1ED
:10076000918328E3248B95838165A0ECB8E08C937A
:1007700011961C92119780EA81830895E0E4F6E0D7
:1007800090E1918328E3248B95838065682BA0EC0E
:10079000B8E06C9311961C92119780EA81830895BA
:1007A000882329F080E1E0E4F6E08683089580E183
:1007B000E0E4F6E085830895E0E4F6E080E18583F7
:1007C0001092C008868380EB82830895CF93DF93D5
:1007D000C82FC370D82FDC70282F30E0A9014570D6
:1007E00050704115510549F09091303E482F429587
:1007F0004F70907F942B9093303E2A70307021156B
:10080000310539F09091303E807F9F70892B809325
:10081000303E84E00E94AD038091303E8093203EC4
:10082000CC2319F081E00E949503DD2319F081E0CB
:100830000E94A10381E00E94D0038FEFE0ECF8E07A
:10084000838382818823ECF7E0ECF8E08381809356
:100850002C3E0000ACE2BEE31C978C918383828126
:100860008823ECF7E0ECF8E0838180932C3E80E075
:100870000E94D003CC2319F080E00E949503DD2371
:1008800019F080E00E94A1030E94DC03DF91CF9168
:100890000895CF93DF93C82FD62F80E00E94AD0339
:1008A00081E00E94D00381E00E943A03DD2389F0B9
:1008B0008091AB21C095C823C093AB2180E4809385
:1008C000203E84E18093213E8091AB218093223EA3
:1008D00010C08091313EC095C823C093313E80E462
:1008E0008093203E85E18093213E8091313E80932C
:1008F000223E80E090E020E23EE3A0ECB8E0CCE2D3
:10090000DEE3F901E80FF91F408113964C9313972A
:1009100012964C9112974423DCF713964C9113973F
:10092000488301968330910561F780E00E94D003EF
:1009300080E00E943A030E94DC03DF91CF9108958A
:10094000CF93DF93C82FD62F80E00E94AD0381E0C4
:100950000E94D00381E00E943A03DD2381F0809160
:10096000AB21C82BC093AB2180E48093203E84E16F
:100970008093213E8091AB218093223E0FC08091D5
:10098000313EC82BC093313E80E48093203E85E108
:100990008093213E8091313E8093223E80E090E022
:1009A00020E23EE3A0ECB8E0CCE2DEE3F901E80FA0
:1009B000F91F408113964C93139712964C911297FE
:1009C0004423DCF713964C911397488301968330A8
:1009D000910561F780E00E94D00380E00E943A0315
:1009E0000E94DC03DF91CF910895CF93DF93C82F4E
:1009F000D62F80E00E94AD0381E00E94D00381E009
:100A00000E943A03DD2389F080912F3E8095C82310
:100A1000C0932F3E80E48093203E1092213E80912F
:100A20002F3E80958093223E11C08091453E809557
:100A3000C823C093453E80E48093203E81E08093AC
:100A4000213E8091453E80958093223E80E090E05B
:100A500020E23EE3A0ECB8E0CCE2DEE3F901E80FEF
:100A6000F91F408113964C93139712964C9112974D
:100A70004423DCF713964C911397488301968330F7
:100A8000910561F780E00E94D00380E00E943A0364
:100A90000E94DC03DF91CF910895CF93DF93C82F9D
:100AA000D62F80E00E94AD0381E00E94D00381E058
:100AB0000E943A03DD2381F080912F3EC82BC09322
:100AC0002F3E80E48093203E1092213E80912F3E65
:100AD00080958093223E10C08091453EC82BC093E4
:100AE000453E80E48093203E81E08093213E8091CA
:100AF000453E80958093223E80E090E020E23EE3F8
:100B0000A0ECB8E0CCE2DEE3F901E80FF91F408188
:100B100013964C93139712964C9112974423DCF73B
:100B200013964C911397488301968330910561F792
:100B300080E00E943A0380E00E94D0030E94DC0320
:100B4000DF91CF9108950F931F93CF93DF93882365
:100B500009F446C000E016E08EEDD80111968C93A2
:100B6000C0E2D6E04EE04983E0E4F6E063E0618372
:100B700080E896E050E1DC0111965C9320EA36E0D3
:100B8000D90111964C937EE9D80115967C9378E0B3
:100B90007D836583EC015D83D90115964C9310929A
:100BA000303E8FEF93ECA9E081509040A040E1F7F8
:100BB00000C0000080E482831092313E1092453ED6
:100BC0001092AB2110922F3E8FEF61E00E944D05F5
:100BD0008FEF61E00E94A0048FEF0E94E60332C015
:100BE00000E016E07EEDD80116967C93A0E2B6E018
:100BF0004EE016964C93169720E436E063E0E90148
:100C00006E83C0E8D6E050E15E8380EA96E0FC01A6
:100C10004683F801728312964C93D90112966C9315
:100C200012975A83EC014A8380E412968C931297B0
:100C30001092313E1092453E1092AB2110922F3E01
:100C40001092303EDF91CF911F910F9108952F9216
:100C50003F924F925F926F927F928F929F92AF924C
:100C6000BF92CF92DF92EF92FF920F931F93CF9399
:100C7000DF93CDB7DEB76497CDBFDEBF2A013B015E
:100C80008901F9011082411551056105710509F4C9
:100C90004DC0882E992ECC24DD2476015E01089467
:100CA000A11CB11C0F2EF0E02F2EF0E23F2EF02DF4
:100CB000F40181919191A191B1914F012DB73EB76E
:100CC000285030402DBF3EBF2F5F3F4FEDB7FEB7DE
:100CD000A182B282F9012282338284839583A68322
:100CE000B7830E94EA362DB73EB7285F3F4F2DBF2E
:100CF0003EBFC801B5010E94AC36A02FB12FFD0147
:100D000001900020E9F73197EA1BFB0BE00FF11F80
:100D10008AE090E0808391830894C11CD11CE11C7F
:100D2000F11CC414D504E604F70411F66496CDBF93
:100D3000DEBFDF91CF911F910F91FF90EF90DF9079
:100D4000CF90BF90AF909F908F907F906F905F906B
:100D50004F903F902F900895E0ECF8E083838281DC
:100D60008823ECF7E0ECF8E083810895CF93DF93DC
:100D7000CCEAD1E2FE0180E081938F5F883CE1F70D
:100D8000E4E7F2E28CE393E220E021932E5FE817A0
:100D9000F907D9F7ECE3F3E280E081938D5F8835C2
:100DA000E1F7E4E0F4E28CEC94E220E021932C5FA4
:100DB000E817F907D9F7ECECF4E280E081938B5F58
:100DC000883EE1F78CEA91E268EE73E00E94390117
:100DD00084E995E21992C817D907E1F7000010924B
:100DE0001D3E10921E3E88EE93E00E94C801000056
:100DF00080E090E0DF91CF9108950F931F93CF9300
:100E00008C01C1E0C093443E83E080931F3E0E946A
:100E1000B7168091443E90E00E94DA1888ECE0E832
:100E2000F1E08183E0E4F9E089E0808382E0868379
:100E300024EF31E0029FC001039F900D129F900D9F
:100E4000112486A397A3E0E4F8E080E09AEF86A35C
:100E500097A3C683C083E0EAF0E082818760828343
:100E60007894CF911F910F91089578941F920F92CB
:100E70000FB60F920BB60F921124EF92FF920F93C1
:100E80001F932F933F934F935F936F937F938F9312
:100E90009F93AF93BF93EF93FF93CF93DF93CDB720
:100EA000DEB72897CDBFDEBF1092400810924009F0
:100EB00082E080931F3EDE011196E4E0F0E286E0DE
:100EC00001900D928150E1F705EA10E58091443ED2
:100ED00090E0B8014AE050E00E94B7367E010894E5
:100EE000E11CF11CC701B8010E94AC360E94B90A8E
:100EF000F70101900020E9F73197EE19FF099F01F2
:100F000040E050E080E090E0B7010E94DB162896B8
:100F1000CDBFDEBFDF91CF91FF91EF91BF91AF9138
:100F20009F918F917F916F915F914F913F912F9101
:100F30001F910F91FF90EF900F900BBE0F900FBE7F
:100F40000F901F9018954F925F926F927F928F92A1
:100F50009F92AF92BF92EF92FF920F931F93CF9306
:100F6000DF93CDB7DEB72B97CDBFDEBF8E839F83D8
:100F7000688779874A875B8781E00E94A30580E0C4
:100F800092E00E949A1600E012E0D80111968C912E
:100F90001197897E11968C93119714968C911497C2
:100FA000887F836014968C93149712968C91129775
:100FB0008F7C12968C9312970F2EF0E2EF2EF2E0B8
:100FC000FF2EF02DF7018081807E8160808389E093
:100FD00081838C9181608C9380E092E00E941F1647
:100FE00080E092E060E272E040E00E94291689838E
:100FF000D8018C918E7F8C93F701118213968C917E
:1010000013978F7313968C9313978C9181608C93A5
:1010100080E092E00E941F16D80111968C911197E2
:10102000886011968C93EE24FF246894F2F844248F
:101030005524320120E030E140E050E02A833B8338
:101040004C835D8388249924540100E212E0D80186
:1010500013968C91139780FFFACF6981C8010E9483
:10106000FB15A0E0B0E0880E991EAA1EBB1E481614
:1010700059066A067B0610F42C013D012A813B814A
:101080004C815D8182179307A407B50720F48A83FA
:101090009B83AC83BD830894E108F108E114F1045B
:1010A000B1F6E0E0F2E08181877F81838081826018
:1010B000808380818E7F808380E00E94A305C501AC
:1010C000B401052E5AE096958795779567955A95C0
:1010D000D1F7502D28EE33E040E050E00E94DF359C
:1010E0000F2EFFEF8F2EFFE09F2EF0E0AF2EF0E0EF
:1010F000BF2EF02DA50194010E941136C901C2979F
:10110000AE81BF818D939C93C301B20128EE33E081
:1011100040E050E00E94DF35A50194010E941136A5
:10112000C901C297EA85FB85808391836A817B81AF
:101130008C819D8128EE33E040E050E00E94DF3555
:10114000A50194010E94113622533040A885B9852B
:101150002D933C9311972B96CDBFDEBFDF91CF919E
:101160001F910F91FF90EF90BF90AF909F908F9045
:101170007F906F905F904F9008954F925F926F9223
:101180007F928F929F92AF92BF92EF92FF920F93B6
:101190001F93CF93DF93CDB7DEB72B97CDBFDEBFC5
:1011A0008E839F83688779874A875B8781E00E9467
:1011B000A30584E060E00E944D0584E060E00E94A9
:1011C000A0042FEF33EC49E0215030404040E1F7DC
:1011D00000C0000080E492E00E949A1600E412E051
:1011E000D80111968C911197897E11968C93119745
:1011F00014968C911497887F836014968C9314971F
:1012000012968C9112978F7C12968C9312970F2EB8
:10121000F0E6EF2EF2E0FF2EF02DF7018081807EC8
:101220008160808389E081838C9181608C9380E4EC
:1012300092E00E941F1680E492E060E672E040E0D7
:101240000E9429168983D8018C918E7F8C93F70197
:10125000118213968C9113978F7313968C93139717
:101260008C9181608C9380E492E00E941F16D801DB
:1012700011968C911197886011968C93EE24FF241F
:101280006894F2F844245524320120E030E140E033
:1012900050E02A833B834C835D8388249924540146
:1012A00000E612E0D80113968C91139780FFFACFD5
:1012B0006981C8010E94FB15A0E0B0E0880E991E6C
:1012C000AA1EBB1E481659066A067B0610F42C019E
:1012D0003D012A813B814C815D8182179307A407E0
:1012E000B50720F48A839B83AC83BD830894E1080F
:1012F000F108E114F104B1F6E0E4F2E08181877FC6
:10130000818380818E7F808384E060E00E94F50489
:1013100080E00E94A305C501B401052E5AE0969510
:101320008795779567955A95D1F7502D28EE33E03C
:1013300040E050E00E94DF350F2EFFEF8F2EFFE0E0
:101340009F2EF0E0AF2EF0E0BF2EF02DA50194010E
:101350000E941136C901C297AE81BF818D939C93C3
:10136000C301B20128EE33E040E050E00E94DF35D7
:10137000A50194010E941136C901C297EA85FB8537
:10138000808391836A817B818C819D8128EE33E00B
:1013900040E050E00E94DF35A50194010E94113623
:1013A00022533040A885B9852D933C9311972B96F5
:1013B000CDBFDEBFDF91CF911F910F91FF90EF90D6
:1013C000BF90AF909F908F907F906F905F904F9065
:1013D0000895CF93C62F21E030E0A90102C0440F49
:1013E000551F8A95E2F7CA0161E00E944904C0FFD7
:1013F00005C080E4E0E0F6E0858304C080E4E0E03E
:10140000F6E08683C1FF05C082E0E0E2F6E0858376
:1014100004C082E0E0E2F6E08683C2FF05C084E01B
:10142000E0E2F6E0858304C084E0E0E2F6E0868353
:101430005AE05A95F1F700C08FEF61E00E94A004D6
:10144000CF910895882331F0E0E0F6E080E28183D7
:1014500085830895E0E0F6E080E286838283089544
:101460001F920F920FB60F920BB60F9211242F936B
:101470003F934F935F936F937F938F939F93AF931C
:10148000BF93EF93FF93E0E4FAE08081807F808355
:10149000A0E0B8E08C91807F8C93A0E0B9E08C91C3
:1014A000807F8C938081807F8093400880E00E94C1
:1014B000D0030E94DC0380E00E94220A81E0809336
:1014C000A4508093463EFF91EF91BF91AF919F91C1
:1014D0008F917F916F915F914F913F912F910F90DD
:1014E0000BBE0F900FBE0F901F901895E0E4FAE02E
:1014F0008081807F8083A0E0B8E08C91807F8C9396
:10150000A0E0B9E08C91807F8C938081807F809374
:10151000400880E00E94D0030E94DC0380E00E942B
:10152000220A81E08093A4508093463E0895CF9391
:10153000DF930F920F92CDB7DEB78091A45088232E
:1015400089F0E0E4F8E080A191A189839A83898100
:101550009A81009721F486A197A189839A83898132
:101560009A8102C080E090E00F900F90DF91CF91C0
:101570000895E0EAF6E01386089581E0E0EAF6E0F7
:10158000838708951F920F920FB60F920BB60F929A
:1015900011246F927F928F929F92AF92BF92CF92BF
:1015A000DF92EF92FF920F931F932F933F934F93EE
:1015B0005F936F937F938F939F93AF93BF93EF93BB
:1015C000FF93CF93DF93CDB7DEB72C97CDBFDEBFB0
:1015D00080915A4088238CF080915A408F5F80938D
:1015E0005A4080915A40803809F0B4C0E0E4F8E0F5
:1015F0008081807F89608083ADC081E00E94D003BC
:1016000082E0E0EAF6E0868380E090E0E0ECF8E05B
:101610005AEA20E23EE3538342814423ECF74381BC
:10162000D901A80FB91F4C9301968330910599F702
:1016300082E0E0EAF6E0858380E00E94D0038091BA
:10164000203E88231CF48FEF8C8301C01C82809184
:10165000203E8B838091213E8A838091223E898324
:1016600089819A81AB81BC81AC01BD01770F440BAC
:10167000542FBA018D839E83AF83B88749874A87E9
:101680004B874C878090635090906450A090655039
:10169000B09066502D813E814F81588569857A854D
:1016A0008B859C85F401EE0FFF1FEE0FFF1F6090EE
:1016B0006150709062506E0E7F1E0F2EF0EAAF2EBA
:1016C000F02D0F2EF5E2BF2EF02D0F2EF6E2CF2ECD
:1016D000F02DDD24EE24FF2400E010E00E94C52A56
:1016E000AA24AA94BB24BA940F2EFFE7CF2EF02D84
:1016F0000E94742C01E00E94982B0F2EF3E0AF2E75
:10170000F02DBB24CC2400E00E94742C822E932E5A
:10171000A42EB52EB094A09490948094811C911C1A
:10172000A11CB11CF30180829182A282B3828091BC
:10173000635090916450A0916550B09166500196AD
:10174000A11DB11D8093635090936450A093655088
:10175000B09366502C96CDBFDEBFDF91CF91FF9145
:10176000EF91BF91AF919F918F917F916F915F9119
:101770004F913F912F911F910F91FF90EF90DF902C
:10178000CF90BF90AF909F908F907F906F900F9071
:101790000BBE0F900FBE0F901F901895882349F035
:1017A00080E260E00E944D0580E260E00E94A004BB
:1017B000089580E260E00E94F50408951F920F9260
:1017C0000FB60F920BB60F9211246F927F928F92E9
:1017D0009F92AF92BF92CF92DF92EF92FF920F93C0
:1017E0001F932F933F934F935F936F937F938F93A9
:1017F0009F93AF93BF93EF93FF93CF93DF93CDB7B7
:10180000DEB72C97CDBFDEBF19821A821B821C82E5
:101810001D821E821F82188680E090E020E23EE357
:10182000AA24AA94AC01F901E80FF91F608166238C
:1018300014F4AC8601C01C86420F531FFA0140818C
:101840004B87FC013196E20FF31F40814A87FC0170
:101850003296E20FF31F4081498749855A856B858F
:101860007C85B980CA80DB80EC80FD800E811F8181
:101870008884B42FA52FF62FE72F770F440B542F12
:10188000BA01642E742E942EBB0E61E0BB1608F0D4
:1018900060E0CA0E51E0CA1608F050E0A62FAC0D69
:1018A00061E0AC1508F060E0562BDF0E61E0DF165A
:1018B00008F060E0F52FFD0D51E0FD1508F050E057
:1018C000652BEE0E51E0EE1608F050E0E62FEE0D1F
:1018D00061E0EE1508F060E0562BF60C71E0F614AE
:1018E00008F070E0B52FBF0D51E0BF1508F050E0D3
:1018F000752B070D61E0071508F060E0700F51E0EF
:10190000701708F050E0652B190D51E0191508F01B
:1019100050E0610F01E0611708F000E0502B480D26
:10192000540FB982AA83FB83EC83BD837E836F83CC
:10193000588703968C30910509F074CFE980FA80BE
:101940000B811C81BD81AE81FF81E8852E2D3F2D4D
:10195000402F512F6B2F7A2F8F2F9E2FEE230CF0BD
:101960004AC093E0E90E91E0E21608F090E021E031
:10197000F31608F020E0392F3F0D91E03F1508F0F5
:1019800090E0292B91E0041708F090E0422F400FDF
:1019900021E0401708F020E0922B21E0151708F015
:1019A00020E0592F510F91E0511708F090E0292BBA
:1019B00091E0B61708F090E0622F6B0F21E06B17F3
:1019C00008F020E0922B21E0A71708F020E0792F03
:1019D0007A0F91E07A1708F090E0292B91E0F81740
:1019E00008F090E0822F8F0F21E08F1708F020E0A1
:1019F000922B2E2D9E0F02E00E940C2C29833A83FD
:101A00004B835C836D837E838F8398878090635044
:101A100090906450A0906550B090665029813A81B2
:101A20004B815C816D817E818F819885F401EE0F01
:101A3000FF1FEE0FFF1F80906150909062508E0E3E
:101A40009F1E0F2EF0EAAF2EF02D0F2EF5E2BF2EC7
:101A5000F02D0F2EF6E2CF2EF02DDD24EE24FF2404
:101A600000E010E00E94C52AAA24AA94BB24BA94DC
:101A70000F2EFFE7CF2EF02D0E94742C01E00E9464
:101A8000982B0F2EF3E0AF2EF02DBB24CC2400E0DA
:101A90000E94742CF401208331834283538380910C
:101AA000635090916450A0916550B091665001963A
:101AB000A11DB11D8093635090936450A093655015
:101AC000B09366502C96CDBFDEBFDF91CF91FF91D2
:101AD000EF91BF91AF919F918F917F916F915F91A6
:101AE0004F913F912F911F910F91FF90EF90DF90B9
:101AF000CF90BF90AF909F908F907F906F900F90FE
:101B00000BBE0F900FBE0F901F9018951F920F9253
:101B10000FB60F920BB60F9211246F927F928F9295
:101B20009F92AF92BF92CF92DF92EF92FF920F936C
:101B30001F932F933F934F935F936F937F938F9355
:101B40009F93AF93BF93EF93FF93CF93DF93CDB763
:101B5000DEB72C97CDBFDEBF19821A821B821C8292
:101B60001D821E821F82188680E090E020E23EE304
:101B7000AA24AA94AC01F901E80FF91F6081662339
:101B800014F4AC8601C01C86420F531FFA01408139
:101B90004B87FC013196E20FF31F40814A87FC011D
:101BA0003296E20FF31F4081498749855A856B853C
:101BB0007C85B980CA80DB80EC80FD800E811F812E
:101BC0008884B42FA52FF62FE72F770F440B542FBF
:101BD000BA01642E742E942EBB0E61E0BB1608F081
:101BE00060E0CA0E51E0CA1608F050E0A62FAC0D16
:101BF00061E0AC1508F060E0562BDF0E61E0DF1607
:101C000008F060E0F52FFD0D51E0FD1508F050E003
:101C1000652BEE0E51E0EE1608F050E0E62FEE0DCB
:101C200061E0EE1508F060E0562BF60C71E0F6145A
:101C300008F070E0B52FBF0D51E0BF1508F050E07F
:101C4000752B070D61E0071508F060E0700F51E09B
:101C5000701708F050E0652B190D51E0191508F0C8
:101C600050E0610F01E0611708F000E0502B480DD3
:101C7000540FB982AA83FB83EC83BD837E836F8379
:101C8000588703968C30910509F074CFE980FA806B
:101C90000B811C81BD81AE81FF81E8852E2D3F2DFA
:101CA000402F512F6B2F7A2F8F2F9E2FEE230CF06A
:101CB0004AC093E0E90E91E0E21608F090E021E0DE
:101CC000F31608F020E0392F3F0D91E03F1508F0A2
:101CD00090E0292B91E0041708F090E0422F400F8C
:101CE00021E0401708F020E0922B21E0151708F0C2
:101CF00020E0592F510F91E0511708F090E0292B67
:101D000091E0B61708F090E0622F6B0F21E06B179F
:101D100008F020E0922B21E0A71708F020E0792FAF
:101D20007A0F91E07A1708F090E0292B91E0F817EC
:101D300008F090E0822F8F0F21E08F1708F020E04D
:101D4000922B2E2D9E0F02E00E940C2C29833A83A9
:101D50004B835C836D837E838F83988780906350F1
:101D600090906450A0906550B090665029813A815F
:101D70004B815C816D817E818F819885F401EE0FAE
:101D8000FF1FEE0FFF1F80906150909062508E0EEB
:101D90009F1E0F2EF0EAAF2EF02D0F2EF5E2BF2E74
:101DA000F02D0F2EF6E2CF2EF02DDD24EE24FF24B1
:101DB00000E010E00E94C52AAA24AA94BB24BA9489
:101DC0000F2EFFE7CF2EF02D0E94742C01E00E9411
:101DD000982B0F2EF3E0AF2EF02DBB24CC2400E087
:101DE0000E94742CF40120833183428353838091B9
:101DF000635090916450A0916550B09166500196E7
:101E0000A11DB11D8093635090936450A0936550C1
:101E1000B09366502C96CDBFDEBFDF91CF91FF917E
:101E2000EF91BF91AF919F918F917F916F915F9152
:101E30004F913F912F911F910F91FF90EF90DF9065
:101E4000CF90BF90AF909F908F907F906F900F90AA
:101E50000BBE0F900FBE0F901F90189582E0E0EA26
:101E6000F6E086838AEAE0ECF8E0838382818823C7
:101E7000ECF790919E50E0ECF8E08381A0E2BEE3A5
:101E8000A90FB11D8C938AEA838382818823ECF7A2
:101E9000A0919E50B0E0E0ECF8E08381AF5DB14CE2
:101EA0008C938AEA838382818823ECF7E0919E50A9
:101EB000F0E0A0ECB8E013968C911397EE5DF14C36
:101EC000808382E0E0EAF6E0858380919E508D5F1A
:101ED00080939E5008951F920F920FB60F920BB6EB
:101EE0000F9211242F933F934F935F936F937F93A0
:101EF0008F939F93AF93BF93EF93FF930E942E0F07
:101F000010929E50FF91EF91BF91AF919F918F9151
:101F10007F916F915F914F913F912F910F900BBEE9
:101F20000F900FBE0F901F9018951F920F920FB633
:101F30000F920BB60F9211242F933F934F935F9301
:101F40006F937F938F939F93AF93BF93EF93FF9381
:101F50000E942E0FFF91EF91BF91AF919F918F91B2
:101F60007F916F915F914F913F912F910F900BBE99
:101F70000F900FBE0F901F9018951F920F920FB6E3
:101F80000F920BB60F9211242F933F934F935F93B1
:101F90006F937F938F939F93AF93BF93EF93FF9331
:101FA0000E942E0FFF91EF91BF91AF919F918F9162
:101FB0007F916F915F914F913F912F910F900BBE49
:101FC0000F900FBE0F901F9018951F920F920FB693
:101FD0000F920BB60F9211242F933F934F935F9361
:101FE0006F937F938F939F93AF93BF93EF93FF93E1
:101FF0000E942E0FFF91EF91BF91AF919F918F9112
:102000007F916F915F914F913F912F910F900BBEF8
:102010000F900FBE0F901F9018951F920F920FB642
:102020000F920BB60F9211242F933F934F935F9310
:102030006F937F938F939F93AF93BF93EF93FF9390
:102040000E942E0F10929E50E0E2F6E0848181FF04
:102050000FC0E0E0F6E0848186FF05C082E0E0E2A8
:10206000F6E087830DC080E4E0E0F6E0878308C0F7
:1020700080E4E0E0F6E0868382E0E0E2F6E085835B
:10208000FF91EF91BF91AF919F918F917F916F9150
:102090005F914F913F912F910F900BBE0F900FBE0C
:1020A0000F901F9018951F920F920FB60F920BB6BC
:1020B0000F9211242F933F934F935F936F937F93CE
:1020C0008F939F93AF93BF93EF93FF930E942E0F35
:1020D000FF91EF91BF91AF919F918F917F916F9100
:1020E0005F914F913F912F910F900BBE0F900FBEBC
:1020F0000F901F9018951F920F920FB60F920BB66C
:102100000F9211242F933F934F935F936F937F937D
:102110008F939F93AF93BF93EF93FF930E942E0FE4
:10212000FF91EF91BF91AF919F918F917F916F91AF
:102130005F914F913F912F910F900BBE0F900FBE6B
:102140000F901F9018951F920F920FB60F920BB61B
:102150000F9211242F933F934F935F936F937F932D
:102160008F939F93AF93BF93EF93FF930E942E0F94
:10217000FF91EF91BF91AF919F918F917F916F915F
:102180005F914F913F912F910F900BBE0F900FBE1B
:102190000F901F901895FF920F931F93CF93DF938B
:1021A000CDB7DEB72897CDBFDEBF19821A821B825A
:1021B0001C828091635090916450A0916550B091C1
:1021C00066500196A11DB11D809363509093645099
:1021D000A0936550B093665080ED8093C00820E0D6
:1021E00030E000E21EE3FF24FA94C901F801E20F97
:1021F000F31F4081442314F4F88601C01886800F31
:10220000911FFC0180818F83F9013196E00FF11F4E
:1022100080818E83F9013296E00FF11F80818D83DA
:1022200049815A816B817C818D819E81AF81B88586
:10223000840F951FA61FB71F89839A83AB83BC8326
:102240002D5F3F4F2C30310581F669817A818B817A
:102250009C8124E030E040E050E00E943336298346
:102260003A834B835C83298182E29EE32093223E62
:102270002A81FC01319720832B810297FC01208366
:1022800080E1E0E4F6E0868388E0E0E2F6E0868341
:10229000000086E0E0ECF8E0838382818823ECF79D
:1022A000E0ECF8E0838180932C3EA0E2B6E088E089
:1022B00015968C931597000016968C931697000030
:1022C00082E0838382818823ECF7E0ECF8E083816D
:1022D00080932C3E80911E3E838382818823ECF77D
:1022E000E0ECF8E0838180932C3E80911D3E838357
:1022F00082818823ECF7E0ECF8E0838180932C3E28
:102300008091203E838382818823ECF7E0ECF8E023
:10231000838180932C3E8091213E83838281882318
:10232000ECF7E0ECF8E0838180932C3E8091223E34
:10233000838382818823ECF7A0ECB8E013968C911C
:10234000139780932C3E88E0E0E2F6E08583E0E49A
:10235000F6E080E1858394E59C93868380911D3E21
:1023600090911E3E039680931D3E90931E3E809159
:102370001121E0E2FEE39081890F80931121809189
:1023800012219181890F80931221809113219281D2
:10239000890F809313212896CDBFDEBFDF91CF91A7
:1023A0001F910F91FF9008952F923F924F925F924D
:1023B0006F927F928F929F92AF92BF92CF92DF9255
:1023C000EF92FF920F931F93CF93DF9310921D3ED6
:1023D00010921E3E109263501092645010926550FD
:1023E0001092665083E191E210921321FC01319723
:1023F00010820297DC011C9281E00E94A30584E018
:102400000E94AD0380ED8093C0088DE08093203E54
:1024100083EF8093213E87E58093223E8091635035
:1024200090916450A0916550B09166508335E5E578
:102430009E07E0E0AE07E0E0BE0708F0CCC00F2E3C
:10244000F0E4EF2EF6E0FF2EF02D40E256E028E01B
:10245000E0ECF8E00F2EF6E07F2EF02DCCE2DEE38C
:102460006624689461F80F2EFDE1CF2EFEE3DF2E87
:10247000F02D8E010C5010400F2EF5EF4F2EFFEF78
:102480005F2EF02D4C0E5D1E0F2EF6EF2F2EFFEF60
:102490003F2EF02D2C0E3D1E61E171E25B01089490
:1024A000A11CB11C88249924689481F8860E971E7B
:1024B00030E1D70116963C93DA0116962C931697C5
:1024C0000000738282818823ECF783818883DA019C
:1024D00015962C931597000016962C9316970000CE
:1024E000638282818823ECF783818883D6011196E9
:1024F0008C911197838382818823ECF78381888371
:10250000D6018C91838382818823ECF78381888331
:10251000D8018C91838382818823ECF7838188831F
:10252000D2018C91838382818823ECF78381888315
:10253000D1018C91838382818823ECF78381888306
:10254000DA0115962C9330E1D70115963C938091D2
:102550001D3E90911E3E039680931D3E90931E3E1D
:10256000DB018C91D8019C91890FDB018C93D50103
:102570008C91A1E2BEE39C91890FD5018C93D4018B
:102580008C91A2E2BEE39C91890FD4018C9380913F
:10259000635090916450A0916550B091665001963F
:1025A000A11DB11D8093635090936450A09365501A
:1025B000B09366508091635090916450A0916550A3
:1025C000B0916650833535E5930730E0A30730E0DE
:1025D000B30708F46DCF0E94DC0380E00E94A305DE
:1025E000DF91CF911F910F91FF90EF90DF90CF90EF
:1025F000BF90AF909F908F907F906F905F904F9023
:102600003F902F90089580FF05C020E4E0E0F6E0C1
:10261000258304C020E4E0E0F6E0268381FF05C0C6
:1026200022E0E0E2F6E0258304C022E0E0E2F6E00A
:10263000268382FF05C084E0E0E2F6E0858308950A
:1026400084E0E0E2F6E0868308952F923F924F9275
:102650005F927F928F929F92AF92BF92CF92DF92C2
:10266000EF92FF920F931F93CF93DF93CDB7DEB717
:10267000182F762EF42E1901898D9A8D8093615032
:10268000909362501092A45081E00E94A305812F84
:102690006F2D0E94E909872D0E94E6038E2D0E946E
:1026A000CE0B84E00E94AD0384E58093C00881E0F6
:1026B0000E94220A812F0E940313E0EAF6E022E042
:1026C000208B7724739472820F2EF0E84F2EF1E066
:1026D0005F2EF02D88E7D2018C93E0E0F9E080EFE7
:1026E0008183C0A6D1A6A2A6B3A684A695A68D89ED
:1026F0009E8986A797A7802F90E0019786A397A32E
:1027000026838FEF87838081807F8860808310920B
:10271000635010926450109265501092665010925F
:102720009E50E0EAF0E0828187608283789481E0C5
:102730000E94D00380E2E0E8F6E0818300E41AE042
:1027400083E2F80181836101EE24FF2460E874E8EC
:102750008EE190E0A70196010E941136D80196966D
:102760002D933C93979760E472E48FE090E0A7018B
:1027700096010E941136F80122AF33AFE0E4F8E091
:102780008F89988D86A397A380EDD20111968C93A3
:10279000119776828081807F89608083F8018081B3
:1027A000807F81608083DF91CF911F910F91FF9097
:1027B000EF90DF90CF90BF90AF909F908F907F90E1
:1027C0005F904F903F902F9008952F923F924F929D
:1027D0005F926F927F928F929F92AF92BF92CF92B1
:1027E000DF92EF92FF920F93CF93DF93CDB7DEB7D7
:1027F000962F1A01522F702FD7013601250100D0D4
:1028000000D02DB73EB72F5F3F4FEDB7FEB78182A7
:1028100092828D889E88F901828293828F88988C1B
:102820008482958264EC492F9101052FE72E6D017A
:10283000530142010E9425138DB79EB706968DBFA6
:102840009EBFDF91CF910F91FF90EF90DF90CF90DF
:10285000BF90AF909F908F907F906F905F904F90C0
:102860003F902F9008952F923F925F926F927F92A8
:102870008F929F92AF92BF92CF92DF92EF92FF9290
:102880000F931F93CF93DF930F920F92CDB7DEB7C5
:10289000182F3B0149835A83522E898D9A8D80933C
:1028A0006150909362501092A45081E00E94A30561
:1028B00085E0D3016C910E94E90986E0F301618112
:1028C0000E94E90987E0D30112966C910E94E90900
:1028D000812F0E94E603802F0E94CE0B84E00E948D
:1028E000AD0384E58093C00881E00E94220A85E060
:1028F0000E940313E0EAF6E022E0208B6624639452
:1029000062820F2EF0E82F2EF1E03F2EF02D88E7A7
:10291000F1018083E0E0F8E080EF8183E0A6F1A69A
:10292000C2A6D3A6A4A6B5A686A697A6852D90E096
:10293000019786A397A326838FEF87838081807F6B
:10294000886080831092635010926450109265509A
:102950001092665010929E5083E191E210921321E2
:10296000FC01319710820297DC011C92E0EAF0E052
:10297000828187608283789481E00E94D00380E224
:10298000E0E8F6E0818300E41AE083E2F801818365
:1029900089819A816C01EE24FF2460E874E88EE15D
:1029A00090E0A70196010E941136D80196962D93CA
:1029B0003C93979760E472E48FE090E0A701960162
:1029C0000E941136F80122AF33AFE0E4F8E08F89BE
:1029D000988D86A397A380ECD10111968C931197C3
:1029E00066828081807F89608083F8018081807F1A
:1029F000816080830F900F90DF91CF911F910F9195
:102A0000FF90EF90DF90CF90BF90AF909F908F900E
:102A10007F906F905F903F902F9008952F923F92FC
:102A20004F925F926F927F928F929F92AF92BF92DE
:102A3000CF92DF92EF92FF920F931F93CF93DF938A
:102A400000D00F92CDB7DEB78B839C83DB01942F30
:102A5000322F380127011601A982BA8200D00F92C5
:102A6000EDB7FEB7818292824A8D5B8D438354839A
:102A700084EC6B817C81AD01292F032F73016201EE
:102A8000510189809A800E9433140F900F900F900B
:102A90000F902496CDBFDEBFDF91CF911F910F9194
:102AA000FF90EF90DF90CF90BF90AF909F908F906E
:102AB0007F906F905F904F903F902F9008958F92EE
:102AC0009F92AF92BF92DF92EF92FF920F931F936C
:102AD000CF93DF93C82FD62ED42F59014801E0920F
:102AE0006150F09262501092A45081E00E94A305C0
:102AF0008C2F6D2F0E94E9098D2D0E94E6038C2FEB
:102B00008550833018F481E00E94CE0B81E00E9452
:102B1000220A8C2F0E94031384E00E94AD0384E5F7
:102B20008093C008E0EAF6E0DD24D394D28282E00C
:102B3000808BD286818780E2E0E8F6E08183C0E482
:102B4000DAE083E28983950140E050E060E874E8D0
:102B50008EE190E00E94113689019A01C8010EA30E
:102B60001FA3969587958AAF9BAFE0E4F8E086A215
:102B700097A288E7A0E8B1E011968C931197D682CE
:102B80008881807F816088831092635010926450A6
:102B9000109265501092665010925A40E0EAF0E0B0
:102BA0008281836082837894DF91CF911F910F910E
:102BB000FF90EF90DF90BF90AF909F908F9008951F
:102BC000EF92FF920F931F93962FFA01D90178018C
:102BD00061EC492F9F018D010E945F151F910F919C
:102BE000FF90EF900895FC0181E0838384819581BB
:102BF000861B91090895FC0181E08383848195817E
:102C0000772767FD7095861B970B0895FC0181E07F
:102C10008383848195810895FC0181E0838384818D
:102C20000895FC0181E0838385810895FC018481FE
:102C300014829AE29A95F1F700C084830895FC010A
:102C4000848191E0948395E59A95F1F7000084835F
:102C50000895EF92FF920F931F93CF93DF93EB01B1
:102C60004423C9F004E010E0EE24FF24888180684A
:102C700088838B8180FFFDCFCE0160E00E94F31539
:102C8000E80EF91E0150104089F7C7019695879507
:102C90009695879509C08881806888838B8180FF9D
:102CA000FDCFCE010E940616DF91CF911F910F91AB
:102CB000FF90EF900895EF92FF920F931F93CF93A1
:102CC000DF93EB014423E1F004E010E0EE24FF2465
:102CD0008881806888838B8180FFFDCFCE0160E092
:102CE0000E94FB15E80EF91E0150104089F7C7013C
:102CF00099230CF4039695958795959587950AC029
:102D00008881806888838B8180FFFDCFCE0160E061
:102D10000E94FB15DF91CF911F910F91FF90EF90D3
:102D20000895AAECB1E092E09C93E82FF0E0849142
:102D30001C920895CF93DF93EC0182E0C030D80756
:102D400059F480E20E949116C0E0D2E08C8781E2C3
:102D50000E9491168D8708C084E20E9491168C878C
:102D600085E20E9491168D87DF91CF91089584E1CD
:102D7000E4E1F1E2DF011D928A95E9F70E9418185B
:102D800080931421909315210E946A1A0895E0E817
:102D9000F6E084E08183868392E0908B828783E0F3
:102DA0008187E0EAF0E082818460828378940895EC
:102DB00084E191E208952F923F924F925F926F9239
:102DC0007F928F929F92AF92BF92CF92DF92EF92BB
:102DD000FF920F931F93CF93DF93CDB7DEB72A9760
:102DE000CDBFDEBF2C011B0169017A012115310520
:102DF0004105510509F468C088249924540108E963
:102E00000F2EF6E16F2EF1E27F2EF02D1C2D85E6C0
:102E1000C816D104E104F10408F014E6812F855F9F
:102E200089839FEF49169FEF590611F081E601C093
:102E300081E48A830B83F30180818C838F5F80839D
:102E400084E392E18D839E834F825886E4E1F1E230
:102E50008081918189879A87B101680D791DCE01A2
:102E60000196412F0E94A6198330C9F0843018F4CE
:102E70008130E1F404C0853051F08034B9F4EBE1E5
:102E8000F1E2808191810196808391830FC0EDE111
:102E9000F1E28081918101968083918307C0EFE107
:102EA000F1E280819181019680839183812F90E06E
:102EB000A0E0B0E0880E991EAA1EBB1EC81AD90A4F
:102EC000EA0AFB0A09F0A2CF80E02A96CDBFDEBF56
:102ED000DF91CF911F910F91FF90EF90DF90CF90F6
:102EE000BF90AF909F908F907F906F905F904F902A
:102EF0003F902F900895DF92EF92FF920F931F93D0
:102F0000CF93DF937C010E94F617D82E88230CF410
:102F100046C0F7018583882371F0E7012696870173
:102F2000095F1F4F8150080F111D0E94F6178993EA
:102F3000C017D107D1F7F701C085838594858383B6
:102F4000948385859685818392830E940D188823BA
:102F500011F41092172180910A20C81751F4F7013B
:102F60002181328180910B2090910C202817390704
:102F7000C1F0C0930A20F7018181928180930B20D8
:102F800090930C20B701615F7F4F4D2D50E0495069
:102F90005040C7010E949A368D2D8B5003C080E0AF
:102FA00001C080E0DF91CF911F910F91FF90EF90D2
:102FB000DF900895109228211092292110922A2141
:102FC00008952091292130E0F901E55DFE4D8083CF
:102FD000C901019660E870E00E94FE3580932921C6
:102FE00080912A218F5F80932A21089520912821A2
:102FF00030E0F901E55DFE4D40812F5F3F4FC90193
:1030000060E870E00E94FE358093282180912A219B
:10301000815080932A21842F089580912A21089538
:10302000BC0180E090E048E050E00E94631C0895FD
:10303000CF93DF930F920F92CDB7DEB789E090E088
:10304000BE016F5F7F4F42E050E00E94631C8981A8
:103050009A810F900F90DF91CF910895882329F0E6
:1030600080E1E0E6F6E08683089580E1E0E6F6E0C0
:1030700085830895DF92EF92FF920F931F93CF9372
:10308000DF938C01C62F7A01D22E822F90E0860F1B
:10309000911D803891058CF58FB780935540F89439
:1030A00081E00E942E1880E60E94AE1CCC2379F0AD
:1030B000C8010196C1509C012C0F311DE901F80196
:1030C00081918F010E94AE1C0C171D07C1F7DD20F6
:1030D00069F0E7012196DA94CD0DD11DF7018191B8
:1030E0007F010E94AE1CEC16FD06C1F780E00E9435
:1030F0002E18809155408FBF7894DF91CF911F910A
:103100000F91FF90EF90DF900895CF93DF93D82F2A
:10311000C62F8FB780935540F89481E00E942E18F7
:103120008D2F806C0E94AE1C8C2F0E94AE1C80E004
:103130000E942E18809155408FBF7894DF91CF91D7
:103140000895682F85E00E94851808950F931F93B6
:10315000CF93DF93082FC62FD72F10E06991812FCF
:10316000800F0E9485181F5F1830C1F7DF91CF9143
:103170001F910F910895CF93DF93EC0180E090E0D1
:10318000BE0148E050E00E94001C84E2BE010E94A3
:10319000A618DF91CF910895CF93DF93C82FD72F33
:1031A0000E9485188C2F8F5F6D2F0E948518DF91EC
:1031B000CF9108950F931F93CF93DF930F920F92A8
:1031C000CDB7DEB789839A830E94D8168C0189E037
:1031D00090E0BE016F5F7F4F42E050E00E94001C14
:1031E00069817A8180E20E94CC1889819A81F801F4
:1031F000808391830F900F90DF91CF911F910F915A
:103200000895CF93C82F8FB780935540F89481E0ED
:103210000E942E188C2F80680E94AE1C0E94AE1C4B
:10322000C82F80E00E942E18809155408FBF78945F
:103230008C2FCF91089581E00E9401198F7108951C
:103240001F93CF93DF93C82F162FD42F0E940119FD
:103250006D2F60956823D1236D2B8C2F0E948518CC
:10326000DF91CF911F910895CF93DF93D82F809155
:10327000640681FD4BC00E941B19C82F815182300A
:1032800020F0C13011F0C23021F40E941B198C17BC
:10329000E1F3D631F9F0D93189F0D83031F5E4E6EF
:1032A000F6E080818D7F808382E063E04FE10E94C1
:1032B00020198AE08A95F1F700C017C0C631A9F439
:1032C00082E069E04FE10E9420199AE09A95F1F7B7
:1032D00000C00BC0C93149F482E069E04FE10E94AF
:1032E00020198AE08A95F1F700C082E06D2F4FE146
:1032F0000E9420198FE693E00197F1F700C00000CB
:103300000E941B198D1721F480E403C084E401C0DE
:1033100083E4DF91CF910895882349F088E00E94EB
:103320003419E4E6F6E08081826080830895E4E663
:10333000F6E080818D7F80838FE797E00197F1F73A
:1033400000C0000086E10E9434190895CF92DF92F8
:10335000EF92FF920F931F93CF93DF937C016B014A
:10336000042F0E941B19182F0E94D816EC0112304E
:10337000F1F01231F1F088E00E94341989E10E94E5
:103380003419C7016AE0A601202F0E943A1882E092
:1033900062E04FE10E9420198C818823E9F31C82AE
:1033A00082E00E94011982958695877003C084E4AB
:1033B00001C084E4DF91CF911F910F91FF90EF90B6
:1033C000DF90CF900895813091F0813028F08230E5
:1033D000C9F0833061F521C08CE068E04FE30E94C2
:1033E000201986E162E043E00E94201908958CE0F4
:1033F0006CE04FE30E94201986E162E043E00E9406
:10340000201908958CE06CE14FE30E94201986E1B9
:1034100062E043E00E94201908958CE060E04FE3F1
:103420000E94201986E163E043E00E94201908957C
:10343000CF93C82F88E06C2F4FE10E9420190E9483
:103440001B19863011F0893031F48FE693E0019733
:10345000F1F700C0000088E00E94011990E08F7130
:1034600090706C2F70E08617970711F480E401C00C
:1034700083E4CF910895CF93C82F0E9401198C2B1C
:103480008F5F0E94011980E090E0CF910895E4E6FB
:10349000F6E080818160808380818D7F80838FEDE5
:1034A0009BE00197F1F700C0000080818E7F808350
:1034B0009AE09A95F1F700C08081816080838DE168
:1034C0000E9401198130D9F78CE10E9401198730DF
:1034D000B1F708950F931F93CF93DF93CDB7DEB766
:1034E000EA97CDBFDEBF0E949B1CE0E6F6E080813C
:1034F000826080838081816080830E94471A8EE091
:1035000060E00E94851882E063E04FE10E9420198C
:1035100081E00E9401198F718830D1F78EE260E45A
:1035200040EC0E9420198EE06CE00E94851884E037
:1035300060E240E20E94201981E00E94E31981E0EC
:103540000E94181A86E10E94341982E264E372E153
:103550000E94CC180E941818BC0180E20E94CC186E
:10356000CE0101960E94101884E2BE016F5F7F4F6A
:103570000E94A618E2E7F6E0808181608083E9E698
:10358000F6E0808183608083EAE6F6E080818460F3
:103590008083E0EAF0E08281876082830E941B19C9
:1035A000863191F08E01075F1F4FC80168EE71E010
:1035B0000E9493360F920F92EDB7FEB701831283EC
:1035C0000E94D8360F900F90EA96CDBFDEBFDF91F4
:1035D000CF911F910F9108951F920F920FB60F92E6
:1035E0000BB60F9211246F927F928F929F92AF929F
:1035F000BF92DF92EF92FF920F931F932F933F930F
:103600004F935F936F937F938F939F93AF93BF93EA
:10361000EF93FF93CF93DF93CDB7DEB7E297CDBFA4
:10362000DEBF0E94D8167C018FB780935540F89476
:1036300081E00E942E188FE80E94AE1C80E00E945C
:10364000AE1C182F80E00E942E18112309F4AEC082
:10365000AA24BB246894A7F80F2EF8E08F2EF2E07E
:103660009F2EF02D12FF02C01B7F9DC013FF82C052
:103670000E941B19863029F0863119F0813109F03A
:103680006FC087E00E940119F701828B86E00E94DB
:103690000119881F8827881FF701838B882309F465
:1036A00062C08FB780935540F89481E00E942E1835
:1036B00080E20E94AE1C80E00E94AE1CD82E835097
:1036C0008D37F0F50E940D182D2D30E0A501481B17
:1036D0005109241735077CF48D2D0E94E117DD2058
:1036E00079F100E080E00E94AE1C0E94E1170F5FBC
:1036F0000D15C1F725C00E94D8163C01DD2039F018
:1037000000E080E00E94AE1C0F5F0D15D1F7F301C1
:1037100085859685019685879687CE010196B401A9
:103720000E9493360F920F9241E050E04C0F5D1FC4
:10373000EDB7FEB7418352830E94D8360F900F90A9
:1037400080E00E942E18809155408FBF7894F70139
:103750008581968101968583968381E0838303C06A
:1037600081E0F7018483177F86E10E943419803459
:10377000D9F719C016FF08C01F7BF701878590890C
:1037800001968787908B0FC011FF02C01D7F0BC071
:1037900010FF02C01E7F07C011232CF41F77F70112
:1037A00081898F5F818B112309F05CCF8091554017
:1037B0008FBF78948FE00E940119E296CDBFDEBFE3
:1037C000DF91CF91FF91EF91BF91AF919F918F9139
:1037D0007F916F915F914F913F912F911F910F9129
:1037E000FF90EF90DF90BF90AF909F908F907F9071
:1037F0006F900F900BBE0F900FBE0F901F901895FB
:103800000F931F93CF93DF938C01E0ECF1E084855D
:10381000877F84874115510509F450C0E0E0F0E04E
:1038200020E0A0ECB1E0D6E3C3E335E3CF01800FA5
:10383000911FE60FF71FF0811F96EC911F97EE2363
:10384000DCF31F96EC911F97E1FF11C01A96DC93F1
:103850001A97EF93FF930F932F93EBECF1E008EDA2
:1038600021E004BF20832F910F91FF91EF911A96D1
:10387000CC931A978C93892F8F7111968C931197F3
:1038800012961C9212971496FC9314971A963C93D6
:103890001A97EF93FF930F932F93EBECF1E008ED62
:1038A00021E004BF20832F910F91FF91EF912F5FB3
:1038B000E22FF0E0E417F50708F4B8CFDF91CF91DD
:1038C0001F910F9108951F93CF93DF939C01E0EC1C
:1038D000F1E08485877F84874115510541F180E0BF
:1038E00090E0C0E0D6E0DB01A80FB91F820F931F64
:1038F00017851123ECF38083892F8F7181831282C6
:10390000D287EF93FF930F932F93EBECF1E008ED49
:1039100021E004BF20832F910F91FF91EF918481CB
:103920008C93CF5F8C2F90E084179507E0F2DF91A6
:10393000CF911F910895E0E6F6E08081806B80834F
:10394000E4E6F6E0808180618083A0ECB9E08C91B0
:1039500081658C938081806180830895E0ECF9E03B
:10396000838382818823ECF7E0ECF9E0838108957A
:103970000F93CF93DF930F92CDB7DEB72FB7298385
:10398000F8941BBEFC0108ED04BF608389818FBFE2
:103990000F90DF91CF910F910895662311F090E27F
:1039A00001C090E0842B892BE0E5F0E0828308954C
:1039B0006F71862BE0E5F0E085830895E0E5F0E0A7
:1039C0009081282F209592239083908189230895B8
:1039D000682B81E490E00E94B81C08951F93CF9358
:1039E000DF93182FC0E4D0E06881687F682B80E403
:1039F00090E00E94B81C88818123DF91CF911F91B4
:103A00000895E0E4F0E09381917F9160892B8383B6
:103A10000895E0E5F0E02681982F382F3095232394
:103A2000662309F490E0922BE0E5F0E09683813084
:103A300031F4E8E6F0E0808181608083089582308F
:103A400029F4E0E6F0E0808181608083089583E5D9
:103A500090E063E00E94B81C089582E490E061E089
:103A60000E94B81C0895CF92DF92EF92FF922091AE
:103A7000675030916850C0904B40D0904C40E090DF
:103A80004D40F0904E40625070408040904040E089
:103A900050E00E94DF35DC01CB01C80ED91EEA1EC2
:103AA000FB1E6C2D7D2D8E2D9F2DFF90EF90DF90B6
:103AB000CF9008953F924F925F926F927F928F9234
:103AC0009F92AF92BF92CF92DF92EF92FF920F93AD
:103AD0001F93CF93DF9300D00F92CDB7DEB7DC01F9
:103AE000CB01342E09831A832B833C8380906D5045
:103AF00090906E502C013D01440C551C661C771CA7
:103B0000440C551C661C771C209153403091544046
:103B1000AA24BB248091695090916A50A0916B5067
:103B2000B0916C50880E991EAA1EBB1E40E050E05A
:103B3000C301B2010E94113669017A01C80CD91C77
:103B4000EA1CFB1C0091534010915440C701B60180
:103B500047E45EE30E943928980140E050E0C30149
:103B6000B2010E941136695B714C332041F4DB01D4
:103B70000D911D912D913C9113973F7014C0898137
:103B80009A81AB81BC81FB0180839183A283B38343
:103B9000C701B60147E45EE320E032E00E948427DB
:103BA00000E010E09801602F712F822F932F249650
:103BB000CDBFDEBFDF91CF911F910F91FF90EF90AE
:103BC000DF90CF90BF90AF909F908F907F906F903D
:103BD0005F904F903F900895CF92DF92EF92FF92C7
:103BE0000F931F93CF93C82F062F69017A018091FD
:103BF000695090916A50A0916B50B0916C50BC018B
:103C0000CD016F5F7F4F8F4F9F4F47E45EE30E9470
:103C100039288091473E9091483EA091493EB0910D
:103C20004A3E823522E5920721E6A20721E4B20747
:103C300009F063C080912B4090912C40A0912D40C1
:103C4000B0912E40823722E7920721E4A20721E6B5
:103C5000B20709F056C08091434090914440A09132
:103C60004540B0914640803020E0920725E5A2070C
:103C70002AEAB20709F049C00023A1F4C13049F48F
:103C800000912F40109130402091314030913240CE
:103C90003FC0009133401091344020913540309125
:103CA000364036C0C13049F4C0922F40D0923040E7
:103CB000E0923140F092324008C0C0923340D0923E
:103CC0003440E0923540F0923640809169509091B6
:103CD0006A50A0916B50B0916C50BC01CD016F5FE8
:103CE0007F4F8F4F9F4F47E45EE320E032E00E941A
:103CF00084270FEF1FEF98010BC00FEF1FEF980104
:103D000007C00FEF1FEF980103C00FEF1FEF9801DF
:103D1000602F712F822F932FCF911F910F91FF90C2
:103D2000EF90DF90CF900895EF92FF920F931F9343
:103D3000CF93DF931092695010926A5010926B509B
:103D400010926C5060E070E0CB0147E45EE30E94AB
:103D500039288091473E893E31F18B3E21F1809197
:103D60004540909146402AEA8535920709F0B7C050
:103D700060910D4070910E4080910F4090911040E5
:103D80006093695070936A5080936B5090936C501D
:103D900047E45EE30E9439288091473E893E19F04E
:103DA0008B3E09F09EC08091523E9091533E80938D
:103DB0005340909354408091543E90E080936750DC
:103DC00090936850E090553EF090563EE0926D50D2
:103DD000F0926E508091733E9091743EA091753E2A
:103DE000B091763E80935B4090935C40A0935D40A1
:103DF000B0935E40C0916D50D0916E506091573E2F
:103E000070E080E090E020916B3E30916C3E4091FC
:103E10006D3E50916E3E0E94DF358B019C01AE01DC
:103E200060E070E08091633E9091643EA091653EB9
:103E3000B091663E840F951FA61FB71F800F911F7C
:103E4000A21FB31F80934B4090934C40A0934D40D2
:103E5000B0934E40E0916750F0916850C701A0E0E8
:103E6000B0E04091673E5091683E6091693E70912C
:103E70006A3E481B590B6A0B7B0BCB01BA01601BD6
:103E8000710B820B930B9F0140E050E00E941136B2
:103E90002093564030935740409358405093594098
:103EA00081E060E020E030E0A9010E94EC1DAB0160
:103EB000BC018091564090915740A0915840B091DC
:103EC000594084179507A607B70720F410929F5012
:103ED00080E008C081E080939F5080E003C081E0D3
:103EE00001C081E0DF91CF911F910F91FF90EF9082
:103EF00008950F931F93CF93DF93CDB7DEB72B9722
:103F0000CDBFDEBF782F692FE82FF92FDF010D908D
:103F10000020E9F71197AE1BBF0BA031B10508F0E7
:103F20009CC0282F392F0FE810E5A80180E090E011
:103F300007C0D901ED919D01DA01ED93AD01019624
:103F4000A72FB62FFD0101900020E9F73197EA1B5A
:103F5000FB0B8E179F0768F38F30910554F4FC011B
:103F6000E157FF4A8EE990E520E22193E817F9072F
:103F7000E1F780918F508E3291F0E0E9F0E521E099
:103F800081918E3221F02F5F2C30D1F705C0822F26
:103F90008950833008F463C0222329F401C020E053
:103FA000822F90E210C0DE011196822F815090E0A6
:103FB00080579F4AF80131913D93E817F907D9F7E7
:103FC000283070F30AC0E1E0F0E0EC0FFD1FE80FCD
:103FD000F11D90838F5F8830B0F32C3009F02F5F94
:103FE00038E08FE890E5FC01E20FF11D40814423A9
:103FF00019F43B3050F015C0E1E0F0E0EC0FFD1F8C
:10400000E30FF11D40832F5F0CC080E2E1E0F0E0A0
:10401000EC0FFD1FE30FF11D80833F5F3B30B1F7D5
:1040200003C03F5F3B30F8F2DE011196CE010C96E3
:10403000FD012081322F31563A3110F42052208375
:104040003196E817F907A9F72D91F80121938F010F
:10405000A817B907C9F780E003C081E001C081E07B
:104060002B96CDBFDEBFDF91CF911F910F910895A9
:104070004F925F926F927F928F929F92AF92BF9278
:10408000CF92DF92EF92FF92CF93DF932B013C010F
:1040900020E83FEF4FEF5FEF422253226422752268
:1040A0008091564090915740A0915840B09159400E
:1040B000481659066A067B0608F077C0530142018C
:1040C000880C991CAA1CBB1C880C991CAA1CBB1C24
:1040D000C7E4DEE3C0906D50D0906E502091534005
:1040E00030915440EE24FF248091695090916A50A1
:1040F000A0916B50B0916C50C80ED91EEA1EFB1EE9
:1041000040E050E0C501B4010E941136C701B6017C
:10411000620F731F841F951FAE010E94392888818A
:104120009981AA81BB81BF700097A105B10599F063
:1041300021E0E22FF0E0EE0FFF1FEE0FFF1FE95B23
:10414000F14C80819181A281B381BF700097A1055C
:10415000B10539F401C020E0420E511C611C711CF4
:1041600027C02F5F32F780E890E0A0E0B0E0480E73
:10417000591E6A1E7B1E8091564090915740A09117
:104180005840B091594020E032E040E050E0820ECB
:10419000931EA41EB51E481659066A067B0608F42F
:1041A00099CF44245524320103C0442455243201BC
:1041B000642D752D862D972DDF91CF91FF90EF9077
:1041C000DF90CF90BF90AF909F908F907F906F9037
:1041D0005F904F900895CF92DF92EF92FF92CF932E
:1041E000C82FDB01CA019170A070B0700097A105C3
:1041F000B10551F4032E39E07695679557954795AB
:104200003A95D1F7302D0DC0032E39E0769567959C
:10421000579547953A95D1F7302D4F5F5F4F6F4FC8
:104220007F4FDB01CA0187709070A070B07000975B
:10423000A105B10559F46A017B01689412F8F6945E
:10424000E794D794C7941694D1F70FC06A017B0105
:10425000689412F8F694E794D794C7941694D1F71B
:104260000894C11CD11CE11CF11C80919F50882333
:10427000D1F081E060E020E030E0A9010E94EC1D77
:10428000CC2339F49B01AC012C0D3D1D4E1D5F1D4F
:1042900006C09B01AC012C193D094E095F0981E064
:1042A00061E00E94EC1DCF91FF90EF90DF90CF90E6
:1042B00008952F923F924F925F926F927F928F92CA
:1042C0009F92AF92BF92CF92DF92EF92FF920F93A5
:1042D0001F93CF93DF93CDB7DEB72C97CDBFDEBF53
:1042E000882E7B0180915B4090915C40A0915D4065
:1042F000B0915E4089879A87AB87BC870F2EF7E421
:104300002F2EFEE33F2EF02DC82CCA94D22C932CD6
:104310005B010894A11CB11C69857A858B859C85FD
:104320000E94331D6D837E838F83988780916750B1
:1043300090916850009709F413C144245524320128
:104340001C2D8D819E81AF81B885840D951DA61D84
:10435000B71D89839A83AB83BC83BC01CD014D2DEE
:10436000592D0E94392880915340909154400097D4
:1043700009F4E4C0D1018C91882309F410C14D2DBA
:10438000592D20E030E008C0A901495B514CFA01E9
:104390008081882309F406C1853E09F4C5C0DA018D
:1043A0001B968C911B978F3009F4BEC0123008F019
:1043B000FCC09C91F7018081981709F0B5C0FA0103
:1043C0003196D50181E0BA0141919D91491731F4AF
:1043D0008F5F8B30C9F78B016B0105C08B3009F003
:1043E000A3C08B016B01F1E08F1609F041C08981F8
:1043F0009A81AB81BC818093A0509093A150A093EF
:10440000A250B093A350C901A0E0B0E08093474010
:1044100090934840A0934940B0934A40D6015496A7
:104420004D915C91559760E070E0BA0155274427A3
:104430005A968D919C915B97A0E0B0E0842B952BD0
:10444000A62BB72B8093715090937250A09373500A
:10445000B0937450F601848D958DA68DB78D8093A1
:104460004F4090935040A0935140B0935240A5C00C
:10447000D60154968D919C915597A0E0B0E03C01F7
:1044800055244424F601828D938DA0E0B0E0482AA3
:10449000592A6A2A7B2A85EE808369817A818B81F9
:1044A0009C8147E45EE320E032E00E948427D6014D
:1044B0005C964D915D916D917C915F9780E00E943B
:1044C000EB2082E060E020E030E0A9010E94EC1DDA
:1044D000DC01CB01481659066A067B0630F482E0FF
:1044E00061E0A30192010E94EC1DC301B20140E012
:1044F00000E010E098010E945A1D6B017C01C3018D
:10450000B20141E000E010E098010E945A1DB7EFAF
:10451000CB16BFEFDB06BFEFEB06BFE0FB0608F0F4
:1045200047C026013701E1CF205E3F4F80915340C5
:10453000909154402817390708F426CF0894411C5D
:10454000511C611C711C8091675090916850A0E0D3
:10455000B0E0481659066A067B0608F4F2CEC12E72
:1045600069857A858B859C8540E000E010E09801A4
:104570000E945A1D69877A878B879C87673FEFEF78
:104580007E07EFEF8E07EFE09E07A8F46115710537
:104590008105910509F0C0CE00E010E00EC000E0FA
:1045A00010E00BC000E010E008C000E010E005C023
:1045B00000E010E002C000E010E0802F912F2C9668
:1045C000CDBFDEBFDF91CF911F910F91FF90EF9094
:1045D000DF90CF90BF90AF909F908F907F906F9023
:1045E0005F904F903F902F9008950E94791F8823ED
:1045F00029F482E06FE870E50E94592108954F92F6
:104600005F926F927F92AF92BF92CF92DF92EF92C2
:10461000FF920F931F93CF93C82FCB010E94791F56
:10462000882309F057C081E06FE870E50E945921A6
:10463000FC01009731F481E0CC2309F44EC080E006
:104640004CC0C13009F448C044885588662477249A
:10465000320155244424828D938DA0E0B0E0482A95
:10466000592A6A2A7B2A0F2EFCEAAF2EF1E2BF2ECE
:10467000F02DC301B2010E94331D6B017C018091BA
:104680006750909168500097A1F0C0E0C701B60153
:104690006C0F711D811D911DA5010E943928CF5FEE
:1046A00080916750909168502C2F30E0281739077F
:1046B00068F3C301B20140E000E010E098010E94FD
:1046C0005A1D2B013C01611571058105910589F683
:1046D00080E003C082E001C081E0CF911F910F9183
:1046E000FF90EF90DF90CF90BF90AF907F906F9052
:1046F0005F904F9008952F923F924F925F926F92EA
:104700007F928F929F92AF92BF92CF92DF92EF9261
:10471000FF920F931F93CF93DF93CDB7DEB76097D0
:10472000CDBFDEBFFC016D837E8349015A0181E06C
:10473000BF010E94FF22813009F07BC000917150BF
:1047400010917250209173503091745009831A83E4
:104750002B833C83CC24DD247601240135014801E0
:104760005901C501B40140E000E010E098010E9449
:104770005A1DDC01CB018F3F1FEF91071FEFA107EF
:104780001FEFB10741F00894C11CD11CE11CF11CC2
:104790004C015D01E6CF89829A82AB82BC825301D3
:1047A0004201209167503091685080915340909120
:1047B00054406090534070905440BC0180E090E0C1
:1047C00040E050E00E94DF35A70196010E94DF35EE
:1047D000DC01CB0140914F405091504060915140DD
:1047E000709152408A019B01081B190B2A0B3B0B4D
:1047F000C901B801930140E050E00E941136022F38
:1048000069817A818B819C810E94331DDC01CB01FF
:10481000202E3324280E391EB10180E090E047E4B9
:104820005EE30E9439281F86188A19861A8611E0CD
:104830004CC0823009F40CC282E060E020E030E03D
:10484000A9010E94EC1D0091564010915740209103
:10485000584030915940061717072807390740F488
:1048600060915B4070915C4080915D4090915E40B2
:104870000E94382069837A838B839C83611571053C
:104880008105910509F4E6C141E00FEF1FEF9801A2
:104890000E945A1D2B813C8129873A8789819A8100
:1048A0008F87988B10924F40109250401092514039
:1048B0001092524069817A818B819C810E94331DC4
:1048C000DC01CB011C0110E000E081149104A10483
:1048D000B10409F48DC0442455243201C02E1B8735
:1048E00090E0891692E0990690E0A90690E0B9065A
:1048F00088F000E012E020E030E0400E511E621E21
:10490000731E80E09EEFAFEFBFEF880E991EAA1EC8
:10491000BB1E0CC0480C591C6A1C7B1C95018401F1
:1049200011702070307088249924540180914F4078
:1049300090915040A0915140B091524080509E4F74
:10494000AF4FBF4F80934F4090935040A093514042
:10495000B0935240B10180E090E0A201401B510BA6
:10496000AD81BE814A0F5B1F98010E948427C394CA
:1049700020916750309168508C2D90E082179307FA
:1049800029F569817A818B819C810E9438206B0195
:104990007C01611571058105910509F45DC169818D
:1049A0007A818B819C8141E0970186010E945A1D8A
:1049B000C701B60141E00FEF1FEF98010E945A1D99
:1049C000C982DA82EB82FC82CC2403C00894211CC9
:1049D000311C82E061E029813A814B815C810E9437
:1049E000EC1D81149104A104B10409F079CF1B8559
:1049F000112309F43FC06091A0507091A1508091A3
:104A0000A2509091A35007E41EE3A8010E94392808
:104A1000E0914740F0914840E00FF11F128A138A5D
:104A200080914F4090915040A0915140B0915240A0
:104A3000448D558D668D778D6C017D01C41AD50A24
:104A4000E60AF70A848F958FA68FB78F6091A050E2
:104A50007091A1508091A2509091A350A80120E0A4
:104A600032E00E94842781E0B701A6010E94EB207A
:104A700080E0F9C000915B4010915C4020915D4066
:104A800030915E400B871C872D873E8777248FE807
:104A900090E50F2EFBE0AF2EBB24F02DA80EB91E23
:104AA0008824689485F80F2EF7E44F2EFEE35F2EDE
:104AB000F02D282E992E372C6F84788804C0CB8651
:104AC000DC86ED86FE866B857C858D859E850E94C5
:104AD000331D6D837E838F8398878091675090917B
:104AE0006850009709F477C01982CD80DE80EF808E
:104AF000F8841981C10ED11CE11CF11CC701B6015B
:104B0000A2010E943928809153409091544000970F
:104B100009F454C0332009F0A1C0A20100E010E064
:104B200006C0A801495B514C222309F099C0DA0163
:104B30008C91882321F4E22DF92DDA0104C0853E01
:104B4000D1F3232D30C081918D93EA15FB05D9F760
:104B5000FA01838614861586128A138A29853A8576
:104B6000248B358B628E738E80914F409091504094
:104B7000A0915140B0915240848F958FA68FB78FEE
:104B8000C701B601A20120E032E00E9484274091D3
:104B90004F4050915040609151407091524081E09F
:104BA0000E94EB2021E0005E1F4F809153409091C6
:104BB00054400817190708F4B4CF322E09810F5F4B
:104BC00009832091675030916850802F90E08217C0
:104BD000930708F48ACF6B857C858D859E8540E0A0
:104BE00000E010E098010E945A1D6B017C01673FB4
:104BF0001FEF71071FEF81071FE0910708F16F3F5B
:104C00002FEF72072FEF82072FEF920759F56B8571
:104C10007C858D859E850E9438206B017C016B858B
:104C20007C858D859E8541E0970186010E945A1DF5
:104C3000C701B60141E00FEF1FEF98010E945A1D16
:104C4000C114D104E104F10409F039CF84E00BC0B0
:104C500081E009C082E007C082E005C080E003C0B7
:104C600080E001C083E06096CDBFDEBFDF91CF91D1
:104C70001F910F91FF90EF90DF90CF90BF90AF907A
:104C80009F908F907F906F905F904F903F902F906C
:104C900008958F929F92AF92BF92CF92DF92EF9240
:104CA000FF920F931F93CF93DF93842EA52EC62ED2
:104CB000C72FD22F780180640E94AC068C2F0E94EF
:104CC000AC068C2D0E94AC068A2D0E94AC06882D65
:104CD0000E94AC068D2F0E94AC061016110664F5DA
:104CE00000E010E00F2EFDE0CF2EDD24F02D0F2E82
:104CF000F3E3AF2EFEE3BF2EF02DC801B6010E94F4
:104D0000FE35EC018FEF0E94AC06F501EC0FFD1FA4
:104D1000808380818F3F49F0FE01ED5CF14C808102
:104D20008093343E8091343E08C00F5F1F4F0E15B4
:104D30001F0519F78FEF01C08FEFDF91CF911F9102
:104D40000F91FF90EF90DF90CF90BF90AF909F902A
:104D50008F900895FF920F931F93CF93DF9381E07D
:104D60000E94A30581E00E944A038FEF93ECA9E023
:104D700081509040A040E1F700C0000088E060E072
:104D80000E944D0588E060E00E94A00480E063E09E
:104D90000E94BE0381E00E94D0038AE090E0E0EC34
:104DA000F8E03FEFAFE3BEE3338322812223ECF749
:104DB00023812C930197C1F780E00E94D0030E94C9
:104DC000DC0388E060E00E94490480E063E00E9428
:104DD000BE0381E00E94D003CBE0D0E002C0219767
:104DE00069F080E040E050E0BA0125E908E010E019
:104DF0000E944926813099F7FF2402C0FF24F394D2
:104E00008FEF93ECA9E081509040A040E1F700C003
:104E10000000CBE0D0E002C0219769F088E04AEAC8
:104E200051E060E070E027E808E010E00E944926C9
:104E3000813091F702C0FF24F394C2E0D0E003E395
:104E40001EE38FEF0E94AC06F801EC0FFD1F80837C
:104E50002196C630D105A9F78091373E813029F4DB
:104E60008091383E8A3A21F405C0FF24F39402C0B1
:104E7000FF24F394C4E3DEE387E340E050E0BA01AB
:104E80002FEF08E010E00E94492681E040E050E06A
:104E900060E070E42FEF0E9449268881882361F743
:104EA000CBE0D0E002C0219761F08AE340E050E01F
:104EB000BA012FEF08E010E00E944926882399F7F5
:104EC00002C0FF24F394C0E0D0E003E31EE38FEFC1
:104ED0000E94AC06F801EC0FFD1F80832196C430C0
:104EE000D105A9F78091333E80E00E94D0030E9453
:104EF000DC0388E060E00E94A0048F2DDF91CF9159
:104F00001F910F91FF9008956F927F928F929F92C1
:104F1000AF92BF92CF92DF92EF92FF920F931F93C7
:104F2000CF93DF934B015C01742E652E690188E0FD
:104F300060E00E94490480E00E94AD0381E00E948D
:104F4000D00380E092E07C01EC18FD0880E0E816D8
:104F500082E0F80611F4EE24FF24CBE0D0E003C099
:104F6000219709F4FFCF88E1B501A4012FEF08E0F4
:104F700010E00E944926882399F78FEF0E94AC0623
:104F80008093333E8EEF0E94AC061C141D04BCF4CB
:104F9000872C962C00E010E0C8016DE070E00E94C4
:104FA000FE35EC01F40181914F010E94AC06CD5C0D
:104FB000D14C88830F5F1F4F0C151D0569F71E1418
:104FC0001F04ECF400E010E00F2EFDE0CF2EDD24F6
:104FD000F02D0F2EF3E38F2EFEE39F2EF02DC80150
:104FE000B6010E94FE35EC0180E00E94AC06C80DBF
:104FF000D91D88830F5F1F4F0E151F0581F78FEF97
:105000008093333EC0E0D0E003E31EE38FEF0E94C5
:10501000AC06F80180832196C230D105BCF38081B3
:105020008F3FA1F38091333E8091333E8F3F49F013
:10503000C3E3DEE38FEF0E94AC06888388818F3F55
:10504000C9F780E00E94D0030E94DC0388E060E0A2
:105050000E94A004DF91CF911F910F91FF90EF90DC
:10506000DF90CF90BF90AF909F908F907F906F9088
:105070000895AF92BF92CF92DF92EF92FF920F937B
:105080001F93CF93DF936B017C01B42EA52E88E094
:1050900060E00E94490480E00E94AD0381E00E942C
:1050A000D003CBE0D0E003C0219709F4FFCF81E12A
:1050B000B701A6012FEF08E010E00E9449268823DF
:1050C00099F78091333E8E3F49F0C3E3DEE38FEFE3
:1050D0000E94AC06888388818E3FC9F70B2D1A2D5C
:1050E000C0E0D0E08FEF0E94AC06F80181938F0101
:1050F0002196F2E0C030DF07A9F710923F3E809181
:105100003F3E8F3F49F0CFE3DEE38FEF0E94AC06D6
:10511000888388818F3FC9F780E00E94D0030E9476
:10512000DC0388E060E00E94A004DF91CF911F9132
:105130000F91FF90EF90DF90CF90BF90AF900895C8
:105140002F923F924F925F926F927F928F929F9297
:10515000AF92BF92CF92DF92EF92FF920F931F9385
:10516000CF93DF93CDB7DEB72A97CDBFDEBF6B01FC
:105170007C014F835887890188E060E00E944904E0
:1051800080E00E94AD0381E00E94D003C80111239A
:1051900014F481509E4F9C01232F330F330B259520
:1051A0002B833C8320E032E0C801B9010E94FE3528
:1051B0002901481A590A30E0431632E0530631F00B
:1051C0008B819C8101968B839C8302C0442455244F
:1051D00089E1B701A6012FEF08E010E00E944926FF
:1051E0008823B1F7EB81FC811E161F060CF0ACC0C2
:1051F0003197ED83FE839F01322F2227330F8F815A
:10520000988589839A83662477240F2EF4E38F2E62
:10521000FEE39F2EF02D0F2EFCE0CF2EDD24F02D8F
:105220000F2EF3E3AF2EFEE3BF2EF02D80E092E0D1
:105230001C0124183508EF81F885E20FF31FEF8376
:10524000F8878FEF0E94AC06F40180838CEF0E94F8
:10525000AC06F40180832D813E812615370509F0C7
:1052600041C012141304CCF4EF80F88400E010E085
:10527000C801B6010E94FE3589879A87F70181919E
:105280007F010E94AC06E985FA85EA0DFB1D80834B
:105290000F5F1F4F0215130559F7141415049CF4E2
:1052A00000E010E0C801B6010E94FE357C0180E0FC
:1052B0000E94AC06F501EE0DFF1D80830F5F1F4FAE
:1052C0000415150579F78FEF0E94AC06F401808371
:1052D0008FEF0E94AC06F4018083108280818F3FA3
:1052E000E1F423C0E980FA8000E010E0C801B601D3
:1052F0000E94FE3589879A87F70181917F010E947C
:10530000AC06E985FA85EA0DFB1D80830F5F1F4F10
:10531000F2E000301F0751F7D6CF8FEF0E94AC06A6
:10532000F401808380818F3FC1F70894611C711C58
:1053300029813A8120503E4F29833A838B819C8179
:105340006816790609F07DCFEE24FF246894E2F810
:1053500004E31EE38FEF0E94AC06F80180830894FB
:10536000E108F108E114F104A9F78DEF0E94AC0601
:105370008093343EEE24FF246894E2F804E31EE3B5
:105380008FEF0E94AC06F80180830894E108F108D1
:10539000E114F104A9F71092343E8091343E8F3F1E
:1053A00051F004E31EE38FEF0E94AC06F801808306
:1053B00080818F3FC1F780E00E94D0030E94DC0310
:1053C00088E060E00E94A0042A96CDBFDEBFDF9196
:1053D000CF911F910F91FF90EF90DF90CF90BF90F2
:1053E000AF909F908F907F906F905F904F903F9085
:1053F0002F9008952F923F924F925F926F927F92DB
:105400008F929F92AF92BF92CF92DF92EF92FF92D4
:105410000F931F93CF93DF936B017C01C42F852ED5
:10542000390188E060E00E94490480E00E94AD03F9
:1054300081E00E94D00382E1B701A6012FEF08E0CE
:1054400010E00E9449268823B1F7161417040CF0C7
:1054500046C0AC2EB82C882499240F2EF4E3CF2E0E
:10546000FEE3DF2EF02DFF24FA94EF2C0F2EF3E352
:105470004F2EFEE35F2EF02D12010894211C311CEB
:10548000F601E08280818E3F41F08F2D0E94AC06B4
:10549000F601808380818E3FC1F78501C0E0D0E0B6
:1054A0008F2D0E94AC06F80181938F012196F2E0C6
:1054B000C030DF07A9F78F2D0E94AC06F201808370
:1054C0008F2D0E94AC06F10180830894811C911CF1
:1054D00080E092E0A80EB91E8614970489F68CE04D
:1054E00040E050E0BA012FEF08E010E00E944926AA
:1054F0008FEF0E94AC068093333E1092343E809131
:10550000343E8F3F49F0C4E3DEE38FEF0E94AC06E8
:10551000888388818F3FC9F780E00E94D0030E9472
:10552000DC0388E060E00E94A004DF91CF911F912E
:105530000F91FF90EF90DF90CF90BF90AF909F9032
:105540008F907F906F905F904F903F902F90089535
:1055500088E060E00E944D0588E060E00E94A004C1
:1055600080E00E94AD0381E00E94D0038FEF0E9493
:10557000AC0680E00E94D0030E94DC0380E00E9421
:10558000A30580E00E944A030895A0E3B0E0EBEC9D
:10559000FAE20C946436298F3A8F4B8F5C8F6D8FB3
:1055A0007E8F8F8F98A3A98ABA8ACB8ADC8AED8AEC
:1055B000FE8A0F8B188F098D1A8D2B8D3C8D09A3B8
:1055C0001AA32BA33CA3680179018FEF9FEFA0E002
:1055D000B0E0C822D922EA22FB2289012227332700
:1055E00009A71AA72BA73CA709891A892B893C89E7
:1055F0000DA31EA32FA338A7480159018822992281
:10560000AA22BB22290166247724C501B401A7017F
:1056100096010E94DF356DA77EA78FA798ABC301C7
:10562000B2010E94DF356B017C01C501B40129A5DF
:105630003AA54BA55CA50E94DF354B015C01C30177
:10564000B2010E94DF35AB01BC01C80CD91CEA1CB9
:10565000FB1C0DA51EA52FA538A9C901AA27BB278C
:10566000C80ED91EEA1EFB1EC814D904EA04FB04A6
:1056700020F4405050406F4F7F4FC701AA27BB27EF
:10568000840F951FA61FB71F8D839E83AF83B88796
:105690007601DD24CC244DA55EA56FA578A96070A8
:1056A0007070C40ED51EE61EF71EC982DA82EB8228
:1056B000FC821C2D0A818B804C808D878E818E8789
:1056C0008F818F878885888B2D893E894F89588D5A
:1056D00069A17AA18BA19CA10E94DF356B017C019D
:1056E0002D8D3E8D4F8D58A16DA17EA18FA198A5C6
:1056F0000E94DF35DC01CB01C80ED91EEA1EFB1E5D
:105700008D859E85AF85B8898C0D9D1DAE1DBF1DF5
:105710008D879E87AF87B88B682F7E85212F302F8E
:10572000482D542D8F859889E096E0E10C947D36C4
:10573000CF92DF92EF92FF920F93CF93DF93CDB78B
:10574000DEB76097CDBFDEBF002309F45AC02987BA
:105750003A874B875C876D877E878F87988B80E23F
:10576000801B49855A856B857C851816B4F0198293
:105770001A821B821C82992787FD909590958195AE
:105780009F4F04C0440F551F661F771F8A95D2F79D
:105790004D835E836F8378872CC06A017B01002E66
:1057A00004C0CC0CDD1CEE1CFF1C0A94D2F7C9828D
:1057B000DA82EB82FC826A017B0104C0F694E794F2
:1057C000D794C7948A95D2F7D701C6014D855E85D7
:1057D0006F85788904C0440F551F661F771F0A958F
:1057E000D2F7842B952BA62BB72B8D839E83AF836B
:1057F000B88729813A814B815C816D817E818F815F
:1058000098856096CDBFDEBFDF91CF910F91FF905D
:10581000EF90DF90CF9008950F93CF93DF93CDB7A4
:10582000DEB76097CDBFDEBF002309F456C02987DD
:105830003A874B875C876D877E878F87988B20E2BE
:10584000201B8D859E85AF85B889AC01BD011216E0
:10585000B4F0770F440B542FBA014D835E836F83EE
:105860007887332727FD3095309521953F4F04C029
:10587000B595A795979587952A95D2F722C0002EC2
:1058800004C075956795579547950A94D2F74D834F
:105890005E836F83788704C0880F991FAA1FBB1F80
:1058A0002A95D2F749855A856B857C8504C0769503
:1058B0006795579547950A95D2F7842B952BA62B7C
:1058C000B72B89839A83AB83BC8329813A814B812F
:1058D0005C816D817E818F8198856096CDBFDEBFB2
:1058E000DF91CF910F910895A8E4B0E0EAE7FCE2E0
:1058F0000C946336F50129A33AA34BA35CA36DA3D3
:105900007EA38FA398A7A98EFA8FCB8EDC8EED8E07
:10591000FE8E0F8F18A38DA09EA0AFA0B8A4B7FED7
:1059200067C02195B1E0121608F0B0E03195A1E012
:10593000131608F0A0E0B32EBB1ABB2D8824839465
:105940003B1508F08824A829419531E0141608F089
:1059500030E0B42EBA1AAB2D882483944B1508F08E
:1059600088243829519541E0151608F040E0452E6D
:10597000431A31E0541508F030E0432B619531E0D3
:10598000161608F030E0862E841A41E0681508F0FB
:1059900040E0342B719541E0171608F040E0572F96
:1059A000531B31E0751708F030E0432B819531E04F
:1059B000181608F030E0682F641B462F61E084174A
:1059C00008F060E0362B9195931B29A3BAA3ABA3F3
:1059D0004CA28DA25EA34FA398A78FEF9FEFAFEFCE
:1059E000BFEF25968CAF9DAFAEAFBFAF259706C07A
:1059F00025961CAE1DAE1EAE1FAE25978D8D9E8DBD
:105A0000AF8DB8A1B7FF68C025962CAD3DAD4EADAA
:105A10005FAD2597209530954095509525962CAFF4
:105A20003DAF4EAF5FAF2597E19581E01E1608F0C0
:105A300080E0F19591E01F1608F090E04F2F481B91
:105A400081E0F41708F080E0982BC19481E01C14E9
:105A500008F080E06C2D691B91E0C61608F090E01C
:105A6000892BD19491E01D1408F090E05D2D581B16
:105A700081E0D51608F080E0982BE19481E01E14B7
:105A800008F080E03E2D391B91E0E31608F090E02D
:105A9000892BF19491E01F1408F090E02F2D281B22
:105AA00081E0F21608F080E0982B019581E0101655
:105AB00008F080E0702F791B972F71E0091708F02C
:105AC00070E0872B1195181BE98F4A8F6B8F5C8FC5
:105AD0003D8F2E8F9F8F18A3798D6A8D5B8D4C8D96
