:100000000C9416010C9437010C9437010C943701B1
:100010000C9437010C9437010C9437010C94370180
:100020000C9437010C9437010C9437010C94370170
:100030000C9437010C9437010C947E0E0C9437010C
:100040000C94B6130C948E130C9466130C9420131A
:100050000C949B0C0C9437010C9437010C943701D1
:100060000C9437010C9437010C9437010C94370130
:100070000C9437010C9437010C9437010C94370120
:100080000C9437010C9437010C9437010C94370110
:100090000C9437010C9437010C9437010C94370100
:1000A0000C9437010C9437010C9437010C943701F0
:1000B0000C9437010C9437010C9437010C945909B6
:1000C0000C9437010C9437010C9437010C943701D0
:1000D0000C9437010C9437010C9437010C943701C0
:1000E0000C9437010C9437010C9437010C943701B0
:1000F0000C9437010C9437010C9437010C943701A0
:100100000C94911E0C9437010C9437010C94370118
:100110000C9437010C9437010C9437010C9437017F
:100120000C9437010C9437010C9437010C9437016F
:100130000C9437010C945D100C9437010C94F81258
:100140000C94D0120C94A8120C947E120C94A0095A
:100150000C9437010C9437010C9437010C9437013F
:100160000C9437010C9437010C9437010C9437012F
:100170000C9437010C9437010C9437010C9437011F
:100180000C9437010C9437010C9437010C9437010F
:100190000C9437010C9437010C9437010C943701FF
:1001A0000C942D0D0C9437010C9437010C943701ED
:1001B0000C9437010C9437010C9437010C943701DF
:1001C0000C9437010C9437010C9437010C943701CF
:1001D0000C9437010C9437010C9437010C943701BF
:1001E0000C9437010C943701524144494F204E4F33
:1001F0005420494E495449414C495A454420505293
:100200004F5045524C590A004255464645522046E9
:10021000554C4C2E20544F5353494E4720494E4382
:100220004F4D494E4720444154410A0011241FBEFE
:10023000CFEFDFE5DEBFCDBF00E00CBF11E2A0E0F5
:10024000B0E2E8E9FAE700E00BBF02C007900D92C8
:10025000AE30B107D9F710E5AEE0B1E201C01D92B2
:10026000AC3BB107E1F70E94DB060C944A3D0C94CD
:100270000000AF92BF92DF92EF92FF920F931F9315
:10028000CF93DF93E82ED92E8B0181E00E94BA052F
:10029000C0ECD8E0F88080E00E94C40380ED888341
:1002A00081E00E94E70388E0E0E2F6E08683000058
:1002B00086E08B83E0ECF8E082818823ECF7E0ECC9
:1002C000F8E083818093313EA0E2B6E088E01596A5
:1002D0008C931597000016968C931697000082E079
:1002E000838382818823ECF7E0ECF8E083818093BC
:1002F000313E8091233E838382818823ECF7E0ECBA
:10030000F8E083818093313E8091223E8383828115
:100310008823ECF7E0ECF8E083818093313EA8017C
:1003200060E070E04115510561057105C9F0AE2C22
:10033000BD2C80E090E0DC0121E33EE3E501E990A3
:100340005E01E382E280EE20ECF7E380E901E882DF
:100350000196A11DB11D84179507A607B70770F375
:1003600088E0E0E2F6E0858380E00E94E703F09217
:10037000C0088091223E9091233E080F191F0093E0
:10038000223E1093233EDF91CF911F910F91FF905A
:10039000EF90DF90BF90AF900895DF92EF92FF92C1
:1003A0000F931F93CF93DF930F920F92CDB7DEB7CA
:1003B0007C0169837A8381E00E94BA0500EC18E031
:1003C000F801D08080E00E94C40380EDF8018083B2
:1003D00081E00E94E70388E0E0E2F6E08683000027
:1003E00083E0F801838382818823ECF7E0ECF8E076
:1003F00083818093313E8A81838382818823ECF7D5
:10040000E0ECF8E083818093313E898183838281AF
:100410008823ECF7E0ECF8E083818093313EE1142F
:10042000F104B9F0E1EBF1E2C7018E0F9F1FA0ECE0
:10043000B8E03AEA13963C93139712962C911297D0
:100440002223DCF713962C9113972193E817F907D1
:1004500089F788E0E0E2F6E0858380E00E94E70328
:10046000D092C0080F900F90DF91CF911F910F9104
:10047000FF90EF90DF900895CF92DF92EF92FF927E
:100480000F931F93CF93DF936B017C01DC01CB01B2
:1004900088559240A040B040893E2FE392072FE05C
:1004A000A20720E0B20708F05CC00E943C03E0E431
:1004B000F6E088E08183858384E08283CC0CDD1CB8
:1004C000EE1CFF1CCC0CDD1CEE1CFF1CC701B60192
:1004D000660F771F881F991F660F771F881F991F48
:1004E0000E94A6389B01AC0160E074E284EF9BE4BB
:1004F0000E94123820E030E040E85FE30E94AD3710
:10050000C62FD72F182F092F862F9D2FA12FB02F41
:10051000BC01CD010E947A386B017C0180E090E043
:100520000E94A6389B01AC018C2F9D2FA12FB02FCC
:10053000BC01CD010E94AD3720E030E040E05FE338
:100540000E94343988231CF00894C11CD11CE0EAB5
:10055000F8E0C682D78283E0858388E1848381E0E6
:1005600001C080E0DF91CF911F910F91FF90EF903C
:10057000DF90CF900895E0EAF8E0918195FFFDCFFC
:100580008093A0080895E0EAF8E081818823ECF7E1
:100590008091A00808958F929F92AF92BF92CF92C0
:1005A000DF92EF92FF92CF93DF936A017B014115B7
:1005B00051056105710591F0C82FD92F8824992420
:1005C000540189910E94BB020894811C911CA11CBA
:1005D000B11C8C149D04AE04BF0499F7DF91CF9138
:1005E000FF90EF90DF90CF90BF90AF909F908F9053
:1005F0000895E0EAF8E08481877E8483E0E4F6E011
:1006000088E08683828308951092373E089580ECB7
:1006100060E04BE00E944A20E0E5F0E080818860E5
:100620008083818183FFFDCF80EC62E00E945520B2
:10063000E0E5F0E0808180618083818184FFFDCFEF
:1006400084E00E946B2081E00E945B200895E0E539
:10065000F0E080818260808380E061E00E9465201C
:10066000E0E5F0E0818181FFFDCF81E00E946B2019
:1006700081E00E945B200895E0E5F0E080818260E7
:10068000808380E060E00E946520E0E5F0E0818109
:1006900081FFFDCF81E00E946B2081E00E945B2002
:1006A0000895882329F088E0E0E0F6E0868304C01E
:1006B00088E0E0E0F6E085838AE68A95F1F700C0FD
:1006C0000895882379F0E0EAF6E080E2818385836B
:1006D0008FEF93ECA9E081509040A040E1F700C07B
:1006E00000000895E0EAF6E080E2868382830895C0
:1006F000882379F0E0EAF6E080E4818385838FEF58
:1007000093ECA9E081509040A040E1F700C00000C8
:100710000895E0EAF6E080E48683828308958823E2
:1007200079F0E0EAF6E080E8818385838FEF93EC4F
:10073000A9E081509040A040E1F700C0000005C052
:10074000E0EAF6E080E886838283AFE3BFE11197B9
:10075000F1F700C000000895882329F080E1E0E867
:10076000F6E08683089580E1E0E8F6E08583089569
:10077000882329F082E0E0E4F6E08683089582E0B1
:10078000E0E4F6E085830895E0E4F6E090E191830B
:1007900028E3248B95838165A0ECB8E08C931196B7
:1007A0001C92119780EA81830895E0E4F6E090E1DD
:1007B000918328E3248B95838065682BA0ECB8E0B7
:1007C0006C9311961C92119780EA81830895882377
:1007D00029F080E1E0E4F6E08683089580E1E0E43A
:1007E000F6E085830895E0E4F6E080E185831092E9
:1007F000C008868380EB82830895CF93DF93C82F50
:10080000C370D82FDC70282F30E0A90145705070DC
:100810004115510549F09091353E482F42954F7052
:10082000907F942B9093353E2A70307021153105BE
:1008300039F09091353E807F9F70892B8093353EB3
:1008400084E00E94C4038091353E8093253ECC23F2
:1008500019F081E00E94AC03DD2319F081E00E94D1
:10086000B80381E00E94E7038FEFE0ECF8E08383B8
:1008700082818823ECF7E0ECF8E083818093313EBD
:100880000000A1E3BEE31C978C91838382818823BF
:10089000ECF7E0ECF8E083818093313E80E00E9449
:1008A000E703CC2319F080E00E94AC03DD2319F0AC
:1008B00080E00E94B8030E94F303DF91CF91089576
:1008C000CF93DF93C82FD62F80E00E94C40381E02E
:1008D0000E94E70381E00E945103DD2389F08091AB
:1008E000B021C095C823C093B02180E48093253EF9
:1008F00084E18093263E8091B0218093273E10C0F2
:100900008091363EC095C823C093363E80E48093E4
:10091000253E85E18093263E8091363E8093273E9A
:1009200080E090E025E23EE3A0ECB8E0C1E3DEE346
:10093000F901E80FF91F408113964C931397129613
:100940004C9112974423DCF713964C9113974883EC
:1009500001968330910561F780E00E94E70380E013
:100960000E9451030E94F303DF91CF910895CF932A
:10097000DF93C82FD62F80E00E94C40381E00E943D
:10098000E70381E00E945103DD2381F08091B021D3
:10099000C82BC093B02180E48093253E84E18093EE
:1009A000263E8091B0218093273E0FC08091363E35
:1009B000C82BC093363E80E48093253E85E180932A
:1009C000263E8091363E8093273E80E090E025E2EF
:1009D0003EE3A0ECB8E0C1E3DEE3F901E80FF91F64
:1009E000408113964C93139712964C91129744237F
:1009F000DCF713964C911397488301968330910549
:100A000061F780E00E94E70380E00E9451030E94AA
:100A1000F303DF91CF910895CF93DF93C82FD62FA3
:100A200080E00E94C40381E00E94E70381E00E940D
:100A30005103DD2389F08091343E8095C823C09313
:100A4000343E80E48093253E1092263E8091343ED1
:100A500080958093273E11C080914B3E8095C8239E
:100A6000C0934B3E80E48093253E81E08093263EF8
:100A700080914B3E80958093273E80E090E025E278
:100A80003EE3A0ECB8E0C1E3DEE3F901E80FF91FB3
:100A9000408113964C93139712964C9112974423CE
:100AA000DCF713964C911397488301968330910598
:100AB00061F780E00E94E70380E00E9451030E94FA
:100AC000F303DF91CF910895CF93DF93C82FD62FF3
:100AD00080E00E94C40381E00E94E70381E00E945D
:100AE0005103DD2381F08091343EC82BC093343E06
:100AF00080E48093253E1092263E8091343E80957E
:100B00008093273E10C080914B3EC82BC0934B3E34
:100B100080E48093253E81E08093263E80914B3E89
:100B200080958093273E80E090E025E23EE3A0ECB4
:100B3000B8E0C1E3DEE3F901E80FF91F4081139645
:100B40004C93139712964C9112974423DCF713960B
:100B50004C911397488301968330910561F780E0AB
:100B60000E94510380E00E94E7030E94F303DF919B
:100B7000CF9108950F931F93CF93DF93882309F4A8
:100B80004EC08091373E882309F081C000E016E016
:100B90008EEDD80111968C93C0E2D6E04EE04983E9
:100BA000E0E4F6E063E0618380E896E050E1DC0198
:100BB00011965C9320EA36E0D90111964C937EE9B8
:100BC000D80115967C9378E07D836583EC015D8385
:100BD000D90115964C931092353E8FEF93ECA9E016
:100BE00081509040A040E1F700C0000080E4828383
:100BF0001092363E10924B3E1092B0211092343E2D
:100C00008FEF61E00E9464058FEF61E00E94B704FE
:100C10008FEF0E94FD0381E08093373E38C08091C2
:100C2000373E8823A1F100E016E07EEDD80116964C
:100C30007C93A0E2B6E04EE016964C93169720E423
:100C400036E063E0E9016E83C0E8D6E050E15E8300
:100C500080EA96E0FC014683F801728312964C9379
:100C6000D90112966C9312975A83EC014A8380E45F
:100C700012968C9312971092363E10924B3E109221
:100C8000B0211092343E1092353E1092373EDF91E3
:100C9000CF911F910F9108952F923F924F925F92A3
:100CA0006F927F928F929F92AF92BF92CF92DF927C
:100CB000EF92FF920F931F93CF93DF93CDB7DEB7E1
:100CC0006497CDBFDEBF2A013B018901F901108283
:100CD000411551056105710509F44DC0882E992E05
:100CE000CC24DD2476015E010894A11CB11C0F2EDA
:100CF000F0E02F2EF0E23F2EF02DF4018191919142
:100D0000A191B1914F012DB73EB7285030402DBF72
:100D10003EBF2F5F3F4FEDB7FEB7A182B282F90110
:100D20002282338284839583A683B7830E94673AA5
:100D30002DB73EB7285F3F4F2DBF3EBFC801B5015D
:100D40000E94293AA02FB12FFD0101900020E9F760
:100D50003197EA1BFB0BE00FF11F8AE090E08083E4
:100D600091830894C11CD11CE11CF11CC414D5044E
:100D7000E604F70411F66496CDBFDEBFDF91CF9194
:100D80001F910F91FF90EF90DF90CF90BF90AF90A9
:100D90009F908F907F906F905F904F903F902F909B
:100DA0000895E0ECF8E0838382818823ECF7E0EC9F
:100DB000F8E083810895CF93DF93CDB7DEB76D97C9
:100DC000CDBFDEBF19821A821C821D821E821F8245
:100DD00010924C3E11E01093AB500E943C030E94D5
:100DE000311A81E00E94B41D83E090E00E946A1CE9
:100DF00080E00E94311C0E94521A3C01E0E0FAE0BF
:100E000080EA9FE086A397A388E081871683E0EAC3
:100E1000F0E082818160828378940F2EF0ED2F2E96
:100E2000F7E03F2EF02D442481EB91E2182F592E4C
:100E3000D30117968C9117978823D1F3CE0108968A
:100E40000E94031BF30182819381009789F78885B3
:100E5000823571F0833530F4863409F4A7C08734C5
:100E600039F754C0833509F4B7C0843509F7D0C0C9
:100E70008091AB508823B1F18DB79EB707978DBF96
:100E80009EBFEDB7FEB7319680E197E2ADB7BEB732
:100E900011968D939C931297A1EBB1E2A283B38339
:100EA0008CE197E08483958381E0868387E0642DDD
:100EB000A10126E000E0EE24FF24E394CC24DD240D
:100EC0006894C1F80F2EF3E0AF2EBB24F02D8824D8
:100ED0009924689482F80E940717ADB7BEB7179699
:100EE000ADBFBEBFF30184819581FFEF8F3F9F07A8
:100EF00009F49ECF80E090E0BE016F5F7F4F22E05B
:100F000030E040E050E00E94551A92CF89858B83F3
:100F10008B818830E1F0893038F4823089F0843078
:100F200091F0813069F52BC08032D1F0813218F414
:100F3000803131F511C08034C1F0803809F51AC014
:100F4000442443941DC04424689441F819C00F2ED2
:100F5000F3E04F2EF02D14C04424689442F810C0E2
:100F60000F2EF5E04F2EF02D0BC00F2EF6E04F2E7A
:100F7000F02D06C00F2EF7E04F2EF02D01C04424B7
:100F8000D30114968D919C911597BFEF8F3F9B07CE
:100F900009F44ECF80E090E0BE016F5F7F4F22E00A
:100FA00030E040E050E00E94551A42CF29843A8454
:100FB000F30184819581FFEF8F3F9F0709F438CFBC
:100FC00080E090E0BE016F5F7F4F22E030E040E0C4
:100FD00050E00E94551A2CCF8091AB50882311F419
:100FE0000E94E10CD30114968D919C911597BFEF4F
:100FF0008F3F9B0709F41CCF80E090E0BE016F5F3C
:101000007F4F22E030E040E050E00E94551A10CFC0
:101010008091AB50882309F40BCF80914C3E8823FC
:1010200009F406CFF30184819581FFEF8F3F9F077D
:1010300009F4FECE0E94020DA0E0B0E08C839D83F7
:10104000AE83BF838C819D81AE81BF810097A10556
:10105000B10509F421C18C819D81AE81BF81BC01A4
:10106000CD01660F771F881F991F660F771F881F96
:10107000991F0F2EF4E6CF2EF0E0DF2EF0E0EF2EDA
:10108000F0E0FF2EF02DA70196010E948E39590144
:101090002C8F3D8F8C819D81AE81BF81BC01CD01A4
:1010A000660F771F881F991F660F771F881F991F6C
:1010B000A70196010E948E39DC01CB010097A105A2
:1010C000B10521F0C50101968C8F9D8F87E0A0E0CE
:1010D000BAE08C9310920E2104C080910E218823D7
:1010E00069F480E090E0BE01645E7F4F22E030E072
:1010F00040E050E00E94551A882379F780910E2134
:10110000882331F010920E21E0E0FAE0108290CEB8
:1011100010920E21F8E0F093090A8C819D81AE8136
:10112000BF81880F991FAA1FBB1F880F991FAA1F75
:10113000BB1F0097A105B10509F4AEC0CC24DD2486
:101140007601AA24BB248C819D81AE81BF81880F4A
:10115000991FAA1FBB1F880F991FAA1FBB1F8C199D
:101160009D09AE09BF0984369105A105B10528F195
:101170006091223E7091233E8C819D81AE81BF8122
:10118000880F991F880F991F681B790B6A0D7B1DAB
:1011900084E690E00E94CD0180E090E0612F752D03
:1011A00024E630E040E050E00E94551A8823A1F781
:1011B00084E690E0A80EB91E43C08C819D81AE816B
:1011C000BF81E091223EF091233E4C815D816E8192
:1011D0007F819C01220F331F220F331FCA01880F0A
:1011E000991F880F991FBF01681B790B6A0D7B1D22
:1011F000C9018A199B090E94CD018C819D81AE8114
:10120000BF81880F991FAA1FBB1F880F991FAA1F94
:10121000BB1F9C01AD012C193D094E095F0980E0FF
:1012200090E0612F752D0E94551A882331F78C812B
:101230009D81AE81BF815C01AA0CBB1CAA0CBB1CAA
:1012400010920E2198E09093090AF30104C0809156
:101250000E21882319F487818823C9F33F018091E7
:101260000E218823C9F4CE0108960E94031B650154
:10127000EE24FF248C819D81AE81BF81880F991F50
:10128000AA1FBB1F880F991FAA1FBB1FC816D9060C
:10129000EA06FB0608F457CF80910E21882331F02F
:1012A00010920E21A0E0BAE01C92C2CD10924C3EEA
:1012B000BFCD1F920F920FB60F9211248F9381E032
:1012C00080930E218F910F900FBE0F901F90189555
:1012D0000F931F93CF938C01C1E0C0934A3E83E0EC
:1012E0008093243E0E94311A80914A3E90E00E94F1
:1012F0006A1C88ECE0E8F1E08183E0E4F9E089E051
:10130000808382E0868324EF31E0029FC001039F47
:10131000900D129F900D112486A397A3E0E4F8E0AE
:1013200080E09AEF86A397A3C683C083E0EAF0E04B
:101330008281876082837894CF911F910F91089565
:1013400078941F920F920FB60F920BB60F92112442
:10135000EF92FF920F931F932F933F934F935F93BF
:101360006F937F938F939F93AF93BF93EF93FF936D
:10137000CF93DF93CDB7DEB72897CDBFDEBF1092F6
:1013800040081092400982E08093243EDE011196CD
:10139000E4E0F0E286E001900D928150E1F70EEA80
:1013A00010E580914A3E90E0B8014AE050E00E948A
:1013B000343A7E010894E11CF11CC701B8010E9477
:1013C000293A0E94240DF70101900020E9F7319796
:1013D000EE19FF099F0140E050E080E090E0B70186
:1013E0000E94551A2896CDBFDEBFDF91CF91FF91A5
:1013F000EF91BF91AF919F918F917F916F915F918D
:101400004F913F912F911F910F91FF90EF900F906F
:101410000BBE0F900FBE0F901F9018954F925F92CA
:101420006F927F928F929F92AF92BF92EF92FF92B4
:101430000F931F93CF93DF93CDB7DEB72B97CDBF1D
:10144000DEBF8E839F83688779874A875B8781E0C9
:101450000E94BA0580E092E00E94141A00E012E0B7
:10146000D80111968C911197897E11968C931197C2
:1014700014968C911497887F836014968C9314979C
:1014800012968C9112978F7C12968C9312970F2E36
:10149000F0E2EF2EF2E0FF2EF02DF7018081807E4A
:1014A0008160808389E081838C9181608C9380E06E
:1014B00092E00E94991980E092E060E272E040E0E0
:1014C0000E94A3198983D8018C918E7F8C93F70198
:1014D000118213968C9113978F7313968C93139795
:1014E0008C9181608C9380E092E00E949919D801E0
:1014F00011968C911197886011968C93EE24FF249D
:101500006894F2F844245524320120E030E140E0B0
:1015100050E02A833B834C835D83882499245401C3
:1015200000E212E0D80113968C91139780FFFACF56
:101530006981C8010E947519A0E0B0E0880E991E6B
:10154000AA1EBB1E481659066A067B0610F42C011B
:101550003D012A813B814C815D8182179307A4075D
:10156000B50720F48A839B83AC83BD830894E1088C
:10157000F108E114F104B1F6E0E0F2E08181877F47
:10158000818380818260808380818E7F808380E000
:101590000E94BA05C501B401052E5AE096958795BB
:1015A000779567955A95D1F7502D28EE33E040E0B6
:1015B00050E00E945C390F2EFFEF8F2EFFE09F2E30
:1015C000F0E0AF2EF0E0BF2EF02DA50194010E94B7
:1015D0008E39C901C297AE81BF818D939C93C3019F
:1015E000B20128EE33E040E050E00E945C39A501F2
:1015F00094010E948E39C901C297EA85FB858083D8
:1016000091836A817B818C819D8128EE33E040E06B
:1016100050E00E945C39A50194010E948E3922534A
:101620003040A885B9852D933C9311972B96CDBF5B
:10163000DEBFDF91CF911F910F91FF90EF90BF9090
:10164000AF909F908F907F906F905F904F90089594
:101650004F925F926F927F928F929F92AF92BF92C2
:10166000EF92FF920F931F93CF93DF93CDB7DEB727
:101670002B97CDBFDEBF8E839F83688779874A878C
:101680005B8781E00E94BA0584E060E00E94640507
:1016900084E060E00E94B7042FEF33EC49E0215072
:1016A00030404040E1F700C0000080E492E00E943A
:1016B000141A00E412E0D80111968C911197897EDA
:1016C00011968C93119714968C911497887F836050
:1016D00014968C93149712968C9112978F7C129675
:1016E0008C9312970F2EF0E6EF2EF2E0FF2EF02DE6
:1016F000F7018081807E8160808389E081838C9185
:1017000081608C9380E492E00E94991980E492E0D9
:1017100060E672E040E00E94A3198983D8018C91B1
:101720008E7F8C93F701118213968C9113978F7390
:1017300013968C9313978C9181608C9380E492E044
:101740000E949919D80111968C9111978860119671
:101750008C93EE24FF246894F2F84424552432013B
:1017600020E030E140E050E02A833B834C835D83FE
:1017700088249924540100E612E0D80113968C9134
:10178000139780FFFACF6981C8010E947519A0E004
:10179000B0E0880E991EAA1EBB1E481659066A069E
:1017A0007B0610F42C013D012A813B814C815D8137
:1017B00082179307A407B50720F48A839B83AC8321
:1017C000BD830894E108F108E114F104B1F6E0E406
:1017D000F2E08181877F818380818E7F808384E0B6
:1017E00060E00E940C0580E00E94BA05C501B401CA
:1017F000052E5AE096958795779567955A95D1F776
:10180000502D28EE33E040E050E00E945C390F2E6E
:10181000FFEF8F2EFFE09F2EF0E0AF2EF0E0BF2E07
:10182000F02DA50194010E948E39C901C297AE81A5
:10183000BF818D939C93C301B20128EE33E040E059
:1018400050E00E945C39A50194010E948E39C901C3
:10185000C297EA85FB85808391836A817B818C8135
:101860009D8128EE33E040E050E00E945C39A50104
:1018700094010E948E3922533040A885B9852D935A
:101880003C9311972B96CDBFDEBFDF91CF911F9177
:101890000F91FF90EF90BF90AF909F908F907F90AF
:1018A0006F905F904F900895CF93C62F21E030E066
:1018B000A90102C0440F551F8A95E2F7CA0161E0F1
:1018C0000E946004C0FF05C080E4E0E0F6E085838C
:1018D00004C080E4E0E0F6E08683C1FF05C082E05A
:1018E000E0E2F6E0858304C082E0E0E2F6E0868391
:1018F000C2FF05C084E0E0E2F6E0858304C084E036
:10190000E0E2F6E086835AE05A95F1F700C08FEFE7
:1019100061E00E94B704CF910895882331F0E0E0A0
:10192000F6E080E2818385830895E0E0F6E080E2DE
:101930008683828308951F920F920FB60F920BB683
:101940000F9211242F933F934F935F936F937F9345
:101950008F939F93AF93BF93EF93FF93E0E4FAE0ED
:101960008081807F8083A0E0B8E08C91807F8C9321
:10197000A0E0B9E08C91807F8C938081807F809300
:10198000400880E00E94E7030E94F30380E00E9489
:101990008D0C81E08093AB5080934C3EFF91EF9192
:1019A000BF91AF919F918F917F916F915F914F9177
:1019B0003F912F910F900BBE0F900FBE0F901F9075
:1019C0001895E0E4FAE08081807F8083A0E0B8E0B1
:1019D0008C91807F8C93A0E0B9E08C91807F8C9378
:1019E0008081807F8093400880E00E94E7030E940E
:1019F000F30380E00E948D0C81E08093AB508093D4
:101A00004C3E0895CF93DF930F920F92CDB7DEB780
:101A10008091AB50882389F0E0E4F8E080A191A1A7
:101A200089839A8389819A81009721F486A197A15D
:101A300089839A8389819A8102C080E090E00F9027
:101A40000F90DF91CF910895E0EAF6E013860895B4
:101A500081E0E0EAF6E0838708951F920F920FB6C7
:101A60000F920BB60F9211246F927F928F929F92DA
:101A7000AF92BF92CF92DF92EF92FF920F931F939C
:101A80002F933F934F935F936F937F938F939F9386
:101A9000AF93BF93EF93FF93CF93DF93CDB7DEB7B1
:101AA0002C97CDBFDEBF8091614088238CF0809160
:101AB00061408F5F8093614080916140803809F080
:101AC000E9C0E0E4F8E08081807F89608083E2C043
:101AD00081E00E94E70382E0E0EAF6E0868380E0AE
:101AE00090E0E0ECF8E05AEA25E23EE353834281DD
:101AF0004423ECF74381D901A80FB91F4C930196F9
:101B00008330910599F782E0E0EAF6E0858380E092
:101B10000E94E7038091253E88231CF48FEF8C837D
:101B200001C01C828091253E8B838091263E8A8352
:101B30008091273E898389819A81AB81BC81AC01E8
:101B4000BD01770F440B542FBA018D839E83AF8361
:101B5000B88749874A874B874C8760916A50709154
:101B60006B5080916C5090916D508D801E810F81D3
:101B7000F884E984DA84CB84BC842091AC50309121
:101B8000AD5040E050E00E948E39660F771F660F1F
:101B9000771F80916850909169503C01660E771EC6
:101BA000282D312F402F5F2D6E2D7D2D8C2D9B2DBF
:101BB0000F2EF0EAAF2EF02D0F2EF5E2BF2EF02DF6
:101BC0000F2EF6E2CF2EF02DDD24EE24FF2400E0D0
:101BD00010E00E94422EAA24AA94BB24BA940F2E8D
:101BE000FFE7CF2EF02D0E94F12F01E00E94152F6C
:101BF0000F2EF3E0AF2EF02DBB24CC2400E00E948A
:101C0000F12F822E932EA42EB52EB094A0949094F2
:101C10008094811C911CA11CB11CF30180829182D3
:101C2000A282B38280914D40882309F160916A506D
:101C300070916B5080916C5090916D502091AC5090
:101C40003091AD5040E050E00E948E39DC01CB0174
:101C50009C01220F331F220F331F809168509091F7
:101C60006950820F931F64E070E00E9439018091F7
:101C70006A5090916B50A0916C50B0916D5001964C
:101C8000A11DB11D80936A5090936B50A0936C502E
:101C9000B0936D502C96CDBFDEBFDF91CF91FF91F9
:101CA000EF91BF91AF919F918F917F916F915F91D4
:101CB0004F913F912F911F910F91FF90EF90DF90E7
:101CC000CF90BF90AF909F908F907F906F900F902C
:101CD0000BBE0F900FBE0F901F901895882349F0F0
:101CE00080E260E00E94640580E260E00E94B70448
:101CF000089580E260E00E940C0508951F920F9203
:101D00000FB60F920BB60F9211246F927F928F92A3
:101D10009F92AF92BF92CF92DF92EF92FF920F937A
:101D20001F932F933F934F935F936F937F938F9363
:101D30009F93AF93BF93EF93FF93CF93DF93CDB771
:101D4000DEB72C97CDBFDEBF19821A821B821C82A0
:101D50001D821E821F82188680E090E025E23EE30D
:101D600088248A94AC01F901E80FF91F6081662389
:101D700014F48C8601C01C86420F531FFA01408167
:101D80004B87FC013196E20FF31F40814A87FC012B
:101D90003296E20FF31F4081498749855A856B854A
:101DA0007C85A980BA80CB80DC80ED80FE800F81AD
:101DB0001885B42FA52FF62FE72F770F440B542F3C
:101DC000BA01642E742E942EAB0E61E0AB1608F0AF
:101DD00060E0BA0E51E0BA1608F050E0A62FAB0D45
:101DE00061E0AB1508F060E0562BCF0E61E0CF1636
:101DF00008F060E0F52FFC0D51E0FC1508F050E014
:101E0000652BDE0E51E0DE1608F050E0E62FED0DFA
:101E100061E0ED1508F060E0562BE60C71E0E61489
:101E200008F070E0B52FBE0D51E0BE1508F050E08F
:101E3000752BF70C61E0F71408F060E07F0D51E0BE
:101E40007F1508F050E0652B090D51E0091508F0E9
:101E500050E0600FFF24F394601708F0FF245F291F
:101E6000410F540FA982AA83FB83EC83BD837E8339
:101E70006F83588703968C30910509F073CFE98002
:101E8000FA800B811C81BD81AE81FF81E8852E2DFA
:101E90003F2D402F512F6B2F7A2F8F2F9E2FEE2308
:101EA0000CF04AC093E0E90E91E0E21608F090E0F1
:101EB00021E0F31608F020E0392F3F0D91E03F15A7
:101EC00008F090E0292B91E0041708F090E0422FF1
:101ED000400F21E0401708F020E0922B21E0151779
:101EE00008F020E0592F510F91E0511708F090E0D1
:101EF000292B91E0B61708F090E0622F6B0F21E0DC
:101F00006B1708F020E0922B21E0A71708F020E0E3
:101F1000792F7A0F91E07A1708F090E0292B91E061
:101F2000F81708F090E0822F8F0F21E08F1708F04C
:101F300020E0922B2E2D9E0F02E00E94892F2983F4
:101F40003A834B835C836D837E838F839887609114
:101F50006A5070916B5080916C5090916D501981C6
:101F60000A81FB80EC80DD80CE80BF80A884209138
:101F7000AC503091AD5040E050E00E948E39DC0111
:101F8000CB01880F991F880F991F809068509090FF
:101F90006950880E991E212F302F4F2D5E2D6D2DEB
:101FA0007C2D8B2D9A2D0F2EF0EAAF2EF02D0F2EBB
:101FB000F5E2BF2EF02D0F2EF6E2CF2EF02DDD2410
:101FC000EE24FF2400E010E00E94422EAA24AA94EE
:101FD000BB24BA940F2EFFE7CF2EF02D0E94F12FD5
:101FE00001E00E94152F0F2EF3E0AF2EF02DBB2441
:101FF000CC2400E00E94F12FF4012083318342833E
:10200000538380914D40882309F160916A5070910B
:102010006B5080916C5090916D502091AC503091EC
:10202000AD5040E050E00E948E39DC01CB019C01B4
:10203000220F331F220F331F8091685090916950F7
:10204000820F931F64E070E00E94390180916A5012
:1020500090916B50A0916C50B0916D500196A11D64
:10206000B11D80936A5090936B50A0936C50B093C5
:102070006D502C96CDBFDEBFDF91CF91FF91EF91D8
:10208000BF91AF919F918F917F916F915F914F9190
:102090003F912F911F910F91FF90EF90DF90CF9084
:1020A000BF90AF909F908F907F906F900F900BBEDE
:1020B0000F900FBE0F901F9018951F920F920FB6A2
:1020C0000F920BB60F9211246F927F928F929F9274
:1020D000AF92BF92CF92DF92EF92FF920F931F9336
:1020E0002F933F934F935F936F937F938F939F9320
:1020F000AF93BF93EF93FF93CF93DF93CDB7DEB74B
:102100002C97CDBFDEBF19821A821B821C821D82D2
:102110001E821F82188680E090E025E23EE388243C
:102120008A94AC01F901E80FF91F6081662314F469
:102130008C8601C01C86420F531FFA0140814B87D9
:10214000FC013196E20FF31F40814A87FC01329671
:10215000E20FF31F4081498749855A856B857C854D
:10216000A980BA80CB80DC80ED80FE800F8118854D
:10217000B42FA52FF62FE72F770F440B542FBA015A
:10218000642E742E942EAB0E61E0AB1608F060E066
:10219000BA0E51E0BA1608F050E0A62FAB0D61E080
:1021A000AB1508F060E0562BCF0E61E0CF1608F0BB
:1021B00060E0F52FFC0D51E0FC1508F050E0652BB8
:1021C000DE0E51E0DE1608F050E0E62FED0D61E086
:1021D000ED1508F060E0562BE60C71E0E61408F00F
:1021E00070E0B52FBE0D51E0BE1508F050E0752B24
:1021F000F70C61E0F71408F060E07F0D51E07F1507
:1022000008F050E0652B090D51E0091508F050E089
:10221000600FFF24F394601708F0FF245F29410F3B
:10222000540FA982AA83FB83EC83BD837E836F83D3
:10223000588703968C30910509F073CFE980FA80B6
:102240000B811C81BD81AE81FF81E8852E2D3F2D44
:10225000402F512F6B2F7A2F8F2F9E2FEE230CF0B4
:102260004AC093E0E90E91E0E21608F090E021E028
:10227000F31608F020E0392F3F0D91E03F1508F0EC
:1022800090E0292B91E0041708F090E0422F400FD6
:1022900021E0401708F020E0922B21E0151708F00C
:1022A00020E0592F510F91E0511708F090E0292BB1
:1022B00091E0B61708F090E0622F6B0F21E06B17EA
:1022C00008F020E0922B21E0A71708F020E0792FFA
:1022D0007A0F91E07A1708F090E0292B91E0F81737
:1022E00008F090E0822F8F0F21E08F1708F020E098
:1022F000922B2E2D9E0F02E00E94892F29833A8374
:102300004B835C836D837E838F83988760916A5053
:1023100070916B5080916C5090916D5019810A8131
:10232000FB80EC80DD80CE80BF80A8842091AC5003
:102330003091AD5040E050E00E948E39DC01CB017D
:10234000880F991F880F991F80906850909069504E
:10235000880E991E212F302F4F2D5E2D6D2D7C2D37
:102360008B2D9A2D0F2EF0EAAF2EF02D0F2EF5E2C9
:10237000BF2EF02D0F2EF6E2CF2EF02DDD24EE2411
:10238000FF2400E010E00E94422EAA24AA94BB245D
:10239000BA940F2EFFE7CF2EF02D0E94F12F01E00F
:1023A0000E94152F0F2EF3E0AF2EF02DBB24CC246E
:1023B00000E00E94F12FF401208331834283538394
:1023C00080914D40882309F160916A5070916B5063
:1023D00080916C5090916D502091AC503091AD50E7
:1023E00040E050E00E948E39DC01CB019C01220FBD
:1023F000331F220F331F8091685090916950820FD4
:10240000931F64E070E00E94390180916A509091BE
:102410006B50A0916C50B0916D500196A11DB11DF3
:1024200080936A5090936B50A0936C50B0936D5012
:102430002C96CDBFDEBFDF91CF91FF91EF91BF9181
:10244000AF919F918F917F916F915F914F913F914C
:102450002F911F910F91FF90EF90DF90CF90BF9041
:10246000AF909F908F907F906F900F900BBE0F90CA
:102470000FBE0F901F90189581E00E94E70382E045
:10248000E0EAF6E086838AEAE0ECF8E08383828182
:102490008823ECF79091A550E0ECF8E08381A5E269
:1024A000BEE3A90FB11D8C938AEA838382818823BE
:1024B000ECF7A091A550B0E0E0ECF8E08381AA5DD4
:1024C000B14C8C938AEA838382818823ECF7E09174
:1024D000A550F0E0A0ECB8E013968C91E95DF14CCA
:1024E000808382E0E0EAF6E085838091A5508D5FED
:1024F0008093A55080E00E94E70308951F920F92F9
:102500000FB60F920BB60F9211242F933F934F9358
:102510005F936F937F938F939F93AF93BF93EF934B
:10252000FF930E943C121092A550FF91EF91BF9132
:10253000AF919F918F917F916F915F914F913F915B
:102540002F910F900BBE0F900FBE0F901F901895FC
:102550001F920F920FB60F920BB60F9211242F936A
:102560003F934F935F936F937F938F939F93AF931B
:10257000BF93EF93FF930E943C12FF91EF91BF91A5
:10258000AF919F918F917F916F915F914F913F910B
:102590002F910F900BBE0F900FBE0F901F901895AC
:1025A0001F920F920FB60F920BB60F9211242F931A
:1025B0003F934F935F936F937F938F939F93AF93CB
:1025C000BF93EF93FF930E943C12FF91EF91BF9155
:1025D000AF919F918F917F916F915F914F913F91BB
:1025E0002F910F900BBE0F900FBE0F901F9018955C
:1025F0001F920F920FB60F920BB60F9211242F93CA
:102600003F934F935F936F937F938F939F93AF937A
:10261000BF93EF93FF930E943C12FF91EF91BF9104
:10262000AF919F918F917F916F915F914F913F916A
:102630002F910F900BBE0F900FBE0F901F9018950B
:102640001F920F920FB60F920BB60F9211242F9379
:102650003F934F935F936F937F938F939F93AF932A
:10266000BF93EF93FF930E943C121092A550E0E2BB
:10267000F6E0848181FF0FC0E0E0F6E0848186FF10
:1026800005C082E0E0E2F6E087830DC080E4E0E090
:10269000F6E0878308C080E4E0E0F6E0868382E02D
:1026A000E0E2F6E08583FF91EF91BF91AF919F91BA
:1026B0008F917F916F915F914F913F912F910F90EB
:1026C0000BBE0F900FBE0F901F9018951F920F9288
:1026D0000FB60F920BB60F9211242F933F934F9387
:1026E0005F936F937F938F939F93AF93BF93EF937A
:1026F000FF930E943C12FF91EF91BF91AF919F9188
:102700008F917F916F915F914F913F912F910F909A
:102710000BBE0F900FBE0F901F9018951F920F9237
:102720000FB60F920BB60F9211242F933F934F9336
:102730005F936F937F938F939F93AF93BF93EF9329
:10274000FF930E943C12FF91EF91BF91AF919F9137
:102750008F917F916F915F914F913F912F910F904A
:102760000BBE0F900FBE0F901F9018951F920F92E7
:102770000FB60F920BB60F9211242F933F934F93E6
:102780005F936F937F938F939F93AF93BF93EF93D9
:10279000FF930E943C12FF91EF91BF91AF919F91E7
:1027A0008F917F916F915F914F913F912F910F90FA
:1027B0000BBE0F900FBE0F901F901895FF920F93B6
:1027C0001F93CF93DF93CDB7DEB72897CDBFDEBF82
:1027D00019821A821B821C8280916A5090916B50E0
:1027E000A0916C50B0916D500196A11DB11D8093C8
:1027F0006A5090936B50A0936C50B0936D5080EDE5
:102800008093C00820E030E005E21EE3FF24FA9444
:10281000C901F801E20FF31F4081442314F4F88644
:1028200001C01886800F911FFC0180818F83F90100
:102830003196E00FF11F80818E83F9013296E00F0F
:10284000F11F80818D8349815A816B817C818D81CB
:102850009E81AF81B885840F951FA61FB71F8983FE
:102860009A83AB83BC832D5F3F4F2C30310581F6BB
:1028700069817A818B819C8124E030E040E050E0E6
:102880000E94B03929833A834B835C83298187E294
:102890009EE32093273E2A81FC01319720832B81E0
:1028A0000297FC01208380E1E0E4F6E0868388E083
:1028B000E0E2F6E08683000086E0E0ECF8E0838367
:1028C00082818823ECF7E0ECF8E083818093313E4D
:1028D000A0E2B6E088E015968C9315970000169656
:1028E0008C931697000082E0838382818823ECF723
:1028F000E0ECF8E083818093313E8091233E838336
:1029000082818823ECF7E0ECF8E083818093313E0C
:102910008091223E838382818823ECF7E0ECF8E00B
:1029200083818093313E8091253E838382818823F9
:10293000ECF7E0ECF8E083818093313E8091263E15
:10294000838382818823ECF7E0ECF8E08381809335
:10295000313E8091273E838382818823ECF7A0EC6F
:10296000B8E013968C9113978093313E88E0E0E2B3
:10297000F6E08583E0E4F6E080E1858394E59C93CE
:1029800086838091223E9091233E03968093223E3F
:102990009093233E80911221E5E2FEE39081890F1E
:1029A00080931221809113219181890F80931321AB
:1029B000809114219281890F809314212896CDBF94
:1029C000DEBFDF91CF911F910F91FF9008952F925D
:1029D0003F924F925F926F927F928F929F92AF92AF
:1029E000BF92CF92DF92EF92FF920F931F93CF93FC
:1029F000DF931092223E1092233E10926A50109262
:102A00006B5010926C5010926D5084E191E21092D4
:102A10001421FC01319710820297DC011C9281E0A5
:102A20000E94BA0584E00E94C40380ED8093C00830
:102A30008DE08093253E83EF8093263E87E580934B
:102A4000273E80916A5090916B50A0916C50B0914C
:102A50006D508335E5E59E07E0E0AE07E0E0BE0798
:102A600008F0CCC00F2EF0E4EF2EF6E0FF2EF02D94
:102A700040E256E028E0E0ECF8E00F2EF6E07F2E92
:102A8000F02DC1E3DEE36624689461F80F2EF2E2D4
:102A9000CF2EFEE3DF2EF02D8E010C5010400F2EB6
:102AA000F5EF4F2EFFEF5F2EF02D4C0E5D1E0F2E1B
:102AB000F6EF2F2EFFEF3F2EF02D2C0E3D1E62E184
:102AC00071E25B010894A11CB11C882499246894CC
:102AD00081F8860E971E30E1D70116963C93DA01F5
:102AE00016962C9316970000738282818823ECF748
:102AF00083818883DA0115962C931597000016962A
:102B00002C9316970000638282818823ECF78381DF
:102B10008883D60111968C911197838382818823B3
:102B2000ECF783818883D6018C918383828188230B
:102B3000ECF783818883D8018C91838382818823F9
:102B4000ECF783818883D2018C91838382818823EF
:102B5000ECF783818883D1018C91838382818823E0
:102B6000ECF783818883DA0115962C9330E1D70145
:102B700015963C938091223E9091233E039680933C
:102B8000223E9093233EDB018C91D8019C91890FCA
:102B9000DB018C93D5018C91A6E2BEE39C91890F59
:102BA000D5018C93D4018C91A7E2BEE39C91890F4F
:102BB000D4018C9380916A5090916B50A0916C508D
:102BC000B0916D500196A11DB11D80936A509093F4
:102BD0006B50A0936C50B0936D5080916A5090915F
:102BE0006B50A0916C50B0916D50833535E59307D3
:102BF00030E0A30730E0B30708F46DCF0E94F30381
:102C000080E00E94BA05DF91CF911F910F91FF9054
:102C1000EF90DF90CF90BF90AF909F908F907F907C
:102C20006F905F904F903F902F90089580FF05C068
:102C300020E4E0E0F6E0258304C020E4E0E0F6E0F4
:102C4000268381FF05C022E0E0E2F6E0258304C090
:102C500022E0E0E2F6E0268382FF05C084E0E0E2C5
:102C6000F6E08583089584E0E0E2F6E08683089547
:102C70002F923F924F925F927F928F929F92AF924C
:102C8000BF92CF92DF92EF92FF920F931F93CF9359
:102C9000DF93CDB7DEB7182F762EF42E1901898D6C
:102CA0009A8D80936850909369501092AB508B8DA1
:102CB0009C8D8093AC509093AD508D8D882321F0E6
:102CC00081E080934D4002C010924D4081E00E940F
:102CD000BA05812F6F2D0E94540C872D0E94FD0391
:102CE0008E2D0E946E0E84E00E94C40384E58093C2
:102CF000C00881E00E948D0C812F0E941616E0EA28
:102D0000F6E022E0208B7724739472820F2EF0E895
:102D10004F2EF1E05F2EF02D88E7D2018C93E0E09A
:102D2000F9E080EF8183C0A6D1A6A2A6B3A684A6AF
:102D300095A68D899E8986A797A7802F90E00197F9
:102D400086A397A326838FEF87838081807F886007
:102D5000808310926A5010926B5010926C501092B7
:102D60006D501092A55080E2E0E8F6E0818300E427
:102D70001AE083E2F80181836101EE24FF2460E818
:102D800074E88EE190E0A70196010E948E39D80187
:102D900096962D933C93979760E472E48FE090E0D1
:102DA000A70196010E948E39F80122AF33AFE0E40B
:102DB000F8E010828CE081878F89988D86A397A395
:102DC00080EDD20111968C93119776828081807F5D
:102DD00089608083F8018081807F81608083E0EA60
:102DE000F0E08281876082837894DF91CF911F9198
:102DF0000F91FF90EF90DF90CF90BF90AF909F909A
:102E00008F907F905F904F903F902F9008952F92DA
:102E10003F924F925F926F927F928F929F92AF926A
:102E2000BF92CF92DF92EF92FF920F93CF93DF93F7
:102E30000F920F92CDB7DEB7962F49835A83522F48
:102E4000702F3701260115012DB73EB729503040AC
:102E50002DBF3EBFEDB7FEB73196ADB7BEB71196E9
:102E60008D929C9212972F89388D22833383298DDE
:102E70003A8D248335832B8D3C8D268337832D8D8E
:102E8000208764EC492F29813A81052FE72E6301C1
:102E9000520141010E9438162DB73EB7275F3F4FC0
:102EA0002DBF3EBF0F900F90DF91CF910F91FF90FC
:102EB000EF90DF90CF90BF90AF909F908F907F90DA
:102EC0006F905F904F903F902F9008952F923F9278
:102ED0005F926F927F928F929F92AF92BF92CF92AA
:102EE000DF92EF92FF920F931F93CF93DF930F9296
:102EF0000F92CDB7DEB7182F3B0149835A83522E6C
:102F0000898D9A8D80936850909369501092AB5040
:102F10008B8D9C8D8093AC509093AD508D8D88237C
:102F200021F081E080934D4002C010924D4081E03D
:102F30000E94BA0585E0D3016C910E94540C86E092
:102F4000F30161810E94540C87E0D30112966C91C9
:102F50000E94540C812F0E94FD03802F0E946E0E50
:102F600084E00E94C40384E58093C00881E00E944D
:102F70008D0C85E00E941616E0EAF6E022E0208B38
:102F80006624639462820F2EF0E82F2EF1E03F2E2C
:102F9000F02D88E7F1018083E0E0F8E080EF8183A5
:102FA000E0A6F1A6C2A6D3A6A4A6B5A686A697A615
:102FB000852D90E0019786A397A326838FEF8783C3
:102FC0008081807F8860808310926A5010926B505D
:102FD00010926C5010926D501092A55084E191E2C5
:102FE00010921421FC01319710820297DC011C928F
:102FF00080E2E0E8F6E0818300E41AE083E2F80191
:10300000818389819A816C01EE24FF2460E874E851
:103010008EE190E0A70196010E948E39D801969624
:103020002D933C93979760E472E48FE090E0A701C2
:1030300096010E948E39F80122AF33AFE0E4F8E048
:1030400010828CE081878F89988D86A397A380EC6E
:10305000D10111968C93119766828081807F89605F
:103060008083F8018081807F81608083E0EAF0E0E6
:1030700082818760828378940F900F90DF91CF9147
:103080001F910F91FF90EF90DF90CF90BF90AF9086
:103090009F908F907F906F905F903F902F900895BA
:1030A0002F923F924F925F926F927F928F929F9258
:1030B000AF92BF92CF92DF92EF92FF920F931F9346
:1030C000CF93DF9300D00F92CDB7DEB7DC013B0189
:1030D000942F322F28011701C982DA82AB82BC8279
:1030E0004DB75EB7475050404DBF5EBF6DB77EB71E
:1030F0006F5F7F4FEDB7FEB7818292824A8D5B8D05
:10310000FB01428353834C8D5D8D448355838E8DAB
:10311000868384ECBD01A301292F032F7201610175
:10312000A980BA808B809C800E9466174DB75EB7DD
:10313000495F5F4F4DBF5EBF2496CDBFDEBFDF91BD
:10314000CF911F910F91FF90EF90DF90CF90BF90A4
:10315000AF909F908F907F906F905F904F903F9037
:103160002F9008956F927F928F929F92AF92BF920D
:10317000CF92DF92EF92FF920F931F93CF93DF9343
:10318000C82FB62ED42F49013801E0926850F09232
:1031900069501092AB50C092AC50D092AD50AA2062
:1031A00021F081E080934D4002C010924D4081E0BB
:1031B0000E94BA058C2F6D2F0E94540C8B2D0E94FB
:1031C000FD038C2F8550833018F481E00E946E0E31
:1031D00081E00E948D0C8C2F0E94161684E00E94C4
:1031E000C40384E58093C008E0EAF6E0EE24E394AB
:1031F000E28282E0808BE286818780E2E0E8F6E08E
:103200008183C0E4DAE083E28983940140E050E006
:1032100060E874E88EE190E00E948E3989019A019D
:10322000C8010EA31FA3969587958AAF9BAFE0E4D4
:10323000F8E010828CE0818766A277A288E7A0E898
:10324000B1E011968C931197E6828881807F81602E
:10325000888310926A5010926B5010926C501092AA
:103260006D5010926140E0EAF0E0828183608283D9
:103270007894DF91CF911F910F91FF90EF90DF90A5
:10328000CF90BF90AF909F908F907F906F90089558
:103290008F929F92AF92CF92DF92EF92FF920F9315
:1032A0001F93CF93DF93962FFA01D901E8014701CD
:1032B000AC2C61EC492F9F018D017E0164010E94BD
:1032C000B218DF91CF911F910F91FF90EF90DF9097
:1032D000CF90AF909F908F900895FC0181E0838301
:1032E00084819581861B91090895FC0181E0838387
:1032F00084819581772767FD7095861B970B0895CC
:10330000FC0181E08383848195810895FC0181E043
:10331000838384810895FC0181E0838385810895FE
:10332000FC01848114829AE29A95F1F700C08483AB
:103330000895FC01848191E0948395E59A95F1F7D5
:10334000000084830895EF92FF920F931F93CF9311
:10335000DF93EB014423C9F004E010E0EE24FF24E6
:103360008881806888838B8180FFFDCFCE0160E0FB
:103370000E946D19E80EF91E0150104089F7C7012F
:10338000969587959695879509C0888180688883EA
:103390008B8180FFFDCFCE010E948019DF91CF91FC
:1033A0001F910F91FF90EF900895EF92FF920F936E
:1033B0001F93CF93DF93EB014423E1F004E010E08F
:1033C000EE24FF248881806888838B8180FFFDCF75
:1033D000CE0160E00E947519E80EF91E0150104000
:1033E00089F7C70199230CF40396959587959595D0
:1033F00087950AC08881806888838B8180FFFDCF94
:10340000CE0160E00E947519DF91CF911F910F915D
:10341000FF90EF900895AAECB1E092E09C93E82F22
:10342000F0E084911C920895CF93DF93EC0182E049
:10343000C030D80759F480E20E940B1AC0E0D2E0F5
:103440008C8781E20E940B1A8D8708C084E20E945B
:103450000B1A8C8785E20E940B1A8D87DF91CF9122
:10346000089588E1E5E1F1E2DF011D928A95E9F72F
:103470000E94A81B80931521909316210E94061E7E
:103480000895E0E8F6E084E08183868392E0908B03
:10349000828783E08187E0EAF0E082818460828332
:1034A0007894089585E191E208952F923F924F928A
:1034B0005F926F927F928F929F92AF92BF92CF92C4
:1034C000DF92EF92FF920F931F93CF93DF93CDB7CD
:1034D000DEB72A97CDBFDEBF2C011B0169017A013F
:1034E000211531054105510509F476C08824992438
:1034F000540108E90F2EFBE16F2EF1E27F2EF02D33
:103500001C2D85E6C816D104E104F10408F014E688
:10351000812F855F89839FEF49169FEF590611F030
:1035200081E601C081E48A830B83F30180818C836F
:103530008F5F808384E392E18D839E834F825886E0
:10354000E5E1F1E28081918189879A87B101680D77
:10355000791DCE010196412F0E94441D882369F1F7
:10356000282F8330F9F0843018F48130B1F504C08D
:10357000853069F0803489F5209120213091212116
:103580002F5F3F4F209320213093212126C080912F
:10359000222190912321019680932221909323212F
:1035A000822F1BC020912421309125212F5F3F4F76
:1035B000209324213093252110C0412F50E060E05A
:1035C00070E0840E951EA61EB71EC41AD50AE60A20
:1035D000F70A09F095CF01C080E02A96CDBFDEBF83
:1035E000DF91CF911F910F91FF90EF90DF90CF90DF
:1035F000BF90AF909F908F907F906F905F904F9013
:103600003F902F900895DF92EF92FF920F931F93B8
:10361000CF93DF937C010E94861BD82E88230CF465
:103620004EC0F7018583882371F0E7012696870154
:10363000095F1F4F8150080F111D0E94861B89933F
:10364000C017D107D1F7F701C0858385948583839F
:1036500094838093192190931A218585968581837F
:10366000928380931721909318210E949D1B882399
:1036700011F410921C2180910A20C81751F4F7010F
:103680002181328180910B2090910C2028173907DD
:10369000C1F0C0930A20F7018181928180930B20B1
:1036A00090930C20B701615F7F4F4D2D50E0495042
:1036B0005040C7010E94173A8D2D8B5003C080E007
:1036C00001C080E0DF91CF911F910F91FF90EF90AB
:1036D000DF90089510922D2110922E2110922F210B
:1036E000089520912E2130E0F901E05DFE4D8083A8
:1036F000C901019660E870E00E947B3980932E2119
:1037000080912F218F5F80932F21089520912D216B
:1037100030E0F901E05DFE4D40812F5F3F4FC90170
:1037200060E870E00E947B3980932D2180912F21E9
:10373000815080932F21842F089580912F21089507
:10374000BC0180E090E048E050E00E94E01F089556
:10375000CF93DF930F920F92CDB7DEB789E090E061
:10376000BE016F5F7F4F42E050E00E94E01F898101
:103770009A810F900F90DF91CF910895882329F0BF
:1037800080E1E0E6F6E08683089580E1E0E6F6E099
:1037900085830895DF92EF92FF920F931F93CF934B
:1037A000DF938C01C62F7A01D22E822F90E0860FF4
:1037B000911D803891058CF58FB780935C40F8940B
:1037C00081E00E94BE1B80E60E942B20CC2379F072
:1037D000C8010196C1509C012C0F311DE901F8016F
:1037E00081918F010E942B200C171D07C1F7DD204E
:1037F00069F0E7012196DA94CD0DD11DF701819191
:103800007F010E942B20EC16FD06C1F780E00E948C
:10381000BE1B80915C408FBF7894DF91CF911F9148
:103820000F91FF90EF90DF900895CF93DF93D82F03
:10383000C62F8FB780935C40F89481E00E94BE1B36
:103840008D2F806C0E942B208C2F0E942B2080E0DB
:103850000E94BE1B80915C408FBF7894DF91CF9116
:103860000895682F85E00E94151C08950F931F93FB
:10387000CF93DF93082FC62FD72F10E06991812FA8
:10388000800F0E94151C1F5F1830C1F7DF91CF9188
:103890001F910F910895CF93DF93EC0180E090E0AA
:1038A000BE0148E050E00E947D1F84E2BE010E94FC
:1038B000361CDF91CF910895CF93DF93C82FD72F78
:1038C0000E94151C8C2F8F5F6D2F0E94151CDF919D
:1038D000CF9108950F931F93CF93DF930F920F9281
:1038E000CDB7DEB789839A830E94521A8C0189E092
:1038F00090E0BE016F5F7F4F42E050E00E947D1F6D
:1039000069817A8180E20E945C1C89819A81F80138
:10391000808391830F900F90DF91CF911F910F9132
:103920000895CF93C82F8FB780935C40F89481E0BF
:103930000E94BE1B8C2F80680E942B200E942B208F
:10394000C82F80E00E94BE1B80915C408FBF78949E
:103950008C2FCF91089581E00E94911C8F71089562
:103960001F93CF93DF93C82F162FD42F0E94911C43
:103970006D2F60956823D1236D2B8C2F0E94151C11
:10398000DF91CF911F910895CF93DF93D82F80912E
:10399000640681FD53C00E94AB1CC82F8151823048
:1039A00020F0C13011F0C23021F40E94AB1C8C1702
:1039B000E1F3D631F9F0D93189F0D83039F5E4E6C0
:1039C000F6E080818D7F808382E063E04FE10E949A
:1039D000B01C8AE08A95F1F700C018C0C631B1F476
:1039E00082E069E04FE10E94B01C9AE09A95F1F7FD
:1039F00000C02AC0C93151F482E069E04FE10E9461
:103A0000B01C8AE08A95F1F700C01EC082E06D2FDD
:103A10004FE10E94B01CC83039F48FE693E0019763
:103A2000F1F700C0000004C09AE09A95F1F700C0D9
:103A30000E94AB1C8D1721F480E403C084E401C014
:103A400083E4DF91CF91089582E06D2F4FE10E94D2
:103A5000B01CEACF882349F088E00E94C41CE4E649
:103A6000F6E08081826080830895E4E6F6E080815C
:103A70008D7F80838FE797E00197F1F700C000000A
:103A800086E10E94C41C0895CF92DF92EF92FF92CC
:103A90000F931F93CF93DF937C016B01042F0E9440
:103AA000AB1C182F0E94521AEC011230E1F01231B7
:103AB000E1F089E10E94C41CC7016AE0A601202F41
:103AC0000E94CA1B188682E062E04FE10E94B01C8F
:103AD00088858823E9F3188682E00E94911C8295EC
:103AE0008695877003C084E401C084E4DF91CF91A0
:103AF0001F910F91FF90EF90DF90CF90089581304C
:103B000091F0813028F08230C9F0833061F521C016
:103B10008CE068E04FE30E94B01C86E162E043E085
:103B20000E94B01C08958CE06CE04FE30E94B01C32
:103B300086E162E043E00E94B01C08958CE06CE1F5
:103B40004FE30E94B01C86E162E043E00E94B01C9B
:103B500008958CE060E04FE30E94B01C86E163E0D2
:103B600043E00E94B01C0895CF93C82F88E06C2FCB
:103B70004FE10E94B01C0E94AB1C863011F08930CE
:103B800031F48FE693E00197F1F700C0000088E080
:103B90000E94911C90E08F7190706C2F70E08617DE
:103BA000970711F480E401C083E4CF910895CF9387
:103BB000C82F0E94911C8C2B8F5F0E94911C80E06B
:103BC00090E0CF910895E4E6F6E080818160808303
:103BD00080818D7F80838FED9BE00197F1F700C09E
:103BE000000080818E7F80839AE09A95F1F700C073
:103BF0008081816080838DE10E94911C8130D9F7A2
:103C00008CE10E94911C8730B1F708950F931F93A8
:103C1000CF93DF93CDB7DEB7EA97CDBFDEBF0E946B
:103C20001820E0E6F6E080818260808380818160F8
:103C300080830E94E31D8EE060E00E94151C82E0FC
:103C400063E04FE10E94B01C81E00E94911C8F71E3
:103C50008830D1F78CE260E340EF0E94B01C8DE227
:103C600060E00E94151C8EE260E440EC0E94B01CF3
:103C70008EE06CE00E94151C84E060E240E20E944D
:103C8000B01C81E00E947F1D81E00E94B41D86E18E
:103C90000E94C41C82E264E372E10E945C1C0E94E8
:103CA000A81BBC0180E20E945C1CCE0101960E9410
:103CB000A01B84E2BE016F5F7F4F0E94361CE2E7CB
:103CC000F6E0808181608083E9E6F6E080818360B0
:103CD0008083EAE6F6E0808184608083E0EAF0E0B9
:103CE0008281876082830E94AB1C863191F08E01B5
:103CF000075F1F4FC80168EE71E00E94103A0F92F3
:103D00000F92EDB7FEB7018312830E94553A0F90D0
:103D10000F90EA96CDBFDEBFDF91CF911F910F913B
:103D200008951F920F920FB60F920BB60F921124A7
:103D3000AF92BF92CF92DF92EF92FF920F931F93B9
:103D40002F933F934F935F936F937F938F939F93A3
:103D5000AF93BF93CF93DF93EF93FF930E94521AD9
:103D60008C018FB780935C40F89481E00E94BE1B69
:103D70008FE80E942B2080E00E942B20C82F80E03B
:103D80000E94BE1BCC2309F497C0FF24F394CC24DB
:103D9000DD246894C7F8C2FF02C0CB7F8AC0C3FF8E
:103DA0006FC00E94AB1C863029F0863119F081313A
:103DB00009F05AC087E00E94911CF801868B86E0CA
:103DC0000E94911C881F8827881FF801878B8823F1
:103DD00009F44AC08FB780935C40F8948F2D0E94FD
:103DE000BE1B80E20E942B2080E00E942B20E82E48
:103DF00083508D3758F50E949D1B2E2D30E0A60173
:103E0000481B5109241735077CF48E2D0E94711B25
:103E1000EE20E1F0D0E080E00E942B200E94711B98
:103E2000DF5FDE15C1F712C00E94521A5C01EE205E
:103E300039F0D0E080E00E942B20DF5FDE15D1F763
:103E4000F501818992890196818B928B80E00E9495
:103E5000BE1B80915C408FBF7894F801818592856C
:103E6000019681879287F782F801F086C77F03C0A9
:103E700086E10E94C41C0E94AB1C8631C9F719C0A0
:103E8000C6FF08C0CF7BF801838994890196838B94
:103E9000948B0FC0C1FF02C0CD7F0BC0C0FF02C01A
:103EA000CE7F07C0CC232CF4CF77F80185898F5FB4
:103EB000858BCC2309F06FCF80915C408FBF7894C5
:103EC000FF91EF91DF91CF91BF91AF919F918F9132
:103ED0007F916F915F914F913F912F911F910F9122
:103EE000FF90EF90DF90CF90BF90AF900F900BBE00
:103EF0000F900FBE0F901F9018950F931F93CF93A5
:103F0000DF938C01E0ECF1E08485877F84874115A5
:103F1000510509F450C0E0E0F0E020E0A0ECB1E091
:103F2000D6E3C3E335E3CF01800F911FE60FF71F00
:103F3000F0811F96EC911F97EE23DCF31F96EC9116
:103F40001F97E1FF11C01A96DC931A97EF93FF9326
:103F50000F932F93EBECF1E008ED21E004BF2083F9
:103F60002F910F91FF91EF911A96CC931A978C9302
:103F7000892F8F7111968C93119712961C9212971C
:103F80001496FC9314971A963C931A97EF93FF9309
:103F90000F932F93EBECF1E008ED21E004BF2083B9
:103FA0002F910F91FF91EF912F5FE22FF0E0E41737
:103FB000F50708F4B8CFDF91CF911F910F910895C5
:103FC0001F93CF93DF939C01E0ECF1E08485877F22
:103FD00084874115510541F180E090E0C0E0D6E0D2
:103FE000DB01A80FB91F820F931F17851123ECF374
:103FF0008083892F8F7181831282D287EF93FF9301
:104000000F932F93EBECF1E008ED21E004BF208348
:104010002F910F91FF91EF9184818C93CF5F8C2F23
:1040200090E084179507E0F2DF91CF911F910895FA
:10403000E0E6F6E08081806B8083E4E6F6E0808154
:1040400080618083A0ECB9E08C9181658C93808144
:10405000806180830895E0ECF9E083838281882386
:10406000ECF7E0ECF9E0838108950F93CF93DF93B1
:104070000F92CDB7DEB72FB72983F8941BBEFC0192
:1040800008ED04BF608389818FBF0F90DF91CF91CE
:104090000F910895662311F090E201C090E0842B07
:1040A000892BE0E5F0E0828308956F71862BE0E5CF
:1040B000F0E085830895E0E5F0E09081282F2095D9
:1040C00092239083908189230895682B81E490E066
:1040D0000E94352008951F93CF93DF93182FC0E4DB
:1040E000D0E06881687F682B80E490E00E943520F2
:1040F00088818123DF91CF911F910895E0E4F0E062
:104100009381917F9160892B83830895E0E5F0E0AE
:104110002681982F382F30952323662309F490E0C9
:10412000922BE0E5F0E09683813031F4E8E6F0E0B0
:104130008081816080830895823029F4E0E6F0E098
:10414000808181608083089583E590E063E00E9430
:104150003520089582E490E061E00E9435200895C2
:10416000CF92DF92EF92FF9220916E5030916F507C
:10417000C0905240D0905340E0905440F090554051
:10418000625070408040904040E050E00E945C39B6
:10419000DC01CB01C80ED91EEA1EFB1E6C2D7D2D45
:1041A0008E2D9F2DFF90EF90DF90CF9008953F923E
:1041B0004F925F926F927F928F929F92AF92BF9237
:1041C000CF92DF92EF92FF920F931F93CF93DF93E3
:1041D00000D00F92CDB7DEB7DC01CB01342E0983BE
:1041E0001A832B833C8380907450909075502C01DF
:1041F0003D01440C551C661C771C440C551C661C68
:10420000771C20915A4030915B40AA24BB248091B6
:10421000705090917150A0917250B0917350880E6F
:10422000991EAA1EBB1E40E050E0C301B2010E94CD
:104230008E3969017A01C80CD91CEA1CFB1C00915B
:104240005A4010915B40C701B6014DE45EE30E9405
:10425000B62B980140E050E0C301B2010E948E39B4
:10426000635B714C332041F4DB010D911D912D9165
:104270003C9113973F7014C089819A81AB81BC81B6
:10428000FB0180839183A283B383C701B6014DE410
:104290005EE320E032E00E94012B00E010E0980194
:1042A000602F712F822F932F2496CDBFDEBFDF9119
:1042B000CF911F910F91FF90EF90DF90CF90BF9023
:1042C000AF909F908F907F906F905F904F903F90B6
:1042D0000895CF92DF92EF92FF920F931F93CF93A7
:1042E000C82F062F69017A0180917050909171500A
:1042F000A0917250B0917350BC01CD016F5F7F4FA0
:104300008F4F9F4F4DE45EE30E94B62B80914D3E50
:1043100090914E3EA0914F3EB091503E823522E5A5
:10432000920721E6A20721E4B20709F063C0809159
:10433000314090913240A0913340B0913440823767
:1043400022E7920721E4A20721E6B20709F056C04E
:104350008091494090914A40A0914B40B0914C408F
:10436000803020E0920725E5A2072AEAB20709F08B
:1043700049C00023A1F4C13049F4009135401091A7
:10438000364020913740309138403FC0009139404D
:1043900010913A4020913B4030913C4036C0C130B2
:1043A00049F4C0923540D0923640E0923740F092C6
:1043B000384008C0C0923940D0923A40E0923B4029
:1043C000F0923C408091705090917150A091725049
:1043D000B0917350BC01CD016F5F7F4F8F4F9F4FE6
:1043E0004DE45EE320E032E00E94012B0FEF1FEF6F
:1043F00098010BC00FEF1FEF980107C00FEF1FEFE1
:10440000980103C00FEF1FEF9801602F712F822FCB
:10441000932FCF911F910F91FF90EF90DF90CF904E
:104420000895EF92FF920F931F93CF93DF93109213
:10443000705010927150109272501092735060E050
:1044400070E0CB014DE45EE30E94B62B80914D3EBF
:10445000893E31F18B3E21F180914B4090914C404F
:104460002AEA8535920709F0B7C060911340709130
:104470001440809115409091164060937050709355
:10448000715080937250909373504DE45EE30E949C
:10449000B62B80914D3E893E19F08B3E09F09EC0AF
:1044A0008091583E9091593E80935A4090935B4042
:1044B00080915A3E90E080936E5090936F50E090C0
:1044C0005B3EF0905C3EE0927450F09275508091AB
:1044D000793E90917A3EA0917B3EB0917C3E809354
:1044E000624090936340A0936440B0936540C09154
:1044F0007450D091755060915D3E70E080E090E026
:104500002091713E3091723E4091733E5091743EC5
:104510000E945C398B019C01AE0160E070E08091EB
:10452000693E90916A3EA0916B3EB0916C3E840FC3
:10453000951FA61FB71F800F911FA21FB31F809347
:10454000524090935340A0935440B0935540E09113
:104550006E50F0916F50C701A0E0B0E040916D3E09
:1045600050916E3E60916F3E7091703E481B590BAA
:104570006A0B7B0BCB01BA01601B710B820B930B97
:104580009F0140E050E00E948E3920935D403093BF
:104590005E4040935F405093604081E060E020E0E7
:1045A00030E0A9010E946921AB01BC0180915D400E
:1045B00090915E40A0915F40B09160408417950754
:1045C000A607B70720F41092A65080E008C081E04B
:1045D0008093A65080E003C081E001C081E0DF91BC
:1045E000CF911F910F91FF90EF9008950F931F931C
:1045F000CF93DF93CDB7DEB72B97CDBFDEBF782F3C
:10460000692FE82FF92FDF010D900020E9F71197AE
:10461000AE1BBF0BA031B10508F09CC0282F392F6D
:1046200006E910E5A80180E090E007C0D901ED910E
:104630009D01DA01ED93AD010196A72FB62FFD0183
:1046400001900020E9F73197EA1BFB0B8E179F07BB
:1046500068F38F30910554F4FC01EA56FF4A85EA6D
:1046600090E520E22193E817F907E1F78091965051
:104670008E3291F0E7E9F0E521E081918E3221F070
:104680002F5F2C30D1F705C0822F8950833008F47A
:1046900063C0222329F401C020E0822F90E210C0E1
:1046A000DE011196822F815090E089569F4AF801D1
:1046B00031913D93E817F907D9F7283070F30AC014
:1046C000E1E0F0E0EC0FFD1FE80FF11D90838F5F3C
:1046D0008830B0F32C3009F02F5F38E086E990E5A0
:1046E000FC01E20FF11D4081442319F43B3050F0EE
:1046F00015C0E1E0F0E0EC0FFD1FE30FF11D40837A
:104700002F5F0CC080E2E1E0F0E0EC0FFD1FE30F53
:10471000F11D80833F5F3B30B1F703C03F5F3B300B
:10472000F8F2DE011196CE010C96FD012081322FA8
:1047300031563A3110F4205220833196E817F907A8
:10474000A9F72D91F80121938F01A817B907C9F78F
:1047500080E003C081E001C081E02B96CDBFDEBFC9
:10476000DF91CF911F910F9108954F925F926F92B9
:104770007F928F929F92AF92BF92CF92DF92EF92F1
:10478000FF92CF93DF932B013C0120E83FEF4FEFE7
:104790005FEF422253226422752280915D40909106
:1047A0005E40A0915F40B0916040481659066A068D
:1047B0007B0608F077C053014201880C991CAA1CA3
:1047C000BB1C880C991CAA1CBB1CCDE4DEE3C0906A
:1047D0007450D090755020915A4030915B40EE2437
:1047E000FF248091705090917150A0917250B091BF
:1047F0007350C80ED91EEA1EFB1E40E050E0C501F2
:10480000B4010E948E39C701B601620F731F841F65
:10481000951FAE010E94B62B88819981AA81BB8128
:10482000BF700097A105B10599F021E0E22FF0E0FB
:10483000EE0FFF1FEE0FFF1FE35BF14C80819181B4
:10484000A281B381BF700097A105B10539F401C001
:1048500020E0420E511C611C711C27C02F5F32F7F3
:1048600080E890E0A0E0B0E0480E591E6A1E7B1E72
:1048700080915D4090915E40A0915F40B09160401A
:1048800020E032E040E050E0820E931EA41EB51EF0
:10489000481659066A067B0608F499CF4424552425
:1048A000320103C0442455243201642D752D862D18
:1048B000972DDF91CF91FF90EF90DF90CF90BF9039
:1048C000AF909F908F907F906F905F904F900895E2
:1048D000CF92DF92EF92FF92CF93C82FDB01CA01F4
:1048E0009170A070B0700097A105B10551F4032E2E
:1048F00039E076956795579547953A95D1F7302DDC
:104900000DC0032E39E076956795579547953A95F2
:10491000D1F7302D4F5F5F4F6F4F7F4FDB01CA01E3
:1049200087709070A070B0700097A105B10559F420
:104930006A017B01689412F8F694E794D794C794BF
:104940001694D1F70FC06A017B01689412F8F694AF
:10495000E794D794C7941694D1F70894C11CD11C3E
:10496000E11CF11C8091A6508823D1F081E060E029
:1049700020E030E0A9010E946921CC2339F49B0199
:10498000AC012C0D3D1D4E1D5F1D06C09B01AC01F1
:104990002C193D094E095F0981E061E00E946921FF
:1049A000CF91FF90EF90DF90CF9008952F923F929C
:1049B0004F925F926F927F928F929F92AF92BF922F
:1049C000CF92DF92EF92FF920F931F93CF93DF93DB
:1049D000CDB7DEB72C97CDBFDEBF882E7B0180918F
:1049E000624090916340A0916440B0916540898796
:1049F0009A87AB87BC870F2EFDE42F2EFEE33F2E58
:104A0000F02DC82CCA94D22C932C5B010894A11CC5
:104A1000B11C69857A858B859C850E94B0206D8349
:104A20007E838F83988780916E5090916F5000970E
:104A300009F413C14424552432011C2D8D819E811B
:104A4000AF81B885840D951DA61DB71D89839A83F6
:104A5000AB83BC83BC01CD014D2D592D0E94B62BDB
:104A600080915A4090915B40009709F4E4C0D101D5
:104A70008C91882309F410C14D2D592D20E030E090
:104A800008C0A901435B514CFA018081882309F4D5
:104A900006C1853E09F4C5C0DA011B968C911B97AF
:104AA0008F3009F4BEC0123008F0FCC09C91F701B1
:104AB0008081981709F0B5C0FA013196D50181E0DF
:104AC000BA0141919D91491731F48F5F8B30C9F73D
:104AD0008B016B0105C08B3009F0A3C08B016B010A
:104AE000F1E08F1609F041C089819A81AB81BC81C8
:104AF0008093A7509093A850A093A950B093AA5028
:104B0000C901A0E0B0E080934E4090934F40A09345
:104B10005040B0935140D60154964D915C915597B9
:104B200060E070E0BA01552744275A968D919C9118
:104B30005B97A0E0B0E0842B952BA62BB72B80933E
:104B4000785090937950A0937A50B0937B50F601AF
:104B5000848D958DA68DB78D809356409093574048
:104B6000A0935840B0935940A5C0D60154968D915A
:104B70009C915597A0E0B0E03C0155244424F601F7
:104B8000828D938DA0E0B0E0482A592A6A2A7B2AB8
:104B900085EE808369817A818B819C814DE45EE31F
:104BA00020E032E00E94012BD6015C964D915D9190
:104BB0006D917C915F9780E00E94682482E060E0C4
:104BC00020E030E0A9010E946921DC01CB014816F8
:104BD00059066A067B0630F482E061E0A301920187
:104BE0000E946921C301B20140E000E010E0980199
:104BF0000E94D7206B017C01C301B20141E000E0BB
:104C000010E098010E94D720B7EFCB16BFEFDB066C
:104C1000BFEFEB06BFE0FB0608F047C026013701F7
:104C2000E1CF205E3F4F80915A4090915B40281722
:104C3000390708F426CF0894411C511C611C711CD3
:104C400080916E5090916F50A0E0B0E048165906E8
:104C50006A067B0608F4F2CEC12E69857A858B85BB
:104C60009C8540E000E010E098010E94D720698711
:104C70007A878B879C87673FEFEF7E07EFEF8E0782
:104C8000EFE09E07A8F4611571058105910509F013
:104C9000C0CE00E010E00EC000E010E00BC000E06D
:104CA00010E008C000E010E005C000E010E002C025
:104CB00000E010E0802F912F2C96CDBFDEBFDF915A
:104CC000CF911F910F91FF90EF90DF90CF90BF9009
:104CD000AF909F908F907F906F905F904F903F909C
:104CE0002F9008950E94F622882329F482E066E935
:104CF00070E50E94D62408954F925F926F927F9242
:104D0000AF92BF92CF92DF92EF92FF920F931F93D9
:104D1000CF93C82FCB010E94F622882309F057C0F9
:104D200081E066E970E50E94D624FC01009731F429
:104D300081E0CC2309F44EC080E04CC0C13009F4BE
:104D400048C0448855886624772432015524442479
:104D5000828D938DA0E0B0E0482A592A6A2A7B2AE6
:104D60000F2EF1EBAF2EF1E2BF2EF02DC301B201F9
:104D70000E94B0206B017C0180916E5090916F5029
:104D80000097A1F0C0E0C701B6016C0F711D811D35
:104D9000911DA5010E94B62BCF5F80916E5090911E
:104DA0006F502C2F30E02817390768F3C301B20188
:104DB00040E000E010E098010E94D7202B013C0168
:104DC000611571058105910589F680E003C082E0D7
:104DD00001C081E0CF911F910F91FF90EF90DF9084
:104DE000CF90BF90AF907F906F905F904F9008955D
:104DF0002F923F924F925F926F927F928F929F92EB
:104E0000AF92BF92CF92DF92EF92FF920F931F93D8
:104E1000CF93DF93CDB7DEB76097CDBFDEBFFC0188
:104E20006D837E8349015A0181E0BF010E947C2687
:104E3000813009F07BC00091785010917950209119
:104E40007A5030917B5009831A832B833C83CC2486
:104E5000DD2476012401350148015901C501B40161
:104E600040E000E010E098010E94D720DC01CB0177
:104E70008F3F1FEF91071FEFA1071FEFB10741F011
:104E80000894C11CD11CE11CF11C4C015D01E6CF52
:104E900089829A82AB82BC825301420120916E507A
:104EA00030916F5080915A4090915B4060905A4091
:104EB00070905B40BC0180E090E040E050E00E94D8
:104EC0005C39A70196010E945C39DC01CB0140915D
:104ED00056405091574060915840709159408A0116
:104EE0009B01081B190B2A0B3B0BC901B80193014D
:104EF00040E050E00E948E39022F69817A818B81D7
:104F00009C810E94B020DC01CB01202E3324280E8E
:104F1000391EB10180E090E04DE45EE30E94B62BC3
:104F20001F86188A19861A8611E04CC0823009F44F
:104F30000CC282E060E020E030E0A9010E9469211B
:104F400000915D4010915E4020915F403091604043
:104F5000061717072807390740F4609162407091DF
:104F6000634080916440909165400E94B5236983BD
:104F70007A838B839C83611571058105910509F402
:104F8000E6C141E00FEF1FEF98010E94D7202B816F
:104F90003C8129873A8789819A818F87988B1092E3
:104FA00056401092574010925840109259406981D3
:104FB0007A818B819C810E94B020DC01CB011C0195
:104FC00010E000E081149104A104B10409F48DC043
:104FD000442455243201C02E1B8790E0891692E0AC
:104FE000990690E0A90690E0B90688F000E012E08A
:104FF00020E030E0400E511E621E731E80E09EEFE6
:10500000AFEFBFEF880E991EAA1EBB1E0CC0480C46
:10501000591C6A1C7B1C9501840111702070307032
:105020008824992454018091564090915740A09132
:105030005840B091594080509E4FAF4FBF4F809322
:10504000564090935740A0935840B0935940B101B7
:1050500080E090E0A201401B510BAD81BE814A0F60
:105060005B1F98010E94012BC39420916E503091D8
:105070006F508C2D90E08217930729F569817A8112
:105080008B819C810E94B5236B017C0161157105A8
:105090008105910509F45DC169817A818B819C81CB
:1050A00041E0970186010E94D720C701B60141E087
:1050B0000FEF1FEF98010E94D720C982DA82EB829E
:1050C000FC82CC2403C00894211C311C82E061E0E6
:1050D00029813A814B815C810E946921811491046C
:1050E000A104B10409F079CF1B85112309F43FC055
:1050F0006091A7507091A8508091A9509091AA50AA
:105100000DE41EE3A8010E94B62BE0914E40F09101
:105110004F40E00FF11F128A138A80915640909100
:105120005740A0915840B0915940448D558D668D9F
:10513000778D6C017D01C41AD50AE60AF70A848FBF
:10514000958FA68FB78F6091A7507091A8508091CE
:10515000A9509091AA50A80120E032E00E94012BB2
:1051600081E0B701A6010E94682480E0F9C00091A7
:1051700062401091634020916440309165400B87FC
:105180001C872D873E87772486E990E50F2EFBE06C
:10519000AF2EBB24F02DA80EB91E8824689485F884
:1051A0000F2EFDE44F2EFEE35F2EF02D282E992EBC
:1051B000372C6F84788804C0CB86DC86ED86FE862B
:1051C0006B857C858D859E850E94B0206D837E8356
:1051D0008F83988780916E5090916F50009709F45B
:1051E00077C01982CD80DE80EF80F8841981C10EEE
:1051F000D11CE11CF11CC701B601A2010E94B62B13
:1052000080915A4090915B40009709F454C033203C
:1052100009F0A1C0A20100E010E006C0A801435BB4
:10522000514C222309F099C0DA018C91882321F492
:10523000E22DF92DDA0104C0853ED1F3232D30C0D3
:1052400081918D93EA15FB05D9F7FA0183861486BF
:105250001586128A138A29853A85248B358B628EAE
:10526000738E8091564090915740A0915840B091D4
:105270005940848F958FA68FB78FC701B601A201C1
:1052800020E032E00E94012B40915640509157405F
:10529000609158407091594081E00E94682421E05B
:1052A000005E1F4F80915A4090915B40081719078C
:1052B00008F4B4CF322E09810F5F098320916E501C
:1052C00030916F50802F90E08217930708F48ACFB7
:1052D0006B857C858D859E8540E000E010E098011F
:1052E0000E94D7206B017C01673F1FEF71071FEF02
:1052F00081071FE0910708F16F3F2FEF72072FEF33
:1053000082072FEF920759F56B857C858D859E85E9
:105310000E94B5236B017C016B857C858D859E8504
:1053200041E0970186010E94D720C701B60141E004
:105330000FEF1FEF98010E94D720C114D104E104A0
:10534000F10409F039CF84E00BC081E009C082E0AC
:1053500007C082E005C080E003C080E001C083E0B8
:105360006096CDBFDEBFDF91CF911F910F91FF906F
:10537000EF90DF90CF90BF90AF909F908F907F90F5
:105380006F905F904F903F902F9008958F929F92D3
:10539000AF92BF92CF92DF92EF92FF920F931F9343
:1053A000CF93DF93842EA52EC62EC72FD22F780140
:1053B00080640E94D1068C2F0E94D1068C2D0E9401
:1053C000D1068A2D0E94D106882D0E94D1068D2FEC
:1053D0000E94D1061016110664F500E010E00F2EB1
:1053E000FDE0CF2EDD24F02D0F2EF9E3AF2EFEE3EE
:1053F000BF2EF02DC801B6010E947B39EC018FEF62
:105400000E94D106F501EC0FFD1F808380818F3F44
:1054100049F0FE01E75CF14C808180933A3E809137
:105420003A3E08C00F5F1F4F0E151F0519F78FEF8B
:1054300001C08FEFDF91CF911F910F91FF90EF90FF
:10544000DF90CF90BF90AF909F908F900895FF9284
:105450000F931F93CF93DF9381E00E94BA0581E001
:105460000E9461038FEF93ECA9E081509040A0402F
:10547000E1F700C0000088E060E00E94640588E079
:1054800060E00E94B70480E063E00E94D50381E001
:105490000E94E7038AE090E0E0ECF8E03FEFA5E44B
:1054A000BEE3338322812223ECF723812C930197DF
:1054B000C1F780E00E94E7030E94F30388E060E008
:1054C0000E94600480E063E00E94D50381E00E94B6
:1054D000E703CBE0D0E002C0219769F080E040E034
:1054E00050E0BA0125E908E010E00E94C6298130A9
:1054F00099F7FF2402C0FF24F3948FEF93ECA9E007
:1055000081509040A040E1F700C00000CBE0D0E027
:1055100002C0219769F088E04AEA51E060E070E05B
:1055200027E808E010E00E94C629813091F702C008
:10553000FF24F394C2E0D0E009E31EE38FEF0E9462
:10554000D106F801EC0FFD1F80832196C630D105EE
:10555000A9F780913D3E813029F480913E3E8A3A00
:1055600021F405C0FF24F39402C0FF24F394CAE39E
:10557000DEE387E340E050E0BA012FEF08E010E0FF
:105580000E94C62981E040E050E060E070E42FEF27
:105590000E94C6298881882361F7CBE0D0E002C051
:1055A000219761F08AE340E050E0BA012FEF08E074
:1055B00010E00E94C629882399F702C0FF24F394C3
:1055C000C0E0D0E009E31EE38FEF0E94D106F801AE
:1055D000EC0FFD1F80832196C430D105A9F780917F
:1055E000393E80E00E94E7030E94F30388E060E018
:1055F0000E94B7048F2DDF91CF911F910F91FF90E3
:1056000008956F927F928F929F92AF92BF92CF92A6
:10561000DF92EF92FF920F931F93CF93DF934B0193
:105620005C01742E652E690188E060E00E946004D0
:1056300080E00E94C40381E00E94E70380E092E0E2
:105640007C01EC18FD0880E0E81682E0F80611F411
:10565000EE24FF24CBE0D0E003C0219709F4FFCF74
:1056600088E1B501A4012FEF08E010E00E94C629EF
:10567000882399F78FEF0E94D1068093393E8EEFF1
:105680000E94D1061C141D04BCF4872C962C00E04B
:1056900010E0C8016DE070E00E947B39EC01F4017C
:1056A00081914F010E94D106C75CD14C88830F5F66
:1056B0001F4F0C151D0569F71E141F04ECF400E0C4
:1056C00010E00F2EFDE0CF2EDD24F02D0F2EF9E39C
:1056D0008F2EFEE39F2EF02DC801B6010E947B396C
:1056E000EC0180E00E94D106C80DD91D88830F5FB0
:1056F0001F4F0E151F0581F78FEF8093393EC0E0D5
:10570000D0E009E31EE38FEF0E94D106F801808309
:105710002196C230D105BCF380818F3FA1F38091E7
:10572000393E8091393E8F3F49F0C9E3DEE38FEF88
:105730000E94D106888388818F3FC9F780E00E944C
:10574000E7030E94F30388E060E00E94B704DF9162
:10575000CF911F910F91FF90EF90DF90CF90BF906E
:10576000AF909F908F907F906F900895AF92BF926F
:10577000CF92DF92EF92FF920F931F93CF93DF931D
:105780006B017C01B42EA52E88E060E00E946004CD
:1057900080E00E94C40381E00E94E703CBE0D0E0F8
:1057A00003C0219709F4FFCF81E1B701A6012FEFD4
:1057B00008E010E00E94C629882399F78091393EBD
:1057C0008E3F49F0C9E3DEE38FEF0E94D106888364
:1057D00088818E3FC9F70B2D1A2DC0E0D0E08FEFE6
:1057E0000E94D106F80181938F012196F2E0C0302A
:1057F000DF07A9F71092453E8091453E8F3F49F063
:10580000C5E4DEE38FEF0E94D106888388818F3F55
:10581000C9F780E00E94E7030E94F30388E060E09C
:105820000E94B704DF91CF911F910F91FF90EF90ED
:10583000DF90CF90BF90AF9008952F923F924F92FC
:105840005F926F927F928F929F92AF92BF92CF9210
:10585000DF92EF92FF920F931F93CF93DF93CDB719
:10586000DEB72A97CDBFDEBF6B017C014F8358871F
:10587000890188E060E00E94600480E00E94C40327
:1058800081E00E94E703C801112314F481509E4F68
:105890009C01232F330F330B25952B833C8320E072
:1058A00032E0C801B9010E947B392901481A590A1E
:1058B00030E0431632E0530631F08B819C81019633
:1058C0008B839C8302C04424552489E1B701A6013F
:1058D0002FEF08E010E00E94C6298823B1F7EB8182
:1058E000FC811E161F060CF0ACC03197ED83FE83C1
:1058F0009F01322F2227330F8F81988589839A83C6
:10590000662477240F2EFAE38F2EFEE39F2EF02DD0
:105910000F2EFCE0CF2EDD24F02D0F2EF9E3AF2E5D
:10592000FEE3BF2EF02D80E092E01C012418350824
:10593000EF81F885E20FF31FEF83F8878FEF0E9466
:10594000D106F40180838CEF0E94D106F40180839C
:105950002D813E812615370509F041C0121413042C
:10596000CCF4EF80F88400E010E0C801B6010E949A
:105970007B3989879A87F70181917F010E94D1063F
:10598000E985FA85EA0DFB1D80830F5F1F4F021525
:10599000130559F7141415049CF400E010E0C80135
:1059A000B6010E947B397C0180E00E94D106F5019E
:1059B000EE0DFF1D80830F5F1F4F0415150579F74E
:1059C0008FEF0E94D106F40180838FEF0E94D106F1
:1059D000F4018083108280818F3FE1F423C0E9804D
:1059E000FA8000E010E0C801B6010E947B39898787
:1059F0009A87F70181917F010E94D106E985FA8596
:105A0000EA0DFB1D80830F5F1F4FF2E000301F0780
:105A100051F7D6CF8FEF0E94D106F40180838081A9
:105A20008F3FC1F70894611C711C29813A81205075
:105A30003E4F29833A838B819C816816790609F051
:105A40007DCFEE24FF246894E2F80AE31EE38FEF93
:105A50000E94D106F80180830894E108F108E1145E
:105A6000F104A9F78DEF0E94D10680933A3EEE240F
:105A7000FF246894E2F80AE31EE38FEF0E94D10648
:105A8000F80180830894E108F108E114F104A9F712
:105A900010923A3E80913A3E8F3F51F00AE31EE366
:105AA0008FEF0E94D106F801808380818F3FC1F77C
:105AB00080E00E94E7030E94F30388E060E00E9418
:105AC000B7042A96CDBFDEBFDF91CF911F910F9112
:105AD000FF90EF90DF90CF90BF90AF909F908F900E
