:100000000C9416010C9437010C9437010C943701B1
:100010000C9437010C9437010C9437010C94370180
:100020000C9437010C9437010C9437010C94370170
:100030000C9437010C9437010C943B100C9437014D
:100040000C944F0F0C947F0F0C94AF0F0C94DF0F98
:100050000C9437010C9437010C9437010C94370140
:100060000C9437010C9437010C9437010C94370130
:100070000C9437010C9437010C9437010C94370120
:100080000C9437010C9437010C9437010C94370110
:100090000C9437010C9437010C9437010C94370100
:1000A0000C9437010C9437010C9437010C949F3D4C
:1000B0000C9437010C9437010C9437010C943701E0
:1000C0000C9437010C9437010C9437010C943701D0
:1000D0000C9437010C9437010C9437010C943701C0
:1000E0000C9437010C9437010C9437010C943701B0
:1000F0000C9437010C9437010C9437010C943701A0
:100100000C94632D0C9437010C9437010C94370137
:100110000C9437010C9437010C9437010C9437017F
:100120000C9437010C9437010C9437010C9437016F
:100130000C9437010C94E4120C9437010C942212A5
:100140000C9452120C9482120C94B2120C948E01E4
:100150000C9437010C9437010C9437010C9437013F
:100160000C9437010C9437010C9437010C9437012F
:100170000C9437010C9437010C9437010C9437011F
:100180000C9437010C9437010C9437010C9437010F
:100190000C9437010C9437010C9437010C943701FF
:1001A0000C94250C0C941A0A0C9437010C9437010A
:1001B0000C9437010C9437010C9437010C943701DF
:1001C0000C9437010C9437010C9437010C943701CF
:1001D0000C9437010C9437010C9437010C943701BF
:1001E0000C9437010C94370142554646455220463F
:1001F000554C4C2E20544F5353494E4720494E43A3
:100200004F4D494E4720444154410A005241444910
:100210004F204E4F5420494E495449414C495A456C
:10022000442050524F5045524C590A0011241FBED1
:10023000CFEFDFE5DEBFCDBF00E00CBF11E2A0E0F5
:10024000B0E2E2EFFAEC00E00BBF02C007900D92C3
:10025000A632B107D9F713E5A6E2B1E201C01D92BB
:10026000AB32B107E1F70E948E500C9477650C9485
:100270000000CF93DF930F920F92CDB7DEB7898343
:100280009A8381E08093C55083E0809353400E941D
:10029000881D8091C550882F90E00E94222B80E815
:1002A00091E028ECFC01218380E499E029E0FC0145
:1002B000208380E499E022E0FC01268380E499E039
:1002C00069817A8144EF51E0649F9001659F300D10
:1002D000749F300D1124FC0126A337A380E498E01D
:1002E00020E03AEFFC0126A337A380E498E021E068
:1002F000FC01268380E498E021E0FC01208380EA71
:1003000090E020EA30E0F90122812760FC0122839D
:1003100078940F900F90DF91CF91089578941F9269
:100320000F920FB60F9200903B000F9211242F9363
:100330003F934F935F936F937F938F939F93AF936D
:10034000BF93EF93FF93CF93DF93CDB7DEB728979B
:10035000CDBFDEBF80E498E0FC01108280E499E02C
:10036000FC01108282E080935340CE01019620E090
:1003700030E246E0F90100802F5F3F4FFC01008230
:10038000019641504423B1F78091C550882F90E0E9
:1003900026E430E4B9014AE050E00E94936226E48A
:1003A00030E4CE010196B9010E947A620E94030AEC
:1003B000CE0101969C01F90101900020E9F7CF01DF
:1003C0000197821B930B9C0140E050E080E090E09D
:1003D000BE016F5F7F4F0E944F1E2896CDBFDEBFCC
:1003E000DF91CF91FF91EF91BF91AF919F918F914D
:1003F0007F916F915F914F913F912F910F9000925C
:100400003B000F900FBE0F901F901895CF93DF9376
:10041000CDB7DEB76B97CDBFDEBF8E8B9F8B688F5E
:10042000798F4A8F5B8F19821A821B821C8280E02F
:1004300090E1A0E0B0E08D839E83AF83B8871986FA
:100440001A861B861C8681E00E94970580E092E058
:100450000E94E51980E092E020E032E0F90121817C
:10046000297EFC01218380E092E020E032E0F90166
:100470002481287F2360FC01248380E092E020E037
:1004800032E0F90122812F7CFC01228380E292E09C
:1004900020E232E0F9012081207E2160FC012083EE
:1004A00080E292E029E0FC01218380E092E020E0FC
:1004B00032E0F90120812160FC01208380E092E09C
:1004C0000E949D1B80E092E060E272E040E00E94AA
:1004D000941C8D8B80E092E020E032E0F9012081D5
:1004E0002E7FFC01208380E292E0FC01118280E0FB
:1004F00092E020E032E0F90123812F73FC01238395
:1005000080E092E020E032E0F90120812160FC01EE
:10051000208380E092E00E949D1B80E092E020E03A
:1005200032E0F90121812860FC0121831D861E86AD
:1005300056C080E292E0FC018381882F90E08170B8
:1005400090700097B1F32D8980E292E0622F0E94B3
:100550003E1A8F87988B8F859889CC01A0E0B0E0F8
:1005600029813A814B815C81820F931FA41FB51FA3
:1005700089839A83AB83BC838F8598899C0140E0F3
:1005800050E089859A85AB85BC8582179307A407BF
:10059000B50748F48F859889CC01A0E0B0E0898741
:1005A0009A87AB87BC878F8598899C0140E050E093
:1005B0008D819E81AF81B885281739074A075B076F
:1005C00048F48F859889CC01A0E0B0E08D839E83AC
:1005D000AF83B8878D859E8501968D879E878D8593
:1005E0009E85F4E080309F0708F4A3CF80E092E07E
:1005F00020E032E0F9012181277FFC01218380E0A6
:1006000092E020E032E0F90120812260FC012083A9
:1006100080E092E020E032E0F90120812E7FFC01B1
:10062000208380E00E94970589819A81AB81BC81FB
:10063000072E7AE0B695A795979587957A95D1F785
:10064000702D898B9A8BAB8BBC8B89899A89AB89EE
:10065000BC8928EE33E040E050E0BC01CD010E94AF
:10066000A461DC01CB012FEF3FE040E050E0BC0192
:10067000CD010E94EA61DA01C9019C012253304098
:100680008E899F89FC012083318389859A85AB857A
:10069000BC8528EE33E040E050E0BC01CD010E9473
:1006A000A461DC01CB012FEF3FE040E050E0BC0152
:1006B000CD010E94EA61DA01C9019C012253304058
:1006C0008A8D9B8DFC01208331838D819E81AF813A
:1006D000B88528EE33E040E050E0BC01CD010E9437
:1006E000A461DC01CB012FEF3FE040E050E0BC0112
:1006F000CD010E94EA61DA01C9019C012253304018
:10070000888D998DFC01208331836B96CDBFDEBF30
:10071000DF91CF9108950F931F93CF93DF93CDB7C0
:10072000DEB7A997CDBFDEBF8CA39DA36EA37FA329
:1007300048A759A719821A821B821C8280E090E187
:10074000A0E0B0E08D839E83AF83B88719861A86B8
:100750001B861C8681E00E94970584E060E00E9471
:100760006F3284E060E00E943B3380E090E0A8ECD0
:10077000B2E48D8B9E8BAF8BB88F6D897E898F890C
:10078000988D20E030E04AEF55E40E944161DC01A1
:10079000CB01898F9A8FAB8FBC8F11E0698D7A8DD9
:1007A0008B8D9C8D20E030E040E85FE30E9430605C
:1007B00088230CF010E0112329F081E090E08D8F68
:1007C0009E8F46C011E0698D7A8D8B8D9C8D20E0C7
:1007D0003FEF4FE757E40E943D6118160CF010E020
:1007E000112361F16D897E898F89988D20E030E039
:1007F00040E251E40E944161DC01CB01BC01CD012A
:100800000E949C60DC01CB018D8F9E8F12C080E224
:1008100093E08F8F98A38F8D98A18C01C8010197C9
:10082000F1F78C010F8F18A38D8D9E8D01978D8F01
:100830009E8F8D8D9E8D009751F717C0698D7A8D93
:100840008B8D9C8D0E949C60DC01CB018D8F9E8FD7
:100850008D8D9E8D89A39AA389A19AA18C01F801FF
:100860003197F1F78F0109A31AA380E492E00E9467
:10087000E51980E492E020E432E0F9012181297E4B
:10088000FC01218380E492E020E432E0F90124813C
:10089000287F2360FC01248380E492E020E432E09E
:1008A000F90122812F7CFC01228380E692E020E680
:1008B00032E0F9012081207E2160FC01208380E666
:1008C00092E029E0FC01218380E492E020E432E020
:1008D000F90120812160FC01208380E492E00E94E4
:1008E0009D1B80E492E060E672E040E00E94941C70
:1008F0008BA380E492E020E432E0F90120812E7F96
:10090000FC01208380E692E0FC01118280E492E009
:1009100020E432E0F90123812F73FC01238380E47A
:1009200092E020E432E0F90120812160FC01208383
:1009300080E492E00E949D1B80E492E020E432E09B
:10094000F90121812860FC0121831D861E8656C085
:1009500080E692E0FC018381882F90E081709070A6
:100960000097B1F32BA180E692E0622F0E943E1A1D
:100970008F87988B8F859889CC01A0E0B0E0298182
:100980003A814B815C81820F931FA41FB51F89831D
:100990009A83AB83BC838F8598899C0140E050E0AB
:1009A00089859A85AB85BC8582179307A407B5070F
:1009B00048F48F859889CC01A0E0B0E089879A87B8
:1009C000AB87BC878F8598899C0140E050E08D8182
:1009D0009E81AF81B885281739074A075B0748F41D
:1009E0008F859889CC01A0E0B0E08D839E83AF8392
:1009F000B8878D859E8501968D879E878D859E857E
:100A0000F4E080309F0708F4A3CF80E492E020E474
:100A100032E0F9012181277FFC01218380E492E00B
:100A200020E432E0F90120812E7FFC0120838981BE
:100A30009A81AB81BC81072E7AE0B695A7959795F0
:100A400087957A95D1F7702D898B9A8BAB8BBC8B60
:100A500084E060E00E94D33280E00E94970589899B
:100A60009A89AB89BC8928EE33E040E050E0BC01B4
:100A7000CD010E94A461DC01CB012FEF3FE040E0FB
:100A800050E0BC01CD010E94EA61DA01C9019C017C
:100A9000225330408CA19DA1FC01208331838985A4
:100AA0009A85AB85BC8528EE33E040E050E0BC0180
:100AB000CD010E94A461DC01CB012FEF3FE040E0BB
:100AC00050E0BC01CD010E94EA61DA01C9019C013C
:100AD0002253304088A599A5FC01208331838D8164
:100AE0009E81AF81B88528EE33E040E050E0BC0144
:100AF000CD010E94A461DC01CB012FEF3FE040E07B
:100B000050E0BC01CD010E94EA61DA01C9019C01FB
:100B1000225330408EA19FA1FC0120833183A996EE
:100B2000CDBFDEBFDF91CF911F910F9108950F933D
:100B30001F93CF93DF93CDB7DEB72F97CDBFDEBF27
:100B40008F878F85882309F4CEC080E096E02EED54
:100B5000FC01218380E296E02EE0FC01218380E409
:100B600096E023E0FC01218380E896E020E1FC018F
:100B7000218380EA96E02EE0FC01218380E096E06C
:100B80002EE9FC01258380E296E028E0FC01258324
:100B900080E496E023E0FC01258380E896E020E1F4
:100BA000FC01258380EA96E02EE0FC01258310926B
:100BB000765080E090E0A8ECB2E489839A83AB831E
:100BC000BC8369817A818B819C8120E030E04AEF8F
:100BD00055E40E944161DC01CB018D839E83AF838C
:100BE000B88711E06D817E818F81988520E030E0AB
:100BF00040E85FE30E94306088230CF010E011238E
:100C000029F081E090E089879A8746C011E06D81E4
:100C10007E818F81988520E03FEF4FE757E40E9467
:100C20003D6118160CF010E0112361F169817A81A1
:100C30008B819C8120E030E040E251E40E944161E0
:100C4000DC01CB01BC01CD010E949C60DC01CB0129
:100C500089879A8712C080E293E08B879C878B8577
:100C60009C858C01C8010197F1F78C010B871C87CB
:100C700089859A85019789879A8789859A850097BA
:100C800051F717C06D817E818F8198850E949C608D
:100C9000DC01CB0189879A8789859A858D879E8714
:100CA0008D859E858C01F8013197F1F78F010D87B5
:100CB0001E8780E496E020E4FC01228380E080939C
:100CC00077508093CA508093C32380936F508FEFE7
:100CD00061E00E946F328FEF61E00E943B338FEF43
:100CE0000E94EC0742C080E096E02EEDFC012683D6
:100CF00080E296E02EE0FC01268380E496E023E08B
:100D0000FC01268380E896E020E1FC01268380EA4E
:100D100096E02EE0FC01268380E096E02EEDFC01BB
:100D2000228380E296E02EE0FC01228380E496E0BC
:100D300023E0FC01228380E896E020E1FC0122838D
:100D400080EA96E02EE0FC01228380E496E020E435
:100D5000FC01228380E0809377508093CA50809377
:100D6000C32380936F50109276502F96CDBFDEBF75
:100D7000DF91CF911F910F9108950F931F93CF9300
:100D8000DF93CDB7DEB76A97CDBFDEBF898F6A8F9D
:100D9000898D282F30E081E090E002C0880F991FF4
:100DA0002A95E2F761E00E949E338A8D882F90E0B9
:100DB00081709070882331F080E096E020E4FC019F
:100DC000258305C080E096E020E4FC0126838A8D1F
:100DD000882F90E082709070009731F080E296E06A
:100DE00022E0FC01258305C080E296E022E0FC01C0
:100DF00026838A8D882F90E084709070009731F060
:100E000080E296E024E0FC01258305C080E296E0C4
:100E100024E0FC01268380E090E0A0E8BFE3898322
:100E20009A83AB83BC8369817A818B819C812BEA15
:100E30003AEA4AE251E40E944161DC01CB018D8330
:100E40009E83AF83B88711E06D817E818F81988505
:100E500020E030E040E85FE30E94306088230CF03F
:100E600010E0112319F081E08987A3C011E06D81A2
:100E70007E818F81988520E030E04FE753E40E9427
:100E80003D6118160CF010E0112309F489C0698146
:100E90007A818B819C8120E030E04AE754E40E9413
:100EA0003460DC01CB018A879B87AC87BD876A856C
:100EB0007B858C859D8520E030E04AEF55E40E94DB
:100EC0004161DC01CB018E879F87A88BB98B11E034
:100ED0006E857F858889998920E030E040E85FE36E
:100EE0000E94306088230CF010E0112329F081E08B
:100EF00090E08A8B9B8B46C011E06E857F85888948
:100F0000998920E03FEF4FE757E40E943D611816B2
:100F10000CF010E0112361F16A857B858C859D853D
:100F200020E030E040E251E40E944161DC01CB016D
:100F3000BC01CD010E949C60DC01CB018A8B9B8BA4
:100F400012C080E293E08C8B9D8B8C899D898C01F3
:100F5000C8010197F1F78C010C8B1D8B8A899B8945
:100F600001978A8B9B8B8A899B89009751F728C0B0
:100F70006E857F85888999890E949C60DC01CB0100
:100F80008A8B9B8B8A899B898E8B9F8B8E899F896D
:100F90008C01F8013197F1F78F010E8B1F8B10C078
:100FA0006D817E818F8198850E949C60DC01CB01E0
:100FB00089878985888F888D182F1A95F1F7188F62
:100FC0008FEF61E00E943B336A96CDBFDEBFDF91B9
:100FD000CF911F910F910895CF93DF9300D0CDB79C
:100FE000DEB78B838B81837089838B818C708A833E
:100FF0008B81882F90E085709070009751F08091E0
:101000007650982F907F8B8182958F70892B80935B
:1010100076508B81882F90E08A709070009749F00D
:101020008B81982F907F809176508F70892B809341
:10103000765084E00E940B378091765080935A500E
:101040008981882319F081E00E94DB368A81882318
:1010500019F081E00E94F33681E00E94603780EC55
:1010600098E02FEFFC012383000080EC98E0FC0166
:1010700082818823D4F780EC98E0FC0183818093FF
:101080006650000080EC98E020915A50FC012383C8
:10109000000080EC98E0FC0182818823D4F780EC8A
:1010A00098E0FC0183818093665080E00E94603765
:1010B0008981882319F080E00E94DB368A818823A9
:1010C00019F080E00E94F3360E9478372396CDBF56
:1010D000DEBFDF91CF910895CF93DF930F92CDB70D
:1010E000DEB789838981882359F080E096E020E289
:1010F000FC01218380E096E020E2FC0125830AC008
:1011000080E096E020E2FC01268380E096E020E289
:10111000FC0122830F90DF91CF910895CF92DF924F
:10112000EF92FF920F931F93CF93DF93CDB7DEB76C
:101130002C97CDBFDEBF8B836C834D832E83EF82D4
:10114000F88609871A87CB86DC868B859C858093F9
:1011500067509093685081E00E9497058B816D8164
:101160000E94BD068C810E94EC078B81853031F096
:101170008B81863019F08B81873019F481E00E94D1
:10118000F60D81E00E946C088B810E94A51984E015
:101190000E940B3780EC98E024E5FC01208380EA74
:1011A00096E021E0FC01228380EA96E022E0FC0147
:1011B000208B80EA96E021E0FC01228780EA96E01D
:1011C00021E0FC01218780E896E020E2FC012183F8
:1011D00080E49AE023E2FC0121838E81882F90E055
:1011E00025E130E0281B390B81E090E002C0880F38
:1011F000991F2A95E2F7019789839A8380E49AE000
:1012000029813A81FC0126A337A380E49AE0298151
:101210003A8136952795FC0122AF33AF80E49AE0FE
:1012200020E43AE0F9012081207F2160FC01208345
:1012300080EA90E020EA30E0F90122812160FC019F
:10124000228378941092695010926A5010926B50D9
:1012500010926C50109252400000209169503091D1
:101260006A5040916B5050916C508F819885A98540
:10127000BA85281739074A075B0778F380E49AE0B4
:1012800020E43AE0F9012081207FFC01208380EAFC
:1012900090E020EA30E0F90122812E7FFC012283D8
:1012A000F8940E94783780E00E946C0880E00E94E9
:1012B00097052C96CDBFDEBFDF91CF911F910F9187
:1012C000FF90EF90DF90CF900895CF93DF9300D001
:1012D00000D0CDB7DEB78B836C834D832E8381E046
:1012E0000E9497058B816D810E94BD068C810E94B2
:1012F000EC078B81853031F08B81863019F08B8142
:10130000873019F481E00E94F60D81E00E946C089C
:101310008B810E94A51984E00E940B3780EC98E035
:1013200024E5FC01208380EA96E021E0FC01228391
:1013300080EA96E022E0FC01208B80EA96E021E042
:10134000FC01238780EA96E028E0FC01218780E801
:1013500096E020E2FC01218380E49AE023E2FC0194
:1013600021838E81882F90E025E130E0281B390B06
:1013700081E090E002C0880F991F2A95E2F701975B
:1013800089839A8380E49AE029813A81FC0126A32B
:1013900037A380E49AE029813A8136952795FC01AC
:1013A00022AF33AF80E49AE020E43AE0F9012081F3
:1013B000207F2160FC01208380EA90E020EA30E079
:1013C000F90122812260FC01228380EA90E020EA78
:1013D00030E0F90122812068FC01228310926950DB
:1013E00010926A5010926B5010926C50109299505B
:1013F00010929A501092524078942696CDBFDEBF3C
:10140000DF91CF910895CF93DF93CDB7DEB780EA18
:1014100096E0FC011386DF91CF910895CF93DF937F
:10142000CDB7DEB780EA96E021E0FC012387DF91AB
:10143000CF9108951F920F920FB60F9200903B002C
:101440000F9211242F923F924F925F926F927F9250
:101450008F929F92AF92BF92CF92DF92EF92FF92C4
:101460000F931F932F933F934F935F936F937F93AC
:101470008F939F93AF93BF93EF93FF93CF93DF939C
:1014800000D0CDB7DEB780915240882334F08091F0
:1014900052408F5F80935240AFC184E00E940B376F
:1014A00080EC98E024E5FC01208381E00E94603715
:1014B00080EA96E022E0FC01268319821AC080ECC3
:1014C00098E02AEAFC012383000080EC98E0FC010C
:1014D00082818823D4F78981882F90E020EC38E03E
:1014E000F9012381865A9F4AFC01208389818F5FFD
:1014F00089838981833018F380EA96E022E0FC0139
:10150000258380E00E94603780915A50882334F40C
:101510008BE590E42FEFFC01208304C08BE590E481
:10152000FC0110828AE590E420915A50FC0120834E
:1015300089E590E420915B50FC01208388E590E4EC
:1015400020915C50FC01208380915840909159403B
:10155000A0915A40B0915B405C016D01BB0F880BBC
:10156000982FDC01E82EF82E082F182FA0929B5000
:10157000B0929C50C0929D50D0929E50E0929F504D
:10158000F092A0500093A1501093A2508091695006
:1015900090916A50A0916B50B0916C50880F991F38
:1015A000880F991F9C0124533C4D2A833B83A090B4
:1015B0009B50B0909C50C0909D50D0909E50E09019
:1015C0009F50F090A0500091A1501091A2502A2D50
:1015D0003B2D4C2D5D2D6E2D7F2D802F912F0F2EAD
:1015E000F0EAAF2EF02D0F2EF5E2BF2EF02D0F2ECC
:1015F000F6E2CF2EF02DDD24EE24FF2400E010E0F3
:101600000E94E850222E332E442E552E662E772E21
:10161000882E992EA22CB32CC42CD52CE62CF72C7A
:10162000082D192D2A2D3B2D4C2D5D2D6E2D7F2D36
:10163000802F912FAA24AA94BB24BA940F2EFFE7DF
:10164000CF2EF02DDD24EE24FF2400E010E00E94D8
:101650002F52222E332E442E552E662E772E882E74
:10166000992EA22CB32CC42CD52CE62CF72C082DAB
:10167000192D2A2D3B2D4C2D5D2D6E2D7F2D802F6C
:10168000912F01E00E94BB51222E332E442E552E65
:10169000662E772E882E992EA22CB32CC42CD52CF6
:1016A000E62CF72C082D192D2A2D3B2D4C2D5D2DC8
:1016B0006E2D7F2D802F912F0F2EF3E0AF2EF02D6A
:1016C000BB24CC24DD24EE24FF2400E010E00E94A3
:1016D0002F52A22EB32EC42ED52EE62EF72E082F73
:1016E000192F2A2D3B2D4C2D5D2D6E2D7F2D802FFA
:1016F000912FDA01C901B095A095909581959F4FE2
:10170000AF4FBF4FEA81FB8180839183A283B38374
:101710008091695090916A50A0916B50B0916C503B
:101720000196A11DB11D8093695090936A50A093BA
:101730006B50B0936C508091695090916A50A09119
:101740006B50B0916C508E319105A105B10508F434
:1017500053C01092695010926A5010926B501092C0
:101760006C508091995090919A5001968093995025
:1017700090939A508FE78093524080916950909156
:101780006A50A0916B50B0916C509C01220F331F96
:10179000220F331F8EEC93E24CEC53E2BA01A90105
:1017A0000E945F628091C5508093CC2380916950E4
:1017B00090916A50A0916B50B0916C508093CD2362
:1017C0008091695090916A50A0916B50B0916C508B
:1017D000880F991FAA1FBB1F880F991FAA1FBB1F25
:1017E0009C01AD012E5F3F4F4F4F5F4F6CEC73E29A
:1017F00080E090E00E944F1E2396CDBFDEBFDF91B8
:10180000CF91FF91EF91BF91AF919F918F917F9178
:101810006F915F914F913F912F911F910F91FF9089
:10182000EF90DF90CF90BF90AF909F908F907F9080
:101830006F905F904F903F902F900F9000923B00E1
:101840000F900FBE0F901F9018951F920F920FB61A
:101850000F9200903B000F9211242F923F924F92D3
:101860005F926F927F928F929F92AF92BF92CF9230
:10187000DF92EF92FF920F931F932F933F934F931B
:101880005F936F937F938F939F93AF93BF93EF93E8
:10189000FF93CF93DF9300D0CDB7DEB78091524056
:1018A000882334F0809152408F5F8093524075C1FD
:1018B00081E00E94603780EA96E022E0FC01268306
:1018C00019821AC080EC98E02AEAFC012383000008
:1018D00080EC98E0FC0182818823D4F78981882FED
:1018E00090E020EC38E0F9012381865A9F4AFC0100
:1018F000208389818F5F89838981833018F380EA0F
:1019000096E022E0FC01258380E00E946037809110
:101910005A5088239CF48091695090916A50A0910C
:101920006B50B0916C50880F991F880F991F0396C8
:10193000885A9F4B2FEFFC01208311C08091695082
:1019400090916A50A0916B50B0916C50880F991F84
:10195000880F991F0396885A9F4BFC011082809133
:10196000695090916A50A0916B50B0916C50880F63
:10197000991F880F991F0296885A9F4B20915A50A1
:10198000FC0120838091695090916A50A0916B5026
:10199000B0916C50880F991F880F991F0196885A33
:1019A0009F4B20915B50FC01208380916950909166
:1019B0006A50A0916B50B0916C50880F991F880F9E
:1019C000991F885A9F4B20915C50FC0120832091E5
:1019D0006750309168508091695090916A50A09101
:1019E0006B50B0916C50880F991F880F991FA901F7
:1019F000480F591F4A835B838091695090916A50C8
:101A0000A0916B50B0916C50880F991F880F991F4F
:101A1000885A9F4BFC0180819181A281B3815C0136
:101A20006D01BB0F880B982FDC01E82EF82E082FD4
:101A3000182F2A2D3B2D4C2D5D2D6E2D7F2D802FA7
:101A4000912F0F2EF0EAAF2EF02D0F2EF5E2BF2EC4
:101A5000F02D0F2EF6E2CF2EF02DDD24EE24FF2404
:101A600000E010E00E94E850222E332E442E552E26
:101A7000662E772E882E992EA22CB32CC42CD52C12
:101A8000E62CF72C082D192D2A2D3B2D4C2D5D2DE4
:101A90006E2D7F2D802F912FAA24AA94BB24BA9457
:101AA0000F2EFFE7CF2EF02DDD24EE24FF2400E0E3
:101AB00010E00E94EB59222E332E442E552E662E16
:101AC000772E882E992EA22CB32CC42CD52CE62C44
:101AD000F72C082D192D2A2D3B2D4C2D5D2D6E2D0B
:101AE0007F2D802F912F01E00E94BB51222E332E9B
:101AF000442E552E662E772E882E992EA22CB32C8E
:101B0000C42CD52CE62CF72C082D192D2A2D3B2D75
:101B10004C2D5D2D6E2D7F2D802F912F0F2EF3E0FC
:101B2000AF2EF02DBB24CC24DD24EE24FF2400E0D6
:101B300010E00E94EB59A22EB32EC42ED52EE62E15
:101B4000F72E082F192F2A2D3B2D4C2D5D2D6E2D94
:101B50007F2D802F912FDA01C901B095A095909526
:101B600081959F4FAF4FBF4FEA81FB818083918367
:101B7000A283B3838091695090916A50A0916B5079
:101B8000B0916C500196A11DB11D80936950909346
:101B90006A50A0936B50B0936C502396CDBFDEBFBC
:101BA000DF91CF91FF91EF91BF91AF919F918F9175
:101BB0007F916F915F914F913F912F911F910F9165
:101BC000FF90EF90DF90CF90BF90AF909F908F905D
:101BD0007F906F905F904F903F902F900F9000926A
:101BE0003B000F900FBE0F901F901895CF93DF937F
:101BF0000F92CDB7DEB789838981882349F080E2CF
:101C000060E00E946F3280E260E00E943B3304C0DB
:101C100080E260E00E94D3320F90DF91CF9108956F
:101C20008F929F92AF92BF92CF92DF92EF92FF92EC
:101C30000F93CF93DF93CDB7DEB72E97CDBFDEBF27
:101C400089836A837B834C832D830E83EF82F8869E
:101C5000C986DA86AB86BC868D869E8689A19AA1C6
:101C6000809367509093685081E00E9497058A8125
:101C70009B81FC01908185E0692F0E94BD068A81CD
:101C80009B810196FC01908186E0692F0E94BD0630
:101C90008A819B810296FC01908187E0692F0E94D6
:101CA000BD0689810E94EC078E810E94F60D84E0BA
:101CB0000E940B3780EC98E024E5FC01208381E052
:101CC0000E946C0885E00E94A51980EA96E022E057
:101CD000FC01208B80EA96E021E0FC01228380E871
:101CE00091E028E7FC01208380E098E020EFFC01F0
:101CF000218380E098E02F813885FC0120A731A75F
:101D000080E098E029853A85FC0122A733A780E08E
:101D100098E02B853C85FC0124A735A780E098E05E
:101D20002D853E85FC0126A737A780E098E02D8110
:101D3000222F30E021503040FC0126A337A380E061
:101D400098E022E0FC01268380E098E02FEFFC0180
:101D5000278380E098E020E038E0F9012081207FAF
:101D60002860FC012083109244401092454010925C
:101D7000695010926A5010926B5010926C501092F1
:101D8000C35080E0809328218093272180932621CF
:101D900080EA90E020EA30E0F90122812660FC012F
:101DA0002283789481E00E94603780E896E020E208
:101DB000FC01218380E49AE023E2FC01218380E49A
:101DC0009AE02C81422F50E020E230E002C0220F46
:101DD000331F4A95E2F7FC0126A337A380E49AE07B
:101DE0002C81422F50E020E130E002C0220F331F4F
:101DF0004A95E2F7FC0122AF33AF80E49AE020E499
:101E00003AE0F9012081207F2160FC01208300005D
:101E10002091695030916A5040916B5050916C50B4
:101E20008D8D9E8DAF8DB8A1281739074A075B07A6
:101E300078F380E098E020E038E0F9012081207F0D
:101E4000FC01208380E49AE020E43AE0F90120815B
:101E5000207FFC01208380EA90E020EA30E0F90155
:101E60002281297FFC012283F89480E00E94603760
:101E70000E94783780E00E946C0880E00E949705FD
:101E80002E96CDBFDEBFDF91CF910F91FF90EF90E7
:101E9000DF90CF90BF90AF909F908F9008951F924A
:101EA0000F920FB60F9200903B000F9211242F93C8
:101EB0003F934F935F936F937F938F939F93AF93D2
:101EC000BF93EF93FF93CF93DF93CDB7DEB70E941D
:101ED000B113DF91CF91FF91EF91BF91AF919F919E
:101EE0008F917F916F915F914F913F912F910F90C3
:101EF00000923B000F900FBE0F901F9018951F92FD
:101F00000F920FB60F9200903B000F9211242F9367
:101F10003F934F935F936F937F938F939F93AF9371
:101F2000BF93EF93FF93CF93DF93CDB7DEB70E94BC
:101F3000B113DF91CF91FF91EF91BF91AF919F913D
:101F40008F917F916F915F914F913F912F910F9062
:101F500000923B000F900FBE0F901F9018951F929C
:101F60000F920FB60F9200903B000F9211242F9307
:101F70003F934F935F936F937F938F939F93AF9311
:101F8000BF93EF93FF93CF93DF93CDB7DEB70E945C
:101F9000B113DF91CF91FF91EF91BF91AF919F91DD
:101FA0008F917F916F915F914F913F912F910F9002
:101FB00000923B000F900FBE0F901F9018951F923C
:101FC0000F920FB60F9200903B000F9211242F93A7
:101FD0003F934F935F936F937F938F939F93AF93B1
:101FE000BF93EF93FF93CF93DF93CDB7DEB70E94FC
:101FF000B1131092C35080E296E0FC018481882FD7
:1020000090E0827090700097B1F080E096E0FC0163
:102010008481882F90E080749070009731F080E286
:1020200096E022E0FC01278310C080E096E020E4E7
:10203000FC0127830AC080E096E020E4FC012683AF
:1020400080E296E022E0FC012583DF91CF91FF91B1
:10205000EF91BF91AF919F918F917F916F915F9120
:102060004F913F912F910F9000923B000F900FBE28
:102070000F901F9018951F920F920FB60F9200901D
:102080003B000F9211242F933F934F935F936F93D5
:102090007F938F939F93AF93BF93EF93FF93CF93D0
:1020A000DF93CDB7DEB72997CDBFDEBF1A821B8283
:1020B0001C821D8219824FC08981882F90E0865A28
:1020C0009F4AFC01808188233CF4CE01069603964A
:1020D0002FEFFC01208305C0CE0106960396FC017C
:1020E0001082CE01069602962981222F30E0265AD0
:1020F0003F4AF9012081FC012083CE01069601961A
:102100002981222F30E02F5F3F4F265A3F4AF901A5
:102110002081FC012083CE0106962981222F30E008
:102120002E5F3F4F265A3F4AF9012081FC01208350
:102130002A813B814C815D818E819F81A885B985F3
:10214000820F931FA41FB51F8A839B83AC83BD831B
:1021500089818D5F898389818C3008F4ADCF8A8134
:102160009B81AC81BD8124E030E040E050E0BC01C7
:10217000CD010E940C62DA01C9018A839B83AC8382
:10218000BD83209167503091685080916950909143
:102190006A50A0916B50B0916C50880F991F880FB6
:1021A000991F280F391F8E819F81A885B985F90154
:1021B00080839183A283B3838091695090916A5008
:1021C000A0916B50B0916C500196A11DB11D8093F0
:1021D000695090936A50A0936B50B0936C502996BD
:1021E000CDBFDEBFDF91CF91FF91EF91BF91AF9156
:1021F0009F918F917F916F915F914F913F912F911F
:102200000F9000923B000F900FBE0F901F901895FB
:102210008F929F92AF92BF92CF92DF92EF920F93E5
:10222000CF93DF93CDB7DEB72C97CDBFDEBF8983C9
:102230006A834B832C830D83EE82CF82D886A98656
:10224000BA868B869C8688A199A1809367509093CB
:10225000685081E00E94970589816B810E94BD06CC
:102260008A810E94EC078E810E94F60D84E00E9414
:102270000B3780EC98E024E5FC01208381E00E948C
:102280006C0889810E94A51980EA96E022E0FC0191
:10229000208B80EA96E021E0FC01228380E891E037
:1022A00028E7FC01208380E099E020EFFC012183F6
:1022B00080E099E02F813885FC0120A731A780E0DC
:1022C00099E029853A85FC0122A733A780E099E0AF
:1022D0002B853C85FC0124A735A780E099E02A8D59
:1022E0003B8DFC0126A737A780E099E02D81222FA6
:1022F00030E021503040FC0126A337A380E099E074
:1023000022E0FC01268380E099E02FEFFC01278387
:1023100080E099E020E039E0F9012081207F286009
:10232000FC0120831092695010926A5010926B50F9
:1023300010926C501092C35080EA90E020EA30E096
:10234000F90122812660FC012283789481E00E94B9
:10235000603780E896E020E2FC01218380E49AE087
:1023600023E2FC01218380E49AE02C81422F50E09B
:1023700020E230E002C0220F331F4A95E2F7FC0151
:1023800026A337A380E49AE02C81422F50E020E17D
:1023900030E002C0220F331F4A95E2F7FC0122AF62
:1023A00033AF80E49AE020E43AE0F9012081207F15
:1023B0002160FC01208300002091695030916A5017
:1023C00040916B5050916C508C8D9D8DAE8DBF8D1A
:1023D000281739074A075B0778F380E099E020E087
:1023E00039E0F9012081207FFC01208380E49AE01C
:1023F00020E43AE0F9012081207FFC01208380EA7B
:1024000090E020EA30E0F9012281297FFC0122835B
:10241000F89480E00E9460370E94783780E00E9444
:102420006C0880E00E9497052C96CDBFDEBFDF913F
:10243000CF910F91EF90DF90CF90BF90AF909F9092
:102440008F9008951F920F920FB60F9200903B004D
:102450000F9211242F933F934F935F936F937F932A
:102460008F939F93AF93BF93EF93FF93CF93DF939C
:10247000CDB7DEB70E94B113DF91CF91FF91EF91FD
:10248000BF91AF919F918F917F916F915F914F918C
:102490003F912F910F9000923B000F900FBE0F9035
:1024A0001F9018951F920F920FB60F9200903B004D
:1024B0000F9211242F933F934F935F936F937F93CA
:1024C0008F939F93AF93BF93EF93FF93CF93DF933C
:1024D000CDB7DEB70E94B113DF91CF91FF91EF919D
:1024E000BF91AF919F918F917F916F915F914F912C
:1024F0003F912F910F9000923B000F900FBE0F90D5
:102500001F9018951F920F920FB60F9200903B00EC
:102510000F9211242F933F934F935F936F937F9369
:102520008F939F93AF93BF93EF93FF93CF93DF93DB
:10253000CDB7DEB70E94B113DF91CF91FF91EF913C
:10254000BF91AF919F918F917F916F915F914F91CB
:102550003F912F910F9000923B000F900FBE0F9074
:102560001F9018951F920F920FB60F9200903B008C
:102570000F9211242F933F934F935F936F937F9309
:102580008F939F93AF93BF93EF93FF93CF93DF937B
:10259000CDB7DEB70E94B1131092C350DF91CF9137
:1025A000FF91EF91BF91AF919F918F917F916F912B
:1025B0005F914F913F912F910F9000923B000F90B0
:1025C0000FBE0F901F9018951F920F920FB60F928B
:1025D00000903B000F9211242F933F934F935F93F2
:1025E0006F937F938F939F93AF93BF93EF93FF93DB
:1025F000CF93DF93CDB7DEB72997CDBFDEBF1A8269
:102600001B821C821D8219824FC08981882F90E015
:10261000865A9F4AFC01808188233CF4CE010696AD
:1026200003962FEFFC01208305C0CE01069603968A
:10263000FC011082CE01069602962981222F30E0FD
:10264000265A3F4AF9012081FC012083CE010696DB
:1026500001962981222F30E02F5F3F4F265A3F4AB3
:10266000F9012081FC012083CE0106962981222FC9
:1026700030E02E5F3F4F265A3F4AF9012081FC018E
:1026800020832A813B814C815D818E819F81A88539
:10269000B985820F931FA41FB51F8A839B83AC83C8
:1026A000BD8389818D5F898389818C3008F4ADCFAA
:1026B0008A819B81AC81BD8124E030E040E050E024
:1026C000BC01CD010E940C62DA01C9018A839B839F
:1026D000AC83BD83209167503091685080916950E0
:1026E00090916A50A0916B50B0916C50880F991FD7
:1026F000880F991F280F391F8A819B81AC81BD816A
:10270000F90180839183A283B38380916950909172
:102710006A50A0916B50B0916C500196A11DB11DF3
:102720008093695090936A50A0936B50B0936C5013
:102730002996CDBFDEBFDF91CF91FF91EF91BF9181
:10274000AF919F918F917F916F915F914F913F9149
:102750002F910F9000923B000F900FBE0F901F9093
:102760001895CF93DF93CDB7DEB780EA96E022E0ED
:10277000FC01268380EC98E02AEAFC012383000018
:1027800080EC98E0FC0182818823D4F78091C350CB
:10279000882F90E020EC38E0F9012381865A9F4A87
:1027A000FC01208380EC98E02AEAFC0123830000EE
:1027B00080EC98E0FC0182818823D4F78091C3509B
:1027C000882F90E0019620EC38E0F9012381865AA9
:1027D0009F4AFC01208380EC98E02AEAFC012383D5
:1027E000000080EC98E0FC0182818823D4F780917E
:1027F000C350882F90E0029620EC38E0F901238145
:10280000865A9F4AFC01208380EA96E022E0FC0180
:1028100025838091C3508D5F8093C350DF91CF910A
:102820000895CF93DF93CDB7DEB72997CDBFDEBF35
:102830001A821B821C821D828091695090916A507D
:10284000A0916B50B0916C500196A11DB11D809369
:10285000695090936A50A0936B50B0936C5080EC89
:1028600098E020EDFC01208319824FC08981882FD8
:1028700090E0865A9F4AFC01808188233CF4CE0177
:10288000069603962FEFFC01208305C0CE01069625
:102890000396FC011082CE01069602962981222F12
:1028A00030E0265A3F4AF9012081FC012083CE0105
:1028B000069601962981222F30E02F5F3F4F265A3E
:1028C0003F4AF9012081FC012083CE01069629812F
:1028D000222F30E02E5F3F4F265A3F4AF9012081D8
:1028E000FC0120832A813B814C815D818E819F8107
:1028F000A885B985820F931FA41FB51F8A839B8368
:10290000AC83BD8389818D5F898389818C3008F494
:10291000ADCF8A819B81AC81BD8124E030E040E075
:1029200050E0BC01CD010E940C62DA01C9018A832A
:102930009B83AC83BD83CE010296FC018081809392
:102940005C50CE010296FC01818180935B50CE01E8
:102950000296FC01828180935A5080E496E020E147
:10296000FC01268380E296E028E0FC01268300003B
:1029700080EC98E026E0FC012383000080EC98E0E6
:10298000FC0182818823D4F780EC98E0FC018381EC
:102990008093665080E296E028E0FC0125830000E9
:1029A00080E296E028E0FC012683000080EC98E0BD
:1029B00022E0FC012383000080EC98E0FC0182818E
:1029C0008823D4F780EC98E0FC01838180936650E3
:1029D00080EC98E020914540FC012383000080ECCE
:1029E00098E0FC0182818823D4F780EC98E0FC0118
:1029F00083818093665080EC98E024E430E4F90110
:102A00002081FC012383000080EC98E0FC0182819E
:102A10008823D4F780EC98E0FC0183818093665092
:102A200080EC98E020915A50FC012383000080EC58
:102A300098E0FC0182818823D4F780EC98E0FC01C7
:102A400083818093665080EC98E020915B50FC017C
:102A50002383000080EC98E0FC0182818823D4F776
:102A600080EC98E0FC0183818093665080EC98E0D4
:102A700020915C50FC012383000080EC98E0FC0175
:102A800082818823D4F780EC98E0FC0183818093D5
:102A9000665080E296E028E0FC01258380E496E021
:102AA00020E1FC01258380EC98E024E5FC012083F3
:102AB00080E496E020E1FC012683809144409091DF
:102AC0004540039680934440909345409091262141
:102AD00080915A50890F80932621909127218091CF
:102AE0005B50890F809327219091282180915C5021
:102AF000890F809328212996CDBFDEBFDF91CF912A
:102B000008952F923F924F925F926F927F928F9291
:102B10009F92AF92BF92CF92DF92EF92FF920F936C
:102B20001F93CF93DF9300D00F92CDB7DEB7AA24C7
:102B3000BB24CC24DD24EE24FF2400E010E0A0928E
:102B40009050B0929150C0929250D0929350E09297
:102B50009450F092955000939650109397502A2DD0
:102B60003B2D4C2D5D2D6E2D7F2D802F912F209391
:102B700088503093895040938A5050938B50609383
:102B80008C5070938D5080938E5090938F502093E3
:102B90008050309381504093825050938350609383
:102BA000845070938550809386509093875080E036
:102BB00080932B2180932A218093292110924440D5
:102BC0001092454019821A8288C281E79CE10E94D6
:102BD000923780914440909145408F58934E809316
:102BE0004440909345401B821C826BC28B819C8128
:102BF00023E030E0B9010E94C3619C01275D3E4D96
:102C0000F90140812B813C8124533C4DF901208105
:102C1000240F875D9E4DFC0120838B819C8123E0E6
:102C200030E0B9010E94C361009709F044C08B8174
:102C30009C8184539C4DFC0180818823D4F4809135
:102C4000585090915950FC011082FC011182FC01F6
:102C500012822FEFFC0123832FEFFC0124832FEF3F
:102C6000FC0125832FEFFC0126832FEFFC01278336
:102C700014C08091585090915950FC011082FC0171
:102C80001182FC011282FC011382FC011482FC01FE
:102C90001582FC011682FC01178280915850909198
:102CA000595002962B813C8124533C4DF9012081DF
:102CB000FC01208324C08B819C8123E030E0B9019A
:102CC0000E94C3618130910571F4809158509091B8
:102CD000595001962B813C8124533C4DF9012081B0
:102CE000FC0120830CC080915850909159502B8149
:102CF0003C8124533C4DF9012081FC0120838B81D0
:102D00009C8129E030E0B9010E94C36182309105C5
:102D100009F094C0A0908050B0908150C090825033
:102D2000D0908350E0908450F09085500091865070
:102D3000109187508091585090915950FC012080FB
:102D4000FC013180FC014280FC015380FC01648065
:102D5000FC017580FC018680FC0197802A2D220DE4
:102D6000E1E02A1508F0E0E03B2D330DF1E03B15E2
:102D700008F0F0E0E30FA1E0E31708F0A0E0FA2B81
:102D80003E2F4C2D440DE1E04C1508F0E0E0F40F2F
:102D9000A1E0F41708F0A0E0EA2B4F2F5D2D550DB0
:102DA000F1E05D1508F0F0E0E50FA1E0E51708F0AF
:102DB000A0E0FA2B5E2F6E2D660DE1E06E1508F097
:102DC000E0E0F60FA1E0F61708F0A0E0EA2B6F2F85
:102DD0007F2D770DF1E07F1508F0F0E0E70FA1E01F
:102DE000E71708F0A0E0FA2B7E2F802F880DE1E096
:102DF000801708F0E0E0F80FA1E0F81708F0A0E075
:102E0000EA2B8F2F912F990DE90F9E2FA22EB32E13
:102E1000C42ED52EE62EF72E082F192FA092805003
:102E2000B0928150C0928250D0928350E0928450F0
:102E3000F092855000938650109387508B819C812F
:102E400029E030E0B9010E94C3618530910509F0A5
:102E500094C0A0908850B0908950C0908A50D09073
:102E60008B50E0908C50F0908D5000918E501091CE
:102E70008F508091585090915950FC012080FC0156
:102E80003180FC014280FC015380FC016480FC0124
:102E90007580FC018680FC0197802A2D220DE1E0DF
:102EA0002A1508F0E0E03B2D330DF1E03B1508F06A
:102EB000F0E0E30FA1E0E31708F0A0E0FA2B3E2FCB
:102EC0004C2D440DE1E04C1508F0E0E0F40FA1E0DA
:102ED000F41708F0A0E0EA2B4F2F5D2D550DF1E01F
:102EE0005D1508F0F0E0E50FA1E0E51708F0A0E0BF
:102EF000FA2B5E2F6E2D660DE1E06E1508F0E0E016
:102F0000F60FA1E0F61708F0A0E0EA2B6F2F7F2D57
:102F1000770DF1E07F1508F0F0E0E70FA1E0E7178B
:102F200008F0A0E0FA2B7E2F802F880DE1E08017BB
:102F300008F0E0E0F80FA1E0F81708F0A0E0EA2BB5
:102F40008F2F912F990DE90F9E2FA22EB32EC42EF5
:102F5000D52EE62EF72E082F192FA0928850B0926A
:102F60008950C0928A50D0928B50E0928C50F0924F
:102F70008D5000938E5010938F508B819C8129E04F
:102F800030E0B9010E94C3618830910509F094C016
:102F9000A0909050B0909150C0909250D09093508B
:102FA000E0909450F0909550009196501091975069
:102FB0008091585090915950FC012080FC01318043
:102FC000FC014280FC015380FC016480FC0175809F
:102FD000FC018680FC0197802A2D220DE1E02A1554
:102FE00008F0E0E03B2D330DF1E03B1508F0F0E098
:102FF000E30FA1E0E31708F0A0E0FA2B3E2F4C2DE1
:10300000440DE1E04C1508F0E0E0F40FA1E0F41706
:1030100008F0A0E0EA2B4F2F5D2D550DF1E05D1576
:1030200008F0F0E0E50FA1E0E51708F0A0E0FA2BCA
:103030005E2F6E2D660DE1E06E1508F0E0E0F60FF4
:10304000A1E0F61708F0A0E0EA2B6F2F7F2D770D97
:10305000F1E07F1508F0F0E0E70FA1E0E71708F0D6
:10306000A0E0FA2B7E2F802F880DE1E0801708F07A
:10307000E0E0F80FA1E0F81708F0A0E0EA2B8F2FAE
:10308000912F990DE90F9E2FA22EB32EC42ED52E6F
:10309000E62EF72E082F192FA0929050B092915043
:1030A000C0929250D0929350E0929450F0929550EA
:1030B00000939650109397508B819C8101968B833F
:1030C0009C838B819C81FCE181379F0708F48ECD26
:1030D00089819A81019689839A8389819A8189302D
:1030E000910508F472CD2496CDBFDEBFDF91CF915C
:1030F0001F910F91FF90EF90DF90CF90BF90AF9016
:103100009F908F907F906F905F904F903F902F9007
:103110000895CF93DF93CDB7DEB71092444010925D
:1031200045401092695010926A5010926B50109264
:103130006C5080E080932821809327218093262162
:1031400081E00E94970584E00E940B3780EC98E0B4
:1031500020EDFC0120838DE080935A5083EF809313
:103160005B5087E580935C50D7C080E496E020E117
:10317000FC01268380E296E028E0FC012683000023
:1031800080EC98E026E0FC012383000080EC98E0CE
:10319000FC0182818823D4F780EC98E0FC018381D4
:1031A0008093665080E296E028E0FC0125830000D1
:1031B00080E296E028E0FC012683000080EC98E0A5
:1031C00022E0FC012383000080EC98E0FC01828176
:1031D0008823D4F780EC98E0FC01838180936650CB
:1031E00080EC98E020914540FC012383000080ECB6
:1031F00098E0FC0182818823D4F780EC98E0FC0100
:1032000083818093665080EC98E024E430E4F901F7
:103210002081FC012383000080EC98E0FC01828186
:103220008823D4F780EC98E0FC018381809366507A
:1032300080EC98E020915A50FC012383000080EC40
:1032400098E0FC0182818823D4F780EC98E0FC01AF
:1032500083818093665080EC98E020915B50FC0164
:103260002383000080EC98E0FC0182818823D4F75E
:1032700080EC98E0FC0183818093665080EC98E0BC
:1032800020915C50FC012383000080EC98E0FC015D
:1032900082818823D4F780EC98E0FC0183818093BD
:1032A000665080E296E028E0FC01258380E496E009
:1032B00020E1FC0125838091444090914540039694
:1032C00080934440909345409091262180915A509C
:1032D000890F809326219091272180915B50890F3F
:1032E000809327219091282180915C50890F8093B1
:1032F00028218091695090916A50A0916B50B091B3
:103300006C500196A11DB11D8093695090936A5035
:10331000A0936B50B0936C508091695090916A501B
:10332000A0916B50B0916C508335F5E59F07F0E0AC
:10333000AF07F0E0BF0708F418CF0E94783780E0AD
:103340000E949705DF91CF910895CF93DF930F925D
:10335000CDB7DEB789838981882F90E08170907026
:10336000882331F080E096E020E4FC01258305C04D
:1033700080E096E020E4FC0126838981882F90E09C
:1033800082709070009731F080E296E022E0FC01BC
:10339000258305C080E296E022E0FC012683898136
:1033A000882F90E084709070009731F080E296E072
:1033B00024E0FC01258305C080E296E024E0FC01C6
:1033C00026830F90DF91CF910895CF93DF930F92D3
:1033D0000F92CDB7DEB789839A8389819A8122E0E3
:1033E0008030920789F480E20E94621D282F898133
:1033F0009A81FC01248781E20E94621D282F898125
:103400009A81FC01258710C084E20E94621D282F4A
:1034100089819A81FC01248785E20E94621D282F00
:1034200089819A81FC0125870F900F90DF91CF91C0
:103430000895CF93DF93CDB7DEB72597CDBFDEBF1D
:103440008B839C836D838B819C8121E0FC01238392
:103450008B819C81FC01248135818D81882F90E0B6
:10346000A901481B590BCA0189839A8389819A81D2
:103470002596CDBFDEBFDF91CF910895CF93DF9327
:10348000CDB7DEB72597CDBFDEBF8B839C836D8321
:103490008B819C8121E0FC0123838B819C81FC0139
:1034A000248135818D81992787FD9095A901481B3D
:1034B000590BCA0189839A8389819A812596CDBF48
:1034C000DEBFDF91CF910895CF93DF930F920F92DC
:1034D000CDB7DEB789839A8389819A8121E0FC0187
:1034E000238389819A81FC01848195810F900F90BB
:1034F000DF91CF910895CF93DF930F920F92CDB7C5
:10350000DEB789839A8389819A8121E0FC01238334
:1035100089819A81FC0184810F900F90DF91CF9176
:103520000895CF93DF930F920F92CDB7DEB78983C3
:103530009A8389819A8121E0FC01238389819A8180
:10354000FC0185810F900F90DF91CF9108950F932B
:103550001F93CF93DF93CDB7DEB76B97CDBFDEBFA1
:103560008A8F9B8F8A8D9B8DFC01848189838A8DB4
:103570009B8DFC01148280E090E0A0E8B2E48A8395
:103580009B83AC83BD836A817B818C819D812BEA87
:103590003AEA4AE25FE30E944161DC01CB018E839B
:1035A0009F83A887B98711E06E817F81888599857F
:1035B00020E030E040E85FE30E94306088230CF0B8
:1035C00010E0112319F081E08A87A3C011E06E8119
:1035D0007F818885998520E030E04FE753E40E94A1
:1035E0003D6118160CF010E0112309F489C06A81BE
:1035F0007B818C819D8120E030E04AE754E40E9489
:103600003460DC01CB018B879C87AD87BE876B85DF
:103610007C858D859E8520E030E04AEF53E40E9452
:103620004161DC01CB018F87988BA98BBA8B11E0AC
:103630006F85788989899A8920E030E040E85FE3E6
:103640000E94306088230CF010E0112329F081E003
:1036500090E08B8B9C8B46C011E06F8578898989BF
:103660009A8920E03FEF4FE757E40E943D6118162A
:103670000CF010E0112361F16B857C858D859E85B2
:1036800020E030E040E251E40E944161DC01CB01E6
:10369000BC01CD010E949C60DC01CB018B8B9C8B1B
:1036A00012C082E390E08D8B9E8B8D899E898C0168
:1036B000C8010197F1F78C010D8B1E8B8B899C89BA
:1036C00001978B8B9C8B8B899C89009751F728C025
:1036D0006F85788989899A890E949C60DC01CB0179
:1036E0008B8B9C8B8B899C898F8B988F8F89988DE6
:1036F0008C01F8013197F1F78F010F8B188F10C0F3
:103700006E817F81888599850E949C60DC01CB0158
:103710008A878A85898F898D182F1A95F1F7198FD5
:103720008A8D9B8D2981FC0124836B96CDBFDEBFE2
:10373000DF91CF911F910F9108950F931F93CF9316
:10374000DF93CDB7DEB76B97CDBFDEBF8A8F9B8F80
:103750008A8D9B8DFC01848189838A8D9B8D21E0DC
:10376000FC01248380E090E0A0E0B3E48A839B83A3
:10377000AC83BD836A817B818C819D812BEA3AEA8F
:103780004AE25FE30E944161DC01CB018E839F83AB
:10379000A887B98711E06E817F818885998520E0AF
:1037A00030E040E85FE30E94306088230CF010E0D6
:1037B000112319F081E08A87A3C011E06E817F8117
:1037C0008885998520E030E04FE753E40E943D6111
:1037D00018160CF010E0112309F489C06A817B816E
:1037E0008C819D8120E030E04AE754E40E943460FF
:1037F000DC01CB018B879C87AD87BE876B857C8581
:103800008D859E8520E030E04AEF53E40E944161BF
:10381000DC01CB018F87988BA98BBA8B11E06F8568
:10382000788989899A8920E030E040E85FE30E9446
:10383000306088230CF010E0112329F081E090E043
:103840008B8B9C8B46C011E06F85788989899A891A
:1038500020E03FEF4FE757E40E943D6118160CF05F
:1038600010E0112361F16B857C858D859E8520E0BC
:1038700030E040E251E40E944161DC01CB01BC0137
:10388000CD010E949C60DC01CB018B8B9C8B12C014
:1038900082E390E08D8B9E8B8D899E898C01C8017F
:1038A0000197F1F78C010D8B1E8B8B899C890197F9
:1038B0008B8B9C8B8B899C89009751F728C06F85D7
:1038C000788989899A890E949C60DC01CB018B8B65
:1038D0009C8B8B899C898F8B988F8F89988D8C017D
:1038E000F8013197F1F78F010F8B188F10C06E819F
:1038F0007F81888599850E949C60DC01CB018A8745
:103900008A85898F898D182F1A95F1F7198F8A8DDD
:103910009B8D2981FC0124836B96CDBFDEBFDF9197
:10392000CF911F910F910895CF93DF93CDB7DEB75D
:103930002A97CDBFDEBF8E839F83688779874A87AA
:103940008A858823A9F119821A821B821C8224C0CD
:1039500088859985FC018081282F20688885998534
:10396000FC01208388859985FC018381882F90E064
:10397000817090700097B1F38885998560E00E940E
:10398000191A29813A81820F931F89839A838B8127
:103990009C8101968B839C838B819C8184309105D3
:1039A000BCF289819A8196958795969587951BC0DB
:1039B0001D8288859985FC018081282F2068888553
:1039C0009985FC01208388859985FC018381882F56
:1039D00090E0817090700097B1F3888599850E947E
:1039E000641A8D838D812A96CDBFDEBFDF91CF9182
:1039F0000895CF93DF93CDB7DEB72A97CDBFDEBF53
:103A00008E839F83688779874A878A858823C1F157
:103A100019821A821B821C8224C088859985FC0128
:103A20008081282F206888859985FC0120838885DE
:103A30009985FC018381882F90E0817090700097B8
:103A4000B1F38885998560E00E943E1A29813A8108
:103A5000820F931F89839A838B819C8101968B832C
:103A60009C838B819C8184309105BCF289819A81F1
:103A700099230CF4039695958795959587951CC089
:103A80001D8288859985FC018081282F2068888582
:103A90009985FC01208388859985FC018381882F85
:103AA00090E0817090700097B1F38885998560E00F
:103AB0000E943E1A8D838D812A96CDBFDEBFDF9195
:103AC000CF9108951F93CF93DF93CDB7DEB725979E
:103AD000CDBFDEBF8D838AEC91E022E0FC01208324
:103AE0008D81882F90E089839A8389819A81FC0156
:103AF00014911B838B818C838AEC91E0FC011082F2
:103B00008C812596CDBFDEBFDF91CF911F910895A7
:103B1000CF93DF93CDB7DEB724E18CE291E2FC01D5
:103B2000322F11923A95E9F70E944E2B80932C2167
:103B300090932D210E94462D0E94A11DDF91CF91CF
:103B40000895CF93DF93CDB7DEB780E896E024E009
:103B5000FC01218380E896E024E0FC01268380E8D4
:103B600096E022E0FC01208B80E896E024E0FC0156
:103B7000228780E896E023E0FC01218780EA90E03C
:103B800020EA30E0F90122812460FC01228378944C
:103B9000DF91CF910895CF93DF93CDB7DEB78CE25D
:103BA00091E2DF91CF910895CF93DF93CDB7DEB748
:103BB0002797CDBFDEBF8B839C836D837E834F832E
:103BC0008B819C8189839A838F81282F255F8981AE
:103BD0009A81FC01208389819A81019689839A8345
:103BE0008D819E81FFEF8F3F9F0711F021E601C07D
:103BF00021E489819A81FC01208389819A8101963F
:103C000089839A8389819A8128E9FC0120838981AB
:103C10009A81019689839A8320912E2189819A81A4
:103C2000FC01208389819A81019689839A83822F5E
:103C30008F5F80932E2189819A8124E332E1FC01F8
:103C40002083318389819A81029689839A8389812D
:103C50009A812D813E81FC012083318389819A8163
:103C6000029689839A8320912C2130912D2189817C
:103C70009A81FC012083318389819A81029689830C
:103C80009A8329813A818B819C81A901481B590B18
:103C9000CA012796CDBFDEBFDF91CF910895EF9285
:103CA000FF920F931F93CF93DF93CDB7DEB7E097CB
:103CB000CDBFDEBF89A79AA76BA77CA72DA73EA77C
:103CC0004FA758AB198262C18DA59EA5AFA5B8A913
:103CD00085369105A105B10520F084E690E0A0E0CD
:103CE000B0E08C83CE014F9629A53AA5B9014C814D
:103CF0000E94D41D8D831A821B828981882F90E0B7
:103D00002BA53CA5280F391FCE014F96B9014C8138
:103D10000E94682B8E838E81882F90E083309105DE
:103D200031F18430910524F48130910539F02EC0B1
:103D30008530910569F08034910541F580913321FA
:103D400090913421019680933321909334211FC0A8
:103D50008091352190913621019680933521909361
:103D600036218A819B8101968A839B8310C0809132
:103D700037219091382101968093372190933821F3
:103D80008A819B8101968A839B8301C000008A817E
:103D90009B81181619060CF0D5C080E090E0A0E2D7
:103DA000B1E48F839887A987BA876F8178858985E1
:103DB0009A852BEA3AEA4AEA5EE30E944161DC0115
:103DC000CB018B879C87AD87BE8711E06B857C8597
:103DD0008D859E8520E030E040E85FE30E94306002
:103DE00088230CF010E0112319F081E08F87A3C025
:103DF00011E06B857C858D859E8520E030E04FE766
:103E000053E40E943D6118160CF010E0112309F4F0
:103E100089C06F81788589859A8520E030E04AE7FE
:103E200054E40E943460DC01CB01888B998BAA8B0F
:103E3000BB8B688979898A899B8920E030E04AE7D1
:103E400053E40E944161DC01CB018C8B9D8BAE8BD6
:103E5000BF8B11E06C897D898E899F8920E030E0DD
:103E600040E85FE30E94306088230CF010E01123EB
:103E700029F081E090E0888F998F46C011E06C892D
:103E80007D898E899F8920E03FEF4FE757E40E94AC
:103E90003D6118160CF010E0112361F168897989F1
:103EA0008A899B8920E030E040E251E40E94416130
:103EB000DC01CB01BC01CD010E949C60DC01CB0187
:103EC000888F998F12C089E190E08A8F9B8F8A8DAD
:103ED0009B8D8C01C8010197F1F78C010A8F1B8F14
:103EE000888D998D0197888F998F888D998D0097EE
:103EF00051F728C06C897D898E899F890E949C60BA
:103F0000DC01CB01888F998F888D998D8C8F9D8F47
:103F10008C8D9D8D8C01C8010197F1F78C010C8F60
:103F20001D8F10C06B857C858D859E850E949C6051
:103F3000DC01CB018F878F858E8F8E8D182F1A9580
:103F4000F1F71E8F8A819B818431910511F48E8156
:103F500027C08E81882309F0D0CE99818C81890F6A
:103F600089838C81882F90E0A0E0B0E02DA53EA54C
:103F70004FA558A979018A01E81AF90A0A0B1B0B07
:103F8000D801C7018DA79EA7AFA7B8AB8DA59EA5E9
:103F9000AFA5B8A90097A105B10509F095CE80E0BD
:103FA000E096CDBFDEBFDF91CF911F910F91FF90C3
:103FB000EF900895CF93DF93CDB7DEB72797CDBFAE
:103FC000DEBF8E839F838E819F8105968A839B832C
:103FD0000E94A7208C838C81882314F480E080C009
:103FE0008A819B812C81FC0120838A819B8101969F
:103FF0008A839B8319820FC00E94A720282F8A8161
:104000009B81FC0120838A819B8101968A839B830B
:1040100089818F5F898399818C81981768F38E815C
:104020009F8108968A839B838A819B81FC01808182
:104030008D838E819F810B968A839B838A819B814E
:10404000FC01208131818E819F81FC012383348397
:104050008A819B8102968A839B838A819B81FC0152
:10406000208131818E819F81FC01218332838A816D
:104070009B8102968A839B830E94CB20882311F424
:1040800010922F21809106209D81981771F48E81C6
:104090009F81FC012181328180910720909108202D
:1040A0002817390711F480E01BC08D81809306200A
:1040B0008E819F81FC018181928180930720909362
:1040C00008208C81882F90E009979C018E819F8128
:1040D0004A815B81BA01A9010E9468628C818B5080
:1040E0002796CDBFDEBFDF91CF910895CF93DF93A9
:1040F000CDB7DEB71092C0211092C1211092C2211B
:10410000DF91CF910895CF93DF930F92CDB7DEB7B4
:1041100089838091C121882F90E0805C9E4D298108
:10412000FC0120838091C121882F90E0019620E836
:1041300030E0B9010E94D7618093C1218091C221F2
:104140008F5F8093C2210F90DF91CF910895CF931D
:10415000DF930F92CDB7DEB78091C021882F90E01A
:10416000805C9E4DFC01808189838091C021882FD5
:1041700090E0019620E830E0B9010E94D761809379
:10418000C0218091C22181508093C22189810F90EA
:10419000DF91CF910895CF93DF93CDB7DEB78091B4
:1041A000C221DF91CF910895CF93DF93CDB7DEB7D2
:1041B00081E00E94D8228F71DF91CF910895CF9333
:1041C000DF93CDB7DEB782E00E94D8228295869534
:1041D0008770DF91CF9108950F931F93CF93DF9353
:1041E000CDB7DEB7E097CDBFDEBF84E696E024E62C
:1041F00036E0F90120812160FC01208384E696E00D
:1042000024E636E0F90120812D7FFC01208380E047
:1042100090E0AEEBB3E489839A83AB83BC8369817E
:104220007A818B819C812BEA3AEA4AEA5EE30E941A
:104230004161DC01CB018D839E83AF83B88711E0A0
:104240006D817E818F81988520E030E040E85FE3DA
:104250000E94306088230CF010E0112319F081E0F7
:104260008987A3C011E06D817E818F81988520E0D0
:1042700030E04FE753E40E943D6118160CF010E067
:10428000112309F489C069817A818B819C8120E0A6
:1042900030E04AE754E40E943460DC01CB018A87B5
:1042A0009B87AC87BD876A857B858C859D8520E053
:1042B00030E04AE753E40E944161DC01CB018E8784
:1042C0009F87A88BB98B11E06E857F858889998936
:1042D00020E030E040E85FE30E94306088230CF08B
:1042E00010E0112329F081E090E08A8B9B8B46C07F
:1042F00011E06E857F858889998920E03FEF4FE73F
:1043000057E40E943D6118160CF010E0112361F192
:104310006A857B858C859D8520E030E040E251E414
:104320000E944161DC01CB01BC01CD010E949C6077
:10433000DC01CB018A8B9B8B12C089E190E08C8BD6
:104340009D8B8C899D898C01C8010197F1F78C01A7
:104350000C8B1D8B8A899B8901978A8B9B8B8A8901
:104360009B89009751F728C06E857F858889998938
:104370000E949C60DC01CB018A8B9B8B8A899B8984
:104380008E8B9F8B8E899F898C01F8013197F1F775
:104390008F010E8B1F8B10C06D817E818F81988560
:1043A0000E949C60DC01CB0189878985888F888D7C
:1043B000182F1A95F1F7188F84E696E024E636E078
:1043C000F90120812E7FFC01208380E090E0A0E8AD
:1043D000BFE3898F9A8FAB8FBC8F698D7A8D8B8D60
:1043E0009C8D2BEA3AEA4AEA5EE30E944161DC01D5
:1043F000CB018D8F9E8FAF8FB8A311E06D8D7E8D19
:104400008F8D98A120E030E040E85FE30E943060AB
:1044100088230CF010E0112319F081E089A3A3C0D8
:1044200011E06D8D7E8D8F8D98A120E030E04FE7FB
:1044300053E40E943D6118160CF010E0112309F4BA
:1044400089C0698D7A8D8B8D9C8D20E030E04AE7A4
:1044500054E40E943460DC01CB018AA39BA3ACA38B
:10446000BDA36AA17BA18CA19DA120E030E04AE719
:1044700053E40E944161DC01CB018EA39FA3A8A756
:10448000B9A711E06EA17FA188A599A520E030E031
:1044900040E85FE30E94306088230CF010E01123B5
:1044A00029F081E090E08AA79BA746C011E06EA1A9
:1044B0007FA188A599A520E03FEF4FE757E40E9430
:1044C0003D6118160CF010E0112361F16AA17BA187
:1044D0008CA19DA120E030E040E251E40E944161C6
:1044E000DC01CB01BC01CD010E949C60DC01CB0151
:1044F0008AA79BA712C089E190E08CA79DA78CA5F5
:104500009DA58C01C8010197F1F78C010CA71DA78F
:104510008AA59BA501978AA79BA78AA59BA500971B
:1045200051F728C06EA17FA188A599A50E949C6023
:10453000DC01CB018AA79BA78AA59BA58EA79FA775
:104540008EA59FA58C01F8013197F1F78F010EA779
:104550001FA710C06D8D7E8D8F8D98A10E949C60CD
:10456000DC01CB0189A389A188AB88A9182F1A95F2
:10457000F1F718AB84E696E024E636E0F9012081F5
:104580002160FC01208301C000008DE10E94D8223F
:104590008130D1F78CE10E94D8228730A9F7000042
:1045A000E096CDBFDEBFDF91CF911F910F910895AF
:1045B000CF93DF930F920F92CDB7DEB78A83198224
:1045C0008A8180688A838FE390E0FC0180818093F8
:1045D0004340F89481E00E945D2E8A810E94BA2FA8
:1045E000898389810E94BA2F898380E00E945D2E91
:1045F0008FE390E020914340FC01208378948981EF
:104600000F900F90DF91CF910895CF93DF9300D05B
:104610000F92CDB7DEB78C831A821B8219821DC020
:104620009C818981890F0E94D822882F90E029815E
:10463000222F30E0220F331F220F331F220F331F90
:10464000022E02C0880F991F0A94E2F7982F8C81DE
:10465000892B8C8389818F5F89838981823000F3E4
:104660008A819B812496CDBFDEBFDF91CF910895D3
:10467000CF93DF9300D0CDB7DEB78A836B838A8177
:10468000806C8A838FE390E0FC01808180934340BB
:10469000F89481E00E945D2E8A810E94BA2F89835E
:1046A0008B810E94BA2F898380E00E945D2E8FE368
:1046B00090E020914340FC01208378942396CDBF65
:1046C000DEBFDF91CF910895CF93DF9300D00F929B
:1046D000CDB7DEB78A836B837C8319821DC09A8134
:1046E0008981492F480F8981882F90E09C01220FF2
:1046F000331F220F331F220F331F8B819C8102C077
:10470000969587952A95E2F7982F842F692F0E9416
:10471000382389818F5F89838981823000F32496D1
:10472000CDBFDEBFDF91CF910895CF93DF9300D04F
:104730000F92CDB7DEB78A836B837C83198214C056
:104740009A818981492F480F8981882F90E02B8198
:104750003C81820F931FFC019081842F692F0E945E
:10476000382389818F5F89838981883048F3249633
:10477000CDBFDEBFDF91CF910895CF93DF9300D0FF
:104780000F92CDB7DEB78A836B834C838A810E94F8
:10479000D82289839B818C8189238B838C81982F5C
:1047A000909589818923898399818B81892B89833C
:1047B0008A8169810E9438232496CDBFDEBFDF91B4
:1047C000CF910895CF93DF93CDB7DEB72897CDBFB4
:1047D000DEBF8B839C836D834E835F8328878D81AF
:1047E000282F30E08885882F90E0820F931F803833
:1047F00091050CF045C08FE390E0FC01808180932F
:104800004340F89481E00E945D2E80E60E94BA2F1A
:104810008A83198210C08B819C81FC0120818B814D
:104820009C8101968B839C83822F0E94BA2F8A835E
:1048300089818F5F898399818D81981760F31982AF
:1048400010C08E819F81FC0120818E819F81019605
:104850008E839F83822F0E94BA2F8A8389818F5FE4
:10486000898399818885981760F380E00E945D2E86
:104870008FE390E020914340FC012083789401C0B5
:1048800000002896CDBFDEBFDF91CF9108950F9332
:104890001F93CF93DF93CDB7DEB7E797CDBFDEBFD2
:1048A0008FE390E0FC01808180934340F89481E0A5
:1048B0000E945D2E80E20E94BA2F80E00E94BA2FF3
:1048C0008A838A81833008F466C08A8188230CF445
:1048D00062C08A81082F10E00E94CB20882F90E0D0
:1048E00020E830E0A901481B590BCA010817190735
:1048F000F4F48A810E94832019820AC080E00E9419
:10490000BA2F8B838B810E94832089818F5F89835B
:1049100099818A81981790F380E896E024E0FC0161
:10492000258380E896E024E0FC01268334C00E94C1
:10493000CB1D8C839D83198207C080E00E94BA2F13
:104940008B8389818F5F898399818A819817A8F3E6
:104950008C819D81FC01858596859C012F5F3F4F51
:104960008C819D81FC0125873687CE01069628EE35
:1049700031E0B9010E9458620F920F928DB79EB735
:1049800001969E012A5F3F4FFC01208331830E94E4
:10499000B4620F900F9080E00E945D2E8FE390E054
:1049A00020914340FC0120837894E796CDBFDEBF81
:1049B000DF91CF911F910F910895CF93DF930F92C5
:1049C000CDB7DEB789838981882F90E0813091054A
:1049D000C1F0823091051CF4009741F033C0823061
:1049E0009105D1F08330910511F12CC08CE068E085
:1049F0004FE30E94BD2386E162E043E00E94BD23B5
:104A000021C08CE06CE04FE30E94BD2386E162E0B0
:104A100043E00E94BD2316C08CE06CE14FE30E948E
:104A2000BD2386E162E043E00E94BD230BC08CE021
:104A300060E04FE30E94BD2386E163E043E00E9413
:104A4000BD2300000F90DF91CF9108950F931F9326
:104A5000CF93DF93CDB7DEB76A97CDBFDEBF8A8F26
:104A600088E06A8D4FE10E94BD230E94D420898393
:104A70008981863021F08981893009F0D5C080E0B4
:104A800090E0ACEDB2E48A839B83AC83BD836A8102
:104A90007B818C819D812BEA3AEA4AEA5EE30E949F
:104AA0004161DC01CB018E839F83A887B98711E028
:104AB0006E817F818885998520E030E040E85FE362
:104AC0000E94306088230CF010E0112319F081E07F
:104AD0008A87A3C011E06E817F818885998520E057
:104AE00030E04FE753E40E943D6118160CF010E0EF
:104AF000112309F489C06A817B818C819D8120E02A
:104B000030E04AE754E40E943460DC01CB018B873B
:104B10009C87AD87BE876B857C858D859E8520E0D3
:104B200030E04AE753E40E944161DC01CB018F870A
:104B3000988BA98BBA8B11E06F85788989899A89BE
:104B400020E030E040E85FE30E94306088230CF012
:104B500010E0112329F081E090E08B8B9C8B46C004
:104B600011E06F85788989899A8920E03FEF4FE7C6
:104B700057E40E943D6118160CF010E0112361F11A
:104B80006B857C858D859E8520E030E040E251E498
:104B90000E944161DC01CB01BC01CD010E949C60FF
:104BA000DC01CB018B8B9C8B12C089E190E08D8B5B
:104BB0009E8B8D899E898C01C8010197F1F78C012C
:104BC0000D8B1E8B8B899C8901978B8B9C8B8B8982
:104BD0009C89009751F728C06F85788989899A89BF
:104BE0000E949C60DC01CB018B8B9C8B8B899C8908
:104BF0008F8B988F8F89988D8C01C8010197F1F761
:104C00008C010F8B188F10C06E817F8188859985EC
:104C10000E949C60DC01CB018A878A85898F898DFF
:104C2000182F1A95F1F7198F88E00E94D822882F43
:104C300090E09C012F7130708A8D882F90E02817AA
:104C4000390711F480E401C083E46A96CDBFDEBF6A
:104C5000DF91CF911F910F910895CF93DF930F9222
:104C6000CDB7DEB7898385E069810E9438230F9034
:104C7000DF91CF9108950F931F93CF93DF93CDB71B
:104C8000DEB7C256D040CDBFDEBF9E012E593F4F8A
:104C9000F901808384E696E0FC018081882F90E012
:104CA00082709070009711F084E491C40E94D42027
:104CB00089838981823149F08981813131F089810B
:104CC000813019F08981823039F400000E94D420AB
:104CD000982F89819817D1F3CE018E599F4FFC01EF
:104CE0008081882F90E08631910509F4CDC189310A
:104CF000910509F4E9C08830910509F0F7C284E60E
:104D000096E024E636E0F90120812D7FFC01208326
:104D100082E063E04FE10E94BD2380E090E0A0E8E4
:104D2000BFE38A839B83AC83BD836A817B818C8153
:104D30009D812BEA3AEA4AEA5EE30E944161DC0186
:104D4000CB018E839F83A887B98711E06E817F8115
:104D50008885998520E030E040E85FE30E9430607C
:104D600088230CF010E0112319F081E08A87A3C09A
:104D700011E06E817F818885998520E030E04FE7E2
:104D800053E40E943D6118160CF010E0112309F461
:104D900089C06A817B818C819D8120E030E04AE777
:104DA00054E40E943460DC01CB018B879C87AD8783
:104DB000BE876B857C858D859E8520E030E04AE747
:104DC00053E40E944161DC01CB018F87988BA98B52
:104DD000BA8B11E06F85788989899A8920E030E063
:104DE00040E85FE30E94306088230CF010E011235C
:104DF00029F081E090E08B8B9C8B46C011E06F85A1
:104E0000788989899A8920E03FEF4FE757E40E942B
:104E10003D6118160CF010E0112361F16B857C8563
:104E20008D859E8520E030E040E251E40E944161A2
:104E3000DC01CB01BC01CD010E949C60DC01CB01F7
:104E40008B8B9C8B12C089E190E08D8B9E8B8D8922
:104E50009E898C01C8010197F1F78C010D8B1E8B87
:104E60008B899C8901978B8B9C8B8B899C89009764
:104E700051F729C06F85788989899A890E949C6039
:104E8000DC01CB018B8B9C8B8B899C898F8B988FC2
:104E90008F89988D8C01F8013197F1F78F010F8B75
:104EA000188F24C26E817F81888599850E949C60BD
:104EB000DC01CB018A878A85898F898D182F1A9505
:104EC000F1F7198F13C212C28981863109F00BC222
:104ED00082E069E04FE10E94BD2380E090E0A0E81D
:104EE000BFE38A8F9B8FAC8FBD8F6A8D7B8D8C8D3E
:104EF0009D8D2BEA3AEA4AEA5EE30E944161DC01B9
:104F0000CB018E8F9F8FA8A3B9A311E06E8D7F8DEB
:104F100088A199A120E030E040E85FE30E94306082
:104F200088230CF010E0112319F081E08AA3A3C0BC
:104F300011E06E8D7F8D88A199A120E030E04FE7D0
:104F400053E40E943D6118160CF010E0112309F49F
:104F500089C06A8D7B8D8C8D9D8D20E030E04AE785
:104F600054E40E943460DC01CB018BA39CA3ADA36D
:104F7000BEA36BA17CA18DA19EA120E030E04AE7F9
:104F800053E40E944161DC01CB018FA398A7A9A73C
:104F9000BAA711E06FA178A589A59AA520E030E015
:104FA00040E85FE30E94306088230CF010E011239A
:104FB00029F081E090E08BA79CA746C011E06FA18B
:104FC00078A589A59AA520E03FEF4FE757E40E9416
:104FD0003D6118160CF010E0112361F16BA17CA16A
:104FE0008DA19EA120E030E040E251E40E944161A9
:104FF000DC01CB01BC01CD010E949C60DC01CB0136
:105000008BA79CA712C089E190E08DA79EA78DA5D4
:105010009EA58C01C8010197F1F78C010DA71EA771
:105020008BA59CA501978BA79CA78BA59CA50097FA
:1050300051F729C06FA178A589A59AA50E949C6007
:10504000DC01CB018BA79CA78BA59CA58FA798AB58
:105050008FA598A98C01F8013197F1F78F010FA75F
:1050600018AB41C16E8D7F8D88A199A10E949C6073
:10507000DC01CB018AA38AA189AB89A9182F1A95D3
:10508000F1F719AB30C12FC18981893109F02DC1E8
:1050900082E069E04FE10E94BD2380E090E0A0E85B
:1050A000BFE38AAB9BABACABBDAB6AA97BA98CA9B8
:1050B0009DA92BEA3AEA4AEA5EE30E944161DC01DB
:1050C000CB018EAB9FABA8AFB9AF11E06EA97FA9A2
:1050D00088AD99AD20E030E040E85FE30E943060A9
:1050E00088230CF010E0112319F081E08AAFE6C0AC
:1050F00011E06EA97FA988AD99AD20E030E04FE7BF
:1051000053E40E943D6118160CF010E0112309F4DD
:10511000CCC06AA97BA98CA99DA920E030E04AE710
:1051200054E40E943460DC01CB018BAF9CAFADAF87
:10513000BEAF8E01015C1F4F6BAD7CAD8DAD9EADE2
:1051400020E030E04AE753E40E944161DC01CB01FA
:10515000F80180839183A283B383CE01CF9611E0BF
:10516000FC01608171818281938120E030E040E820
:105170005FE30E94306088230CF010E0112349F0B7
:10518000CE018D5B9F4F21E030E0FC012083318315
:105190006EC0CE01CF9611E0FC01608171818281E9
:1051A000938120E03FEF4FE757E40E943D611816DE
:1051B0000CF010E0112309F449C06BAD7CAD8DAD4E
:1051C0009EAD20E030E040E251E40E944161DC010C
:1051D000CB018E010D5B1F4FBC01CD010E949C6075
:1051E000DC01CB01F8018083918327C0CE018B5B6A
:1051F0009F4F29E130E0FC0120833183CE018B5B9E
:105200009F4FFC01808191818C01C8010197F1F7CA
:105210008C01CE018B5B9F4FFC0100831183CE017B
:105220008D5B9F4F9E012D5B3F4FF90120813181A6
:1052300021503040FC0120833183CE018D5B9F4F94
:10524000FC0180819181009789F64CC08E010D5B35
:105250001F4FCE01CF96FC016081718182819381C5
:105260000E949C60DC01CB01F80180839183CE0118
:10527000895B9F4F9E012D5B3F4FF901208131815A
:10528000FC0120833183CE01895B9F4FFC0180812B
:1052900091818C01C8010197F1F78C01CE01895BE6
:1052A0009F4FFC010083118320C06EA97FA988ADA8
:1052B00099AD0E949C60DC01CB018AAFCE01875B77
:1052C0009F4F2AADFC012083CE01875B9F4FFC01DD
:1052D0008081182F1A95F1F7CE01875B9F4FFC0153
:1052E000108303C002C0000001C000009E012E59BF
:1052F0003F4F82E0F90160814FE10E94BD239E0192
:10530000265B3F4F80E090E0ACEDB2E4F901808392
:105310009183A283B3838E01025B1F4FCE01865B14
:105320009F4FFC0160817181828193812BEA3AEA6F
:105330004AEA5EE30E944161DC01CB01F80180830F
:105340009183A283B383CE01825B9F4F11E0FC0166
:10535000608171818281938120E030E040E85FE3E9
:105360000E94306088230CF010E0112339F0CE0148
:105370008E5A9F4F21E0FC01208305C1CE01825B44
:105380009F4F11E0FC01608171818281938120E057
:1053900030E04FE753E40E943D6118160CF010E036
:1053A000112309F4DFC0CE01865B9F4FFC016081B1
:1053B00071818281938120E030E04AE754E40E94C9
:1053C0003460DC01CB019E012D5A3F4FF9018083EF
:1053D0009183A283B3838E01095A1F4FCE018D5A48
:1053E0009F4FFC01608171818281938120E030E0D8
:1053F0004AE753E40E944161DC01CB01F80180835C
:105400009183A283B383CE01895A9F4F11E0FC019F
:10541000608171818281938120E030E040E85FE328
:105420000E94306088230CF010E0112349F0CE0177
:10543000855A9F4F21E030E0FC012083318374C006
:10544000CE01895A9F4F11E0FC01608171818281F8
:10545000938120E03FEF4FE757E40E943D6118162B
:105460000CF010E0112309F44DC0CE018D5A9F4F6E
:10547000FC01608171818281938120E030E040E213
:1054800051E40E944161DC01CB018E01055A1F4F9E
:10549000BC01CD010E949C60DC01CB01F80180833E
:1054A000918327C0CE01835A9F4F29E130E0FC0150
:1054B00020833183CE01835A9F4FFC0180819181EB
:1054C0008C01C8010197F1F78C01CE01835A9F4FDF
:1054D000FC0100831183CE01855A9F4F9E01255AFE
:1054E0003F4FF9012081318121503040FC01208360
:1054F0003183CE01855A9F4FFC01808191810097B5
:1055000089F658C08E01055A1F4FCE01895A9F4F08
:10551000FC0160817181828193810E949C60DC0129
:10552000CB01F80180839183CE01815A9F4F9E0168
:10553000255A3F4FF90120813181FC0120833183BD
:10554000CE01815A9F4FFC01808191818C01C8015D
:105550000197F1F78C01CE01815A9F4FFC01008326
:10556000118328C08E010E5A1F4FCE01825B9F4FC0
:10557000FC0160817181828193810E949C60DC01C9
:10558000CB01F8018083CE018F599F4F9E012E5A87
:105590003F4FF9012081FC012083CE018F599F4F9D
:1055A000FC018081182F1A95F1F7CE018F599F4F7A
:1055B000FC0110830E94D420282FCE018E599F4FCA
:1055C000FC018081281711F480E401C083E4CE59E6
:1055D000DF4FCDBFDEBFDF91CF911F910F910895B7
:1055E000CF93DF930F920F92CDB7DEB789839A8363
:1055F00029813A8180E090E0B90148E050E00E94C2
:10560000132F29813A8184E2B9010E9495230F90DA
:105610000F90DF91CF910895CF93DF930F920F9268
:10562000CDB7DEB789839A8329813A8180E090E003
:10563000B90148E050E00E944F2F0F900F90DF918A
:10564000CF910895CF93DF9300D000D0CDB7DEB7D0
:105650008D839E83CE01059689839A830E94CB1DFC
:105660008B839C8329813A8189E090E0B90142E0F3
:1056700050E00E94132F2D813E8180E2B9010E94EB
:1056800064232D813E818B819C81FC0120833183A9
:105690002696CDBFDEBFDF91CF910895CF93DF93E4
:1056A0000F920F92CDB7DEB789E090E09E012F5F99
:1056B0003F4FB90142E050E00E944F2FCE010196CA
:1056C000FC01808191810F900F90DF91CF9108951F
:1056D000CF93DF93CDB7DEB72897CDBFDEBF8C83E6
:1056E0009D836E837F8348870E94D42089830E9494
:1056F000CB1D8A839B838981823019F08981823115
:1057000011F484E423C088E00E943B2689E10E94D2
:105710003B268C819D812E813F816AE0A9012885ED
:105720000E94E22382E062E04FE10E94BD2300007C
:105730008A819B81FC01948181E089278823C1F7BC
:105740008A819B81FC0114820E94DF202896CDBFB4
:10575000DEBFDF91CF9108950F931F93CF93DF9317
:10576000CDB7DEB76997CDBFDEBF898F898D88231E
:1057700069F088E00E943B2684E696E024E636E065
:10578000F90120812260FC012083E1C084E696E0DB
:1057900024E636E0F90120812D7FFC01208380E0A2
:1057A00090E0A0E7B3E489839A83AB83BC836981EB
:1057B0007A818B819C812BEA3AEA4AEA5EE30E9475
:1057C0004161DC01CB018D839E83AF83B88711E0FB
:1057D0006D817E818F81988520E030E040E85FE335
:1057E0000E94306088230CF010E0112319F081E052
:1057F0008987A3C011E06D817E818F81988520E02B
:1058000030E04FE753E40E943D6118160CF010E0C1
:10581000112309F489C069817A818B819C8120E000
:1058200030E04AE754E40E943460DC01CB018A870F
:105830009B87AC87BD876A857B858C859D8520E0AD
:1058400030E04AE753E40E944161DC01CB018E87DE
:105850009F87A88BB98B11E06E857F858889998990
:1058600020E030E040E85FE30E94306088230CF0E5
:1058700010E0112329F081E090E08A8B9B8B46C0D9
:1058800011E06E857F858889998920E03FEF4FE799
:1058900057E40E943D6118160CF010E0112361F1ED
:1058A0006A857B858C859D8520E030E040E251E46F
:1058B0000E944161DC01CB01BC01CD010E949C60D2
:1058C000DC01CB018A8B9B8B12C089E190E08C8B31
:1058D0009D8B8C899D898C01C8010197F1F78C0102
:1058E0000C8B1D8B8A899B8901978A8B9B8B8A895C
:1058F0009B89009751F728C06E857F858889998993
:105900000E949C60DC01CB018A8B9B8B8A899B89DE
:105910008E8B9F8B8E899F898C01F8013197F1F7CF
:105920008F010E8B1F8B10C06D817E818F819885BA
:105930000E949C60DC01CB0189878985888F888DD6
:10594000182F1A95F1F7188F86E10E943B26699669
:10595000CDBFDEBFDF91CF911F910F910895CF93FF
:10596000DF93CDB7DEB7EA97CDBFDEBF0E94EC2054
:105970008EE060E00E94382382E063E04FE10E9405
:10598000BD23000081E00E94D822882F90E08F7113
:10599000907088309105B1F78EE260E440EC0E948F
:1059A000BD238EE06CE00E94382384E060E240E298
:1059B0000E94BD2381E00E94DD2481E00E94262513
:1059C00086E10E943B2682E264E372E10E94642346
:1059D0000E944E2B9C0180E2B9010E946423CE01FB
:1059E00001960E940C2B84E29E012F5F3F4FB9016C
:1059F0000E94952382E796E022E736E0F9012081B4
:105A00002160FC01208389E696E029E636E0F90171
:105A100020812360FC0120838AE696E02AE636E0B6
:105A2000F90120812460FC01208380EA90E020EAD3
:105A300030E0F90122812760FC0122830E94D420FA
:105A40008631B1F0CE0109962CE032E0B9010E9416
:105A500058620F920F928DB79EB701969E01275FF5
:105A60003F4FFC01208331830E94B4620F900F905E
:105A70001092BF501092C0501092C1501092C2505C
:105A8000EA96CDBFDEBFDF91CF910895CF93DF932C
:105A9000CDB7DEB70E948F2F80E696E020E636E095
:105AA000F90120812260FC01208380E696E020E657
:105AB00036E0F90120812160FC0120830E94AF2C97
:105AC000DF91CF9108951F920F920FB60F92009021
:105AD0003B000F9211242F933F934F935F936F934B
