:100000000C9416010C9437010C9437010C943701B1
:100010000C9437010C9437010C9437010C94370180
:100020000C9437010C9437010C9437010C94370170
:100030000C9437010C9437010C942D090C94370162
:100040000C94F20D0C94CA0D0C94A20D0C945C0D42
:100050000C947F070C9437010C9437010C943701F2
:100060000C9437010C9437010C9437010C94370130
:100070000C9437010C9437010C9437010C94370120
:100080000C9437010C9437010C9437010C94370110
:100090000C9437010C9437010C9437010C94370100
:1000A0000C9437010C9437010C9437010C94E02028
:1000B0000C9437010C9437010C9437010C943701E0
:1000C0000C9437010C9437010C9437010C943701D0
:1000D0000C9437010C9437010C9437010C943701C0
:1000E0000C9437010C9437010C9437010C943701B0
:1000F0000C9437010C9437010C9437010C943701A0
:100100000C94C81A0C9437010C9437010C943701E5
:100110000C9437010C9437010C9437010C9437017F
:100120000C9437010C9437010C9437010C9437016F
:100130000C9437010C94D50A0C9437010C94340DAF
:100140000C940C0D0C94E40C0C94BA0C0C949D03C0
:100150000C9437010C9437010C9437010C9437013F
:100160000C9437010C9437010C9437010C9437012F
:100170000C9437010C9437010C9437010C9437011F
:100180000C9437010C9437010C9437010C9437010F
:100190000C9437010C9437010C9437010C943701FF
:1001A0000C9411080C9437010C9437010C9437010E
:1001B0000C9437010C9437010C9437010C943701DF
:1001C0000C9437010C9437010C9437010C943701CF
:1001D0000C9437010C9437010C9437010C943701BF
:1001E0000C9437010C943701524144494F204E4F33
:1001F0005420494E495449414C495A454420505293
:100200004F5045524C590A004255464645522046E9
:10021000554C4C2E20544F5353494E4720494E4382
:100220004F4D494E4720444154410A0011241FBEFE
:10023000CFEFDFE5DEBFCDBF00E00CBF11E2A0E0F5
:10024000B0E2E0E7FDE700E00BBF02C007900D92CF
:10025000A833B107D9F710E5A8E3B1E201C01D92B8
:10026000AD3DB107E1F70E9401020C94B63E0C943B
:100270000000CF92DF92EF92FF920F931F93CF93E4
:10028000DF936B017C01DC01CB0188559240A040DB
:10029000B040893E2FE392072FE0A20720E0B2078B
:1002A00008F05CC00E945A1DE0E4F6E088E081831B
:1002B000858384E08283CC0CDD1CEE1CFF1CCC0CFF
:1002C000DD1CEE1CFF1CC701B601660F771F881FDF
:1002D000991F660F771F881F991F0E94043A9B0180
:1002E000AC0160E074E284EF9BE40E94703920E08E
:1002F00030E040E85FE30E940B39C62FD72F182F5C
:10030000092F862F9D2FA12FB02FBC01CD010E9458
:10031000D8396B017C0180E090E00E94043A9B0197
:10032000AC018C2F9D2FA12FB02FBC01CD010E94BD
:100330000B3920E030E040E05FE30E94923A8823EE
:100340001CF00894C11CD11CE0EAF8E0C682D782F8
:1003500083E0858388E1848381E001C080E0DF91D0
:10036000CF911F910F91FF90EF90DF90CF90089564
:10037000E0EAF8E0918195FFFDCF8093A008089511
:10038000E0EAF8E081818823ECF78091A0080895E5
:100390008F929F92AF92BF92CF92DF92EF92FF9295
:1003A000CF93DF936A017B0141155105610571050A
:1003B00091F0C82FD92F88249924540189910E9443
:1003C000B8010894811C911CA11CB11C8C149D04C3
:1003D000AE04BF0499F7DF91CF91FF90EF90DF90CB
:1003E000CF90BF90AF909F908F900895E0EAF8E093
:1003F0008481877E8483E0E4F6E088E086838283DC
:100400000895CF93DF93CDB7DEB76A97CDBFDEBF38
:1004100019821A821B821C821092D52181E080935E
:10042000CD500E945A1D0E94701681E00E94F4195E
:1004300082E090E00E94B6180E9491167C010F2E77
:10044000F8EECF2EF3E0DF2EF02D1A8E0F2EF4E60D
:100450008F2EF0E09F2EF0E0AF2EF0E0BF2EF02DBB
:1004600002C081E08A8FF70183818823E1F3CE0106
:1004700005960E9457178130B1F78D81823571F052
:10048000833530F4863409F44EC0873461F714C0E4
:10049000833509F44BC0843531F750C08091CD507D
:1004A000882309F380E06A8DA60128EE33E00FED82
:1004B00013E20E949915D7CF8E818830D1F0893010
:1004C00038F4823071F2843089F0813009F50CC043
:1004D0008032A9F0813218F48031D1F40DC080341B
:1004E00089F08038A9F411C01A8EBDCFF2E0FA8FDE
:1004F000BACF83E08A8FB7CF94E09A8FB4CFE5E08C
:10050000EA8FB1CFF6E0FA8FAECF87E08A8FABCF1C
:1005100080E090E060E070E22CE030E040E050E00D
:100520000E949416A0CFCE80DF809DCF8091CD50C9
:10053000882309F098CF0E94C50795CF8091CD50B0
:10054000882309F490CF8091D521882309F48BCF9B
:100550000E94E607A0E0B0E089839A83AB83BC8366
:1005600089819A81AB81BC810097A105B10509F40D
:10057000A9C089819A81AB81BC81BC01CD01660F84
:10058000771F881F991F660F771F881F991FA50166
:1005900094010E94003B022F298F89819A81AB81AF
:1005A000BC81BC01CD01660F771F881F991F660FA4
:1005B000771F881F991FA50194010E94003BDC0151
:1005C000CB010097A105B10511F00F5F098F80E005
:1005D00090E0BE01675E7F4F21E030E040E050E0F8
:1005E0000E94941689819A81AB81BC81880F991FE2
:1005F000AA1FBB1F880F991FAA1FBB1F0097A10529
:10060000B10509F45FC040E050E0BA0100E010E03D
:1006100089819A81AB81BC81880F991FAA1FBB1F5A
:10062000880F991FAA1FBB1F841B950BA60BB70B26
:1006300084369105A105B10550F0B80161527C4D99
:1006400080E090E0A50194010E9494161CC089816D
:100650009A81AB81BC81F801E152FC4D880F991F52
:10066000AA1FBB1F880F991FAA1FBB1F2C013D018A
:10067000441A550A660A770AA301920180E090E0C5
:10068000BF010E9494168FE99FE00197F1F700C027
:1006900000000C591F4FA801662757FD6095762F63
:1006A00089819A81AB81BC81880F991FAA1FBB1FCA
:1006B000880F991FAA1FBB1F481759076A077B0796
:1006C00008F4A6CF1092D521CECE0F931F93CF93CF
:1006D0008C01C1E0C093C85083E080935E400E94CB
:1006E00070168091C85090E00E94B61888ECE0E83F
:1006F000F1E08183E0E4F9E089E0808382E08683B1
:1007000024EF31E0029FC001039F900D129F900DD6
:10071000112486A397A3E0E4F8E080E09AEF86A393
:1007200097A3C683C083E0EAF0E08281876082837A
:100730007894CF911F910F91089578941F920F9202
:100740000FB60F920BB60F921124EF92FF920F93F8
:100750001F932F933F934F935F936F937F938F9349
:100760009F93AF93BF93EF93FF93CF93DF93CDB757
:10077000DEB72897CDBFDEBF109240081092400927
:1007800082E080935E40DE011196EDE0F0E286E0CB
:1007900001900D928150E1F70FEC10E58091C85067
:1007A00090E0B8014AE050E00E94A03B7E0108942E
:1007B000E11CF11CC701B8010E94873B0E94080898
:1007C000F70101900020E9F73197EE19FF099F0129
:1007D00040E050E080E090E0B7010E949416289637
:1007E000CDBFDEBFDF91CF91FF91EF91BF91AF9170
:1007F0009F918F917F916F915F914F913F912F9139
:100800001F910F91FF90EF900F900BBE0F900FBEB6
:100810000F901F901895CF93C62F21E030E0A901CB
:1008200002C0440F551F8A95E2F7CA0161E00E9499
:100830001B1EC0FF05C080E4E0E0F6E0858304C035
:1008400080E4E0E0F6E08683C1FF05C082E0E0E2FC
:10085000F6E0858304C082E0E0E2F6E08683C2FF32
:1008600005C084E0E0E2F6E0858304C084E0E0E2D5
:10087000F6E086835AE05A95F1F700C08FEF61E009
:100880000E94721ECF910895CF93DF93C82FC3703B
:10089000D82FDC70282F30E0A90145705070411529
:1008A000510549F090918150482F42954F70907FAB
:1008B000942B909381502A7030702115310539F0B6
:1008C00090918150807F9F70892B8093815084E02C
:1008D0000E94E21D8091815080936550CC2319F0D5
:1008E00081E00E94CA1DDD2319F081E00E94D61D1F
:1008F00081E00E94051E8FEFE0ECF8E083838281A7
:100900008823ECF7E0ECF8E08381809371500000DD
:10091000A1E7B0E51C978C91838382818823ECF753
:10092000E0ECF8E083818093715080E00E94051E26
:10093000CC2319F080E00E94CA1DDD2319F080E06D
:100940000E94D61D0E94111EDF91CF9108950F9332
:100950001F93CF93DF93882309F446C000E016E08D
:100960008EEDD80111968C93C0E2D6E04EE049831B
:10097000E0E4F6E063E0618380E896E050E1DC01CA
:1009800011965C9320EA36E0D90111964C937EE9EA
:10099000D80115967C9378E07D836583EC015D83B7
:1009A000D90115964C93109281508FEF93ECA9E0EA
:1009B00081509040A040E1F700C0000080E48283B5
:1009C000109282501092CE501092D62310927A50EC
:1009D0008FEF61E00E941F1F8FEF61E00E94721E87
:1009E0008FEF0E94440432C000E016E07EEDD80193
:1009F00016967C93A0E2B6E04EE016964C931697BE
:100A000020E436E063E0E9016E83C0E8D6E050E11F
:100A10005E8380EA96E0FC014683F80172831296B9
:100A20004C93D90112966C9312975A83EC014A8326
:100A300080E412968C931297109282501092CE50AE
:100A40001092D62310927A5010928150DF91CF915C
:100A50001F910F9108954F925F926F927F928F92A4
:100A60009F92AF92BF92EF92FF920F931F93CF93FB
:100A7000DF93CDB7DEB72B97CDBFDEBF8E839F83CD
:100A8000688779874A875B8781E00E94A70484E0B2
:100A900060E00E941F1F84E060E00E94721E2FEF42
:100AA00033EC49E0215030404040E1F700C0000005
:100AB00080E492E00E94531600E412E0D8011196FF
:100AC0008C911197897E11968C93119714968C9125
:100AD0001497887F836014968C93149712968C9148
:100AE00012978F7C12968C9312970F2EF0E6EF2EB2
:100AF000F2E0FF2EF02DF7018081807E81608083FF
:100B000089E081838C9181608C9380E492E00E94E3
:100B1000D81580E492E060E672E040E00E94E215C1
:100B20008983D8018C918E7F8C93F7011182139663
:100B30008C9113978F7313968C9313978C9181607C
:100B40008C9380E492E00E94D815D80111968C9184
:100B50001197886011968C93EE24FF246894F2F824
:100B600044245524320120E030E140E050E02A8363
:100B70003B834C835D8388249924540100E612E072
:100B8000D80113968C91139780FFFACF6981C80121
:100B90000E94B415A0E0B0E0880E991EAA1EBB1EEC
:100BA000481659066A067B0610F42C013D012A817D
:100BB0003B814C815D8182179307A407B50720F420
:100BC0008A839B83AC83BD830894E108F108E11418
:100BD000F104B1F6E0E4F2E08181877F81838081D6
:100BE0008E7F808384E060E00E94C71E80E00E94C8
:100BF000A704C501B401052E5AE09695879577950F
:100C000067955A95D1F7502D28EE33E040E050E03B
:100C10000E94BA3A0F2EFFEF8F2EFFE09F2EF0E0DA
:100C2000AF2EF0E0BF2EF02DA50194010E94003BF5
:100C3000C901C297AE81BF818D939C93C301B2015C
:100C400028EE33E040E050E00E94BA3AA50194015A
:100C50000E94003BC901C297EA85FB85808391838E
:100C60006A817B818C819D8128EE33E040E050E0F9
:100C70000E94BA3AA50194010E94003B22533040E1
:100C8000A885B9852D933C9311972B96CDBFDEBFD8
:100C9000DF91CF911F910F91FF90EF90BF90AF9098
:100CA0009F908F907F906F905F904F9008954F929C
:100CB0005F926F927F928F929F92AF92BF92EF92CC
:100CC000FF920F931F93CF93DF93CDB7DEB72B9790
:100CD000CDBFDEBF8E839F83688779874A875B8716
:100CE00081E00E94A70480E092E00E94531600E099
:100CF00012E0D80111968C911197897E11968C93F0
:100D0000119714968C911497887F836014968C9316
:100D1000149712968C9112978F7C12968C9312973F
:100D20000F2EF0E2EF2EF2E0FF2EF02DF701808182
:100D3000807E8160808389E081838C9181608C9347
:100D400080E092E00E94D81580E092E060E272E0DC
:100D500040E00E94E2158983D8018C918E7F8C93AC
:100D6000F701118213968C9113978F7313968C93BE
:100D700013978C9181608C9380E092E00E94D8154B
:100D8000D80111968C911197886011968C93EE245E
:100D9000FF246894F2F844245524320120E030E125
:100DA00040E050E02A833B834C835D838824992470
:100DB000540100E212E0D80113968C91139780FF42
:100DC000FACF6981C8010E94B415A0E0B0E0880E96
:100DD000991EAA1EBB1E481659066A067B0610F409
:100DE0002C013D012A813B814C815D818217930753
:100DF000A407B50720F48A839B83AC83BD83089442
:100E0000E108F108E114F104B1F6E0E0F2E08181DB
:100E1000877F818380818260808380818E7F8083D1
:100E200080E00E94A704C501B401052E5AE0969502
:100E30008795779567955A95D1F7502D28EE33E031
:100E400040E050E00E94BA3A0F2EFFEF8F2EFFE0F5
:100E50009F2EF0E0AF2EF0E0BF2EF02DA501940103
:100E60000E94003BC901C297AE81BF818D939C93C4
:100E7000C301B20128EE33E040E050E00E94BA3AEC
:100E8000A50194010E94003BC901C297EA85FB8538
:100E9000808391836A817B818C819D8128EE33E000
:100EA00040E050E00E94BA3AA50194010E94003B44
:100EB00022533040A885B9852D933C9311972B96EA
:100EC000CDBFDEBFDF91CF911F910F91FF90EF90CB
:100ED000BF90AF909F908F907F906F905F904F905A
:100EE0000895882331F0E0E0F6E080E28183858395
:100EF0000895E0E0F6E080E28683828308951F9201
:100F00000F920FB60F920BB60F9211242F933F93AF
:100F10004F935F936F937F938F939F93AF93BF9301
:100F2000EF93FF93E0E4FAE08081807F8083A0E08C
:100F3000B8E08C91807F8C93A0E0B9E08C91807FA9
:100F40008C938081807F8093400880E00E94051E02
:100F50000E94111E80E00E94710781E08093CD50B5
:100F60008093D521FF91EF91BF91AF919F918F9188
:100F70007F916F915F914F913F912F910F900BBE99
:100F80000F900FBE0F901F901895E0E4FAE080815B
:100F9000807F8083A0E0B8E08C91807F8C93A0E07C
:100FA000B9E08C91807F8C938081807F8093400812
:100FB00080E00E94051E0E94111E80E00E947107C1
:100FC00081E08093CD508093D5210895CF93DF9316
:100FD0000F920F92CDB7DEB78091CD50882389F064
:100FE000E0E4F8E080A191A189839A8389819A81C4
:100FF000009721F486A197A189839A8389819A8198
:1010000002C080E090E00F900F90DF91CF910895A3
:10101000E0EAF6E01386089581E0E0EAF6E08387EF
:1010200008951F920F920FB60F920BB60F921124D4
:101030006F927F928F929F92AF92BF92CF92DF92E8
:10104000EF92FF920F931F932F933F934F935F93D2
:101050006F937F938F939F93AF93BF93EF93FF9380
:10106000CF93DF93CDB7DEB72C97CDBFDEBF809196
:101070005D4088238CF080915D408F5F80935D4060
:1010800080915D40803809F0B4C0E0E4F8E08081F0
:10109000807F89608083ADC081E00E94051E82E070
:1010A000E0EAF6E0868380E090E0E0ECF8E05AEADF
:1010B00025E630E5538342814423ECF74381D9018F
:1010C000A80FB91F4C9301968330910599F782E0E0
:1010D000E0EAF6E0858380E00E94051E809165507D
:1010E00088231CF48FEF8C8301C01C828091655093
:1010F0008B83809166508A83809167508983898130
:101100009A81AB81BC81AC01BD01770F440B542F98
:10111000BA018D839E83AF83B88749874A874B87FF
:101120004C878090745090907550A0907650B090FD
:1011300077502D813E814F81588569857A858B85D1
:101140009C85F401EE0FFF1FEE0FFF1F60907250A1
:10115000709073506E0E7F1E0F2EF0EAAF2EF02DA2
:101160000F2EF5E2BF2EF02D0F2EF6E2CF2EF02D32
:10117000DD24EE24FF2400E010E00E94A02FAA242A
:10118000AA94BB24BA940F2EFFE7CF2EF02D0E9415
:101190004F3101E00E9473300F2EF3E0AF2EF02D9F
:1011A000BB24CC2400E00E944F31822E932EA42E2B
:1011B000B52EB094A09490948094811C911CA11C95
:1011C000B11CF30180829182A282B382809174501B
:1011D00090917550A0917650B09177500196A11DD5
:1011E000B11D8093745090937550A0937650B09336
:1011F00077502C96CDBFDEBFDF91CF91FF91EF915D
:10120000BF91AF919F918F917F916F915F914F911E
:101210003F912F911F910F91FF90EF90DF90CF9012
:10122000BF90AF909F908F907F906F900F900BBE6C
:101230000F900FBE0F901F901895882349F080E201
:1012400060E00E941F1F80E260E00E94721E08950D
:1012500080E260E00E94C71E08951F920F920FB6B1
:101260000F920BB60F9211246F927F928F929F92E2
:10127000AF92BF92CF92DF92EF92FF920F931F93A4
:101280002F933F934F935F936F937F938F939F938E
:10129000AF93BF93EF93FF93CF93DF93CDB7DEB7B9
:1012A0002C97CDBFDEBF19821A821B821C821D8241
:1012B0001E821F82188680E090E025E630E5AA2491
:1012C000AA94AC01F901E80FF91F6081662314F4B8
:1012D000AC8601C01C86420F531FFA0140814B8728
:1012E000FC013196E20FF31F40814A87FC013296E0
:1012F000E20FF31F4081498749855A856B857C85BC
:10130000B980CA80DB80EC80FD800E811F818884DB
:10131000B42FA52FF62FE72F770F440B542FBA01C8
:10132000642E742E942EBB0E61E0BB1608F060E0B4
:10133000CA0E51E0CA1608F050E0A62FAC0D61E0CD
:10134000AC1508F060E0562BDF0E61E0DF1608F008
:1013500060E0F52FFD0D51E0FD1508F050E0652B24
:10136000EE0E51E0EE1608F050E0E62FEE0D61E0D3
:10137000EE1508F060E0562BF60C71E0F61408F05C
:1013800070E0B52FBF0D51E0BF1508F050E0752B90
:10139000070D61E0071508F060E0700F51E070176D
:1013A00008F050E0652B190D51E0191508F050E0D8
:1013B000610F01E0611708F000E0502B480D540F59
:1013C000B982AA83FB83EC83BD837E836F835887B6
:1013D00003968C30910509F074CFE980FA800B8177
:1013E0001C81BD81AE81FF81E8852E2D3F2D402FD0
:1013F000512F6B2F7A2F8F2F9E2FEE230CF04AC088
:1014000093E0E90E91E0E21608F090E021E0F31697
:1014100008F020E0392F3F0D91E03F1508F090E0F3
:10142000292B91E0041708F090E0422F400F21E0B3
:10143000401708F020E0922B21E0151708F020E07B
:10144000592F510F91E0511708F090E0292B91E0AE
:10145000B61708F090E0622F6B0F21E06B1708F0D1
:1014600020E0922B21E0A71708F020E0792F7A0FD7
:1014700091E07A1708F090E0292B91E0F81708F036
:1014800090E0822F8F0F21E08F1708F020E0922B41
:101490002E2D9E0F02E00E94E73029833A834B8372
:1014A0005C836D837E838F83988780907450909047
:1014B0007550A0907650B090775029813A814B8139
:1014C0005C816D817E818F819885F401EE0FFF1F15
:1014D000EE0FFF1F80907250909073508E0E9F1EE3
:1014E0000F2EF0EAAF2EF02D0F2EF5E2BF2EF02DCD
:1014F0000F2EF6E2CF2EF02DDD24EE24FF2400E0A7
:1015000010E00E94A02FAA24AA94BB24BA940F2E04
:10151000FFE7CF2EF02D0E944F3101E00E94733083
:101520000F2EF3E0AF2EF02DBB24CC2400E00E9460
:101530004F31F4012083318342835383809174506F
:1015400090917550A0917650B09177500196A11D61
:10155000B11D8093745090937550A0937650B093C2
:1015600077502C96CDBFDEBFDF91CF91FF91EF91E9
:10157000BF91AF919F918F917F916F915F914F91AB
:101580003F912F911F910F91FF90EF90DF90CF909F
:10159000BF90AF909F908F907F906F900F900BBEF9
:1015A0000F900FBE0F901F9018951F920F920FB6BD
:1015B0000F920BB60F9211246F927F928F929F928F
:1015C000AF92BF92CF92DF92EF92FF920F931F9351
:1015D0002F933F934F935F936F937F938F939F933B
:1015E000AF93BF93EF93FF93CF93DF93CDB7DEB766
:1015F0002C97CDBFDEBF19821A821B821C821D82EE
:101600001E821F82188680E090E025E630E5AA243D
:10161000AA94AC01F901E80FF91F6081662314F464
:10162000AC8601C01C86420F531FFA0140814B87D4
:10163000FC013196E20FF31F40814A87FC0132968C
:10164000E20FF31F4081498749855A856B857C8568
:10165000B980CA80DB80EC80FD800E811F81888488
:10166000B42FA52FF62FE72F770F440B542FBA0175
:10167000642E742E942EBB0E61E0BB1608F060E061
:10168000CA0E51E0CA1608F050E0A62FAC0D61E07A
:10169000AC1508F060E0562BDF0E61E0DF1608F0B5
:1016A00060E0F52FFD0D51E0FD1508F050E0652BD1
:1016B000EE0E51E0EE1608F050E0E62FEE0D61E080
:1016C000EE1508F060E0562BF60C71E0F61408F009
:1016D00070E0B52FBF0D51E0BF1508F050E0752B3D
:1016E000070D61E0071508F060E0700F51E070171A
:1016F00008F050E0652B190D51E0191508F050E085
:10170000610F01E0611708F000E0502B480D540F05
:10171000B982AA83FB83EC83BD837E836F83588762
:1017200003968C30910509F074CFE980FA800B8123
:101730001C81BD81AE81FF81E8852E2D3F2D402F7C
:10174000512F6B2F7A2F8F2F9E2FEE230CF04AC034
:1017500093E0E90E91E0E21608F090E021E0F31644
:1017600008F020E0392F3F0D91E03F1508F090E0A0
:10177000292B91E0041708F090E0422F400F21E060
:10178000401708F020E0922B21E0151708F020E028
:10179000592F510F91E0511708F090E0292B91E05B
:1017A000B61708F090E0622F6B0F21E06B1708F07E
:1017B00020E0922B21E0A71708F020E0792F7A0F84
:1017C00091E07A1708F090E0292B91E0F81708F0E3
:1017D00090E0822F8F0F21E08F1708F020E0922BEE
:1017E0002E2D9E0F02E00E94E73029833A834B831F
:1017F0005C836D837E838F839887809074509090F4
:101800007550A0907650B090775029813A814B81E5
:101810005C816D817E818F819885F401EE0FFF1FC1
:10182000EE0FFF1F80907250909073508E0E9F1E8F
:101830000F2EF0EAAF2EF02D0F2EF5E2BF2EF02D79
:101840000F2EF6E2CF2EF02DDD24EE24FF2400E053
:1018500010E00E94A02FAA24AA94BB24BA940F2EB1
:10186000FFE7CF2EF02D0E944F3101E00E94733030
:101870000F2EF3E0AF2EF02DBB24CC2400E00E940D
:101880004F31F4012083318342835383809174501C
:1018900090917550A0917650B09177500196A11D0E
:1018A000B11D8093745090937550A0937650B0936F
:1018B00077502C96CDBFDEBFDF91CF91FF91EF9196
:1018C000BF91AF919F918F917F916F915F914F9158
:1018D0003F912F911F910F91FF90EF90DF90CF904C
:1018E000BF90AF909F908F907F906F900F900BBEA6
:1018F0000F900FBE0F901F90189582E0E0EAF6E07F
:1019000086838AEAE0ECF8E0838382818823ECF71F
:101910009091C650E0ECF8E08381A5E6B0E5A90F10
:10192000B11D8C938AEA838382818823ECF7A0918E
:10193000C650B0E0E0ECF8E08381AA59BF4A8C932E
:101940008AEA838382818823ECF7E091C650F0E035
:10195000A0ECB8E013968C911397E959FF4A808365
:1019600082E0E0EAF6E085838091C6508D5F809347
:10197000C65008951F920F920FB60F920BB60F929A
:1019800011242F933F934F935F936F937F938F9384
:101990009F93AF93BF93EF93FF930E947D0C1092A0
:1019A000C650FF91EF91BF91AF919F918F917F9121
:1019B0006F915F914F913F912F910F900BBE0F90C0
:1019C0000FBE0F901F9018951F920F920FB60F9297
:1019D0000BB60F9211242F933F934F935F936F9306
:1019E0007F938F939F93AF93BF93EF93FF930E9447
:1019F0007D0CFF91EF91BF91AF919F918F917F915E
:101A00006F915F914F913F912F910F900BBE0F906F
:101A10000FBE0F901F9018951F920F920FB60F9246
:101A20000BB60F9211242F933F934F935F936F93B5
:101A30007F938F939F93AF93BF93EF93FF930E94F6
:101A40007D0CFF91EF91BF91AF919F918F917F910D
:101A50006F915F914F913F912F910F900BBE0F901F
:101A60000FBE0F901F9018951F920F920FB60F92F6
:101A70000BB60F9211242F933F934F935F936F9365
:101A80007F938F939F93AF93BF93EF93FF930E94A6
:101A90007D0CFF91EF91BF91AF919F918F917F91BD
:101AA0006F915F914F913F912F910F900BBE0F90CF
:101AB0000FBE0F901F9018951F920F920FB60F92A6
:101AC0000BB60F9211242F933F934F935F936F9315
:101AD0007F938F939F93AF93BF93EF93FF930E9456
:101AE0007D0C1092C650E0E2F6E0848181FF0FC0C9
:101AF000E0E0F6E0848186FF05C082E0E0E2F6E007
:101B000087830DC080E4E0E0F6E0878308C080E4CE
:101B1000E0E0F6E0868382E0E0E2F6E08583FF9194
:101B2000EF91BF91AF919F918F917F916F915F9155
:101B30004F913F912F910F900BBE0F900FBE0F90C2
:101B40001F9018951F920F920FB60F920BB60F921F
:101B500011242F933F934F935F936F937F938F93B2
:101B60009F93AF93BF93EF93FF930E947D0CFF91E0
:101B7000EF91BF91AF919F918F917F916F915F9105
:101B80004F913F912F910F900BBE0F900FBE0F9072
:101B90001F9018951F920F920FB60F920BB60F92CF
:101BA00011242F933F934F935F936F937F938F9362
:101BB0009F93AF93BF93EF93FF930E947D0CFF9190
:101BC000EF91BF91AF919F918F917F916F915F91B5
:101BD0004F913F912F910F900BBE0F900FBE0F9022
:101BE0001F9018951F920F920FB60F920BB60F927F
:101BF00011242F933F934F935F936F937F938F9312
:101C00009F93AF93BF93EF93FF930E947D0CFF913F
:101C1000EF91BF91AF919F918F917F916F915F9164
:101C20004F913F912F910F900BBE0F900FBE0F90D1
:101C30001F901895FF920F931F93CF93DF93CDB70B
:101C4000DEB72897CDBFDEBF19821A821B821C82A5
:101C50008091745090917550A0917650B0917750CA
:101C60000196A11DB11D8093745090937550A0935F
:101C70007650B093775080ED8093C00820E030E03C
:101C800005E610E5FF24FA94C901F801E20FF31FFD
:101C90004081442314F4F88601C01886800F911FF8
:101CA000FC0180818F83F9013196E00FF11F808163
:101CB0008E83F9013296E00FF11F80818D83498177
:101CC0005A816B817C818D819E81AF81B885840F23
:101CD000951FA61FB71F89839A83AB83BC832D5F93
:101CE0003F4F2C30310581F669817A818B819C814F
:101CF00024E030E040E050E00E94223B29833A8318
:101D00004B835C83298187E690E5209367502A8185
:101D1000FC01319720832B810297FC01208380E115
:101D2000E0E4F6E0868388E0E0E2F6E08683000007
:101D300086E0E0ECF8E0838382818823ECF7E0EC36
:101D4000F8E0838180937150A0E2B6E088E01596B8
:101D50008C931597000016968C931697000082E0DE
:101D6000838382818823ECF7E0ECF8E08381809321
:101D7000715080915840838382818823ECF7E0EC96
:101D8000F8E08381809371508091574083838281F2
:101D90008823ECF7E0ECF8E0838180937150809128
:101DA0006550838382818823ECF7E0ECF8E083813F
:101DB0008093715080916650838382818823ECF7F1
:101DC000E0ECF8E0838180937150809167508383C9
:101DD00082818823ECF7A0ECB8E013968C911397DE
:101DE0008093715088E0E0E2F6E08583E0E4F6E07D
:101DF00080E1858394E59C93868380915740909100
:101E000058400396809357409093584080913B21CF
:101E1000E5E6F0E59081890F80933B2180913C219C
:101E20009181890F80933C2180913D219281890F7E
:101E300080933D212896CDBFDEBFDF91CF911F91CA
:101E40000F91FF9008952F923F924F925F926F9261
:101E50007F928F929F92AF92BF92CF92DF92EF923A
:101E6000FF920F931F93CF93DF9300D00F92CDB7C4
:101E7000DEB7EBE9F0E510929B5010929C50109267
:101E80009D5010929E5010929F501092A050109210
:101E9000A1501092A250DF0118971C9211961C922B
:101EA000119712961C92129713961C9213971496E0
:101EB0001C92149715961C92159716961C921697BD
:101EC00017961C92709710821182128213821482CC
:101ED0001582168217828AE391E210923A21FC0160
:101EE000319710820297DC011C9210925740109299
:101EF0005840E9E0F0E0E983FA8399249A940F2EA0
:101F0000FBE9EF2EF0E5FF2EF02D0F2EF3E9CF2E9B
:101F1000F0E5DF2EF02D0F2EFBE8AF2EF0E5BF2E03
:101F2000F02D81E79CE10E94751F809157409091B0
:101F300058408F58934E80935740909358400FEDE0
:101F400013E280E090E00F2EF9E02F2E3324F02DE5
:101F50008B839C838B819C8163E070E00E94D93AE3
:101F60009C01E8E3F1E2E80FF91F9081A801D80194
:101F70008C91980F90832115310519F588236CF405
:101F8000E0916350F091645010821182128293822A
:101F900094829582968297820CC0E0916350F09172
:101FA000645010821182128213821482158216826A
:101FB0001782FA018081E0916350F091645082832E
:101FC00010C02130310531F4E0916350F09164503C
:101FD000818307C0E0916350F0916450D8018C91E7
:101FE00080838B819C81B1010E94D93A8230910516
:101FF00009F076C0F50160815181428133812481ED
:10200000958186814780E0916350F09164507081A2
:10201000A181B2818380748065805680E781760FCC
:10202000F1E0761708F0F0E0A50F61E0A51708F0E1
:1020300060E0FA0F51E0FA1708F050E0652BB40F9A
:1020400051E0B41708F050E06B0F41E06B1708F057
:1020500040E0542B830E41E0831608F040E0580D19
:1020600031E0581508F030E0432B720E31E0721663
:1020700008F030E0470D21E0471508F020E0322B52
:10208000690E21E0691608F020E0360D91E0361562
:1020900008F090E0292B580E91E0581608F090E0D7
:1020A000250D81E0251508F080E0982BE40D9E0FAA
:1020B000D5017C931196FC93119712966C9312970D
:1020C00013965C93139714964C93149715963C9320
:1020D000159716962C93169717969C931797F3C0FF
:1020E0008530910509F076C0F60160815181428109
:1020F00033812481958186814780E0916350F091FE
:1021000064507081A181B281838074806580568023
:10211000E781760FF1E0761708F0F0E0A50F61E0B7
:10212000A51708F060E0FA0F51E0FA1708F050E048
:10213000652BB40F51E0B41708F050E06B0F41E08D
:102140006B1708F040E0542B830E41E0831608F033
:1021500040E0580D31E0581508F030E0432B720E86
:1021600031E0721608F030E0470D21E0471508F025
:1021700020E0322B690E21E0691608F020E0360DD0
:1021800091E0361508F090E0292B580E91E0581692
:1021900008F090E0250D81E0251508F080E0982BEF
:1021A000E40D9E0FD6017C931196FC931197129625
:1021B0006C93129713965C93139714964C93149701
:1021C00015963C93159716962C93169717969C93F5
:1021D000179779C08830910509F075C0F7016081C3
:1021E0005181428133812481958186814780E091AC
:1021F0006350F09164507081A181B28183807480BA
:1022000065805680E781760FF1E0761708F0F0E000
:10221000A50F61E0A51708F060E0FA0F51E0FA178A
:1022200008F050E0652BB40F51E0B41708F050E00F
:102230006B0F41E06B1708F040E0542B830E41E038
:10224000831608F040E0580D31E0581508F030E0F2
:10225000432B720E31E0721608F030E0470D21E09A
:10226000471508F020E0322B690E21E0691608F0CE
:1022700020E0360D91E0361508F090E0292B580E3D
:1022800091E0581608F090E0250D81E0251508F042
:1022900080E0982BE40D9E0FD7017C931196FC9360
:1022A000119712966C93129713965C93139714964A
:1022B0004C93149715963C93159716962C93169756
:1022C00017969C931797EB81FC813196EB83FC83E7
:1022D0000F5F1F4F2CE1E137F20709F03BCE8981F8
:1022E0009A81019789839A83009709F01ACE2496E0
:1022F000CDBFDEBFDF91CF911F910F91FF90EF9087
:10230000DF90CF90BF90AF909F908F907F906F9015
:102310005F904F903F902F9008952F923F924F9251
:102320005F926F927F928F929F92AF92BF92CF9265
:10233000DF92EF92FF920F931F93CF93DF93109250
:10234000574010925840109274501092755010924D
:102350007650109277508DE391E210923D21FC016E
:10236000319710820297DC011C9281E00E94A70441
:1023700084E00E94E21D80ED8093C0088DE0809390
:10238000655083EF8093665087E580936750809116
:10239000745090917550A0917650B09177508335DC
:1023A000E5E59E07E0E0AE07E0E0BE0708F0CCC040
:1023B0000F2EF0E4EF2EF6E0FF2EF02D40E256E077
:1023C00028E0E0ECF8E00F2EF6E07F2EF02DC1E7DC
:1023D000D0E56624689461F80F2EF7E5CF2EF0E47F
:1023E000DF2EF02D8E010C5010400F2EF5EF4F2EEA
:1023F000FFEF5F2EF02D4C0E5D1E0F2EF6EF2F2EF1
:10240000FFEF3F2EF02D2C0E3D1E6BE371E25B01C2
:102410000894A11CB11C88249924689481F8860E24
:10242000971E30E1D70116963C93DA0116962C934D
:1024300016970000738282818823ECF7838188835A
:10244000DA0115962C931597000016962C93169783
:102450000000638282818823ECF783818883D60120
:1024600011968C911197838382818823ECF7838165
:102470008883D6018C91838382818823ECF78381C2
:102480008883D8018C91838382818823ECF78381B0
:102490008883D2018C91838382818823ECF78381A6
:1024A0008883D1018C91838382818823ECF7838197
:1024B0008883DA0115962C9330E1D70115963C9369
:1024C0008091574090915840039680935740909345
:1024D0005840DB018C91D8019C91890FDB018C93D2
:1024E000D5018C91A6E6B0E59C91890FD5018C931E
:1024F000D4018C91A7E6B0E59C91890FD4018C930F
:102500008091745090917550A0917650B091775011
:102510000196A11DB11D8093745090937550A093A6
:102520007650B09377508091745090917550A091EF
:102530007650B0917750833535E5930730E0A307A7
:1025400030E0B30708F46DCF0E94111E80E00E94B6
:10255000A704DF91CF911F910F91FF90EF90DF9033
:10256000CF90BF90AF909F908F907F906F905F9033
:102570004F903F902F90089580FF05C020E4E0E049
:10258000F6E0258304C020E4E0E0F6E0268381FF46
:1025900005C022E0E0E2F6E0258304C022E0E0E2AC
:1025A000F6E0268382FF05C084E0E0E2F6E0858362
:1025B000089584E0E0E2F6E0868308952F923F924A
:1025C0004F925F927F928F929F92AF92BF92CF92E3
:1025D000DF92EF92FF920F931F93CF93DF93CDB7CC
:1025E000DEB7182F762EF42E1901898D9A8D8093DF
:1025F0007250909373501092CD5081E00E94A704C6
:10260000812F6F2D0E940B04872D0E9444048E2D74
:102610000E941D0984E00E94E21D84E58093C008A9
:1026200081E00E947107812F0E94BC12E0EAF6E06F
:1026300022E0208B7724739472820F2EF0E84F2EC5
:10264000F1E05F2EF02D88E7D2018C93E0E0F9E015
:1026500080EF8183C0A6D1A6A2A6B3A684A695A624
:102660008D899E8986A797A7802F90E0019786A3E2
:1026700097A326838FEF87838081807F8860808304
:1026800010927450109275501092765010927750AC
:102690001092C650E0EAF0E08281876082837894ED
:1026A00081E00E94051E80E2E0E8F6E0818300E41C
:1026B0001AE083E2F80181836101EE24FF2460E8DF
:1026C00074E88EE190E0A70196010E94003BD801DA
:1026D00096962D933C93979760E472E48FE090E098
:1026E000A70196010E94003BF80122AF33AFE0E45E
:1026F000F8E08F89988D86A397A380EDD20111967B
:102700008C93119776828081807F89608083F80125
:102710008081807F81608083DF91CF911F910F91B5
:10272000FF90EF90DF90CF90BF90AF909F908F90F1
:102730007F905F904F903F902F9008952F923F92FF
:102740004F925F926F927F928F929F92AF92BF92C1
:10275000CF92DF92EF92FF920F93CF93DF93CDB79B
:10276000DEB7962F1A01522F702FD701360125019F
:1027700000D000D02DB73EB72F5F3F4FEDB7FEB76B
:10278000818292828D889E88F901828293828F88CD
:10279000988C8482958264EC492F9101052FE72E55
:1027A0006D01530142010E94DE128DB79EB706965D
:1027B0008DBF9EBFDF91CF910F91FF90EF90DF9083
:1027C000CF90BF90AF909F908F907F906F905F90D1
:1027D0004F903F902F9008952F923F925F926F926B
:1027E0007F928F929F92AF92BF92CF92DF92EF92A1
:1027F000FF920F931F93CF93DF930F920F92CDB75A
:10280000DEB7182F3B0149835A83522E898D9A8D4A
:1028100080937250909373501092CD5081E00E943B
:10282000A70485E0D3016C910E940B0486E0F301BC
:1028300061810E940B0487E0D30112966C910E9483
:102840000B04812F0E944404802F0E941D0984E004
:102850000E94E21D84E58093C00881E00E94710718
:1028600085E00E94BC12E0EAF6E022E0208B6624BC
:10287000639462820F2EF0E82F2EF1E03F2EF02DB0
:1028800088E7F1018083E0E0F8E080EF8183E0A653
:10289000F1A6C2A6D3A6A4A6B5A686A697A6852D00
:1028A00090E0019786A397A326838FEF878380818B
:1028B000807F8860808310927450109275501092BF
:1028C0007650109277501092C6508DE391E210929C
:1028D0003D21FC01319710820297DC011C92E0EA55
:1028E000F0E0828187608283789481E00E94051EF7
:1028F00080E2E0E8F6E0818300E41AE083E2F80198
:10290000818389819A816C01EE24FF2460E874E858
:102910008EE190E0A70196010E94003BD8019696B7
:102920002D933C93979760E472E48FE090E0A701C9
:1029300096010E94003BF80122AF33AFE0E4F8E0DB
:102940008F89988D86A397A380ECD10111968C93E3
:10295000119766828081807F89608083F801808101
:10296000807F816080830F900F90DF91CF911F91C6
:102970000F91FF90EF90DF90CF90BF90AF909F901E
:102980008F907F906F905F903F902F9008952F923F
:102990003F924F925F926F927F928F929F92AF92EF
:1029A000BF92CF92DF92EF92FF920F931F93CF933C
:1029B000DF9300D00F92CDB7DEB78B839C83DB0112
:1029C000942F322F380127011601A982BA8200D034
:1029D0000F92EDB7FEB7818292824A8D5B8D438361
:1029E000548384EC6B817C81AD01292F032F73010B
:1029F0006201510189809A800E94EC130F900F9020
:102A00000F900F902496CDBFDEBFDF91CF911F9125
:102A10000F91FF90EF90DF90CF90BF90AF909F907D
:102A20008F907F906F905F904F903F902F90089580
:102A30008F929F92AF92BF92DF92EF92FF920F938D
:102A40001F93CF93DF93C82FD62ED42F590148015F
:102A5000E0927250F09273501092CD5081E00E943B
:102A6000A7048C2F6D2F0E940B048D2D0E9444040F
:102A70008C2F8550833018F481E00E941D0981E07D
:102A80000E9471078C2F0E94BC1284E00E94E21DFC
:102A900084E58093C008E0EAF6E0DD24D394D28296
:102AA00082E0808BD286818780E2E0E8F6E0818355
:102AB000C0E4DAE083E28983950140E050E060E819
:102AC00074E88EE190E00E94003B89019A01C80100
:102AD0000EA31FA3969587958AAF9BAFE0E4F8E01D
:102AE00086A297A288E7A0E8B1E011968C9311978F
:102AF000D6828881807F8160888310927450109282
:102B00007550109276501092775010925D40E0EA26
:102B1000F0E08281836082837894DF91CF911F916E
:102B20000F91FF90EF90DF90BF90AF909F908F90AC
:102B30000895EF92FF920F931F93962FFA01D901F8
:102B4000780161EC492F9F018D010E9418151F919A
:102B50000F91FF90EF900895FC0181E083838481C1
:102B60009581861B91090895FC0181E0838384810E
:102B70009581772767FD7095861B970B0895FC015B
:102B800081E08383848195810895FC0181E08383C2
:102B900084810895FC0181E0838385810895FC018F
:102BA000848114829AE29A95F1F700C08483089593
:102BB000FC01848191E0948395E59A95F1F70000FA
:102BC00084830895EF92FF920F931F93CF93DF9327
:102BD000EB014423C9F004E010E0EE24FF248881D7
:102BE000806888838B8180FFFDCFCE0160E00E94EA
:102BF000AC15E80EF91E0150104089F7C7019695F3
:102C000087959695879509C08881806888838B8190
:102C100080FFFDCFCE010E94BF15DF91CF911F91A4
:102C20000F91FF90EF900895EF92FF920F931F93F3
:102C3000CF93DF93EB014423E1F004E010E0EE24B6
:102C4000FF248881806888838B8180FFFDCFCE013F
:102C500060E00E94B415E80EF91E0150104089F79B
:102C6000C70199230CF403969595879595958795BB
:102C70000AC08881806888838B8180FFFDCFCE0168
:102C800060E00E94B415DF91CF911F910F91FF90EA
:102C9000EF900895AAECB1E092E09C93E82FF0E069
:102CA00084911C920895CF93DF93EC0182E0C030B1
:102CB000D80759F480E20E944A16C0E0D2E08C871F
:102CC00081E20E944A168D8708C084E20E944A165B
:102CD0008C8785E20E944A168D87DF91CF910895F7
:102CE00084E1EEE3F1E2DF011D928A95E9F70E94AB
:102CF000F41780933E2190933F210E94461A089535
:102D0000E0E8F6E084E08183868392E0908B82871E
:102D100083E08187E0EAF0E08281846082837894B6
:102D200008958EE391E208952F923F924F925F9221
:102D30006F927F928F929F92AF92BF92CF92DF92CB
:102D4000EF92FF920F931F93CF93DF93CDB7DEB730
:102D50002E97CDBFDEBF8B879C876D877E8749010D
:102D60005A01211531054105510509F488C0EE24A9
:102D70000F2EF9E46F2EF1E27F2EF02D0F2EF5E4E9
:102D80004F2EF1E25F2EF02D0F2EF7E42F2EF1E201
:102D90003F2EF02DF82C25E682169104A104B104F3
:102DA00020F00F2EF4E6FF2EF02D8F2D855F898306
:102DB0008B859C85EFEF8F3F9E0711F081E601C068
:102DC00081E48A8388E98B83E0E4F1E280818C836B
:102DD0008F5F808384E392E18D839E838B859C85C6
:102DE0008F83988732978081918189879A8700E0C5
:102DF00010E0CD84DE84CE0CD11CCE010196B6014C
:102E00004F2D0E948219282F8330C9F0843018F486
:102E10008130E9F404C0853049F08034C1F4F20116
:102E20008081918101968083918311C0F10180811D
:102E300091810196808391830F5F1F4F08C0F3013A
:102E4000808191810196808391830F5F1F4F1016BF
:102E5000110624F4FAE6FA95F1F700C004311105E1
:102E600079F0222351F6EF0C8F189108A108B108D0
:102E700081149104A104B10409F08CCF01C020E0B9
:102E8000822F2E96CDBFDEBFDF91CF911F910F9184
:102E9000FF90EF90DF90CF90BF90AF909F908F907A
:102EA0007F906F905F904F903F902F900895DF92AA
:102EB000EF92FF920F931F93CF93DF937C010E94B9
:102EC000D217D82E88230CF446C0F70185838823B7
:102ED00071F0E70126968701095F1F4F8150080FA7
:102EE000111D0E94D2178993C017D107D1F7F7019E
:102EF000C085838594858383948385859685818326
:102F000092830E94E917882311F410924121809145
:102F10001320C81751F4F7012181328180911420C8
:102F20009091152028173907C1F0C0931320F7019D
:102F3000818192818093142090931520B701615F65
:102F40007F4F4D2D50E049505040C7010E94753BC6
:102F50008D2D8B5003C080E001C080E0DF91CF91C8
:102F60001F910F91FF90EF90DF90089510925221E2
:102F7000109253211092542108952091532130E052
:102F8000F901EB5AFE4D8083C901019660E870E0BB
:102F90000E94ED3A80935321809154218F5F80935A
:102FA000542108952091522130E0F901EB5AFE4D51
:102FB00040812F5F3F4FC90160E870E00E94ED3A09
:102FC0008093522180915421815080935421842FE9
:102FD0000895809154210895BC0180E090E048E07C
:102FE00050E00E94551C0895CF93DF930F920F92EB
:102FF000CDB7DEB789E090E0BE016F5F7F4F42E062
:1030000050E00E94551C89819A810F900F90DF91AA
:10301000CF910895882329F080E1E0E6F6E08683E9
:10302000089580E1E0E6F6E085830895DF92EF926F
:10303000FF920F931F93CF93DF938C01C62F7A01DA
:10304000D22E822F90E0860F911D803891058CF54D
:103050008FB780935640F89481E00E940A1880E66A
:103060000E94A01CCC2379F0C8010196C1509C019C
:103070002C0F311DE901F80181918F010E94A01CE4
:103080000C171D07C1F7DD2069F0E7012196DA94DE
:10309000CD0DD11DF70181917F010E94A01CEC167E
:1030A000FD06C1F780E00E940A18809156408FBF4C
:1030B0007894DF91CF911F910F91FF90EF90DF9067
:1030C0000895CF93DF93D82FC62F8FB780935640A4
:1030D000F89481E00E940A188D2F806C0E94A01C39
:1030E0008C2F0E94A01C80E00E940A1880915640FC
:1030F0008FBF7894DF91CF910895682F85E00E946B
:10310000611808950F931F93CF93DF93082FC62F55
:10311000D72F10E06991812F800F0E9461181F5FE7
:103120001830C1F7DF91CF911F910F910895CF9380
:10313000DF93EC0180E090E0BE0148E050E00E94A7
:10314000F21B84E2BE010E948218DF91CF910895A4
:10315000CF93DF93C82FD72F0E9461188C2F8F5FDA
:103160006D2F0E946118DF91CF9108950F931F93E7
:10317000CF93DF930F920F92CDB7DEB789839A83F7
:103180000E9491168C0189E090E0BE016F5F7F4F35
:1031900042E050E00E94F21B69817A8180E20E9445
:1031A000A81889819A81F801808391830F900F90EC
:1031B000DF91CF911F910F910895CF93C82F8FB7B3
:1031C00080935640F89481E00E940A188C2F806802
:1031D0000E94A01C0E94A01CC82F80E00E940A1818
:1031E000809156408FBF78948C2FCF91089581E0C5
:1031F0000E94DD188F7108951F93CF93DF93C82F1E
:10320000162FD42F0E94DD186D2F60956823D123CF
:103210006D2B8C2F0E946118DF91CF911F91089523
:10322000CF93DF93D82F8091640681FD4BC00E941D
:10323000F718C82F8151823020F0C13011F0C23010
:1032400021F40E94F7188C17E1F3D631F9F0D93147
:1032500089F0D83031F5E4E6F6E080818D7F808317
:1032600082E063E04FE10E94FC188AE08A95F1F762
:1032700000C017C0C631A9F482E069E04FE10E94A6
:10328000FC189AE09A95F1F700C00BC0C93149F4D7
:1032900082E069E04FE10E94FC188AE08A95F1F72C
:1032A00000C082E06D2F4FE10E94FC188FE693E092
:1032B0000197F1F700C000000E94F7188D1721F464
:1032C00080E403C084E401C083E4DF91CF910895DA
:1032D000882349F088E00E941019E4E6F6E0808136
:1032E000826080830895E4E6F6E080818D7F8083AC
:1032F0008FE797E00197F1F700C0000086E10E9498
:1033000010190895CF92DF92EF92FF920F931F93BF
:10331000CF93DF937C016B01042F0E94F718182FC5
:103320000E949116EC011230F1F01231F1F088E0B8
:103330000E94101989E10E941019C7016AE0A601D4
:10334000202F0E94161882E062E04FE10E94FC18D4
:103350008C818823E9F31C8282E00E94DD1882952B
:103360008695877003C084E401C084E4DF91CF9127
:103370001F910F91FF90EF90DF90CF9008958130D3
:1033800091F0813028F08230C9F0833061F521C09E
:103390008CE068E04FE30E94FC1886E162E043E0C5
:1033A0000E94FC1808958CE06CE04FE30E94FC182A
:1033B00086E162E043E00E94FC1808958CE06CE135
:1033C0004FE30E94FC1886E162E043E00E94FC1893
:1033D00008958CE060E04FE30E94FC1886E163E012
:1033E00043E00E94FC180895CF93C82F88E06C2F0B
:1033F0004FE10E94FC180E94F718863011F08930C6
:1034000031F48FE693E00197F1F700C0000088E007
:103410000E94DD1890E08F7190706C2F70E086171D
:10342000970711F480E401C083E4CF910895CF930E
:10343000C82F0E94DD188C2B8F5F0E94DD1880E062
:1034400090E0CF910895E4E6F6E08081816080838A
:1034500080818D7F80838FED9BE00197F1F700C025
:10346000000080818E7F80839AE09A95F1F700C0FA
:103470008081816080838DE10E94DD188130D9F7E1
:103480008CE10E94DD188730B1F708950F931F93E8
:10349000CF93DF93CDB7DEB7EA97CDBFDEBF0E94F3
:1034A0008D1CE0E6F6E0808182608083808181600F
:1034B00080830E94231A8EE060E00E94611882E0FF
:1034C00063E04FE10E94FC1881E00E94DD188F71DB
:1034D0008830D1F78EE260E440EC0E94FC188EE068
:1034E0006CE00E94611884E060E240E20E94FC18F7
:1034F00081E00E94BF1981E00E94F41986E10E94D8
:10350000101982E264E372E10E94A8180E94F41785
:10351000BC0180E20E94A818CE0101960E94EC171F
:1035200084E2BE016F5F7F4F0E948218E2E7F6E0FF
:10353000808181608083E9E6F6E08081836080831A
:10354000EAE6F6E0808184608083E0EAF0E0828150
:10355000876082830E94F718863191F08E01075FA1
:103560001F4FC80168EE71E00E946E3B0F920F92F0
:10357000EDB7FEB7018312830E94C13B0F900F90FD
:10358000EA96CDBFDEBFDF91CF911F910F910895D5
:103590001F920F920FB60F920BB60F9211244F92FB
:1035A0005F926F927F928F929F92AF92BF92CF92D3
:1035B000DF92EF92FF920F931F932F933F934F93BE
:1035C0005F936F937F938F939F93AF93BF93EF938B
:1035D000FF93CF93DF93CDB7DEB7E297CDBFDEBFCA
:1035E0000E9491167C018FB780935640F89481E039
:1035F0000E940A188FE80E94A01C80E00E94A01C74
:10360000182F80E00E940A18112309F4BEC0AA24D2
:10361000BB246894A7F80F2EF8E06F2EF2E07F2EFF
:10362000F02D0F2EF0E88F2EF6E09F2EF02DCC24FB
:103630006894C2F812FF02C01B7FA4C013FF89C0A8
:103640000E94F718863029F0863119F0813109F08F
:1036500076C088E00E94101987E00E94DD18F7010B
:10366000828B86E00E94DD18881F8827881FF7015B
:10367000838B882309F466C08FB780935640F894F3
:1036800081E00E940A1880E20E94A01C80E00E9453
:10369000A01CD82E83508D3708F041C00E94E91736
:1036A0002D2D30E0A501481B51092417350794F44E
:1036B0008D2D0E94BD17DD2049F000E080E00E94C2
:1036C000A01C0E94BD170F5F0D15C1F7F401C58244
:1036D000C68225C00E9491162C01DD2039F000E041
:1036E00080E00E94A01C0F5F0D15D1F7F2018585C7
:1036F0009685019685879687CE010196B3010E9433
:103700006E3B0F920F9241E050E04C0F5D1FEDB702
:10371000FEB7418352830E94C13B0F900F9080E01F
:103720000E940A18809156408FBF7894F7018581D6
:10373000968101968583968381E0838303C081E02F
:10374000F7018483177F86E10E9410198034D9F72E
:1037500019C016FF08C01F7BF70187859089019665
:103760008787908B0FC011FF02C01D7F0BC010FF19
:1037700002C01E7F07C011232CF41F77F701818937
:103780008F5F818B112309F055CF809156408FBFF9
:1037900078948FE00E94DD18E296CDBFDEBFDF9106
:1037A000CF91FF91EF91BF91AF919F918F917F91B9
:1037B0006F915F914F913F912F911F910F91FF90CA
:1037C000EF90DF90CF90BF90AF909F908F907F90C1
:1037D0006F905F904F900F900BBE0F900FBE0F90A9
:1037E0001F9018950F931F93CF93DF938C01E0ECFC
:1037F000F1E08485877F84874115510509F450C025
:10380000E0E0F0E020E0A0ECB1E0D6E3C3E335E394
:10381000CF01800F911FE60FF71FF0811F96EC91EB
:103820001F97EE23DCF31F96EC911F97E1FF11C069
:103830001A96DC931A97EF93FF930F932F93EBEC69
:10384000F1E008ED21E004BF20832F910F91FF915B
:10385000EF911A96CC931A978C93892F8F711196AA
:103860008C93119712961C9212971496FC931497AE
:103870001A963C931A97EF93FF930F932F93EBECC9
:10388000F1E008ED21E004BF20832F910F91FF911B
:10389000EF912F5FE22FF0E0E417F50708F4B8CFBF
:1038A000DF91CF911F910F9108951F93CF93DF93D5
:1038B0009C01E0ECF1E08485877F84874115510508
:1038C00041F180E090E0C0E0D6E0DB01A80FB91F35
:1038D000820F931F17851123ECF38083892F8F713B
:1038E00081831282D287EF93FF930F932F93EBEC98
:1038F000F1E008ED21E004BF20832F910F91FF91AB
:10390000EF9184818C93CF5F8C2F90E08417950783
:10391000E0F2DF91CF911F910895E0E6F6E080811B
:10392000806B8083E4E6F6E0808180618083A0EC98
:10393000B9E08C9181658C9380818061808308954A
:10394000E0ECF9E0838382818823ECF7E0ECF9E096
:10395000838108950F93CF93DF930F92CDB7DEB796
:103960002FB72983F8941BBEFC0108ED04BF6083C8
:1039700089818FBF0F90DF91CF910F9108956623BA
:1039800011F090E201C090E0842B892BE0E5F0E09B
:10399000828308956F71862BE0E5F0E085830895BA
:1039A000E0E5F0E09081282F20959223908390818C
:1039B00089230895682B81E490E00E94AA1C089551
:1039C0001F93CF93DF93182FC0E4D0E06881687F06
:1039D000682B80E490E00E94AA1C88818123DF91FB
:1039E000CF911F910895E0E4F0E09381917F916081
:1039F000892B83830895E0E5F0E02681982F382F06
:103A000030952323662309F490E0922BE0E5F0E063
:103A10009683813031F4E8E6F0E080818160808334
:103A20000895823029F4E0E6F0E0808181608083AF
:103A3000089583E590E063E00E94AA1C089582E463
:103A400090E061E00E94AA1C089580EC60E04BE0E9
:103A50000E94BF1CE0E5F0E0808188608083818166
:103A600083FFFDCF80EC62E00E94CA1CE0E5F0E03D
:103A7000808180618083818184FFFDCF84E00E940A
:103A8000E01C81E00E94D01C0895E0E5F0E0808118
:103A90008260808380E061E00E94DA1CE0E5F0E073
:103AA000818181FFFDCF81E00E94E01C81E00E94C6
:103AB000D01C0895E0E5F0E080818260808380E0A2
:103AC00060E00E94DA1CE0E5F0E0818181FFFDCF3B
:103AD00081E00E94E01C81E00E94D01C08958823B0
:103AE00029F088E0E0E0F6E0868304C088E0E0E0CA
:103AF000F6E085838AE68A95F1F700C00895882369
:103B000079F0E0EAF6E080E2818385838FEF93EC41
:103B1000A9E081509040A040E1F700C00000089566
:103B2000E0EAF6E080E2868382830895882379F0D4
:103B3000E0EAF6E080E4818385838FEF93ECA9E0EF
:103B400081509040A040E1F700C000000895E0EAF5
:103B5000F6E080E4868382830895882379F0E0EAA2
:103B6000F6E080E8818385838FEF93ECA9E08150B4
:103B70009040A040E1F700C0000005C0E0EAF6E098
:103B800080E886838283AFE3BFE11197F1F700C03D
:103B900000000895882329F080E1E0E8F6E08683BC
:103BA000089580E1E0E8F6E085830895882329F010
:103BB00082E0E0E4F6E08683089582E0E0E4F6E067
:103BC00085830895E0E4F6E090E1918328E3248B77
:103BD00095838165A0ECB8E08C9311961C921197A7
:103BE00080EA81830895E0E4F6E090E1918328E3A0
:103BF000248B95838065682BA0ECB8E06C931196BC
:103C00001C92119780EA81830895882329F080E12E
:103C1000E0E4F6E08683089580E1E0E4F6E0858361
:103C20000895E0E4F6E080E185831092C008868381
:103C300080EB82830895CF93DF93C82FD62F80E047
:103C40000E94E21D81E00E94051E81E00E946F1D1E
:103C5000DD2389F08091D623C095C823C093D62355
:103C600080E48093655084E1809366508091D623F0
:103C70008093675010C080918250C095C823C09334
:103C8000825080E48093655085E1809366508091F6
:103C900082508093675080E090E025E630E5A0EC0C
:103CA000B8E0C1E7D0E5F901E80FF91F40811396AC
:103CB0004C93139712964C9112974423DCF713966A
:103CC0004C911397488301968330910561F780E00A
:103CD0000E94051E80E00E946F1D0E94111EDF9150
:103CE000CF910895CF93DF93C82FD62F80E00E9405
:103CF000E21D81E00E94051E81E00E946F1DDD2310
:103D000081F08091D623C82BC093D62380E4809382
:103D1000655084E1809366508091D62380936750EC
:103D20000FC080918250C82BC093825080E4809352
:103D3000655085E1809366508091825080936750F2
:103D400080E090E025E630E5A0ECB8E0C1E7D0E502
:103D5000F901E80FF91F408113964C9313971296BF
:103D60004C9112974423DCF713964C911397488398
:103D700001968330910561F780E00E94051E80E086
:103D80000E946F1D0E94111EDF91CF910895CF9365
:103D9000DF93C82FD62F80E00E94E21D81E00E94B1
:103DA000051E81E00E946F1DDD2389F080917A500D
:103DB0008095C823C0937A5080E480936550109218
:103DC000665080917A5080958093675011C08091A1
:103DD000CE508095C823C093CE5080E48093655028
:103DE00081E0809366508091CE508095809367509B
:103DF00080E090E025E630E5A0ECB8E0C1E7D0E552
:103E0000F901E80FF91F408113964C93139712960E
:103E10004C9112974423DCF713964C9113974883E7
:103E200001968330910561F780E00E94051E80E0D5
:103E30000E946F1D0E94111EDF91CF910895CF93B4
:103E4000DF93C82FD62F80E00E94E21D81E00E9400
:103E5000051E81E00E946F1DDD2381F080917A5064
:103E6000C82BC0937A5080E48093655010926650BE
:103E700080917A5080958093675010C08091CE5089
:103E8000C82BC093CE5080E48093655081E080932E
:103E900066508091CE5080958093675080E090E08E
:103EA00025E630E5A0ECB8E0C1E7D0E5F901E80F80
:103EB000F91F408113964C93139712964C911297C9
:103EC0004423DCF713964C91139748830196833073
:103ED000910561F780E00E946F1D80E00E94051E41
:103EE0000E94111EDF91CF9108950F931F93CF93DE
:103EF000DF938C0180E00E94E21DC0ECD8E080EDF1
:103F0000888381E00E94051E88E0E0E2F6E0868377
:103F1000000083E08B83E0ECF8E082818823ECF7FB
:103F2000E0ECF8E083818093715080915840838366
:103F300082818823ECF7E0ECF8E083818093715074
:103F400080915740838382818823ECF7E0ECF8E08E
:103F500083818093715001151105B1F0EFEDF3E20B
:103F60000E0F1F1FA0ECB8E09AEA13969C931397CC
:103F700012968C9112978823DCF713968C911397E5
:103F80008193E017F10789F788E0E0E2F6E08583A6
:103F900080E00E94051E0E94111EDF91CF911F91AB
:103FA0000F91089581E00E94A7048FEC97E001979C
:103FB000F1F700C000000E94230F80E00E94A704D8
:103FC000089581E00E94A7048FEC97E00197F1F734
:103FD00000C000000E94230F80E00E94A704089503
:103FE0000E948D1181E00E94A7048FEC97E0019759
:103FF000F1F700C000000E94230F80E00E94A70498
:10400000089581E00E94A70481E00E947F1D8FEF48
:1040100093ECA9E081509040A040E1F700C000007F
:1040200088E060E00E941F1F88E060E00E94721E2E
:104030008AEA96EEA6E9B1E081509040A040B040F7
:10404000D9F7000088E060E00E941B1E8AEA96EE25
:10405000A6E9B1E081509040A040B040D9F70000FF
:10406000E3CF0F931F93CF93DF930FED13E2F8018C
:1040700080E081938F5F8831E1F7CFEDD3E264E197
:1040800070E080E090E0AE0128E130E00E945F2C1B
:104090006896F8011192EC17FD07E1F764E170E012
:1040A00080E090E04FED53E20E94142DF80120E0F3
:1040B00030E0C4E6D0E0C901BE010E94ED3A819330
:1040C0002F5F3F4F84E0223E3807A9F760E570E09C
:1040D00080E090E04FED53E222EE34E00E947B2D31
:1040E00081EC98E2F80111928F01E817F907D1F7F6
:1040F00060E570E080E090E04FED53E223E030E0D7
:104100000E94D52EDF91CF911F910F9108950F93AB
:104110001F93CF93DF930FED13E2F80180E08193BB
:104120008F5F8831E1F7CFEDD3E286E190E2BE0107
:1041300020E032E040E050E00E944C288093A35001
:104140006896F80111928F01EC17FD07D1F780E016
:1041500066E170E20E94D0278093A350DF91CF9157
:104160001F910F9108950E94701682E090E00E94C6
:10417000B6180000FECFCF93DF930E94852B0E94DC
:104180006523EFEDF3E220E030E0C9E7D0E0C901BC
:10419000BE010E94ED3A81932F5F3F4F82E02030B5
:1041A0003807A9F786E190E26FED73E220E032E094
:1041B00040E050E00E944C280000DF91CF9108952C
:1041C0001F920F920FB60F920BB60F9211242F93DE
:1041D0003F934F935F936F937F938F939F93AF938F
:1041E000BF93EF93FF9380915E40813021F0823046
:1041F00009F072C055C080E090E00E94571785E03A
:1042000090E06EE170E245E050E00E94923B282F82
:10421000392F2115310551F48091785090917950C2
:104220000196809378509093795056C0E5E0F0E085
:10423000AFEDB3E281918D93E538F105D9F7809127
:10424000C2509091C350A091C450B091C5508058B5
:104250009F4FAF4FBF4F8093C2509093C350A093D6
:10426000C450B093C5508091C2509091C350A0915A
:10427000C450B091C55080589F4FAF4FBF4F81374A
:104280002CE1920720E0A20720E0B20728F110926B
:10429000C2501092C3501092C4501092C5501CC00E
:1042A00080E090E00E94571785E090E064E270E2C1
:1042B0004EE050E00E94923B282F392F2115310506
:1042C00059F483E080935E4089E08093400981E067
:1042D000809340080E940C08FF91EF91BF91AF912D
:1042E0009F918F917F916F915F914F913F912F910E
:1042F0000F900BBE0F900FBE0F901F9018952F922E
:104300003F924F925F926F927F928F929F92AF9265
:10431000BF92CF92DF92EF92FF920F931F93CF93B2
:10432000DF93CDB7DEB76497CDBFDEBF2A013B0177
:104330008901F9011082411551056105710509F4E2
:104340004DC0882E992ECC24DD2476015E01089480
:10435000A11CB11C0F2EF3E32F2EF0E23F2EF02D07
:10436000F40181919191A191B1914F012DB73EB787
:10437000285030402DBF3EBF2F5F3F4FEDB7FEB7F7
:10438000A182B282F9012282338284839583A6833B
:10439000B7830E94D33B2DB73EB7285F3F4F2DBF59
:1043A0003EBFC801B5010E94873BA02FB12FFD0180
:1043B00001900020E9F73197EA1BFB0BE00FF11F9A
:1043C0008AE090E0808391830894C11CD11CE11C99
:1043D000F11CC414D504E604F70411F66496CDBFAD
:1043E000DEBFDF91CF911F910F91FF90EF90DF9093
:1043F000CF90BF90AF909F908F907F906F905F9085
:104400004F903F902F900895CF92DF92EF92FF92BE
:1044100020917B5030917C50C090DB23D090DC23E6
:10442000E090DD23F090DE236250704080409040A9
:1044300040E050E00E94BA3ADC01CB01C80ED91E20
:10444000EA1EFB1E6C2D7D2D8E2D9F2DFF90EF9073
:10445000DF90CF9008953F924F925F926F927F923C
:104460008F929F92AF92BF92CF92DF92EF92FF9284
:104470000F931F93CF93DF9300D00F92CDB7DEB78A
:10448000DC01CB01342E09831A832B833C8380907B
:104490008350909084502C013D01440C551C661CA7
:1044A000771C440C551C661C771C2091544030919D
:1044B0005540AA24BB2480917D5090917E50A091BC
:1044C0007F50B0918050880E991EAA1EBB1E40E0FE
:1044D00050E0C301B2010E94003B69017A01C80C9F
:1044E000D91CEA1CFB1C0091544010915540C70197
:1044F000B60146ED51E20E94142D980140E050E0D3
:10450000C301B2010E94003B6A527E4D332041F448
:10451000DB010D911D912D913C9113973F7014C0BB
:1045200089819A81AB81BC81FB0180839183A283C5
:10453000B383C701B60146ED51E220E032E00E94AC
:104540005F2C00E010E09801602F712F822F932FD5
:104550002496CDBFDEBFDF91CF911F910F91FF90C9
:10456000EF90DF90CF90BF90AF909F908F907F9013
:104570006F905F904F903F900895CF92DF92EF92AF
:10458000FF920F931F93CF93C82F062F69017A01D3
:1045900080917D5090917E50A0917F50B09180503D
:1045A000BC01CD016F5F7F4F8F4F9F4F46ED51E2B2
:1045B0000E94142D8091D6219091D721A091D821CD
:1045C000B091D921823522E5920721E6A20721E4A4
:1045D000B20709F063C08091BA239091BB23A091E8
:1045E000BC23B091BD23823722E7920721E4A207C2
:1045F00021E6B20709F056C08091D2239091D323CF
:10460000A091D423B091D523803020E0920725E5F6
:10461000A2072AEAB20709F049C00023A1F4C13079
:1046200049F40091BE231091BF232091C023309103
:10463000C1233FC00091C2231091C3232091C42302
:104640003091C52336C0C13049F4C092BE23D09208
:10465000BF23E092C023F092C12308C0C092C223BE
:10466000D092C323E092C423F092C52380917D5061
:1046700090917E50A0917F50B0918050BC01CD01AF
:104680006F5F7F4F8F4F9F4F46ED51E220E032E04A
:104690000E945F2C0FEF1FEF98010BC00FEF1FEF71
:1046A000980107C00FEF1FEF980103C00FEF1FEF36
:1046B0009801602F712F822F932FCF911F910F910F
:1046C000FF90EF90DF90CF900895EF92FF920F93BD
:1046D0001F93CF93DF9310927D5010927E501092D3
:1046E0007F501092805060E070E0CB0146ED51E2C7
:1046F0000E94142D8091D621893E31F18B3E21F10B
:104700008091D4239091D5232AEA8535920709F028
:10471000B7C060919C2370919D2380919E239091BE
:104720009F2360937D5070937E5080937F50909331
:10473000805046ED51E20E94142D8091D621893E91
:1047400019F08B3E09F09EC08091E1219091E22109
:1047500080935440909355408091E32190E0809362
:104760007B5090937C50E090E421F090E521E09222
:104770008350F09284508091022290910322A09164
:104780000422B091052280935F4090936040A093F3
:104790006140B0936240C0918350D0918450609149
:1047A000E62170E080E090E02091FA213091FB2139
:1047B0004091FC215091FD210E94BA3A8B019C014D
:1047C000AE0160E070E08091F2219091F321A09120
:1047D000F421B091F521840F951FA61FB71F800FFC
:1047E000911FA21FB31F8093DB239093DC23A09320
:1047F000DD23B093DE23E0917B50F0917C50C70124
:10480000A0E0B0E04091F6215091F7216091F821AD
:104810007091F921481B590B6A0B7B0BCB01BA0134
:10482000601B710B820B930B9F0140E050E00E94D4
:10483000003B2093594030935A4040935B40509343
:104840005C4081E060E020E030E0A9010E94BD22F0
:10485000AB01BC018091594090915A40A0915B40BE
:10486000B0915C4084179507A607B70720F4109213
:10487000C75080E008C081E08093C75080E003C04B
:1048800081E001C081E0DF91CF911F910F91FF90F6
:10489000EF9008950F931F93CF93DF93CDB7DEB7BB
:1048A0002B97CDBFDEBF782F692FE82FF92FDF01BF
:1048B0000D900020E9F71197AE1BBF0BA031B10599
:1048C00008F09CC0282F392F03EB10E5A80180E0E9
:1048D00090E007C0D901ED919D01DA01ED93AD01A2
:1048E0000196A72FB62FFD0101900020E9F731971F
:1048F000EA1BFB0B8E179F0768F38F30910554F46A
:10490000FC01ED54FF4A82EC90E520E22193E81788
:10491000F907E1F78091B3508E3291F0E4EBF0E5C6
:1049200021E081918E3221F02F5F2C30D1F705C02C
:10493000822F8950833008F463C0222329F401C0F8
:1049400020E0822F90E210C0DE011196822F81506C
:1049500090E08C549F4AF80131913D93E817F90794
:10496000D9F7283070F30AC0E1E0F0E0EC0FFD1F4A
:10497000E80FF11D90838F5F8830B0F32C3009F081
:104980002F5F38E083EB90E5FC01E20FF11D4081E1
:10499000442319F43B3050F015C0E1E0F0E0EC0F97
:1049A000FD1FE30FF11D40832F5F0CC080E2E1E0AB
:1049B000F0E0EC0FFD1FE30FF11D80833F5F3B3004
:1049C000B1F703C03F5F3B30F8F2DE011196CE0134
:1049D0000C96FD012081322F31563A3110F42052CD
:1049E00020833196E817F907A9F72D91F801219353
:1049F0008F01A817B907C9F780E003C081E001C0A3
:104A000081E02B96CDBFDEBFDF91CF911F910F913B
:104A100008954F925F926F927F928F929F92AF9282
:104A2000BF92CF92DF92EF92FF92CF93DF932B0151
:104A30003C0120E83FEF4FEF5FEF42225322642218
:104A400075228091594090915A40A0915B40B0915D
:104A50005C40481659066A067B0608F077C0530189
:104A60004201880C991CAA1CBB1C880C991CAA1C0E
:104A7000BB1CC6EDD1E2C0908350D09084502091F1
:104A8000544030915540EE24FF2480917D50909108
:104A90007E50A0917F50B0918050C80ED91EEA1E62
:104AA000FB1E40E050E0C501B4010E94003BC7017D
:104AB000B601620F731F841F951FAE010E94142D53
:104AC00088819981AA81BB81BF700097A105B1053A
:104AD00099F021E0E22FF0E0EE0FFF1FEE0FFF1F35
:104AE000EA52FE4D80819181A281B381BF7000970F
:104AF000A105B10539F401C020E0420E511C611C32
:104B0000711C27C02F5F32F780E890E0A0E0B0E092
:104B1000480E591E6A1E7B1E8091594090915A4042
:104B2000A0915B40B0915C4020E032E040E050E07A
:104B3000820E931EA41EB51E481659066A067B06F1
:104B400008F499CF44245524320103C04424552449
:104B50003201642D752D862D972DDF91CF91FF9019
:104B6000EF90DF90CF90BF90AF909F908F907F900D
:104B70006F905F904F900895CF92DF92EF92FF92E7
:104B8000CF93C82FDB01CA019170A070B07000975D
:104B9000A105B10551F4032E39E076956795579537
:104BA00047953A95D1F7302D0DC0032E39E0769513
:104BB0006795579547953A95D1F7302D4F5F5F4FE1
:104BC0006F4F7F4FDB01CA0187709070A070B0708B
:104BD0000097A105B10559F46A017B01689412F8A8
:104BE000F694E794D794C7941694D1F70FC06A014E
:104BF0007B01689412F8F694E794D794C7941694BE
:104C0000D1F70894C11CD11CE11CF11C8091C75044
:104C10008823D1F081E060E020E030E0A9010E942B
:104C2000BD22CC2339F49B01AC012C0D3D1D4E1D42
:104C30005F1D06C09B01AC012C193D094E095F099F
:104C400081E061E00E94BD22CF91FF90EF90DF9064
:104C5000CF9008952F923F924F925F926F927F92E2
:104C60008F929F92AF92BF92CF92DF92EF92FF927C
:104C70000F931F93CF93DF93CDB7DEB72C97CDBFA4
:104C8000DEBF882E7B0180915F4090916040A091B3
:104C90006140B091624089879A87AB87BC870F2EAD
:104CA000F6ED2F2EF1E23F2EF02DC82CCA94D22C17
:104CB000932C5B010894A11CB11C69857A858B85B6
:104CC0009C850E9404226D837E838F8398878091C8
:104CD0007B5090917C50009709F413C144245524D3
:104CE00032011C2D8D819E81AF81B885840D951D6B
:104CF000A61DB71D89839A83AB83BC83BC01CD01FC
:104D00004D2D592D0E94142D809154409091554065
:104D1000009709F4E4C0D1018C91882309F410C1F3
:104D20004D2D592D20E030E008C0A9014A525E4DBA
:104D3000FA018081882309F406C1853E09F4C5C0C3
:104D4000DA011B968C911B978F3009F4BEC012308C
:104D500008F0FCC09C91F7018081981709F0B5C05C
:104D6000FA013196D50181E0BA0141919D9149172F
:104D700031F48F5F8B30C9F78B016B0105C08B302D
:104D800009F0A3C08B016B01F1E08F1609F041C05F
:104D900089819A81AB81BC818093C9509093CA501C
:104DA000A093CB50B093CC50C901A0E0B0E0809369
:104DB000D7239093D823A093D923B093DA23D60195
:104DC00054964D915C91559760E070E0BA0155277B
:104DD00044275A968D919C915B97A0E0B0E0842B7C
:104DE000952BA62BB72B8093875090938850A09338
:104DF0008950B0938A50F601848D958DA68DB78D1C
:104E00008093504090935140A0935240B0935340B0
:104E1000A5C0D60154968D919C915597A0E0B0E025
:104E20003C0155244424F601828D938DA0E0B0E02E
:104E3000482A592A6A2A7B2A85EE808369817A81E9
:104E40008B819C8146ED51E220E032E00E945F2C94
:104E5000D6015C964D915D916D917C915F9780E05C
:104E60000E94BC2582E060E020E030E0A9010E94C1
:104E7000BD22DC01CB01481659066A067B0630F4D8
:104E800082E061E0A30192010E94BD22C301B20150
:104E900040E000E010E098010E942B226B017C01B1
:104EA000C301B20141E000E010E098010E942B2212
:104EB000B7EFCB16BFEFDB06BFEFEB06BFE0FB069D
:104EC00008F047C026013701E1CF205E3F4F8091B7
:104ED0005440909155402817390708F426CF08947C
:104EE000411C511C611C711C80917B5090917C5025
:104EF000A0E0B0E0481659066A067B0608F4F2CE38
:104F0000C12E69857A858B859C8540E000E010E0A4
:104F100098010E942B2269877A878B879C87673F3D
:104F2000EFEF7E07EFEF8E07EFE09E07A8F4611525
:104F300071058105910509F0C0CE00E010E00EC0BA
:104F400000E010E00BC000E010E008C000E010E05E
:104F500005C000E010E002C000E010E0802F912FBB
:104F60002C96CDBFDEBFDF91CF911F910F91FF90A7
:104F7000EF90DF90CF90BF90AF909F908F907F90F9
:104F80006F905F904F903F902F9008950E944A2419
:104F9000882329F482E063EB70E50E942A260895B5
:104FA0004F925F926F927F92AF92BF92CF92DF92B9
:104FB000EF92FF920F931F93CF93C82FCB010E94C4
:104FC0004A24882309F057C081E063EB70E50E9412
:104FD0002A26FC01009731F481E0CC2309F44EC06D
:104FE00080E04CC0C13009F448C04488558866242C
:104FF0007724320155244424828D938DA0E0B0E0C3
:10500000482A592A6A2A7B2A0F2EFFEDAF2EF3E297
:10501000BF2EF02DC301B2010E9404226B017C015E
:1050200080917B5090917C500097A1F0C0E0C70127
:10503000B6016C0F711D811D911DA5010E94142DDB
:10504000CF5F80917B5090917C502C2F30E02817BF
:10505000390768F3C301B20140E000E010E09801B5
:105060000E942B222B013C016115710581059105E0
:1050700089F680E003C082E001C081E0CF911F91FA
:105080000F91FF90EF90DF90CF90BF90AF907F9007
:105090006F905F904F9008952F923F924F925F9242
:1050A0006F927F928F929F92AF92BF92CF92DF9238
:1050B000EF92FF920F931F93CF93DF93CDB7DEB79D
:1050C0006097CDBFDEBFFC016D837E8349015A012D
:1050D00081E0BF010E94D027813009F07BC00091A0
:1050E0008750109188502091895030918A500983BF
:1050F0001A832B833C83CC24DD24760124013501E3
:1051000048015901C501B40140E000E010E09801F8
:105110000E942B22DC01CB018F3F1FEF91071FEF75
:10512000A1071FEFB10741F00894C11CD11CE11C7D
:10513000F11C4C015D01E6CF89829A82AB82BC8270
:105140005301420120917B5030917C50809154401A
:10515000909155406090544070905540BC0180E063
:1051600090E040E050E00E94BA3AA70196010E9408
:10517000BA3ADC01CB0140915040509151406091CE
:105180005240709153408A019B01081B190B2A0B56
:105190003B0BC901B801930140E050E00E94003B85
:1051A000022F69817A818B819C810E940422DC011B
:1051B000CB01202E3324280E391EB10180E090E06F
:1051C00046ED51E20E94142D1F86188A19861A8610
:1051D00011E04CC0823009F40CC282E060E020E0B3
:1051E00030E0A9010E94BD220091594010915A401F
:1051F00020915B4030915C4006171707280739075C
:1052000040F460915F407091604080916140909166
:1052100062400E94092569837A838B839C83611590
:1052200071058105910509F4E6C141E00FEF1FEF1B
:1052300098010E942B222B813C8129873A87898102
:105240009A818F87988B1092504010925140109203
:1052500052401092534069817A818B819C810E94D7
:105260000422DC01CB011C0110E000E08114910458
:10527000A104B10409F48DC0442455243201C02E88
:105280001B8790E0891692E0990690E0A90690E0CD
:10529000B90688F000E012E020E030E0400E511E38
:1052A000621E731E80E09EEFAFEFBFEF880E991E67
:1052B000AA1EBB1E0CC0480C591C6A1C7B1C950105
:1052C00084011170207030708824992454018091D9
:1052D000504090915140A0915240B0915340805025
:1052E0009E4FAF4FBF4F8093504090935140A0933B
:1052F0005240B0935340B10180E090E0A201401BC6
:10530000510BAD81BE814A0F5B1F98010E945F2C3B
:10531000C39420917B5030917C508C2D90E082176B
:10532000930729F569817A818B819C810E940925E7
:105330006B017C01611571058105910509F45DC161
:1053400069817A818B819C8141E0970186010E946D
:105350002B22C701B60141E00FEF1FEF98010E9419
:105360002B22C982DA82EB82FC82CC2403C008940F
:10537000211C311C82E061E029813A814B815C81F2
:105380000E94BD2281149104A104B10409F079CFD7
:105390001B85112309F43FC06091C9507091CA5018
:1053A0008091CB509091CC5006ED11E2A8010E9463
:1053B000142DE091D723F091D823E00FF11F128A2A
:1053C000138A8091504090915140A0915240B091E9
:1053D0005340448D558D668D778D6C017D01C41AC7
:1053E000D50AE60AF70A848F958FA68FB78F60914A
:1053F000C9507091CA508091CB509091CC50A80167
:1054000020E032E00E945F2C81E0B701A6010E94FB
:10541000BC2580E0F9C000915F4010916040209170
:105420006140309162400B871C872D873E8777242F
:1054300083EB90E50F2EFBE0AF2EBB24F02DA80EE2
:10544000B91E8824689485F80F2EF6ED4F2EF1E2F0
:105450005F2EF02D282E992E372C6F84788804C06B
:10546000CB86DC86ED86FE866B857C858D859E856C
:105470000E9404226D837E838F83988780917B5066
:1054800090917C50009709F477C01982CD80DE801E
:10549000EF80F8841981C10ED11CE11CF11CC701F9
:1054A000B601A2010E94142D809154409091554064
:1054B000009709F454C0332009F0A1C0A20100E014
:1054C00010E006C0A8014A525E4D222309F099C09F
:1054D000DA018C91882321F4E22DF92DDA0104C040
:1054E000853ED1F3232D30C081918D93EA15FB05C4
:1054F000D9F7FA01838614861586128A138A2985BC
:105500003A85248B358B628E738E809150409091BA
:105510005140A0915240B0915340848F958FA68FF7
:10552000B78FC701B601A20120E032E00E945F2CD4
:105530004091504050915140609152407091534081
:1055400081E00E94BC2521E0005E1F4F8091544005
:10555000909155400817190708F4B4CF322E0981ED
:105560000F5F098320917B5030917C50802F90E019
:105570008217930708F48ACF6B857C858D859E857D
:1055800040E000E010E098010E942B226B017C01BA
:10559000673F1FEF71071FEF81071FE0910708F1B9
:1055A0006F3F2FEF72072FEF82072FEF920759F50A
:1055B0006B857C858D859E850E9409256B017C010C
:1055C0006B857C858D859E8541E0970186010E94D3
:1055D0002B22C701B60141E00FEF1FEF98010E9497
:1055E0002B22C114D104E104F10409F039CF84E085
:1055F0000BC081E009C082E007C082E005C080E006
:1056000003C080E001C083E06096CDBFDEBFDF91C4
:10561000CF911F910F91FF90EF90DF90CF90BF90AF
:10562000AF909F908F907F906F905F904F903F9042
:105630002F900895E0ECF8E0838382818823ECF7D3
:10564000E0ECF8E0838108958F929F92AF92BF9231
:10565000CF92DF92EF92FF920F931F93CF93DF933E
:10566000842EA52EC62EC72FD22F780180640E94CB
:105670001A2B8C2F0E941A2B8C2D0E941A2B8A2DEC
:105680000E941A2B882D0E941A2B8D2F0E941A2BF4
:105690001016110664F500E010E00F2EFDE0CF2E8D
:1056A000DD24F02D0F2EF6EAAF2EF0E5BF2EF02D03
:1056B000C801B6010E94ED3AEC018FEF0E941A2B4F
:1056C000F501EC0FFD1F808380818F3F49F0FE01C3
:1056D000EA55FF4A80818093A7508091A75008C067
:1056E0000F5F1F4F0E151F0519F78FEF01C08FEFCA
:1056F000DF91CF911F910F91FF90EF90DF90CF90AE
:10570000BF90AF909F908F900895FF920F931F933B
:10571000CF93DF9381E00E94A70481E00E947F1D68
:105720008FEF93ECA9E081509040A040E1F700C0DA
:10573000000088E060E00E941F1F88E060E00E9497
:10574000721E80E063E00E94F31D81E00E94051E4E
:105750008AE090E0E0ECF8E03FEFA2EBB0E53383C5
:1057600022812223ECF723812C930197C1F780E05B
:105770000E94051E0E94111E88E060E00E941B1E10
:1057800080E063E00E94F31D81E00E94051ECBE0F3
:10579000D0E002C0219769F080E040E050E0BA011B
:1057A00025E908E010E00E94242B813099F7FF24BE
:1057B00002C0FF24F3948FEF93ECA9E08150904056
:1057C000A040E1F700C00000CBE0D0E002C021978C
:1057D00069F088E04AEA51E060E070E027E808E01C
:1057E00010E00E94242B813091F702C0FF24F39433
:1057F000C2E0D0E006EA10E58FEF0E941A2BF80114
:10580000EC0FFD1F80832196C630D105A9F780914A
:10581000AA50813029F48091AB508A3A21F405C016
:10582000FF24F39402C0FF24F394C7EAD0E587E392
:1058300040E050E0BA012FEF08E010E00E94242B76
:1058400081E040E050E060E070E42FEF0E94242B04
:105850008881882361F7CBE0D0E002C0219761F016
:105860008AE340E050E0BA012FEF08E010E00E9428
:10587000242B882399F702C0FF24F394C0E0D0E0E2
:1058800006EA10E58FEF0E941A2BF801EC0FFD1FBE
:1058900080832196C430D105A9F78091A65080E07D
:1058A0000E94051E0E94111E88E060E00E94721E88
:1058B0008F2DDF91CF911F910F91FF9008956F92DF
:1058C0007F928F929F92AF92BF92CF92DF92EF9290
:1058D000FF920F931F93CF93DF934B015C01742EC4
:1058E000652E690188E060E00E941B1E80E00E9436
:1058F000E21D81E00E94051E80E092E07C01EC1830
:10590000FD0880E0E81682E0F80611F4EE24FF249A
:10591000CBE0D0E003C0219709F4FFCF88E1B501C7
:10592000A4012FEF08E010E00E94242B882399F7B0
:105930008FEF0E941A2B8093A6508EEF0E941A2B95
:105940001C141D04BCF4872C962C00E010E0C80148
:105950006DE070E00E94ED3AEC01F40181914F019D
:105960000E941A2BCA55DF4A88830F5F1F4F0C1500
:105970001D0569F71E141F04ECF400E010E00F2E63
:10598000FDE0CF2EDD24F02D0F2EF6EA8F2EF0E570
:105990009F2EF02DC801B6010E94ED3AEC0180E087
:1059A0000E941A2BC80DD91D88830F5F1F4F0E153B
:1059B0001F0581F78FEF8093A650C0E0D0E006EA84
:1059C00010E58FEF0E941A2BF80180832196C230D8
:1059D000D105BCF380818F3FA1F38091A6508091C7
:1059E000A6508F3F49F0C6EAD0E58FEF0E941A2BF0
:1059F000888388818F3FC9F780E00E94051E0E943E
:105A0000111E88E060E00E94721EDF91CF911F910D
:105A10000F91FF90EF90DF90CF90BF90AF909F904D
:105A20008F907F906F900895AF92BF92CF92DF9248
:105A3000EF92FF920F931F93CF93DF936B017C0143
:105A4000B42EA52E88E060E00E941B1E80E00E941C
:105A5000E21D81E00E94051ECBE0D0E003C021974B
:105A600009F4FFCF81E1B701A6012FEF08E010E0B4
:105A70000E94242B882399F78091A6508E3F49F0ED
:105A8000C6EAD0E58FEF0E941A2B888388818E3F6B
:105A9000C9F70B2D1A2DC0E0D0E08FEF0E941A2B12
:105AA000F80181938F012196F2E0C030DF07A9F75A
:105AB0001092B2508091B2508F3F49F0C2EBD0E5C6
:105AC0008FEF0E941A2B888388818F3FC9F780E06F
:105AD0000E94051E0E94111E88E060E00E94721E56
