:100000000C9416010C9437010C9437010C943701B1
:100010000C9437010C9437010C9437010C94370180
:100020000C9437010C9437010C9437010C94370170
:100030000C9437010C9437010C9467100C94370121
:100040000C947B0F0C94AB0F0C94DB0F0C940B10E7
:100050000C9437010C9437010C9437010C94370140
:100060000C9437010C9437010C9437010C94370130
:100070000C9437010C9437010C9437010C94370120
:100080000C9437010C9437010C9437010C94370110
:100090000C9437010C9437010C9437010C94370100
:1000A0000C9437010C9437010C9437010C94CA3D21
:1000B0000C9437010C9437010C9437010C943701E0
:1000C0000C9437010C9437010C9437010C943701D0
:1000D0000C9437010C9437010C9437010C943701C0
:1000E0000C9437010C9437010C9437010C943701B0
:1000F0000C9437010C9437010C9437010C943701A0
:100100000C94932D0C9437010C9437010C94370107
:100110000C9437010C9437010C9437010C9437017F
:100120000C9437010C9437010C9437010C9437016F
:100130000C9437010C941A130C9437010C94581238
:100140000C9488120C94B8120C94E8120C94DF01F1
:100150000C9437010C9437010C9437010C9437013F
:100160000C9437010C9437010C9437010C9437012F
:100170000C9437010C9437010C9437010C9437011F
:100180000C9437010C9437010C9437010C9437010F
:100190000C9437010C9437010C9437010C943701FF
:1001A0000C94740C0C94690A0C9437010C9437016C
:1001B0000C9437010C9437010C9437010C943701DF
:1001C0000C9437010C9437010C9437010C943701CF
:1001D0000C9437010C9437010C9437010C943701BF
:1001E0000C9437010C94370142554646455220463F
:1001F000554C4C2E20544F5353494E4720494E43A3
:100200004F4D494E4720444154410A005241444910
:100210004F204E4F5420494E495449414C495A456C
:10022000442050524F5045524C590A0011241FBED1
:10023000CFEFDFE5DEBFCDBF00E00CBF11E2A0E0F5
:10024000B0E2E8E3FFEB00E00BBF02C007900D92C5
:10025000AA32B107D9F710E5AAE2B1E201C01D92B6
:10026000A53DB107E1F70E9439010C949A5F0C9407
:100270000000CF93DF930F92CDB7DEB70E94843199
:1002800080E496E028E0FC01218380E496E028E009
:10029000FC01258380E496E024E0FC01228380EACF
:1002A00098E02FE0FC01268380EA98E023E0FC013F
:1002B000258380EA98E028E1FC01248301C0000046
:1002C00080EA98E0FC0181818823CCF780EA98E0FD
:1002D000FC018081898389818F5F8983000080EAA6
:1002E00098E0FC018181882F90E0807290700097E7
:1002F000B1F380EA98E02981FC012083000080EAC4
:1003000098E0FC018181882F90E0807490700097C4
:10031000B1F3D5CFCF93DF930F920F92CDB7DEB766
:1003200089839A8381E08093C15083E080934F401A
:100330000E94BE1D8091C150882F90E00E94522BD8
:1003400080E891E028ECFC01218380E499E029E039
:10035000FC01208380E499E022E0FC01268380E414
:1003600099E069817A8144EF51E0649F9001659F33
:10037000300D749F300D1124FC0126A337A380E4B7
:1003800098E020E03AEFFC0126A337A380E498E050
:1003900021E0FC01268380E498E021E0FC01208339
:1003A00080EA90E020EA30E0F90122812760FC0138
:1003B000228378940F900F90DF91CF9108957894D5
:1003C0001F920F920FB60F9200903B000F921124D4
:1003D0002F933F934F935F936F937F938F939F934D
:1003E000AF93BF93EF93FF93CF93DF93CDB7DEB778
:1003F0002897CDBFDEBF80E498E0FC01108280E446
:1004000099E0FC01108282E080934F40CE0101967A
:1004100020E030E246E0F90100802F5F3F4FFC0111
:100420000082019641504423B1F78091C150882F3A
:1004300090E027EC30E5B9014AE050E00E94845C8E
:1004400027EC30E5CE010196B9010E946B5C0E9459
:10045000520ACE0101969C01F90101900020E9F7B2
:10046000CF010197821B930B9C0140E050E080E09C
:1004700090E0BE016F5F7F4F0E94851E2896CDBF22
:10048000DEBFDF91CF91FF91EF91BF91AF919F912F
:100490008F917F916F915F914F913F912F910F902D
:1004A00000923B000F900FBE0F901F901895CF93B6
:1004B000DF93CDB7DEB76B97CDBFDEBF8E8B9F8B43
:1004C000688F798F4A8F5B8F19821A821B821C82F8
:1004D00080E090E1A0E0B0E08D839E83AF83B88799
:1004E00019861A861B861C8681E00E94E80580E03A
:1004F00092E00E941B1A80E092E020E032E0F901D5
:100500002181297EFC01218380E092E020E032E01D
:10051000F9012481287F2360FC01248380E092E09C
:1005200020E032E0F90122812F7CFC01228380E26D
:1005300092E020E232E0F9012081207E2160FC017E
:10054000208380E292E029E0FC01218380E092E0B8
:1005500020E032E0F90120812160FC01208380E06D
:1005600092E00E94D31B80E092E060E272E040E003
:100570000E94CA1C8D8B80E092E020E032E0F901FD
:1005800020812E7FFC01208380E292E0FC01118219
:1005900080E092E020E032E0F90123812F73FC013A
:1005A000238380E092E020E032E0F90120812160A5
:1005B000FC01208380E092E00E94D31B80E092E067
:1005C00020E032E0F90121812860FC0121831D86B1
:1005D0001E8656C080E292E0FC018381882F90E065
:1005E000817090700097B1F32D8980E292E0622FC4
:1005F0000E94741A8F87988B8F859889CC01A0E010
:10060000B0E029813A814B815C81820F931FA41F46
:10061000B51F89839A83AB83BC838F8598899C019E
:1006200040E050E089859A85AB85BC8582179307A9
:10063000A407B50748F48F859889CC01A0E0B0E005
:1006400089879A87AB87BC878F8598899C0140E012
:1006500050E08D819E81AF81B885281739074A0700
:100660005B0748F48F859889CC01A0E0B0E08D83CA
:100670009E83AF83B8878D859E8501968D879E87E3
:100680008D859E85F4E080309F0708F4A3CF80E03D
:1006900092E020E032E0F9012181277FFC012183F3
:1006A00080E092E020E032E0F90120812260FC014C
:1006B000208380E092E020E032E0F90120812E7F6B
:1006C000FC01208380E00E94E80589819A81AB814A
:1006D000BC81072E7AE0B695A795979587957A9570
:1006E000D1F7702D898B9A8BAB8BBC8B89899A89BA
:1006F000AB89BC8928EE33E040E050E0BC01CD017D
:100700000E949E5BDC01CB012FEF3FE040E050E018
:10071000BC01CD010E94E45BDA01C9019C012253B6
:1007200030408E899F89FC012083318389859A8599
:10073000AB85BC8528EE33E040E050E0BC01CD0144
:100740000E949E5BDC01CB012FEF3FE040E050E0D8
:10075000BC01CD010E94E45BDA01C9019C01225376
:1007600030408A8D9B8DFC01208331838D819E8159
:10077000AF81B88528EE33E040E050E0BC01CD0108
:100780000E949E5BDC01CB012FEF3FE040E050E098
:10079000BC01CD010E94E45BDA01C9019C01225336
:1007A0003040888D998DFC01208331836B96CDBFBD
:1007B000DEBFDF91CF9108950F931F93CF93DF9307
:1007C000CDB7DEB7A997CDBFDEBF8CA39DA36EA327
:1007D0007FA348A759A719821A821B821C8280E036
:1007E00090E1A0E0B0E08D839E83AF83B887198647
:1007F0001A861B861C8681E00E94E80584E060E082
:100800000E949D3284E060E00E94693380E090E0C5
:10081000A8ECB2E48D8B9E8BAF8BB88F6D897E89EF
:100820008F89988D20E030E04AEF55E40E943B5BD1
:10083000DC01CB01898F9A8FAB8FBC8F11E0698D62
:100840007A8D8B8D9C8D20E030E040E85FE30E9444
:100850002A5A88230CF010E0112329F081E090E05F
:100860008D8F9E8F46C011E0698D7A8D8B8D9C8D0A
:1008700020E03FEF4FE757E40E94375B18160CF07B
:1008800010E0112361F16D897E898F89988D20E0B8
:1008900030E040E251E40E943B5BDC01CB01BC0153
:1008A000CD010E94965ADC01CB018D8F9E8F12C024
:1008B00080E293E08F8F98A38F8D98A18C01C8015F
:1008C0000197F1F78C010F8F18A38D8D9E8D0197E5
:1008D0008D8F9E8F8D8D9E8D009751F717C0698DDE
:1008E0007A8D8B8D9C8D0E94965ADC01CB018D8F69
:1008F0009E8F8D8D9E8D89A39AA389A19AA18C012B
:10090000F8013197F1F78F0109A31AA380E492E06F
:100910000E941B1A80E492E020E432E0F901218178
:10092000297EFC01218380E492E020E432E0F90199
:100930002481287F2360FC01248380E492E020E46A
:1009400032E0F90122812F7CFC01228380E692E0D3
:1009500020E632E0F9012081207E2160FC01208325
:1009600080E692E029E0FC01218380E492E020E42B
:1009700032E0F90120812160FC01208380E492E0D3
:100980000E94D31B80E492E060E672E040E00E94A7
:10099000CA1C8BA380E492E020E432E0F9012081BC
:1009A0002E7FFC01208380E692E0FC01118280E42E
:1009B00092E020E432E0F90123812F73FC012383CC
:1009C00080E492E020E432E0F90120812160FC0122
:1009D000208380E492E00E94D31B80E492E020E434
:1009E00032E0F90121812860FC0121831D861E86E9
:1009F00056C080E692E0FC018381882F90E08170F0
:100A000090700097B1F32BA180E692E0622F0E94D4
:100A1000741A8F87988B8F859889CC01A0E0B0E0FD
:100A200029813A814B815C81820F931FA41FB51FDE
:100A300089839A83AB83BC838F8598899C0140E02E
:100A400050E089859A85AB85BC8582179307A407FA
:100A5000B50748F48F859889CC01A0E0B0E089877C
:100A60009A87AB87BC878F8598899C0140E050E0CE
:100A70008D819E81AF81B885281739074A075B07AA
:100A800048F48F859889CC01A0E0B0E08D839E83E7
:100A9000AF83B8878D859E8501968D879E878D85CE
:100AA0009E85F4E080309F0708F4A3CF80E492E0B5
:100AB00020E432E0F9012181277FFC01218380E4D9
:100AC00092E020E432E0F90120812E7FFC012083B6
:100AD00089819A81AB81BC81072E7AE0B695A79572
:100AE000979587957A95D1F7702D898B9A8BAB8BDB
:100AF000BC8B84E060E00E94013380E00E94E80546
:100B000089899A89AB89BC8928EE33E040E050E0BE
:100B1000BC01CD010E949E5BDC01CB012FEF3FE0C9
:100B200040E050E0BC01CD010E94E45BDA01C90164
:100B30009C01225330408CA19DA1FC012083318374
:100B400089859A85AB85BC8528EE33E040E050E08E
:100B5000BC01CD010E949E5BDC01CB012FEF3FE089
:100B600040E050E0BC01CD010E94E45BDA01C90124
:100B70009C012253304088A599A5FC012083318334
:100B80008D819E81AF81B88528EE33E040E050E052
:100B9000BC01CD010E949E5BDC01CB012FEF3FE049
:100BA00040E050E0BC01CD010E94E45BDA01C901E4
:100BB0009C01225330408EA19FA1FC0120833183F0
:100BC000A996CDBFDEBFDF91CF911F910F91089500
:100BD0000F931F93CF93DF93CDB7DEB72F97CDBF82
:100BE000DEBF8F878F85882309F4CEC080E096E032
:100BF0002EEDFC01218380E296E02EE0FC012183B2
:100C000080E496E023E0FC01218380E896E020E187
:100C1000FC01218380EA96E02EE0FC01218380E044
:100C200096E02EE9FC01258380E296E028E0FC01B5
:100C3000258380E496E023E0FC01258380E896E0AC
:100C400020E1FC01258380EA96E02EE0FC0125836B
:100C50001092725080E090E0A8ECB2E489839A830D
:100C6000AB83BC8369817A818B819C8120E030E0F9
:100C70004AEF55E40E943B5BDC01CB018D839E83F0
:100C8000AF83B88711E06D817E818F81988520E0E8
:100C900030E040E85FE30E942A5A88230CF010E01D
:100CA000112329F081E090E089879A8746C011E0FE
:100CB0006D817E818F81988520E03FEF4FE757E47B
:100CC0000E94375B18160CF010E0112361F1698166
:100CD0007A818B819C8120E030E040E251E40E94E7
:100CE0003B5BDC01CB01BC01CD010E94965ADC01CB
:100CF000CB0189879A8712C080E293E08B879C871B
:100D00008B859C858C01C8010197F1F78C010B87BD
:100D10001C8789859A85019789879A8789859A850D
:100D2000009751F717C06D817E818F8198850E9451
:100D3000965ADC01CB0189879A8789859A858D87A8
:100D40009E878D859E858C01F8013197F1F78F0183
:100D50000D871E8780E496E020E4FC01228380E07A
:100D6000809373508093C6508093C72380936B50B9
:100D70008FEF61E00E949D328FEF61E00E94693346
:100D80008FEF0E943D0842C080E096E02EEDFC010E
:100D9000268380E296E02EE0FC01268380E496E044
:100DA00023E0FC01268380E896E020E1FC01268315
:100DB00080EA96E02EE0FC01268380E096E02EEDAE
:100DC000FC01228380E296E02EE0FC01228380E495
:100DD00096E023E0FC01228380E896E020E1FC011C
:100DE000228380EA96E02EE0FC01228380E496E0F4
:100DF00020E4FC01228380E0809373508093C650EE
:100E00008093C72380936B50109272502F96CDBF62
:100E1000DEBFDF91CF911F910F9108950F931F9324
:100E2000CF93DF93CDB7DEB76A97CDBFDEBF898F93
:100E30006A8F898D282F30E081E090E002C0880F12
:100E4000991F2A95E2F761E00E94CC338A8D882FA2
:100E500090E081709070882331F080E096E020E48B
:100E6000FC01258305C080E096E020E4FC01268398
:100E70008A8D882F90E082709070009731F080E228
:100E800096E022E0FC01258305C080E296E022E0A6
:100E9000FC0126838A8D882F90E0847090700097E3
:100EA00031F080E296E024E0FC01258305C080E279
:100EB00096E024E0FC01268380E090E0A0E8BFE318
:100EC00089839A83AB83BC8369817A818B819C817E
:100ED0002BEA3AEA4AE251E40E943B5BDC01CB0197
:100EE0008D839E83AF83B88711E06D817E818F8172
:100EF000988520E030E040E85FE30E942A5A88238A
:100F00000CF010E0112319F081E08987A3C011E0F3
:100F10006D817E818F81988520E030E04FE753E43A
:100F20000E94375B18160CF010E0112309F489C0F9
:100F300069817A818B819C8120E030E04AE754E42A
:100F40000E942E5ADC01CB018A879B87AC87BD8724
:100F50006A857B858C859D8520E030E04AEF55E4ED
:100F60000E943B5BDC01CB018E879F87A88BB98BEE
:100F700011E06E857F858889998920E030E040E81E
:100F80005FE30E942A5A88230CF010E0112329F015
:100F900081E090E08A8B9B8B46C011E06E857F8557
:100FA0008889998920E03FEF4FE757E40E94375B3B
:100FB00018160CF010E0112361F16A857B858C8591
:100FC0009D8520E030E040E251E40E943B5BDC0183
:100FD000CB01BC01CD010E94965ADC01CB018A8B6A
:100FE0009B8B12C080E293E08C8B9D8B8C899D89BA
:100FF0008C01C8010197F1F78C010C8B1D8B8A893C
:101000009B8901978A8B9B8B8A899B89009751F7D3
:1010100028C06E857F85888999890E94965ADC014F
:10102000CB018A8B9B8B8A899B898E8B9F8B8E8928
:101030009F898C01F8013197F1F78F010E8B1F8B7F
:1010400010C06D817E818F8198850E94965ADC0147
:10105000CB0189878985888F888D182F1A95F1F79C
:10106000188F8FEF61E00E9469336A96CDBFDEBFB3
:10107000DF91CF911F910F910895CF93DF9300D00F
:10108000CDB7DEB78B838B81837089838B818C7026
:101090008A838B81882F90E085709070009751F043
:1010A00080917250982F907F8B8182958F70892BC1
:1010B000809372508B81882F90E08A709070009797
:1010C00049F08B81982F907F809172508F70892B7F
:1010D0008093725084E00E943937809172508093DF
:1010E00056508981882319F081E00E9409378A814E
:1010F000882319F081E00E94213781E00E948E3719
:1011000080EC98E02FEFFC012383000080EC98E056
:10111000FC0182818823D4F780EC98E0FC01838174
:1011200080936250000080EC98E020915650FC01C2
:101130002383000080EC98E0FC0182818823D4F7AF
:1011400080EC98E0FC0183818093625080E00E94F3
:101150008E378981882319F080E00E9409378A81BF
:10116000882319F080E00E9421370E94A637239639
:10117000CDBFDEBFDF91CF910895CF93DF930F9264
:10118000CDB7DEB789838981882359F080E096E066
:1011900020E2FC01218380E096E020E2FC0125832F
:1011A0000AC080E096E020E2FC01268380E096E021
:1011B00020E2FC0122830F90DF91CF910895CF921E
:1011C000DF92EF92FF920F931F93CF93DF93CDB7F0
:1011D000DEB72D97CDBFDEBF8B836C834D832E830F
:1011E0003F83E886F9860A871B87CC86DD868C8557
:1011F0009D85809363509093645081E00E94E80540
:101200008B816D810E940E078C810E943D088B812D
:10121000853031F08B81863019F08B81873019F45D
:1012200081E00E941C0E81E00E94BD088B810E941B
:10123000DB1984E00E94393780EC98E024E5FC015A
:10124000208380EA96E021E0FC01228380EA96E098
:1012500022E0FC01208B80EA96E021E0FC0122875D
:1012600080EA96E021E0FC01218780E896E020E218
:10127000FC01218380E49AE023E2FC0121838E813A
:101280009F819C0140E050E080E894E8AEE1B0E04E
:10129000BC01CD010E94E45BDA01C90189839A8314
:1012A00080E49AE029813A81FC0126A337A380E4F7
:1012B0009AE029813A8136952795FC0122AF33AF18
:1012C00080E49AE020E43AE0F9012081207F216067
:1012D000FC01208380EA90E020EA30E0F9012281DD
:1012E0002160FC0122837894109265501092665020
:1012F000109267501092685010924E40000020915A
:101300006550309166504091675050916850888583
:101310009985AA85BB85281739074A075B0778F3A3
:1013200080E49AE020E43AE0F9012081207FFC018A
:10133000208380EA90E020EA30E0F90122812E7FCC
:10134000FC012283F8940E94A63780E00E94BD0829
:101350002D96CDBFDEBFDF91CF911F910F91FF90F2
:10136000EF90DF90CF900895CF93DF9300D000D01F
:10137000CDB7DEB78B836C834D832E8381E00E94D3
:10138000E8058B816D810E940E078C810E943D08CB
:101390008B81853031F08B81863019F08B818730DD
:1013A00019F481E00E941C0E81E00E94BD088B812F
:1013B0000E94DB1984E00E94393780EC98E024E534
:1013C000FC01208380EA96E021E0FC01228380EA90
:1013D00096E022E0FC01208B80EA96E021E0FC010F
:1013E000238780EA96E028E0FC01218780E896E0E8
:1013F00020E2FC01218380E49AE023E2FC012183C6
:101400008E81882F90E025E130E0281B390B81E0A8
:1014100090E002C0880F991F2A95E2F7019789830F
:101420009A8380E49AE029813A81FC0126A337A3BC
:1014300080E49AE029813A8136952795FC0122AF14
:1014400033AF80E49AE020E43AE0F9012081207F84
:101450002160FC01208380EA90E020EA30E0F9017D
:1014600022812260FC01228380EA90E020EA30E0C1
:10147000F90122812068FC012283109265501092AC
:1014800066501092675010926850109295501092CA
:10149000965010924E4078942696CDBFDEBFDF91D5
:1014A000CF910895CF93DF93CDB7DEB780EA96E072
:1014B000FC011386DF91CF910895CF93DF93CDB7D1
:1014C000DEB780EA96E021E0FC012387DF91CF912F
:1014D00008951F920F920FB60F9200903B000F924B
:1014E00011242F923F924F925F926F927F928F9230
:1014F0009F92AF92BF92CF92DF92EF92FF920F93A3
:101500001F932F933F934F935F936F937F938F938B
:101510009F93AF93BF93EF93FF93CF93DF9300D04D
:10152000CDB7DEB780914E40882334F080914E4095
:101530008F5F80934E40AFC184E00E94393780ECCA
:1015400098E024E5FC01208381E00E948E3780EA48
:1015500096E022E0FC01268319821AC080EC98E014
:101560002AEAFC012383000080EC98E0FC018281E0
:101570008823D4F78981882F90E020EC38E0F901A6
:1015800023818A5A9F4AFC01208389818F5F898346
:101590008981833018F380EA96E022E0FC012583FC
:1015A00080E00E948E3780915650882334F487E57E
:1015B00090E42FEFFC01208304C087E590E4FC0158
:1015C000108286E590E420915650FC01208385E549
:1015D00090E420915750FC01208384E590E4209111
:1015E0005850FC0120838091544090915540A09127
:1015F0005640B09157405C016D01BB0F880B982F8E
:10160000DC01E82EF82E082F182FA0929750B092E8
:101610009850C0929950D0929A50E0929B50F0927C
:101620009C5000939D5010939E50809165509091D6
:101630006650A0916750B0916850880F991F880F2D
:10164000991F9C0120533C4D2A833B83A0909750C7
:10165000B0909850C0909950D0909A50E0909B5084
:10166000F0909C5000919D5010919E502A2D3B2D42
:101670004C2D5D2D6E2D7F2D802F912F0F2EF0EA9A
:10168000AF2EF02D0F2EF5E2BF2EF02D0F2EF6E22D
:10169000CF2EF02DDD24EE24FF2400E010E00E9488
:1016A0002751222E332E442E552E662E772E882E2D
:1016B000992EA22CB32CC42CD52CE62CF72C082D5B
:1016C000192D2A2D3B2D4C2D5D2D6E2D7F2D802F1C
:1016D000912FAA24AA94BB24BA940F2EFFE7CF2EF1
:1016E000F02DDD24EE24FF2400E010E00E946E5275
:1016F000222E332E442E552E662E772E882E992E8E
:10170000A22CB32CC42CD52CE62CF72C082D192D8B
:101710002A2D3B2D4C2D5D2D6E2D7F2D802F912F51
:1017200001E00E94FA51222E332E442E552E662EB1
:10173000772E882E992EA22CB32CC42CD52CE62CD7
:10174000F72C082D192D2A2D3B2D4C2D5D2D6E2D9E
:101750007F2D802F912F0F2EF3E0AF2EF02DBB2485
:10176000CC24DD24EE24FF2400E010E00E946E5221
:10177000A22EB32EC42ED52EE62EF72E082F192F0B
:101780002A2D3B2D4C2D5D2D6E2D7F2D802F912FE1
:10179000DA01C901B095A095909581959F4FAF4F03
:1017A000BF4FEA81FB8180839183A283B3838091C1
:1017B000655090916650A0916750B0916850019625
:1017C000A11DB11D8093655090936650A093675002
:1017D000B09368508091655090916650A091675089
:1017E000B09168508E319105A105B10508F453C040
:1017F0001092655010926650109267501092685087
:101800008091955090919650019680939550909329
:1018100096508FE780934E4080916550909166502E
:10182000A0916750B09168509C01220F331F220F86
:10183000331F82ED93E240ED53E2BA01A9010E9409
:10184000595C8091C1508093D023809165509091D4
:101850006650A0916750B09168508093D1238091D9
:10186000655090916650A0916750B0916850880F74
:10187000991FAA1FBB1F880F991FAA1FBB1F9C017E
:10188000AD012E5F3F4F4F4F5F4F60ED73E280E041
:1018900090E00E94851E2396CDBFDEBFDF91CF91E1
:1018A000FF91EF91BF91AF919F918F917F916F9138
:1018B0005F914F913F912F911F910F91FF90EF906A
:1018C000DF90CF90BF90AF909F908F907F906F9060
:1018D0005F904F903F902F900F9000923B000F90A1
:1018E0000FBE0F901F9018951F920F920FB60F9278
:1018F00000903B000F9211242F923F924F925F92E3
:101900006F927F928F929F92AF92BF92CF92DF920F
:10191000EF92FF920F931F932F933F934F935F93F9
:101920006F937F938F939F93AF93BF93EF93FF93A7
:10193000CF93DF93CDB7DEB72797CDBFDEBF8091C2
:101940004E40882334F080914E408F5F80934E400C
:101950004AC181E00E948E3780EA96E022E0FC01D5
:10196000268319821AC080EC98E02AEAFC012383BE
:10197000000080EC98E0FC0182818823D4F7898103
:10198000882F90E020EC38E0F90123818A5A9F4AA1
:10199000FC01208389818F5F89838981833018F3DB
:1019A00080EA96E022E0FC01258380E00E948E37E9
:1019B0008091565088233CF4CE01029603962FEF77
:1019C000FC01208305C0CE0102960396FC01108223
:1019D000CE010296029620915650FC012083CE0142
:1019E0000296019620915750FC012083CE01029669
:1019F00020915850FC0120838A819B81AC81BD815C
:101A00005C016D01BB0F880B982FDC01E82EF82ECE
:101A1000082F182FA0929750B0929850C0929950CA
:101A2000D0929A50E0929B50F0929C5000939D501F
:101A300010939E5020916350309164508091655076
:101A400090916650A0916750B0916850880F991F8F
:101A5000880F991FA901480F591F4E835F83A090DB
:101A60009750B0909850C0909950D0909A50E09074
:101A70009B50F0909C5000919D5010919E502A2DAB
:101A80003B2D4C2D5D2D6E2D7F2D802F912F0F2EF8
:101A9000F0EAAF2EF02D0F2EF5E2BF2EF02D0F2E17
:101AA000F6E2CF2EF02DDD24EE24FF2400E010E03E
:101AB0000E942751222E332E442E552E662E772E2D
:101AC000882E992EA22CB32CC42CD52CE62CF72CC6
:101AD000082D192D2A2D3B2D4C2D5D2D6E2D7F2D82
:101AE000802F912FAA24AA94BB24BA940F2EFFE72B
:101AF000CF2EF02DDD24EE24FF2400E010E00E9424
:101B00006E52222E332E442E552E662E772E882E80
:101B1000992EA22CB32CC42CD52CE62CF72C082DF6
:101B2000192D2A2D3B2D4C2D5D2D6E2D7F2D802FB7
:101B3000912F01E00E94FA51222E332E442E552E71
:101B4000662E772E882E992EA22CB32CC42CD52C41
:101B5000E62CF72C082D192D2A2D3B2D4C2D5D2D13
:101B60006E2D7F2D802F912F0F2EF3E0AF2EF02DB5
:101B7000BB24CC24DD24EE24FF2400E010E00E94EE
:101B80006E52A22EB32EC42ED52EE62EF72E082F7F
:101B9000192F2A2D3B2D4C2D5D2D6E2D7F2D802F45
:101BA000912FDA01C901B095A095909581959F4F2D
:101BB000AF4FBF4FEE81FF8180839183A283B383B8
:101BC0008091655090916650A0916750B091685097
:101BD0000196A11DB11D8093655090936650A0930E
:101BE0006750B09368502796CDBFDEBFDF91CF918D
:101BF000FF91EF91BF91AF919F918F917F916F91E5
:101C00005F914F913F912F911F910F91FF90EF9016
:101C1000DF90CF90BF90AF909F908F907F906F900C
:101C20005F904F903F902F900F9000923B000F904D
:101C30000FBE0F901F901895CF93DF930F92CDB7E3
:101C4000DEB789838981882349F080E260E00E94C1
:101C50009D3280E260E00E94693304C080E260E06F
:101C60000E9401330F90DF91CF9108958F929F9240
:101C7000AF92BF92CF92DF92EF92FF920F931F939A
:101C8000CF93DF93CDB7DEB72F97CDBFDEBF89836C
:101C90006A837B834C835D832E830F83E886F9867A
:101CA000CA86DB86AC86BD868E869F868BA19CA16C
:101CB000809363509093645081E00E94E8058A818C
:101CC0009B81FC01908185E0692F0E940E078A812B
:101CD0009B810196FC01908186E0692F0E940E078E
:101CE0008A819B810296FC01908187E0692F0E9486
:101CF0000E0789810E943D088F810E941C0E84E09E
:101D00000E94393780EC98E024E5FC01208381E0D3
:101D10000E94BD0885E00E94DB1980EA96E022E07F
:101D2000FC01208B80EA96E021E0FC01228380E820
:101D300091E028E7FC01208380E098E020EFFC019F
:101D4000218380E098E028853985FC0120A731A710
:101D500080E098E02A853B85FC0122A733A780E03C
:101D600098E02C853D85FC0124A735A780E098E00C
:101D70002E853F85FC0126A737A780E098E02E81BD
:101D8000222F30E021503040FC0126A337A380E011
:101D900098E022E0FC01268380E098E02FEFFC0130
:101DA000278380E098E020E038E0F9012081207F5F
:101DB0002860FC01208310926550109266501092AA
:101DC0006750109268501092BF5080E080932C2191
:101DD00080932B2180932A2180EA90E020EA30E052
:101DE000F90122812660FC012283789481E00E941F
:101DF0008E3780E896E020E2FC01218380E49AE0BF
:101E000023E2FC01218300E41AE08C819D819C0186
:101E100040E050E080E894E8AEE1B0E0BC01CD01E4
:101E20000E94E45BDA01C901F80186A397A300E4EC
:101E30001AE08C819D819C0140E050E080E492E4B6
:101E4000AFE0B0E0BC01CD010E94E45BDA01C90162
:101E5000F80182AF93AF80E49AE020E43AE0F90120
:101E60002081207F2160FC012083000020916550AB
:101E70003091665040916750509168508F8D98A175
:101E8000A9A1BAA1281739074A075B0778F380E0B0
:101E900098E020E038E0F9012081207FFC012083D8
:101EA00080E49AE020E43AE0F9012081207FFC01FF
:101EB000208380EA90E020EA30E0F9012281297F46
:101EC000FC012283F89480E00E948E370E94A6379E
:101ED00080E00E94BD082F96CDBFDEBFDF91CF917D
:101EE0001F910F91FF90EF90DF90CF90BF90AF9038
:101EF0009F908F9008951F920F920FB60F920090AF
:101F00003B000F9211242F933F934F935F936F9356
:101F10007F938F939F93AF93BF93EF93FF93CF9351
:101F2000DF93CDB7DEB70E94E713DF91CF91FF912A
:101F3000EF91BF91AF919F918F917F916F915F9141
:101F40004F913F912F910F9000923B000F900FBE49
:101F50000F901F9018951F920F920FB60F9200903E
:101F60003B000F9211242F933F934F935F936F93F6
:101F70007F938F939F93AF93BF93EF93FF93CF93F1
:101F8000DF93CDB7DEB70E94E713DF91CF91FF91CA
:101F9000EF91BF91AF919F918F917F916F915F91E1
:101FA0004F913F912F910F9000923B000F900FBEE9
:101FB0000F901F9018951F920F920FB60F920090DE
:101FC0003B000F9211242F933F934F935F936F9396
:101FD0007F938F939F93AF93BF93EF93FF93CF9391
:101FE000DF93CDB7DEB70E94E713DF91CF91FF916A
:101FF000EF91BF91AF919F918F917F916F915F9181
:102000004F913F912F910F9000923B000F900FBE88
:102010000F901F9018951F920F920FB60F9200907D
:102020003B000F9211242F933F934F935F936F9335
:102030007F938F939F93AF93BF93EF93FF93CF9330
:10204000DF93CDB7DEB70E94E7131092BF5080E256
:1020500096E0FC018481882F90E082709070009758
:10206000B1F080E096E0FC018481882F90E08074DC
:102070009070009731F080E296E022E0FC01278327
:1020800010C080E096E020E4FC0127830AC080E0D5
:1020900096E020E4FC01268380E296E022E0FC0149
:1020A0002583DF91CF91FF91EF91BF91AF919F91E8
:1020B0008F917F916F915F914F913F912F910F90F1
:1020C00000923B000F900FBE0F901F9018951F922B
:1020D0000F920FB60F9200903B000F9211242F9396
:1020E0003F934F935F936F937F938F939F93AF93A0
:1020F000BF93EF93FF93CF93DF93CDB7DEB72997CD
:10210000CDBFDEBF1A821B821C821D8219824FC086
:102110008981882F90E08A5A9F4AFC018081882318
:102120003CF4CE01069603962FEFFC01208305C0F8
:10213000CE0106960396FC011082CE010696029609
:102140002981222F30E02A5A3F4AF9012081FC01DF
:102150002083CE01069601962981222F30E02F5F41
:102160003F4F2A5A3F4AF9012081FC012083CE01CA
:1021700006962981222F30E02E5F3F4F2A5A3F4A90
:10218000F9012081FC0120832A813B814C815D8102
:102190008E819F81A885B985820F931FA41FB51FCB
:1021A0008A839B83AC83BD8389818D5F8983898189
:1021B0008C3008F4ADCF8A819B81AC81BD8124E055
:1021C00030E040E050E0BC01CD010E94065CDA0145
:1021D000C9018A839B83AC83BD8320916350309176
:1021E00064508091655090916650A0916750B09175
:1021F0006850880F991F880F991F280F391F8E81EB
:102200009F81A885B985F90180839183A283B383D7
:102210008091655090916650A0916750B091685040
:102220000196A11DB11D8093655090936650A093B7
:102230006750B09368502996CDBFDEBFDF91CF9134
:10224000FF91EF91BF91AF919F918F917F916F918E
:102250005F914F913F912F910F9000923B000F9013
:102260000FBE0F901F9018958F929F92AF92BF92C2
:10227000CF92DF92EF920F931F93CF93DF93CDB75F
:10228000DEB72D97CDBFDEBF89836A834B832C8356
:102290003D830E83EF82C886D986AA86BB868C864C
:1022A0009D868AA19BA1809363509093645081E0A6
:1022B0000E94E80589816B810E940E078A810E9435
:1022C0003D088F810E941C0E84E00E94393780EC0B
:1022D00098E024E5FC01208381E00E94BD0889810B
:1022E0000E94DB1980EA96E022E0FC01208B80EA64
:1022F00096E021E0FC01228380E891E028E7FC01E0
:10230000208380E099E020EFFC01218380E099E0C8
:1023100028853985FC0120A731A780E099E02A852E
:102320003B85FC0122A733A780E099E02C853D8501
:10233000FC0124A735A780E099E02C8D3D8DFC01A0
:1023400026A737A780E099E02E81222F30E0215088
:102350003040FC0126A337A380E099E022E0FC0195
:10236000268380E099E02FEFFC01278380E099E04D
:1023700020E039E0F9012081207F2860FC012083E2
:1023800010926550109266501092675010926850EB
:102390001092BF5080EA90E020EA30E0F9012281FB
:1023A0002660FC012283789481E00E948E3780E8C9
:1023B00096E020E2FC01218380E49AE023E2FC0124
:1023C000218300E41AE08C819D819C0140E050E073
:1023D00080E894E8AEE1B0E0BC01CD010E94E45B8E
:1023E000DA01C901F80186A397A300E41AE08C8101
:1023F0009D819C0140E050E080E492E4AFE0B0E0D9
:10240000BC01CD010E94E45BDA01C901F80182AF91
:1024100093AF80E49AE020E43AE0F9012081207F44
:102420002160FC01208300002091655030916650AE
:1024300040916750509168508E8D9F8DA8A1B9A191
:10244000281739074A075B0778F380E099E020E016
:1024500039E0F9012081207FFC01208380E49AE0AB
:1024600020E43AE0F9012081207FFC01208380EA0A
:1024700090E020EA30E0F9012281297FFC012283EB
:10248000F89480E00E948E370E94A63780E00E9478
:10249000BD082D96CDBFDEBFDF91CF911F910F916B
:1024A000EF90DF90CF90BF90AF909F908F90089566
:1024B0001F920F920FB60F9200903B000F921124C3
:1024C0002F933F934F935F936F937F938F939F933C
:1024D000AF93BF93EF93FF93CF93DF93CDB7DEB767
:1024E0000E94E713DF91CF91FF91EF91BF91AF91E0
:1024F0009F918F917F916F915F914F913F912F911C
:102500000F9000923B000F900FBE0F901F901895F8
:102510001F920F920FB60F9200903B000F92112462
:102520002F933F934F935F936F937F938F939F93DB
:10253000AF93BF93EF93FF93CF93DF93CDB7DEB706
:102540000E94E713DF91CF91FF91EF91BF91AF917F
:102550009F918F917F916F915F914F913F912F91BB
:102560000F9000923B000F900FBE0F901F90189598
:102570001F920F920FB60F9200903B000F92112402
:102580002F933F934F935F936F937F938F939F937B
:10259000AF93BF93EF93FF93CF93DF93CDB7DEB7A6
:1025A0000E94E713DF91CF91FF91EF91BF91AF911F
:1025B0009F918F917F916F915F914F913F912F915B
:1025C0000F9000923B000F900FBE0F901F90189538
:1025D0001F920F920FB60F9200903B000F921124A2
:1025E0002F933F934F935F936F937F938F939F931B
:1025F000AF93BF93EF93FF93CF93DF93CDB7DEB746
:102600000E94E7131092BF50DF91CF91FF91EF919D
:10261000BF91AF919F918F917F916F915F914F91FA
:102620003F912F910F9000923B000F900FBE0F90A3
:102630001F9018951F920F920FB60F9200903B00BB
:102640000F9211242F933F934F935F936F937F9338
:102650008F939F93AF93BF93EF93FF93CF93DF93AA
:10266000CDB7DEB72997CDBFDEBF1A821B821C8291
:102670001D8219824FC08981882F90E08A5A9F4A13
:10268000FC01808188233CF4CE01069603962FEF4F
:10269000FC01208305C0CE0106960396FC01108242
:1026A000CE01069602962981222F30E02A5A3F4A0F
:1026B000F9012081FC012083CE0106960196298133
:1026C000222F30E02F5F3F4F2A5A3F4AF9012081E5
:1026D000FC012083CE0106962981222F30E02E5F57
:1026E0003F4F2A5A3F4AF9012081FC0120832A8169
:1026F0003B814C815D818E819F81A885B985820F48
:10270000931FA41FB51F8A839B83AC83BD838981DC
:102710008D5F898389818C3008F4ADCF8A819B815C
:10272000AC81BD8124E030E040E050E0BC01CD014F
:102730000E94065CDA01C9018A839B83AC83BD8356
:102740002091635030916450809165509091665013
:10275000A0916750B0916850880F991F880F991FFA
:10276000280F391F8A819B81AC81BD81F90180834B
:102770009183A283B3838091655090916650A0911C
:102780006750B09168500196A11DB11D80936550AE
:1027900090936650A0936750B09368502996CDBF30
:1027A000DEBFDF91CF91FF91EF91BF91AF919F91EC
:1027B0008F917F916F915F914F913F912F910F90EA
:1027C00000923B000F900FBE0F901F901895CF9373
:1027D000DF93CDB7DEB780EA96E022E0FC012683E6
:1027E00080EC98E02AEAFC012383000080EC98E06A
:1027F000FC0182818823D4F78091BF50882F90E01C
:1028000020EC38E0F90123818A5A9F4AFC01208399
:1028100080EC98E02AEAFC012383000080EC98E039
:10282000FC0182818823D4F78091BF50882F90E0EB
:10283000019620EC38E0F90123818A5A9F4AFC0175
:10284000208380EC98E02AEAFC012383000080ECDE
:1028500098E0FC0182818823D4F78091BF50882FB3
:1028600090E0029620EC38E0F90123818A5A9F4AD1
:10287000FC01208380EA96E022E0FC012583809120
:10288000BF508D5F8093BF50DF91CF910895CF935C
:10289000DF93CDB7DEB72997CDBFDEBF1A821B828B
:1028A0001C821D828091655090916650A091675066
:1028B000B09168500196A11DB11D80936550909311
:1028C0006650A0936750B093685080EC98E020ED7C
:1028D000FC01208319824FC08981882F90E08A5A99
:1028E0009F4AFC01808188233CF4CE010696039622
:1028F0002FEFFC01208305C0CE0106960396FC0154
:102900001082CE01069602962981222F30E02A5AA3
:102910003F4AF9012081FC012083CE0106960196F1
:102920002981222F30E02F5F3F4F2A5A3F4AF90179
:102930002081FC012083CE0106962981222F30E0E0
:102940002E5F3F4F2A5A3F4AF9012081FC01208324
:102950002A813B814C815D818E819F81A885B985CB
:10296000820F931FA41FB51F8A839B83AC83BD83F3
:1029700089818D5F898389818C3008F4ADCF8A810C
:102980009B81AC81BD8124E030E040E050E0BC019F
:10299000CD010E94065CDA01C9018A839B83AC8366
:1029A000BD83CE010296FC01808180935850CE01F8
:1029B0000296FC01818180935750CE010296FC0162
:1029C00082818093565080E496E020E1FC012683CA
:1029D00080E296E028E0FC012683000080EC98E08D
:1029E00026E0FC012383000080EC98E0FC0182815A
:1029F0008823D4F780EC98E0FC01838180936250B7
:102A000080E296E028E0FC012583000080E296E069
:102A100028E0FC012683000080EC98E022E0FC0125
:102A20002383000080EC98E0FC0182818823D4F7A6
:102A300080EC98E0FC0183818093625080EC98E008
:102A400020914940FC012383000080EC98E0FC01C8
:102A500082818823D4F780EC98E0FC018381809305
:102A6000625080EC98E028E430E4F9012081FC0118
:102A70002383000080EC98E0FC0182818823D4F756
:102A800080EC98E0FC0183818093625080EC98E0B8
:102A900020915650FC012383000080EC98E0FC015B
:102AA00082818823D4F780EC98E0FC0183818093B5
:102AB000625080EC98E020915750FC012383000085
:102AC00080EC98E0FC0182818823D4F780EC98E0C8
:102AD000FC0183818093625080EC98E020915850F3
:102AE000FC012383000080EC98E0FC0182818823B4
:102AF000D4F780EC98E0FC0183818093625080E2FF
:102B000096E028E0FC01258380E496E020E1FC01CA
:102B1000258380EC98E024E5FC01208380E496E0A6
:102B200020E1FC0126838091484090914940039622
:102B3000809348409093494090912A21809156502B
:102B4000890F80932A2190912B2180915750890FD2
:102B500080932B2190912C2180915850890F809344
:102B60002C212996CDBFDEBFDF91CF9108952F9202
:102B70003F924F925F926F927F928F929F92AF920D
:102B8000BF92CF92DF92EF92FF920F931F93CF935A
:102B9000DF9300D00F92CDB7DEB7AA24BB24CC249C
:102BA000DD24EE24FF2400E010E0A0928C50B092CF
:102BB0008D50C0928E50D0928F50E0929050F092F3
:102BC000915000939250109393502A2D3B2D4C2DF1
:102BD0005D2D6E2D7F2D802F912F2093845030936B
:102BE00085504093865050938750609388507093DF
:102BF000895080938A5090938B5020937C503093CF
:102C00007D5040937E5050937F50609380507093DE
:102C10008150809382509093835080E080932F2145
:102C200080932E2180932D2110924840109249408C
:102C300019821A8288C281E79CE10E94C037809184
:102C40004840909149408F58934E809348409093CC
:102C500049401B821C826BC28B819C8123E030E047
:102C6000B9010E94BD5B9C01235D3E4DF90140818D
:102C70002B813C8120533C4DF9012081240F835D41
:102C80009E4DFC0120838B819C8123E030E0B901C3
:102C90000E94BD5B009709F044C08B819C818053EA
:102CA0009C4DFC0180818823D4F4809154509091F4
:102CB0005550FC011082FC011182FC0112822FEFA1
:102CC000FC0123832FEFFC0124832FEFFC012583DC
:102CD0002FEFFC0126832FEFFC01278314C0809186
:102CE000545090915550FC011082FC011182FC015E
:102CF0001282FC011382FC011482FC011582FC018A
:102D00001682FC0117828091545090915550029682
:102D10002B813C8120533C4DF9012081FC01208313
:102D200024C08B819C8123E030E0B9010E94BD5B0F
:102D30008130910571F480915450909155500196D5
:102D40002B813C8120533C4DF9012081FC012083E3
:102D50000CC080915450909155502B813C81205350
:102D60003C4DF9012081FC0120838B819C8129E06D
:102D700030E0B9010E94BD5B8230910509F094C03A
:102D8000A0907C50B0907D50C0907E50D0907F50ED
:102D9000E0908050F09081500091825010918350CB
:102DA0008091545090915550FC012080FC0131805D
:102DB000FC014280FC015380FC016480FC017580B1
:102DC000FC018680FC0197802A2D220DE1E02A1566
:102DD00008F0E0E03B2D330DF1E03B1508F0F0E0AA
:102DE000E30FA1E0E31708F0A0E0FA2B3E2F4C2DF3
:102DF000440DE1E04C1508F0E0E0F40FA1E0F41719
:102E000008F0A0E0EA2B4F2F5D2D550DF1E05D1588
:102E100008F0F0E0E50FA1E0E51708F0A0E0FA2BDC
:102E20005E2F6E2D660DE1E06E1508F0E0E0F60F06
:102E3000A1E0F61708F0A0E0EA2B6F2F7F2D770DA9
:102E4000F1E07F1508F0F0E0E70FA1E0E71708F0E8
:102E5000A0E0FA2B7E2F802F880DE1E0801708F08C
:102E6000E0E0F80FA1E0F81708F0A0E0EA2B8F2FC0
:102E7000912F990DE90F9E2FA22EB32EC42ED52E81
:102E8000E62EF72E082F192FA0927C50B0927D507D
:102E9000C0927E50D0927F50E0928050F09281504C
:102EA00000938250109383508B819C8129E030E005
:102EB000B9010E94BD5B8530910509F094C0A090D6
:102EC0008450B0908550C0908650D0908750E0904C
:102ED0008850F090895000918A5010918B508091C9
:102EE000545090915550FC012080FC013180FC0130
:102EF0004280FC015380FC016480FC017580FC0170
:102F00008680FC0197802A2D220DE1E02A1508F029
:102F1000E0E03B2D330DF1E03B1508F0F0E0E30F6E
:102F2000A1E0E31708F0A0E0FA2B3E2F4C2D440D52
:102F3000E1E04C1508F0E0E0F40FA1E0F41708F030
:102F4000A0E0EA2B4F2F5D2D550DF1E05D1508F047
:102F5000F0E0E50FA1E0E51708F0A0E0FA2B5E2F06
:102F60006E2D660DE1E06E1508F0E0E0F60FA1E0D1
:102F7000F61708F0A0E0EA2B6F2F7F2D770DF1E018
:102F80007F1508F0F0E0E70FA1E0E71708F0A0E0F8
:102F9000FA2B7E2F802F880DE1E0801708F0E0E00B
:102FA000F80FA1E0F81708F0A0E0EA2B8F2F912F7F
:102FB000990DE90F9E2FA22EB32EC42ED52EE62EEC
:102FC000F72E082F192FA0928450B0928550C092EE
:102FD0008650D0928750E0928850F09289500093AA
:102FE0008A5010938B508B819C8129E030E0B9018D
:102FF0000E94BD5B8830910509F094C0A0908C5070
:10300000B0908D50C0908E50D0908F50E0909050E6
:10301000F0909150009192501091935080915450A3
:1030200090915550FC012080FC013180FC014280D0
:10303000FC015380FC016480FC017580FC018680EA
:10304000FC0197802A2D220DE1E02A1508F0E0E02E
:103050003B2D330DF1E03B1508F0F0E0E30FA1E06C
:10306000E31708F0A0E0FA2B3E2F4C2D440DE1E0D1
:103070004C1508F0E0E0F40FA1E0F41708F0A0E030
:10308000EA2B4F2F5D2D550DF1E05D1508F0F0E0B6
:10309000E50FA1E0E51708F0A0E0FA2B5E2F6E2DFA
:1030A000660DE1E06E1508F0E0E0F60FA1E0F6171E
:1030B00008F0A0E0EA2B6F2F7F2D770DF1E07F1550
:1030C00008F0F0E0E70FA1E0E71708F0A0E0FA2B26
:1030D0007E2F802F880DE1E0801708F0E0E0F80FE8
:1030E000A1E0F81708F0A0E0EA2B8F2F912F990D9F
:1030F000E90F9E2FA22EB32EC42ED52EE62EF72E2C
:10310000082F192FA0928C50B0928D50C0928E50E3
:10311000D0928F50E0929050F09291500093925044
:10312000109393508B819C8101968B839C838B8120
:103130009C81FCE181379F0708F48ECD89819A81BB
:10314000019689839A8389819A818930910508F44F
:1031500072CD2496CDBFDEBFDF91CF911F910F912D
:10316000FF90EF90DF90CF90BF90AF909F908F90A7
:103170007F906F905F904F903F902F900895CF93E6
:10318000DF93CDB7DEB710924840109249401092BD
:10319000655010926650109267501092685080E00F
:1031A00080932C2180932B2180932A2181E00E94FF
:1031B000E80584E00E94393780EC98E020EDFC01BE
:1031C00020838DE08093565083EF8093575087E59E
:1031D00080935850D7C080E496E020E1FC0126831C
:1031E00080E296E028E0FC012683000080EC98E075
:1031F00026E0FC012383000080EC98E0FC01828142
:103200008823D4F780EC98E0FC018381809362509E
:1032100080E296E028E0FC012583000080E296E051
:1032200028E0FC012683000080EC98E022E0FC010D
:103230002383000080EC98E0FC0182818823D4F78E
:1032400080EC98E0FC0183818093625080EC98E0F0
:1032500020914940FC012383000080EC98E0FC01B0
:1032600082818823D4F780EC98E0FC0183818093ED
:10327000625080EC98E028E430E4F9012081FC0100
:103280002383000080EC98E0FC0182818823D4F73E
:1032900080EC98E0FC0183818093625080EC98E0A0
:1032A00020915650FC012383000080EC98E0FC0143
:1032B00082818823D4F780EC98E0FC01838180939D
:1032C000625080EC98E020915750FC01238300006D
:1032D00080EC98E0FC0182818823D4F780EC98E0B0
:1032E000FC0183818093625080EC98E020915850DB
:1032F000FC012383000080EC98E0FC01828188239C
:10330000D4F780EC98E0FC0183818093625080E2E6
:1033100096E028E0FC01258380E496E020E1FC01B2
:10332000258380914840909149400396809348407E
:103330009093494090912A2180915650890F809313
:103340002A2190912B2180915750890F80932B2116
:1033500090912C2180915850890F80932C2180913D
:10336000655090916650A0916750B0916850019659
:10337000A11DB11D8093655090936650A093675036
:10338000B09368508091655090916650A0916750BD
:10339000B09168508335F5E59F07F0E0AF07F0E0A6
:1033A000BF0708F418CF0E94A63780E00E94E80506
:1033B000DF91CF910895CF93DF930F92CDB7DEB712
:1033C00089838981882F90E081709070882331F003
:1033D00080E096E020E4FC01258305C080E096E0D3
:1033E00020E4FC0126838981882F90E08270907010
:1033F000009731F080E296E022E0FC01258305C0D1
:1034000080E296E022E0FC0126838981882F90E00B
:1034100084709070009731F080E296E024E0FC0127
:10342000258305C080E296E024E0FC0126830F900E
:10343000DF91CF910895CF93DF930F920F92CDB785
:10344000DEB789839A8389819A8122E0803092074E
:1034500089F480E20E94981D282F89819A81FC01BD
:10346000248781E20E94981D282F89819A81FC017E
:10347000258710C084E20E94981D282F89819A8197
:10348000FC01248785E20E94981D282F89819A815A
:10349000FC0125870F900F90DF91CF910895CF9376
:1034A000DF93CDB7DEB72597CDBFDEBF8B839C837F
:1034B0006D838B819C8121E0FC0123838B819C8126
:1034C000FC01248135818D81882F90E0A901481B62
:1034D000590BCA0189839A8389819A812596CDBF28
:1034E000DEBFDF91CF910895CF93DF93CDB7DEB7E5
:1034F0002597CDBFDEBF8B839C836D838B819C81A1
:1035000021E0FC0123838B819C81FC012481358196
:103510008D81992787FD9095A901481B590BCA01F8
:1035200089839A8389819A812596CDBFDEBFDF91F9
:10353000CF910895CF93DF930F920F92CDB7DEB75F
:1035400089839A8389819A8121E0FC01238389817F
:103550009A81FC01848195810F900F90DF91CF912A
:103560000895CF93DF930F920F92CDB7DEB7898383
:103570009A8389819A8121E0FC01238389819A8140
:10358000FC0184810F900F90DF91CF910895CF932C
:10359000DF930F920F92CDB7DEB789839A8389812B
:1035A0009A8121E0FC01238389819A81FC01858134
:1035B0000F900F90DF91CF9108950F931F93CF93AA
:1035C000DF93CDB7DEB76B97CDBFDEBF8A8F9B8F02
:1035D0008A8D9B8DFC01848189838A8D9B8DFC0162
:1035E000148280E090E0A0E8B2E48A839B83AC83FD
:1035F000BD836A817B818C819D812BEA3AEA4AE214
:103600005FE30E943B5BDC01CB018E839F83A88735
:10361000B98711E06E817F818885998520E030E04F
:1036200040E85FE30E942A5A88230CF010E011233F
:1036300019F081E08A87A3C011E06E817F818885BF
:10364000998520E030E04FE753E40E94375B18167D
:103650000CF010E0112309F489C06A817B818C8110
:103660009D8120E030E04AE754E40E942E5ADC01BC
:10367000CB018B879C87AD87BE876B857C858D85CD
:103680009E8520E030E04AEF53E40E943B5BDC0182
:10369000CB018F87988BA98BBA8B11E06F857889C6
:1036A00089899A8920E030E040E85FE30E942A5A45
:1036B00088230CF010E0112329F081E090E08B8B3F
:1036C0009C8B46C011E06F85788989899A8920E0B2
:1036D0003FEF4FE757E40E94375B18160CF010E0FD
:1036E000112361F16B857C858D859E8520E030E01E
:1036F00040E251E40E943B5BDC01CB01BC01CD0107
:103700000E94965ADC01CB018B8B9C8B12C082E30A
:1037100090E08D8B9E8B8D899E898C01C8010197CD
:10372000F1F78C010D8B1E8B8B899C8901978B8BFC
:103730009C8B8B899C89009751F728C06F8578896D
:1037400089899A890E94965ADC01CB018B8B9C8BCC
:103750008B899C898F8B988F8F89988D8C01F8012C
:103760003197F1F78F010F8B188F10C06E817F8119
:10377000888599850E94965ADC01CB018A878A85C3
:10378000898F898D182F1A95F1F7198F8A8D9B8D46
:103790002981FC0124836B96CDBFDEBFDF91CF91E1
:1037A0001F910F9108950F931F93CF93DF93CDB780
:1037B000DEB76B97CDBFDEBF8A8F9B8F8A8D9B8DC7
:1037C000FC01848189838A8D9B8D21E0FC01248307
:1037D00080E090E0A0E0B3E48A839B83AC83BD8368
:1037E0006A817B818C819D812BEA3AEA4AE25FE320
:1037F0000E943B5BDC01CB018E839F83A887B98746
:1038000011E06E817F818885998520E030E040E875
:103810005FE30E942A5A88230CF010E0112319F06C
:1038200081E08A87A3C011E06E817F8188859985B8
:1038300020E030E04FE753E40E94375B18160CF0AD
:1038400010E0112309F489C06A817B818C819D81FC
:1038500020E030E04AE754E40E942E5ADC01CB011C
:103860008B879C87AD87BE876B857C858D859E8584
:1038700020E030E04AEF53E40E943B5BDC01CB01E7
:103880008F87988BA98BBA8B11E06F85788989898E
:103890009A8920E030E040E85FE30E942A5A8823BA
:1038A0000CF010E0112329F081E090E08B8B9C8BD1
:1038B00046C011E06F85788989899A8920E03FEFB9
:1038C0004FE757E40E94375B18160CF010E0112305
:1038D00061F16B857C858D859E8520E030E040E23E
:1038E00051E40E943B5BDC01CB01BC01CD010E9495
:1038F000965ADC01CB018B8B9C8B12C082E390E04B
:103900008D8B9E8B8D899E898C01C8010197F1F763
:103910008C010D8B1E8B8B899C8901978B8B9C8BCB
:103920008B899C89009751F728C06F857889898990
:103930009A890E94965ADC01CB018B8B9C8B8B89D8
:103940009C898F8B988F8F89988D8C01F801319786
:10395000F1F78F010F8B188F10C06E817F818885E2
:1039600099850E94965ADC01CB018A878A85898FC6
:10397000898D182F1A95F1F7198F8A8D9B8D2981C2
:10398000FC0124836B96CDBFDEBFDF91CF911F91E9
:103990000F910895CF93DF93CDB7DEB72A97CDBFB0
:1039A000DEBF8E839F83688779874A878A858823CD
:1039B000A9F119821A821B821C8224C088859985EC
:1039C000FC018081282F206888859985FC0120834F
:1039D00088859985FC018381882F90E081709070A3
:1039E0000097B1F38885998560E00E944F1A29817C
:1039F0003A81820F931F89839A838B819C810196E0
:103A00008B839C838B819C8184309105BCF289815E
:103A10009A8196958795969587951BC01D82888576
:103A20009985FC018081282F206888859985FC0173
:103A3000208388859985FC018381882F90E081709F
:103A400090700097B1F3888599850E949A1A8D83AA
:103A50008D812A96CDBFDEBFDF91CF910895CF93A0
:103A6000DF93CDB7DEB72A97CDBFDEBF8E839F83AE
:103A7000688779874A878A858823C1F119821A82E3
:103A80001B821C8224C088859985FC018081282F97
:103A9000206888859985FC01208388859985FC01AB
:103AA0008381882F90E0817090700097B1F38885B2
:103AB000998560E00E94741A29813A81820F931FD0
:103AC00089839A838B819C8101968B839C838B81D4
:103AD0009C8184309105BCF289819A8199230CF4F0
:103AE000039695958795959587951CC01D82888529
:103AF0009985FC018081282F206888859985FC01A3
:103B0000208388859985FC018381882F90E08170CE
:103B100090700097B1F38885998560E00E94741ACF
:103B20008D838D812A96CDBFDEBFDF91CF91089521
:103B30001F93CF93DF93CDB7DEB72597CDBFDEBF01
:103B40008D838AEC91E022E0FC0120838D81882F17
:103B500090E089839A8389819A81FC0114911B8367
:103B60008B818C838AEC91E0FC0110828C812596FC
:103B7000CDBFDEBFDF91CF911F910895CF93DF932B
:103B8000CDB7DEB724E180E391E2FC01322F119240
:103B90003A95E9F70E947E2B809330219093312152
:103BA0000E94762D0E94D71DDF91CF910895CF936B
:103BB000DF93CDB7DEB780E896E024E0FC012183F7
:103BC00080E896E024E0FC01268380E896E022E08D
:103BD000FC01208B80E896E024E0FC01228780E84D
:103BE00096E023E0FC01218780EA90E020EA30E0C3
:103BF000F90122812460FC0122837894DF91CF9126
:103C00000895CF93DF93CDB7DEB780E391E2DF91E4
:103C1000CF910895CF93DF93CDB7DEB72797CDBF70
:103C2000DEBF8B839C836D837E834F838B819C81DE
:103C300089839A838F81282F255F89819A81FC014E
:103C4000208389819A81019689839A838D819E81BF
:103C5000FFEF8F3F9F0711F021E601C021E489812A
:103C60009A81FC01208389819A81019689839A83B4
:103C700089819A8128E9FC01208389819A810196B2
:103C800089839A832091322189819A81FC01208342
:103C900089819A81019689839A83822F8F5F80938D
:103CA000322189819A8124E332E1FC01208331832E
:103CB00089819A81029689839A8389819A812D814B
:103CC0003E81FC012083318389819A810296898318
:103CD0009A83209130213091312189819A81FC0190
:103CE0002083318389819A81029689839A832981ED
:103CF0003A818B819C81A901481B590BCA012796E7
:103D0000CDBFDEBFDF91CF910895EF92FF920F9369
:103D10001F93CF93DF93CDB7DEB7AF97CDBFDEBF95
:103D200088A799A76AA77BA72CA73DA74EA75FA73F
:103D3000198261C18CA59DA5AEA5BFA5853691054B
:103D4000A105B10520F084E690E0A0E0B0E08C830E
:103D5000CE014E9628A539A5B9014C810E940A1EB4
:103D60001A821B828981882F90E02AA53BA5280F03
:103D7000391FCE014E96B9014C810E94982B8D833C
:103D80008D81882F90E08330910531F18430910549
:103D900024F48130910539F02EC08530910569F009
:103DA0008034910541F58091372190913821019619
:103DB00080933721909338211FC0809139219091B1
:103DC0003A2101968093392190933A218A819B81EF
:103DD00001968A839B8310C080913B2190913C2166
:103DE000019680933B2190933C218A819B8101968F
:103DF0008A839B8301C000008A819B811816190663
:103E00000CF0D5C080E090E0A0E2B1E48E839F8307
:103E1000A887B9876E817F81888599852BEA3AEAE0
:103E20004AE251E40E943B5BDC01CB018A879B871D
:103E3000AC87BD8711E06A857B858C859D8520E0F8
:103E400030E040E85FE30E942A5A88230CF010E03B
:103E5000112319F081E08E87A3C011E06A857B856C
:103E60008C859D8520E030E04FE753E40E94375B6E
:103E700018160CF010E0112309F489C06E817F81BF
:103E80008885998520E030E04AE754E40E942E5A64
:103E9000DC01CB018F87988BA98BBA8B6F857889D2
:103EA00089899A8920E030E04AEF55E40E943B5B23
:103EB000DC01CB018B8B9C8BAD8BBE8B11E06B89B6
:103EC0007C898D899E8920E030E040E85FE30E9494
:103ED0002A5A88230CF010E0112329F081E090E0A9
:103EE0008F8B988F46C011E06B897C898D899E8964
:103EF00020E03FEF4FE757E40E94375B18160CF0C5
:103F000010E0112361F16F85788989899A8920E011
:103F100030E040E251E40E943B5BDC01CB01BC019C
:103F2000CD010E94965ADC01CB018F8B988F12C075
:103F300080E293E0898F9A8F898D9A8D8C01C801D8
:103F40000197F1F78C01098F1A8F8F89988D01974E
:103F50008F8B988F8F89988D009751F728C06B8928
:103F60007C898D899E890E94965ADC01CB018F8BBA
:103F7000988F8F89988D8B8F9C8F8B8D9C8D8C01CA
:103F8000C8010197F1F78C010B8F1C8F10C06A8557
:103F90007B858C859D850E94965ADC01CB018E879E
:103FA0008E858D8F8D8D182F1A95F1F71D8F8A8133
:103FB0009B818431910511F48D8127C08D818823E7
:103FC00009F0D0CE99818C81890F89838C81882FCB
:103FD00090E0A0E0B0E02CA53DA54EA55FA579013D
:103FE0008A01E81AF90A0A0B1B0BD801C7018CA732
:103FF0009DA7AEA7BFA78CA59DA5AEA5BFA5009701
:10400000A105B10509F096CE80E0AF96CDBFDEBF29
:10401000DF91CF911F910F91FF90EF900895CF9373
:10402000DF93CDB7DEB72797CDBFDEBF8E839F83EB
:104030008E819F8105968A839B830E94DC208C83DE
:104040008C81882314F480E080C08A819B812C813C
:10405000FC0120838A819B8101968A839B8319823C
:104060000FC00E94DC20282F8A819B81FC012083C5
:104070008A819B8101968A839B8389818F5F898353
:1040800099818C81981768F38E819F8108968A8325
:104090009B838A819B81FC0180818D838E819F819E
:1040A0000B968A839B838A819B81FC0120813181CD
:1040B0008E819F81FC01238334838A819B810296B8
:1040C0008A839B838A819B81FC01208131818E813F
:1040D0009F81FC01218332838A819B8102968A839E
:1040E0009B830E940021882311F410923321809138
:1040F00006209D81981771F48E819F81FC0121819A
:10410000328180910720909108202817390711F4F7
:1041100080E01BC08D81809306208E819F81FC01F1
:104120008181928180930720909308208C81882F31
:1041300090E009979C018E819F814A815B81BA0141
:10414000A9010E94595C8C818B502796CDBFDEBFA0
:10415000DF91CF910895CF93DF93CDB7DEB7109263
:10416000C4211092C5211092C621DF91CF910895EC
:10417000CF93DF930F92CDB7DEB789838091C521AE
:10418000882F90E08C5B9E4D2981FC0120838091DB
:10419000C521882F90E0019620E830E0B9010E9407
:1041A000D15B8093C5218091C6218F5F8093C6210A
:1041B0000F90DF91CF910895CF93DF930F92CDB7FA
:1041C000DEB78091C421882F90E08C5B9E4DFC016E
:1041D000808189838091C421882F90E0019620E816
:1041E00030E0B9010E94D15B8093C4218091C62147
:1041F00081508093C62189810F90DF91CF910895DE
:10420000CF93DF93CDB7DEB78091C621DF91CF91F9
:104210000895CF93DF93CDB7DEB781E00E940D23E1
:104220008F71DF91CF910895CF93DF93CDB7DEB734
:1042300082E00E940D23829586958770DF91CF9151
:1042400008950F931F93CF93DF93CDB7DEB7E09719
:10425000CDBFDEBF84E696E024E636E0F90120819A
:104260002160FC01208384E696E024E636E0F90133
:1042700020812D7FFC01208380E090E0AEEBB3E451
:1042800089839A83AB83BC8369817A818B819C818A
:104290002BEA3AEA4AE251E40E943B5BDC01CB01A3
:1042A0008D839E83AF83B88711E06D817E818F817E
:1042B000988520E030E040E85FE30E942A5A882396
:1042C0000CF010E0112319F081E08987A3C011E000
:1042D0006D817E818F81988520E030E04FE753E447
:1042E0000E94375B18160CF010E0112309F489C006
:1042F00069817A818B819C8120E030E04AE754E437
:104300000E942E5ADC01CB018A879B87AC87BD8730
:104310006A857B858C859D8520E030E04AEF55E4F9
:104320000E943B5BDC01CB018E879F87A88BB98BFA
:1043300011E06E857F858889998920E030E040E82A
:104340005FE30E942A5A88230CF010E0112329F021
:1043500081E090E08A8B9B8B46C011E06E857F8563
:104360008889998920E03FEF4FE757E40E94375B47
:1043700018160CF010E0112361F16A857B858C859D
:104380009D8520E030E040E251E40E943B5BDC018F
:10439000CB01BC01CD010E94965ADC01CB018A8B76
:1043A0009B8B12C080E293E08C8B9D8B8C899D89C6
:1043B0008C01C8010197F1F78C010C8B1D8B8A8948
:1043C0009B8901978A8B9B8B8A899B89009751F7E0
:1043D00028C06E857F85888999890E94965ADC015C
:1043E000CB018A8B9B8B8A899B898E8B9F8B8E8935
:1043F0009F898C01F8013197F1F78F010E8B1F8B8C
:1044000010C06D817E818F8198850E94965ADC0153
:10441000CB0189878985888F888D182F1A95F1F7A8
:10442000188F84E696E024E636E0F90120812E7F9D
:10443000FC01208380E090E0A0E8BFE3898F9A8FA1
:10444000AB8FBC8F698D7A8D8B8D9C8D2BEA3AEA70
:104450004AE251E40E943B5BDC01CB018D8F9E8FD1
:10446000AF8FB8A311E06D8D7E8D8F8D98A120E068
:1044700030E040E85FE30E942A5A88230CF010E005
:10448000112319F081E089A3A3C011E06D8D7E8D09
:104490008F8D98A120E030E04FE753E40E94375B16
:1044A00018160CF010E0112309F489C0698D7A8D7B
:1044B0008B8D9C8D20E030E04AE754E40E942E5A18
:1044C000DC01CB018AA39BA3ACA3BDA36AA17BA102
:1044D0008CA19DA120E030E04AEF55E40E943B5BB7
:1044E000DC01CB018EA39FA3A8A7B9A711E06EA101
:1044F0007FA188A599A520E030E040E85FE30E9415
:104500002A5A88230CF010E0112329F081E090E072
:104510008AA79BA746C011E06EA17FA188A599A597
:1045200020E03FEF4FE757E40E94375B18160CF08E
:1045300010E0112361F16AA17BA18CA19DA120E073
:1045400030E040E251E40E943B5BDC01CB01BC0166
:10455000CD010E94965ADC01CB018AA79BA712C00D
:1045600080E293E08CA79DA78CA59DA58C01C80136
:104570000197F1F78C010CA71DA78AA59BA50197B0
:104580008AA79BA78AA59BA5009751F728C06EA173
:104590007FA188A599A50E94965ADC01CB018AA724
:1045A0009BA78AA59BA58EA79FA78EA59FA58C01DB
:1045B000F8013197F1F78F010EA71FA710C06D8D7D
:1045C0007E8D8F8D98A10E94965ADC01CB0189A324
:1045D00089A188AB88A9182F1A95F1F718AB84E642
:1045E00096E024E636E0F90120812160FC01208379
:1045F00001C000008DE10E940D238130D1F78CE1D4
:104600000E940D238730A9F70000E096CDBFDEBFE2
:10461000DF91CF911F910F910895CF93DF930F9268
:104620000F92CDB7DEB78A8319828A8180688A8328
:104630008FE390E0FC01808180934740F89481E013
:104640000E948B2E8A810E94E82F898389810E9493
:10465000E82F898380E00E948B2E8FE390E02091E9
:104660004740FC012083789489810F900F90DF915F
:10467000CF910895CF93DF9300D00F92CDB7DEB7DF
:104680008C831A821B8219821DC09C818981890FAB
:104690000E940D23882F90E02981222F30E0220FE5
:1046A000331F220F331F220F331F022E02C0880F29
:1046B000991F0A94E2F7982F8C81892B8C8389812A
:1046C0008F5F89838981823000F38A819B81249660
:1046D000CDBFDEBFDF91CF910895CF93DF930F92CF
:1046E0000F92CDB7DEB789836A838981806C898315
:1046F0008FE390E0FC01808180934740F89481E053
:104700000E948B2E89810E94E82F8A810E94E82FC7
:1047100080E00E948B2E8FE390E020914740FC01C7
:10472000208378940F900F90DF91CF910895CF93CD
:10473000DF9300D00F92CDB7DEB78A836B837C8383
:1047400019821DC09A818981492F480F8981882F3C
:1047500090E09C01220F331F220F331F220F331FC3
:104760008B819C8102C0969587952A95E2F7982FB8
:10477000842F692F0E946D2389818F5F89838981AE
:10478000823000F32496CDBFDEBFDF91CF91089534
:10479000CF93DF9300D00F92CDB7DEB78A836B83C0
:1047A0007C83198214C09A818981492F480F89819D
:1047B000882F90E02B813C81820F931FFC01908118
:1047C000842F692F0E946D2389818F5F898389815E
:1047D000883048F32496CDBFDEBFDF91CF91089596
:1047E000CF93DF9300D00F92CDB7DEB78A836B8370
:1047F0004C838A810E940D2389839B818C8189232C
:104800008B838C81982F90958981892389839981C5
:104810008B81892B89838A8169810E946D232496EB
:10482000CDBFDEBFDF91CF910895CF93DF93CDB79A
:10483000DEB72797CDBFDEBF8A839B836C834D8312
:104840005E832F838C81282F30E08F81882F90E02A
:10485000820F931F803891050CF042C08FE390E0E7
:10486000FC01808180934740F89481E00E948B2E68
:1048700080E60E94E82F19820FC08A819B81FC018B
:1048800020818A819B8101968A839B83822F0E944B
:10489000E82F89818F5F898399818C81981768F3CC
:1048A00019820FC08D819E81FC0120818D819E81A6
:1048B00001968D839E83822F0E94E82F89818F5FCE
:1048C000898399818F81981768F380E00E948B2EED
:1048D0008FE390E020914740FC012083789401C051
:1048E00000002796CDBFDEBFDF91CF9108950F93D3
:1048F0001F93CF93DF93CDB7DEB7E797CDBFDEBF72
:104900008FE390E0FC01808180934740F89481E040
:104910000E948B2E80E20E94E82F80E00E94E82F08
:104920008A838A81833008F466C08A8188230CF4E4
:1049300062C08A81082F10E00E940021882F90E039
:1049400020E830E0A901481B590BCA0108171907D4
:10495000F4F48A810E94B82019820AC080E00E9483
:10496000E82F8B838B810E94B82089818F5F898398
:1049700099818A81981790F380E896E024E0FC0101
:10498000258380E896E024E0FC01268334C00E9461
:10499000011E8C839D83198207C080E00E94E82F4E
:1049A0008B8389818F5F898399818A819817A8F386
:1049B0008C819D81FC01858596859C012F5F3F4FF1
:1049C0008C819D81FC0125873687CE01069628EED5
:1049D00031E0B9010E94525C0F920F928DB79EB7E1
:1049E00001969E012A5F3F4FFC01208331830E9484
:1049F000A55C0F900F9080E00E948B2E8FE390E0DB
:104A000020914740FC0120837894E796CDBFDEBF1C
:104A1000DF91CF911F910F910895CF93DF930F9264
:104A2000CDB7DEB789838981882F90E081309105E9
:104A3000C1F0823091051CF4009741F033C0823000
:104A40009105D1F08330910511F12CC08CE068E024
:104A50004FE30E94F02386E162E043E00E94F023EE
:104A600021C08CE06CE04FE30E94F02386E162E01D
:104A700043E00E94F02316C08CE06CE14FE30E94FB
:104A8000F02386E162E043E00E94F0230BC08CE05B
:104A900060E04FE30E94F02386E163E043E00E9480
:104AA000F02300000F90DF91CF9108950F931F9393
:104AB000CF93DF93CDB7DEB76A97CDBFDEBF8A8FC6
:104AC00088E06A8D4FE10E94F0230E9409218983CA
:104AD0008981863021F08981893009F0D5C080E054
:104AE00090E0ACEDB2E48A839B83AC83BD836A81A2
:104AF0007B818C819D812BEA3AEA4AE251E40E9453
:104B00003B5BDC01CB018E839F83A887B98711E0D3
:104B10006E817F818885998520E030E040E85FE301
:104B20000E942A5A88230CF010E0112319F081E02A
:104B30008A87A3C011E06E817F818885998520E0F6
:104B400030E04FE753E40E94375B18160CF010E09A
:104B5000112309F489C06A817B818C819D8120E0C9
:104B600030E04AE754E40E942E5ADC01CB018B87E7
:104B70009C87AD87BE876B857C858D859E8520E073
:104B800030E04AEF55E40E943B5BDC01CB018F87AC
:104B9000988BA98BBA8B11E06F85788989899A895E
:104BA00020E030E040E85FE30E942A5A88230CF0BE
:104BB00010E0112329F081E090E08B8B9C8B46C0A4
:104BC00011E06F85788989899A8920E03FEF4FE766
:104BD00057E40E94375B18160CF010E0112361F1C6
:104BE0006B857C858D859E8520E030E040E251E438
:104BF0000E943B5BDC01CB01BC01CD010E94965AB7
:104C0000DC01CB018B8B9C8B12C080E293E08D8BFF
:104C10009E8B8D899E898C01C8010197F1F78C01CB
:104C20000D8B1E8B8B899C8901978B8B9C8B8B8921
:104C30009C89009751F728C06F85788989899A895E
:104C40000E94965ADC01CB018B8B9C8B8B899C89B3
:104C50008F8B988F8F89988D8C01C8010197F1F700
:104C60008C010F8B188F10C06E817F81888599858C
:104C70000E94965ADC01CB018A878A85898F898DAB
:104C8000182F1A95F1F7198F88E00E940D23882FAD
:104C900090E09C012F7130708A8D882F90E028174A
:104CA000390711F480E401C083E46A96CDBFDEBF0A
:104CB000DF91CF911F910F910895CF93DF930F92C2
:104CC000CDB7DEB7898385E069810E946D230F909F
:104CD000DF91CF9108950F931F93CF93DF93CDB7BB
:104CE000DEB7C256D040CDBFDEBF9E012E593F4F2A
:104CF000F901808384E696E0FC018081882F90E0B2
:104D000082709070009711F084E491C40E94092190
:104D100089838981823149F08981813131F08981AA
:104D2000813019F08981823039F400000E94092114
:104D3000982F89819817D1F3CE018E599F4FFC018E
:104D40008081882F90E08631910509F4CDC18931A9
:104D5000910509F4E9C08830910509F0F7C284E6AD
:104D600096E024E636E0F90120812D7FFC012083C6
:104D700082E063E04FE10E94F02380E090E0A0E851
:104D8000BFE38A839B83AC83BD836A817B818C81F3
:104D90009D812BEA3AEA4AE251E40E943B5BDC0146
:104DA000CB018E839F83A887B98711E06E817F81B5
:104DB0008885998520E030E040E85FE30E942A5A28
:104DC00088230CF010E0112319F081E08A87A3C03A
:104DD00011E06E817F818885998520E030E04FE782
:104DE00053E40E94375B18160CF010E0112309F40D
:104DF00089C06A817B818C819D8120E030E04AE717
:104E000054E40E942E5ADC01CB018B879C87AD872E
:104E1000BE876B857C858D859E8520E030E04AEFDE
:104E200055E40E943B5BDC01CB018F87988BA98BFB
:104E3000BA8B11E06F85788989899A8920E030E002
:104E400040E85FE30E942A5A88230CF010E0112307
:104E500029F081E090E08B8B9C8B46C011E06F8540
:104E6000788989899A8920E03FEF4FE757E40E94CB
:104E7000375B18160CF010E0112361F16B857C850F
:104E80008D859E8520E030E040E251E40E943B5B4E
:104E9000DC01CB01BC01CD010E94965ADC01CB01A3
:104EA0008B8B9C8B12C080E293E08D8B9E8B8D89C7
:104EB0009E898C01C8010197F1F78C010D8B1E8B27
:104EC0008B899C8901978B8B9C8B8B899C89009704
:104ED00051F729C06F85788989899A890E94965AE5
:104EE000DC01CB018B8B9C8B8B899C898F8B988F62
:104EF0008F89988D8C01F8013197F1F78F010F8B15
:104F0000188F24C26E817F81888599850E94965A68
:104F1000DC01CB018A878A85898F898D182F1A95A4
:104F2000F1F7198F13C212C28981863109F00BC2C1
:104F300082E069E04FE10E94F02380E090E0A0E889
:104F4000BFE38A8F9B8FAC8FBD8F6A8D7B8D8C8DDD
:104F50009D8D2BEA3AEA4AE251E40E943B5BDC0178
:104F6000CB018E8F9F8FA8A3B9A311E06E8D7F8D8B
:104F700088A199A120E030E040E85FE30E942A5A2E
:104F800088230CF010E0112319F081E08AA3A3C05C
:104F900011E06E8D7F8D88A199A120E030E04FE770
:104FA00053E40E94375B18160CF010E0112309F44B
:104FB00089C06A8D7B8D8C8D9D8D20E030E04AE725
:104FC00054E40E942E5ADC01CB018BA39CA3ADA319
:104FD000BEA36BA17CA18DA19EA120E030E04AEF91
:104FE00055E40E943B5BDC01CB018FA398A7A9A7E6
:104FF000BAA711E06FA178A589A59AA520E030E0B5
:1050000040E85FE30E942A5A88230CF010E0112345
:1050100029F081E090E08BA79CA746C011E06FA12A
:1050200078A589A59AA520E03FEF4FE757E40E94B5
:10503000375B18160CF010E0112361F16BA17CA115
:105040008DA19EA120E030E040E251E40E943B5B54
:10505000DC01CB01BC01CD010E94965ADC01CB01E1
:105060008BA79CA712C080E293E08DA79EA78DA579
:105070009EA58C01C8010197F1F78C010DA71EA711
:105080008BA59CA501978BA79CA78BA59CA500979A
:1050900051F729C06FA178A589A59AA50E94965AB3
:1050A000DC01CB018BA79CA78BA59CA58FA798ABF8
:1050B0008FA598A98C01F8013197F1F78F010FA7FF
:1050C00018AB41C16E8D7F8D88A199A10E94965A1F
:1050D000DC01CB018AA38AA189AB89A9182F1A9573
:1050E000F1F719AB30C12FC18981893109F02DC188
:1050F00082E069E04FE10E94F02380E090E0A0E8C8
:10510000BFE38AAB9BABACABBDAB6AA97BA98CA957
:105110009DA92BEA3AEA4AE251E40E943B5BDC019A
:10512000CB018EAB9FABA8AFB9AF11E06EA97FA941
:1051300088AD99AD20E030E040E85FE30E942A5A54
:1051400088230CF010E0112319F081E08AAFE6C04B
:1051500011E06EA97FA988AD99AD20E030E04FE75E
:1051600053E40E94375B18160CF010E0112309F489
:10517000CCC06AA97BA98CA99DA920E030E04AE7B0
:1051800054E40E942E5ADC01CB018BAF9CAFADAF33
:10519000BEAF8E01015C1F4F6BAD7CAD8DAD9EAD82
:1051A00020E030E04AEF55E40E943B5BDC01CB019C
:1051B000F80180839183A283B383CE01CF9611E05F
:1051C000FC01608171818281938120E030E040E8C0
:1051D0005FE30E942A5A88230CF010E0112349F063
:1051E000CE018D5B9F4F21E030E0FC0120833183B5
:1051F0006EC0CE01CF9611E0FC0160817181828189
:10520000938120E03FEF4FE757E40E94375B181689
:105210000CF010E0112309F449C06BAD7CAD8DADED
:105220009EAD20E030E040E251E40E943B5BDC01B7
:10523000CB018E010D5B1F4FBC01CD010E94965A20
:10524000DC01CB01F8018083918327C0CE018B5B09
:105250009F4F20E233E0FC0120833183CE018B5B42
:105260009F4FFC01808191818C01C8010197F1F76A
:105270008C01CE018B5B9F4FFC0100831183CE011B
:105280008D5B9F4F9E012D5B3F4FF9012081318146
:1052900021503040FC0120833183CE018D5B9F4F34
:1052A000FC0180819181009789F64CC08E010D5BD5
:1052B0001F4FCE01CF96FC01608171818281938165
:1052C0000E94965ADC01CB01F80180839183CE01C4
:1052D000895B9F4F9E012D5B3F4FF90120813181FA
:1052E000FC0120833183CE01895B9F4FFC018081CB
:1052F00091818C01C8010197F1F78C01CE01895B86
:105300009F4FFC010083118320C06EA97FA988AD47
:1053100099AD0E94965ADC01CB018AAFCE01875B22
:105320009F4F2AADFC012083CE01875B9F4FFC017C
:105330008081182F1A95F1F7CE01875B9F4FFC01F2
:10534000108303C002C0000001C000009E012E595E
:105350003F4F82E0F90160814FE10E94F0239E01FE
:10536000265B3F4F80E090E0ACEDB2E4F901808332
:105370009183A283B3838E01025B1F4FCE01865BB4
:105380009F4FFC0160817181828193812BEA3AEA0F
:105390004AE251E40E943B5BDC01CB01F8018083CF
:1053A0009183A283B383CE01825B9F4F11E0FC0106
:1053B000608171818281938120E030E040E85FE389
:1053C0000E942A5A88230CF010E0112339F0CE01F4
:1053D0008E5A9F4F21E0FC01208305C1CE01825BE4
:1053E0009F4F11E0FC01608171818281938120E0F7
:1053F00030E04FE753E40E94375B18160CF010E0E2
:10540000112309F4DFC0CE01865B9F4FFC01608150
:1054100071818281938120E030E04AE754E40E9468
:105420002E5ADC01CB019E012D5A3F4FF90180839A
:105430009183A283B3838E01095A1F4FCE018D5AE7
:105440009F4FFC01608171818281938120E030E077
:105450004AEF55E40E943B5BDC01CB01F8018083FD
:105460009183A283B383CE01895A9F4F11E0FC013F
:10547000608171818281938120E030E040E85FE3C8
:105480000E942A5A88230CF010E0112349F0CE0123
:10549000855A9F4F21E030E0FC012083318374C0A6
:1054A000CE01895A9F4F11E0FC0160817181828198
:1054B000938120E03FEF4FE757E40E94375B1816D7
:1054C0000CF010E0112309F44DC0CE018D5A9F4F0E
:1054D000FC01608171818281938120E030E040E2B3
:1054E00051E40E943B5BDC01CB018E01055A1F4F4A
:1054F000BC01CD010E94965ADC01CB01F8018083EA
:10550000918327C0CE01835A9F4F20E233E0FC01F4
:1055100020833183CE01835A9F4FFC01808191818A
:105520008C01C8010197F1F78C01CE01835A9F4F7E
:10553000FC0100831183CE01855A9F4F9E01255A9D
:105540003F4FF9012081318121503040FC012083FF
:105550003183CE01855A9F4FFC0180819181009754
:1055600089F658C08E01055A1F4FCE01895A9F4FA8
:10557000FC0160817181828193810E94965ADC01D5
:10558000CB01F80180839183CE01815A9F4F9E0108
:10559000255A3F4FF90120813181FC01208331835D
:1055A000CE01815A9F4FFC01808191818C01C801FD
:1055B0000197F1F78C01CE01815A9F4FFC010083C6
:1055C000118328C08E010E5A1F4FCE01825B9F4F60
:1055D000FC0160817181828193810E94965ADC0175
:1055E000CB01F8018083CE018F599F4F9E012E5A27
:1055F0003F4FF9012081FC012083CE018F599F4F3D
:10560000FC018081182F1A95F1F7CE018F599F4F19
:10561000FC0110830E940921282FCE018E599F4F33
:10562000FC018081281711F480E401C083E4CE5985
:10563000DF4FCDBFDEBFDF91CF911F910F91089556
:10564000CF93DF930F920F92CDB7DEB789839A8302
:1056500029813A8180E090E0B90148E050E00E9461
:10566000412F29813A8184E2B9010E94C8230F9019
:105670000F90DF91CF910895CF93DF930F920F9208
:10568000CDB7DEB789839A8329813A8180E090E0A3
:10569000B90148E050E00E947D2F0F900F90DF91FC
:1056A000CF910895CF93DF9300D000D0CDB7DEB770
:1056B0008D839E83CE01059689839A830E94011E65
:1056C0008B839C8329813A8189E090E0B90142E093
:1056D00050E00E94412F2D813E8180E2B9010E945D
:1056E00097232D813E818B819C81FC012083318316
:1056F0002696CDBFDEBFDF91CF910895CF93DF9384
:105700000F920F92CDB7DEB789E090E09E012F5F38
:105710003F4FB90142E050E00E947D2FCE0101963B
:10572000FC01808191810F900F90DF91CF910895BE
:10573000CF93DF93CDB7DEB72897CDBFDEBF8C8385
:105740009D836E837F8348870E94092189830E94FD
:10575000011E8A839B838981823019F0898182317D
:1057600011F484E423C088E00E946B2689E10E9442
:105770006B268C819D812E813F816AE0A90128855D
:105780000E94152482E062E04FE10E94F0230000B5
:105790008A819B81FC01948181E089278823C1F75C
:1057A0008A819B81FC0114820E9414212896CDBF1E
:1057B000DEBFDF91CF9108950F931F93CF93DF93B7
:1057C000CDB7DEB76997CDBFDEBF898F898D8823BE
:1057D00069F088E00E946B2684E696E024E636E0D5
:1057E000F90120812260FC012083E1C084E696E07B
:1057F00024E636E0F90120812D7FFC01208380E042
:1058000090E0A0E7B3E489839A83AB83BC8369818A
:105810007A818B819C812BEA3AEA4AE251E40E9428
:105820003B5BDC01CB018D839E83AF83B88711E0A6
:105830006D817E818F81988520E030E040E85FE3D4
:105840000E942A5A88230CF010E0112319F081E0FD
:105850008987A3C011E06D817E818F81988520E0CA
:1058600030E04FE753E40E94375B18160CF010E06D
:10587000112309F489C069817A818B819C8120E0A0
:1058800030E04AE754E40E942E5ADC01CB018A87BB
:105890009B87AC87BD876A857B858C859D8520E04D
:1058A00030E04AEF55E40E943B5BDC01CB018E8780
:1058B0009F87A88BB98B11E06E857F858889998930
:1058C00020E030E040E85FE30E942A5A88230CF091
:1058D00010E0112329F081E090E08A8B9B8B46C079
:1058E00011E06E857F858889998920E03FEF4FE739
:1058F00057E40E94375B18160CF010E0112361F199
:105900006A857B858C859D8520E030E040E251E40E
:105910000E943B5BDC01CB01BC01CD010E94965A89
:10592000DC01CB018A8B9B8B12C080E293E08C8BD5
:105930009D8B8C899D898C01C8010197F1F78C01A1
:105940000C8B1D8B8A899B8901978A8B9B8B8A89FB
:105950009B89009751F728C06E857F858889998932
:105960000E94965ADC01CB018A8B9B8B8A899B898A
:105970008E8B9F8B8E899F898C01F8013197F1F76F
:105980008F010E8B1F8B10C06D817E818F8198855A
:105990000E94965ADC01CB0189878985888F888D82
:1059A000182F1A95F1F7188F86E10E946B266996D9
:1059B000CDBFDEBFDF91CF911F910F910895CF939F
:1059C000DF93CDB7DEB7EA97CDBFDEBF0E942121BE
:1059D0008EE060E00E946D2382E063E04FE10E9470
:1059E000F023000081E00E940D23882F90E08F714A
:1059F000907088309105B1F78EE260E440EC0E942F
:105A0000F0238EE06CE00E946D2384E060E240E2CF
:105A10000E94F02381E00E940D2581E00E9456251E
:105A200086E10E946B2682E264E372E10E94972382
:105A30000E947E2B9C0180E2B9010E949723CE0137
:105A400001960E943C2B84E29E012F5F3F4FB901DB
:105A50000E94C82382E796E022E736E0F901208120
:105A60002160FC01208389E696E029E636E0F90111
:105A700020812360FC0120838AE696E02AE636E056
:105A8000F90120812460FC01208380EA90E020EA73
:105A900030E0F90122812760FC0122830E94092164
:105AA0008631B1F0CE0109962CE032E0B9010E94B6
:105AB000525C0F920F928DB79EB701969E01275FA1
:105AC0003F4FFC01208331830E94A55C0F900F9013
:105AD0001092BB501092BC501092BD501092BE500C
