:100000000C9416010C9437010C9437010C943701B1
:100010000C9437010C9437010C9437010C94370180
:100020000C9437010C9437010C9437010C94370170
:100030000C9437010C9437010C94490E0C94370141
:100040000C947C130C9454130C942C130C94E61203
:100050000C94660C0C9437010C9437010C94370106
:100060000C9437010C9437010C9437010C94370130
:100070000C9437010C9437010C9437010C94370120
:100080000C9437010C9437010C9437010C94370110
:100090000C9437010C9437010C9437010C94370100
:1000A0000C9437010C9437010C9437010C943701F0
:1000B0000C9437010C9437010C9437010C943701E0
:1000C0000C9437010C9437010C9437010C943701D0
:1000D0000C9437010C9437010C9437010C943701C0
:1000E0000C9437010C9437010C9437010C943701B0
:1000F0000C9437010C9437010C9437010C943701A0
:100100000C94321E0C9437010C9437010C94370177
:100110000C9437010C9437010C9437010C9437017F
:100120000C9437010C9437010C9437010C9437016F
:100130000C9437010C9428100C9437010C94BE12C7
:100140000C9496120C946E120C9444120C946B093D
:100150000C9437010C9437010C9437010C9437013F
:100160000C9437010C9437010C9437010C9437012F
:100170000C9437010C9437010C9437010C9437011F
:100180000C9437010C9437010C9437010C9437010F
:100190000C9437010C9437010C9437010C943701FF
:1001A0000C94F80C0C9437010C9437010C94370123
:1001B0000C9437010C9437010C9437010C943701DF
:1001C0000C9437010C9437010C9437010C943701CF
:1001D0000C9437010C9437010C9437010C943701BF
:1001E0000C9437010C943701524144494F204E4F33
:1001F0005420494E495449414C495A454420505293
:100200004F5045524C590A004255464645522046E9
:10021000554C4C2E20544F5353494E4720494E4382
:100220004F4D494E4720444154410A0011241FBEFE
:10023000CFEFDFE5DEBFCDBF00E00CBF11E2A0E0F5
:10024000B0E2EAE2FAE700E00BBF02C007900D92CD
:10025000AE30B107D9F710E5AEE0B1E201C01D92B2
:10026000A73BB107E1F70E94DB060C94133D0C9409
:100270000000AF92BF92DF92EF92FF920F931F9315
:10028000CF93DF93E82ED92E8B0181E00E94BA052F
:10029000C0ECD8E0F88080E00E94C40380ED888341
:1002A00081E00E94E70388E0E0E2F6E08683000058
:1002B00086E08B83E0ECF8E082818823ECF7E0ECC9
:1002C000F8E0838180932C3EA0E2B6E088E01596AA
:1002D0008C931597000016968C931697000082E079
:1002E000838382818823ECF7E0ECF8E083818093BC
:1002F0002C3E80911E3E838382818823ECF7E0ECC4
:10030000F8E0838180932C3E80911D3E838382811F
:100310008823ECF7E0ECF8E0838180932C3EA80181
:1003200060E070E04115510561057105C9F0AE2C22
:10033000BD2C80E090E0DC012CE23EE3E501E99099
:100340005E01E382E280EE20ECF7E380E901E882DF
:100350000196A11DB11D84179507A607B70770F375
:1003600088E0E0E2F6E0858380E00E94E703F09217
:10037000C00880911D3E90911E3E080F191F0093EA
:100380001D3E10931E3EDF91CF911F910F91FF9064
:10039000EF90DF90BF90AF900895DF92EF92FF92C1
:1003A0000F931F93CF93DF930F920F92CDB7DEB7CA
:1003B0007C0169837A8381E00E94BA0500EC18E031
:1003C000F801D08080E00E94C40380EDF8018083B2
:1003D00081E00E94E70388E0E0E2F6E08683000027
:1003E00083E0F801838382818823ECF7E0ECF8E076
:1003F000838180932C3E8A81838382818823ECF7DA
:10040000E0ECF8E0838180932C3E898183838281B4
:100410008823ECF7E0ECF8E0838180932C3EE11434
:10042000F104B9F0ECEAF1E2C7018E0F9F1FA0ECD6
:10043000B8E03AEA13963C93139712962C911297D0
:100440002223DCF713962C9113972193E817F907D1
:1004500089F788E0E0E2F6E0858380E00E94E70328
:10046000D092C0080F900F90DF91CF911F910F9104
:10047000FF90EF90DF900895CF92DF92EF92FF927E
:100480000F931F93CF93DF936B017C01DC01CB01B2
:1004900088559240A040B040893E2FE392072FE05C
:1004A000A20720E0B20708F05CC00E943C03E0E431
:1004B000F6E088E08183858384E08283CC0CDD1CB8
:1004C000EE1CFF1CCC0CDD1CEE1CFF1CC701B60192
:1004D000660F771F881F991F660F771F881F991F48
:1004E0000E946F389B01AC0160E074E284EF9BE4F2
:1004F0000E94DB3720E030E040E85FE30E9476377F
:10050000C62FD72F182F092F862F9D2FA12FB02F41
:10051000BC01CD010E9443386B017C0180E090E07A
:100520000E946F389B01AC018C2F9D2FA12FB02F03
:10053000BC01CD010E94763720E030E040E05FE36F
:100540000E94FD3888231CF00894C11CD11CE0EAED
:10055000F8E0C682D78283E0858388E1848381E0E6
:1005600001C080E0DF91CF911F910F91FF90EF903C
:10057000DF90CF900895E0EAF8E0918195FFFDCFFC
:100580008093A0080895E0EAF8E081818823ECF7E1
:100590008091A00808958F929F92AF92BF92CF92C0
:1005A000DF92EF92FF92CF93DF936A017B014115B7
:1005B00051056105710591F0C82FD92F8824992420
:1005C000540189910E94BB020894811C911CA11CBA
:1005D000B11C8C149D04AE04BF0499F7DF91CF9138
:1005E000FF90EF90DF90CF90BF90AF909F908F9053
:1005F0000895E0EAF8E08481877E8483E0E4F6E011
:1006000088E08683828308951092323E089580ECBC
:1006100060E04BE00E941320E0E5F0E0808188601C
:100620008083818183FFFDCF80EC62E00E941E20E9
:10063000E0E5F0E0808180618083818184FFFDCFEF
:1006400084E00E94342081E00E9424200895E0E5A7
:10065000F0E080818260808380E061E00E942E2053
:10066000E0E5F0E0818181FFFDCF81E00E94342050
:1006700081E00E9424200895E0E5F0E0808182601E
:10068000808380E060E00E942E20E0E5F0E0818140
:1006900081FFFDCF81E00E94342081E00E94242070
:1006A0000895882329F088E0E0E0F6E0868304C01E
:1006B00088E0E0E0F6E085838AE68A95F1F700C0FD
:1006C0000895882379F0E0EAF6E080E2818385836B
:1006D0008FEF93ECA9E081509040A040E1F700C07B
:1006E00000000895E0EAF6E080E2868382830895C0
:1006F000882379F0E0EAF6E080E4818385838FEF58
:1007000093ECA9E081509040A040E1F700C00000C8
:100710000895E0EAF6E080E48683828308958823E2
:1007200079F0E0EAF6E080E8818385838FEF93EC4F
:10073000A9E081509040A040E1F700C0000005C052
:10074000E0EAF6E080E886838283AFE3BFE11197B9
:10075000F1F700C000000895882329F080E1E0E867
:10076000F6E08683089580E1E0E8F6E08583089569
:10077000882329F082E0E0E4F6E08683089582E0B1
:10078000E0E4F6E085830895E0E4F6E090E191830B
:1007900028E3248B95838165A0ECB8E08C931196B7
:1007A0001C92119780EA81830895E0E4F6E090E1DD
:1007B000918328E3248B95838065682BA0ECB8E0B7
:1007C0006C9311961C92119780EA81830895882377
:1007D00029F080E1E0E4F6E08683089580E1E0E43A
:1007E000F6E085830895E0E4F6E080E185831092E9
:1007F000C008868380EB82830895CF93DF93C82F50
:10080000C370D82FDC70282F30E0A90145705070DC
:100810004115510549F09091303E482F42954F7057
:10082000907F942B9093303E2A70307021153105C3
:1008300039F09091303E807F9F70892B8093303EBD
:1008400084E00E94C4038091303E8093203ECC23FC
:1008500019F081E00E94AC03DD2319F081E00E94D1
:10086000B80381E00E94E7038FEFE0ECF8E08383B8
:1008700082818823ECF7E0ECF8E0838180932C3EC2
:100880000000ACE2BEE31C978C91838382818823B5
:10089000ECF7E0ECF8E0838180932C3E80E00E944E
:1008A000E703CC2319F080E00E94AC03DD2319F0AC
:1008B00080E00E94B8030E94F303DF91CF91089576
:1008C000CF93DF93C82FD62F80E00E94C40381E02E
:1008D0000E94E70381E00E945103DD2389F08091AB
:1008E000AB21C095C823C093AB2180E48093203E08
:1008F00084E18093213E8091AB218093223E10C001
:100900008091313EC095C823C093313E80E48093EE
:10091000203E85E18093213E8091313E8093223EAE
:1009200080E090E020E23EE3A0ECB8E0CCE2DEE341
:10093000F901E80FF91F408113964C931397129613
:100940004C9112974423DCF713964C9113974883EC
:1009500001968330910561F780E00E94E70380E013
:100960000E9451030E94F303DF91CF910895CF932A
:10097000DF93C82FD62F80E00E94C40381E00E943D
:10098000E70381E00E945103DD2381F08091AB21D8
:10099000C82BC093AB2180E48093203E84E18093F8
:1009A000213E8091AB218093223E0FC08091313E49
:1009B000C82BC093313E80E48093203E85E1809334
:1009C000213E8091313E8093223E80E090E020E203
:1009D0003EE3A0ECB8E0CCE2DEE3F901E80FF91F5A
:1009E000408113964C93139712964C91129744237F
:1009F000DCF713964C911397488301968330910549
:100A000061F780E00E94E70380E00E9451030E94AA
:100A1000F303DF91CF910895CF93DF93C82FD62FA3
:100A200080E00E94C40381E00E94E70381E00E940D
:100A30005103DD2389F080912F3E8095C823C09318
:100A40002F3E80E48093203E1092213E80912F3EE5
:100A500080958093223E11C08091463E8095C823A8
:100A6000C093463E80E48093203E81E08093213E07
:100A70008091463E80958093223E80E090E020E287
:100A80003EE3A0ECB8E0CCE2DEE3F901E80FF91FA9
:100A9000408113964C93139712964C9112974423CE
:100AA000DCF713964C911397488301968330910598
:100AB00061F780E00E94E70380E00E9451030E94FA
:100AC000F303DF91CF910895CF93DF93C82FD62FF3
:100AD00080E00E94C40381E00E94E70381E00E945D
:100AE0005103DD2381F080912F3EC82BC0932F3E10
:100AF00080E48093203E1092213E80912F3E80958D
:100B00008093223E10C08091463EC82BC093463E43
:100B100080E48093203E81E08093213E8091463E98
:100B200080958093223E80E090E020E23EE3A0ECBE
:100B3000B8E0CCE2DEE3F901E80FF91F408113963B
:100B40004C93139712964C9112974423DCF713960B
:100B50004C911397488301968330910561F780E0AB
:100B60000E94510380E00E94E7030E94F303DF919B
:100B7000CF9108950F931F93CF93DF93882309F4A8
:100B80004EC08091323E882309F081C000E016E01B
:100B90008EEDD80111968C93C0E2D6E04EE04983E9
:100BA000E0E4F6E063E0618380E896E050E1DC0198
:100BB00011965C9320EA36E0D90111964C937EE9B8
:100BC000D80115967C9378E07D836583EC015D8385
:100BD000D90115964C931092303E8FEF93ECA9E01B
:100BE00081509040A040E1F700C0000080E4828383
:100BF0001092313E1092463E1092AB2110922F3E41
:100C00008FEF61E00E9464058FEF61E00E94B704FE
:100C10008FEF0E94FD0381E08093323E38C08091C7
:100C2000323E8823A1F100E016E07EEDD801169651
:100C30007C93A0E2B6E04EE016964C93169720E423
:100C400036E063E0E9016E83C0E8D6E050E15E8300
:100C500080EA96E0FC014683F801728312964C9379
:100C6000D90112966C9312975A83EC014A8380E45F
:100C700012968C9312971092313E1092463E10922B
:100C8000AB2110922F3E1092303E1092323EDF91F7
:100C9000CF911F910F9108952F923F924F925F92A3
:100CA0006F927F928F929F92AF92BF92CF92DF927C
:100CB000EF92FF920F931F93CF93DF93CDB7DEB7E1
:100CC0006497CDBFDEBF2A013B018901F901108283
:100CD000411551056105710509F44DC0882E992E05
:100CE000CC24DD2476015E010894A11CB11C0F2EDA
:100CF000F0E02F2EF0E23F2EF02DF4018191919142
:100D0000A191B1914F012DB73EB7285030402DBF72
:100D10003EBF2F5F3F4FEDB7FEB7A182B282F90110
:100D20002282338284839583A683B7830E94303ADC
:100D30002DB73EB7285F3F4F2DBF3EBFC801B5015D
:100D40000E94F239A02FB12FFD0101900020E9F798
:100D50003197EA1BFB0BE00FF11F8AE090E08083E4
:100D600091830894C11CD11CE11CF11CC414D5044E
:100D7000E604F70411F66496CDBFDEBFDF91CF9194
:100D80001F910F91FF90EF90DF90CF90BF90AF90A9
:100D90009F908F907F906F905F904F903F902F909B
:100DA0000895E0ECF8E0838382818823ECF7E0EC9F
:100DB000F8E083810895CF93DF93CDB7DEB7A09796
:100DC000CDBFDEBF19821A821C821D821E821F8245
:100DD0001092473E81E08093A6500E943C030E94FF
:100DE000FD1981E00E945E1D81E090E00E94201CC0
:100DF0000E941E1A1C0180ED97E08E8F9F8F18A213
:100E00000F2EF4E64F2EF0E05F2EF0E06F2EF0E0B4
:100E10007F2EF02DD10113968C9113978823D1F357
:100E2000CE0108960E94C11A8885823571F08335FB
:100E300030F4863409F48AC0873461F74BC08335B7
:100E400009F494C0843531F7A3C08091A65088235B
:100E5000A9F1EDB7FEB73797EDBFFEBF319680E140
:100E600097E2ADB7BEB711968D939C931297ACEAFB
:100E7000B1E2A283B3838CE197E08483958391E010
:100E8000968387E068A14E8D5F8D26E000E0EE241A
:100E9000FF24E394CC24DD246894C1F80F2EF3E002
:100EA000AF2EBB24F02D88249924689482F80E94E8
:100EB000D016ADB7BEB71796ADBFBEBF80E090E00D
:100EC000BE016F5F7F4F22E030E040E050E00E94C3
:100ED000211AA0CF89858B838B818830D9F0893006
:100EE00038F4823089F0843091F0813019F521C0D6
:100EF0008032B1F0813218F48031E1F40EC08034D8
:100F000091F08038B9F412C0B1E0B8A313C0E2E0A8
:100F1000E8A310C0F3E0F8A30DC024E028A30AC0A2
:100F200085E088A307C096E098A304C0A7E0A8A323
:100F300001C018A280E090E0BE016F5F7F4F22E009
:100F400030E040E050E00E94211A64CFE985FA8544
:100F5000EE8FFF8F80E090E0BE016F5F7F4F22E059
:100F600030E040E050E00E94211A54CF8091A6501A
:100F7000882311F40E94AC0C80E090E0BE016F5F0A
:100F80007F4F22E030E040E050E00E94211A42CF43
:100F90008091A650882309F43DCF8091473E882355
:100FA00009F438CF0E94CD0CA0E0B0E08C839D8383
:100FB000AE83BF838C819D81AE81BF810097A105E7
:100FC000B10509F44DC18C819D81AE81BF81BC0109
:100FD000CD01660F771F881F991F660F771F881F27
:100FE000991FA30192010E94573989019A01680152
:100FF0000C8F1D8F8C819D81AE81BF81BC01CD0185
:10100000660F771F881F991F660F771F881F991F0C
:10101000A30192010E945739DC01CB010097A10581
:10102000B10521F0C60101968C8F9D8F80E090E084
:10103000BE01645E7F4F22E030E040E050E00E945D
:10104000211ACC24DD24F7C08C819D81AE81BF8123
:10105000880F991FAA1FBB1F880F991FAA1FBB1FAC
:1010600088199909AA09BB098132FCE19F07F0E0C0
:10107000AF07F0E0BF0798F160911D3E70911E3EF2
:101080008C819D81AE81BF81880F991F880F991F28
:10109000681B790B6C0D7D1D80E29CE10E94CD01E7
:1010A00000E010E0B80164557E4D80E090E0A301BF
:1010B00092010E94211A8FEF93ECA9E08150904099
:1010C000A040E1F700C000000C591F4F9CE1003226
:1010D000190741F7A0E2BCE1CA0EDB1EACC08C814F
:1010E0009D81AE81BF81E0911D3EF0911E3E4C81FD
:1010F0005D816E817F819C01220F331F220F331F80
:10110000CA01880F991F880F991FBF01681B790BAF
:101110006C0D7D1DC9018C199D090E94CD01CC2447
:10112000DD2476016AC08C819D81AE81BF81880FEC
:10113000991FAA1FBB1F880F991FAA1FBB1F8819C1
:101140009909AA09BB098C199D09AE09BF09843602
:101150009105A105B105D8F0B60164557E4D80E03A
:1011600090E0A30192010E94211A8FEF93ECA9E075
:1011700081509040A040E1F700C0000084E690E07C
:10118000A0E0B0E0C80ED91EEA1EFB1E36C08C815E
:101190009D81AE81BF81B60164557E4D880F991F38
:1011A000AA1FBB1F880F991FAA1FBB1F8819990967
:1011B000AA09BB099C01AD012C193D094E095F0923
:1011C00080E090E00E94211A8FEF93ECA9E081501B
:1011D0009040A040E1F700C00000CC80DD80EE80B0
:1011E000FF80CC0CDD1CEE1CFF1CCC0CDD1CEE1CAF
:1011F000FF1CC818D908EA08FB088C819D81AE81C4
:10120000BF81880F991FAA1FBB1F880F991FAA1F94
:10121000BB1F88199909AA09BB09C816D906EA068D
:10122000FB0608F480CFCC80DD80EE80FF80CC0C04
:10123000DD1CCC0CDD1C4601AA24BB248C819D81C5
:10124000AE81BF81880F991FAA1FBB1F880F991FEE
:10125000AA1FBB1F88169906AA06BB0608F4F4CE7F
:101260001092473ED7CD0F931F93CF938C01C1E0CF
:10127000C093453E83E080931F3E0E94FD198091FC
:10128000453E90E00E94201C88ECE0E8F1E081837C
:10129000E0E4F9E089E0808382E0868324EF31E0B6
:1012A000029FC001039F900D129F900D112486A3F1
:1012B00097A3E0E4F8E080E09AEF86A397A3C683C3
:1012C000C083E0EAF0E08281876082837894CF91E6
:1012D0001F910F91089578941F920F920FB60F925D
:1012E0000BB60F921124EF92FF920F931F932F933F
:1012F0003F934F935F936F937F938F939F93AF939E
:10130000BF93EF93FF93CF93DF93CDB7DEB72897CB
:10131000CDBFDEBF109240081092400982E080935A
:101320001F3EDE011196E4E0F0E286E001900D92AE
:101330008150E1F709EA10E58091453E90E0B8015F
:101340004AE050E00E94FD397E010894E11CF11C46
:10135000C701B8010E94F2390E94EF0CF701019019
:101360000020E9F73197EE19FF099F0140E050E0B6
:1013700080E090E0B7010E94211A2896CDBFDEBF21
:10138000DF91CF91FF91EF91BF91AF919F918F919D
:101390007F916F915F914F913F912F911F910F918D
:1013A000FF90EF900F900BBE0F900FBE0F901F900D
:1013B00018954F925F926F927F928F929F92AF9209
:1013C000BF92EF92FF920F931F93CF93DF93CDB70E
:1013D000DEB72B97CDBFDEBF8E839F83688779876B
:1013E0004A875B8781E00E94BA0580E092E00E9414
:1013F000E01900E012E0D80111968C911197897ED6
:1014000011968C93119714968C911497887F836012
:1014100014968C93149712968C9112978F7C129637
:101420008C9312970F2EF0E2EF2EF2E0FF2EF02DAC
:10143000F7018081807E8160808389E081838C9147
:1014400081608C9380E092E00E94651980E092E0D8
:1014500060E272E040E00E946F198983D8018C91AC
:101460008E7F8C93F701118213968C9113978F7353
:1014700013968C9313978C9181608C9380E092E00B
:101480000E946519D80111968C9111978860119668
:101490008C93EE24FF246894F2F8442455243201FE
:1014A00020E030E140E050E02A833B834C835D83C1
:1014B00088249924540100E212E0D80113968C91FB
:1014C000139780FFFACF6981C8010E944119A0E0FB
:1014D000B0E0880E991EAA1EBB1E481659066A0661
:1014E0007B0610F42C013D012A813B814C815D81FA
:1014F00082179307A407B50720F48A839B83AC83E4
:10150000BD830894E108F108E114F104B1F6E0E0CC
:10151000F2E08181877F8183808182608083808106
:101520008E7F808380E00E94BA05C501B401052E3C
:101530005AE096958795779567955A95D1F7502DEE
:1015400028EE33E040E050E00E9425390F2EFFEFF7
:101550008F2EFFE09F2EF0E0AF2EF0E0BF2EF02D9B
:10156000A50194010E945739C901C297AE81BF817C
:101570008D939C93C301B20128EE33E040E050E02C
:101580000E942539A50194010E945739C901C297CB
:10159000EA85FB85808391836A817B818C819D8133
:1015A00028EE33E040E050E00E942539A501940187
:1015B0000E94573922533040A885B9852D933C931A
:1015C00011972B96CDBFDEBFDF91CF911F910F9169
:1015D000FF90EF90BF90AF909F908F907F906F9013
:1015E0005F904F9008954F925F926F927F928F928B
:1015F0009F92AF92BF92EF92FF920F931F93CF9360
:10160000DF93CDB7DEB72B97CDBFDEBF8E839F8331
:10161000688779874A875B8781E00E94BA0584E002
:1016200060E00E94640584E060E00E94B7042FEF50
:1016300033EC49E0215030404040E1F700C0000069
:1016400080E492E00E94E01900E412E0D8011196D3
:101650008C911197897E11968C93119714968C9189
:101660001497887F836014968C93149712968C91AC
:1016700012978F7C12968C9312970F2EF0E6EF2E16
:10168000F2E0FF2EF02DF7018081807E8160808363
:1016900089E081838C9181608C9380E492E00E9448
:1016A000651980E492E060E672E040E00E946F1904
:1016B0008983D8018C918E7F8C93F70111821396C8
:1016C0008C9113978F7313968C9313978C918160E1
:1016D0008C9380E492E00E946519D80111968C9158
:1016E0001197886011968C93EE24FF246894F2F889
:1016F00044245524320120E030E140E050E02A83C8
:101700003B834C835D8388249924540100E612E0D6
:10171000D80113968C91139780FFFACF6981C80185
:101720000E944119A0E0B0E0880E991EAA1EBB1EBF
:10173000481659066A067B0610F42C013D012A81E1
:101740003B814C815D8182179307A407B50720F484
:101750008A839B83AC83BD830894E108F108E1147C
:10176000F104B1F6E0E4F2E08181877F818380813A
:101770008E7F808384E060E00E940C0580E00E9400
:10178000BA05C501B401052E5AE09695879577955F
:1017900067955A95D1F7502D28EE33E040E050E0A0
:1017A0000E9425390F2EFFEF8F2EFFE09F2EF0E0D5
:1017B000AF2EF0E0BF2EF02DA50194010E94573905
:1017C000C901C297AE81BF818D939C93C301B201C1
:1017D00028EE33E040E050E00E942539A501940155
:1017E0000E945739C901C297EA85FB85808391839E
:1017F0006A817B818C819D8128EE33E040E050E05E
:101800000E942539A50194010E9457392253304086
:10181000A885B9852D933C9311972B96CDBFDEBF3C
:10182000DF91CF911F910F91FF90EF90BF90AF90FC
:101830009F908F907F906F905F904F900895CF937F
:10184000C62F21E030E0A90102C0440F551F8A9540
:10185000E2F7CA0161E00E946004C0FF05C080E4B5
:10186000E0E0F6E0858304C080E4E0E0F6E0868313
:10187000C1FF05C082E0E0E2F6E0858304C082E0BB
:10188000E0E2F6E08683C2FF05C084E0E0E2F6E035
:10189000858304C084E0E0E2F6E086835AE05A954E
:1018A000F1F700C08FEF61E00E94B704CF91089577
:1018B000882331F0E0E0F6E080E2818385830895BB
:1018C000E0E0F6E080E28683828308951F920F9223
:1018D0000FB60F920BB60F9211242F933F934F9395
:1018E0005F936F937F938F939F93AF93BF93EF9388
:1018F000FF93E0E4FAE08081807F8083A0E0B8E09D
:101900008C91807F8C93A0E0B9E08C91807F8C9348
:101910008081807F8093400880E00E94E7030E94DE
:10192000F30380E00E94580C81E08093A6508093DE
:10193000473EFF91EF91BF91AF919F918F917F9122
:101940006F915F914F913F912F910F900BBE0F9030
:101950000FBE0F901F901895E0E4FAE08081807F21
:101960008083A0E0B8E08C91807F8C93A0E0B9E008
:101970008C91807F8C938081807F8093400880E071
:101980000E94E7030E94F30380E00E94580C81E06C
:101990008093A6508093473E0895CF93DF930F9294
:1019A0000F92CDB7DEB78091A650882389F0E0E48E
:1019B000F8E080A191A189839A8389819A81009717
:1019C00021F486A197A189839A8389819A8102C093
:1019D00080E090E00F900F90DF91CF910895E0EAC2
:1019E000F6E01386089581E0E0EAF6E08387089543
:1019F0001F920F920FB60F920BB60F9211246F9297
:101A00007F928F929F92AF92BF92CF92DF92EF928E
:101A1000FF920F931F932F933F934F935F936F9377
:101A20007F938F939F93AF93BF93EF93FF93CF9346
:101A3000DF93CDB7DEB72C97CDBFDEBF80915C4082
:101A400088238CF080915C408F5F80935C40809114
:101A50005C40803809F0E9C0E0E4F8E08081807FF4
:101A600089608083E2C081E00E94E70382E0E0EACF
:101A7000F6E0868380E090E0E0ECF8E05AEA20E2CD
:101A80003EE3538342814423ECF74381D901A80FFD
:101A9000B91F4C9301968330910599F782E0E0EAF3
:101AA000F6E0858380E00E94E7038091203E882352
:101AB0001CF48FEF8C8301C01C828091203E8B83AD
:101AC0008091213E8A838091223E898389819A81F7
:101AD000AB81BC81AC01BD01770F440B542FBA011F
:101AE0008D839E83AF83B88749874A874B874C870E
:101AF00060916550709166508091675090916850E8
:101B00008D801E810F81F884E984DA84CB84BC84C3
:101B10002091A7503091A85040E050E00E945739E2
:101B2000660F771F660F771F809163509091645006
:101B30003C01660E771E282D312F402F5F2D6E2D14
:101B40007D2D8C2D9B2D0F2EF0EAAF2EF02D0F2E1C
:101B5000F5E2BF2EF02D0F2EF6E2CF2EF02DDD2474
:101B6000EE24FF2400E010E00E940B2EAA24AA9489
:101B7000BB24BA940F2EFFE7CF2EF02D0E94BA2F70
:101B800001E00E94DE2E0F2EF3E0AF2EF02DBB24DD
:101B9000CC2400E00E94BA2F822E932EA42EB52EC4
:101BA000B094A09490948094811C911CA11CB11CB1
:101BB000F30180829182A282B3828091484088237F
:101BC00009F16091655070916650809167509091D5
:101BD00068502091A7503091A85040E050E00E94FA
:101BE0005739DC01CB019C01220F331F220F331F19
:101BF0008091635090916450820F931F64E070E075
:101C00000E9439018091655090916650A091675073
:101C1000B09168500196A11DB11D809365509093BD
:101C20006650A0936750B09368502C96CDBFDEBF2E
:101C3000DF91CF91FF91EF91BF91AF919F918F91E4
:101C40007F916F915F914F913F912F911F910F91D4
:101C5000FF90EF90DF90CF90BF90AF909F908F90CC
:101C60007F906F900F900BBE0F900FBE0F901F9044
:101C70001895882349F080E260E00E94640580E2C4
:101C800060E00E94B704089580E260E00E940C05C5
:101C900008951F920F920FB60F920BB60F92112458
:101CA0006F927F928F929F92AF92BF92CF92DF926C
:101CB000EF92FF920F931F932F933F934F935F9356
:101CC0006F937F938F939F93AF93BF93EF93FF9304
:101CD000CF93DF93CDB7DEB72C97CDBFDEBF198290
:101CE0001A821B821C821D821E821F82188680E03F
:101CF00090E020E23EE388248A94AC01F901E80FE9
:101D0000F91F6081662314F48C8601C01C86420F83
:101D1000531FFA0140814B87FC013196E20FF31FFC
:101D200040814A87FC013296E20FF31F40814987C8
:101D300049855A856B857C85A980BA80CB80DC80FB
:101D4000ED80FE800F811885B42FA52FF62FE72F89
:101D5000770F440B542FBA01642E742E942EAB0EC1
:101D600061E0AB1608F060E0BA0E51E0BA1608F078
:101D700050E0A62FAB0D61E0AB1508F060E0562BEC
:101D8000CF0E61E0CF1608F060E0F52FFC0D51E0BA
:101D9000FC1508F050E0652BDE0E51E0DE1608F071
:101DA00050E0E62FED0D61E0ED1508F060E0562BF8
:101DB000E60C71E0E61408F070E0B52FBE0D51E0BE
:101DC000BE1508F050E0752BF70C61E0F71408F031
:101DD00060E07F0D51E07F1508F050E0652B090DA4
:101DE00051E0091508F050E0600FFF24F3946017EC
:101DF00008F0FF245F29410F540FA982AA83FB83B7
:101E0000EC83BD837E836F83588703968C30910566
:101E100009F073CFE980FA800B811C81BD81AE810E
:101E2000FF81E8852E2D3F2D402F512F6B2F7A2FCC
:101E30008F2F9E2FEE230CF04AC093E0E90E91E025
:101E4000E21608F090E021E0F31608F020E0392FC8
:101E50003F0D91E03F1508F090E0292B91E0041729
:101E600008F090E0422F400F21E0401708F020E0FA
:101E7000922B21E0151708F020E0592F510F91E027
:101E8000511708F090E0292B91E0B61708F090E088
:101E9000622F6B0F21E06B1708F020E0922B21E0FE
:101EA000A71708F020E0792F7A0F91E07A1708F051
:101EB00090E0292B91E0F81708F090E0822F8F0F27
:101EC00021E08F1708F020E0922B2E2D9E0F02E0CC
:101ED0000E94522F29833A834B835C836D837E83D8
:101EE0008F8398876091655070916650809167509C
:101EF0009091685019810A81FB80EC80DD80CE8052
:101F0000BF80A8842091A7503091A85040E050E0B5
:101F10000E945739DC01CB01880F991F880F991F48
:101F20008090635090906450880E991E212F302F1E
:101F30004F2D5E2D6D2D7C2D8B2D9A2D0F2EF0EAC1
:101F4000AF2EF02D0F2EF5E2BF2EF02D0F2EF6E264
:101F5000CF2EF02DDD24EE24FF2400E010E00E94BF
:101F60000B2EAA24AA94BB24BA940F2EFFE7CF2EDF
:101F7000F02D0E94BA2F01E00E94DE2E0F2EF3E01A
:101F8000AF2EF02DBB24CC2400E00E94BA2FF40128
:101F9000208331834283538380914840882309F111
:101FA0006091655070916650809167509091685033
:101FB0002091A7503091A85040E050E00E9457393E
:101FC000DC01CB019C01220F331F220F331F8091B4
:101FD000635090916450820F931F64E070E00E9400
:101FE00039018091655090916650A0916750B091F1
:101FF00068500196A11DB11D809365509093665065
:10200000A0936750B09368502C96CDBFDEBFDF9190
:10201000CF91FF91EF91BF91AF919F918F917F9160
:102020006F915F914F913F912F911F910F91FF9071
:10203000EF90DF90CF90BF90AF909F908F907F9068
:102040006F900F900BBE0F900FBE0F901F901895C2
:102050001F920F920FB60F920BB60F9211246F9230
:102060007F928F929F92AF92BF92CF92DF92EF9228
:10207000FF920F931F932F933F934F935F936F9311
:102080007F938F939F93AF93BF93EF93FF93CF93E0
:10209000DF93CDB7DEB72C97CDBFDEBF19821A8292
:1020A0001B821C821D821E821F82188680E090E0A7
:1020B00020E23EE388248A94AC01F901E80FF91F7D
:1020C0006081662314F48C8601C01C86420F531F66
:1020D000FA0140814B87FC013196E20FF31F4081EA
:1020E0004A87FC013296E20FF31F408149874985F8
:1020F0005A856B857C85A980BA80CB80DC80ED8099
:10210000FE800F811885B42FA52FF62FE72F770FAC
:10211000440B542FBA01642E742E942EAB0E61E042
:10212000AB1608F060E0BA0E51E0BA1608F050E0C5
:10213000A62FAB0D61E0AB1508F060E0562BCF0E7B
:1021400061E0CF1608F060E0F52FFC0D51E0FC15C2
:1021500008F050E0652BDE0E51E0DE1608F050E08E
:10216000E62FED0D61E0ED1508F060E0562BE60C72
:1021700071E0E61408F070E0B52FBE0D51E0BE1519
:1021800008F050E0752BF70C61E0F71408F060E000
:102190007F0D51E07F1508F050E0652B090D51E0EF
:1021A000091508F050E0600FFF24F394601708F061
:1021B000FF245F29410F540FA982AA83FB83EC837C
:1021C000BD837E836F83588703968C30910509F019
:1021D00073CFE980FA800B811C81BD81AE81FF81C4
:1021E000E8852E2D3F2D402F512F6B2F7A2F8F2FCB
:1021F0009E2FEE230CF04AC093E0E90E91E0E21628
:1022000008F090E021E0F31608F020E0392F3F0DB0
:1022100091E03F1508F090E0292B91E0041708F0B9
:1022200090E0422F400F21E0401708F020E0922B71
:1022300021E0151708F020E0592F510F91E05117B8
:1022400008F090E0292B91E0B61708F090E0622F9B
:102250006B0F21E06B1708F020E0922B21E0A7170D
:1022600008F020E0792F7A0F91E07A1708F090E0DB
:10227000292B91E0F81708F090E0822F8F0F21E0D2
:102280008F1708F020E0922B2E2D9E0F02E00E9467
:10229000522F29833A834B835C836D837E838F83A4
:1022A00098876091655070916650809167509091C9
:1022B000685019810A81FB80EC80DD80CE80BF8070
:1022C000A8842091A7503091A85040E050E00E948F
:1022D0005739DC01CB01880F991F880F991F809017
:1022E000635090906450880E991E212F302F4F2DEF
:1022F0005E2D6D2D7C2D8B2D9A2D0F2EF0EAAF2E9D
:10230000F02D0F2EF5E2BF2EF02D0F2EF6E2CF2E80
:10231000F02DDD24EE24FF2400E010E00E940B2EBF
:10232000AA24AA94BB24BA940F2EFFE7CF2EF02D37
:102330000E94BA2F01E00E94DE2E0F2EF3E0AF2E96
:10234000F02DBB24CC2400E00E94BA2FF40120839E
:1023500031834283538380914840882309F16091FF
:1023600065507091665080916750909168502091AF
:10237000A7503091A85040E050E00E945739DC014E
:10238000CB019C01220F331F220F331F809163501A
:1023900090916450820F931F64E070E00E943901B5
:1023A0008091655090916650A0916750B0916850AF
:1023B0000196A11DB11D8093655090936650A09326
:1023C0006750B09368502C96CDBFDEBFDF91CF91A0
:1023D000FF91EF91BF91AF919F918F917F916F91FD
:1023E0005F914F913F912F911F910F91FF90EF902F
:1023F000DF90CF90BF90AF909F908F907F906F9025
:102400000F900BBE0F900FBE0F901F90189582E09B
:10241000E0EAF6E086838AEAE0ECF8E083838281F2
:102420008823ECF79091A050E0ECF8E08381A0E2E3
:10243000BEE3A90FB11D8C938AEA8383828188232E
:10244000ECF7A091A050B0E0E0ECF8E08381AF5D44
:10245000B14C8C938AEA838382818823ECF7E091E4
:10246000A050F0E0A0ECB8E013968C911397EE5DCD
:10247000F14C808382E0E0EAF6E085838091A05011
:102480008D5F8093A05008951F920F920FB60F9208
:102490000BB60F9211242F933F934F935F936F933B
:1024A0007F938F939F93AF93BF93EF93FF930E947C
:1024B00007121092A050FF91EF91BF91AF919F91A1
:1024C0008F917F916F915F914F913F912F910F90DD
:1024D0000BBE0F900FBE0F901F9018951F920F927A
:1024E0000FB60F920BB60F9211242F933F934F9379
:1024F0005F936F937F938F939F93AF93BF93EF936C
:10250000FF930E940712FF91EF91BF91AF919F91AE
:102510008F917F916F915F914F913F912F910F908C
:102520000BBE0F900FBE0F901F9018951F920F9229
:102530000FB60F920BB60F9211242F933F934F9328
:102540005F936F937F938F939F93AF93BF93EF931B
:10255000FF930E940712FF91EF91BF91AF919F915E
:102560008F917F916F915F914F913F912F910F903C
:102570000BBE0F900FBE0F901F9018951F920F92D9
:102580000FB60F920BB60F9211242F933F934F93D8
:102590005F936F937F938F939F93AF93BF93EF93CB
:1025A000FF930E940712FF91EF91BF91AF919F910E
:1025B0008F917F916F915F914F913F912F910F90EC
:1025C0000BBE0F900FBE0F901F9018951F920F9289
:1025D0000FB60F920BB60F9211242F933F934F9388
:1025E0005F936F937F938F939F93AF93BF93EF937B
:1025F000FF930E9407121092A050E0E2F6E084815F
:1026000081FF0FC0E0E0F6E0848186FF05C082E034
:10261000E0E2F6E087830DC080E4E0E0F6E0878347
:1026200008C080E4E0E0F6E0868382E0E0E2F6E0E5
:102630008583FF91EF91BF91AF919F918F917F9192
:102640006F915F914F913F912F910F900BBE0F9023
:102650000FBE0F901F9018951F920F920FB60F92FA
:102660000BB60F9211242F933F934F935F936F9369
:102670007F938F939F93AF93BF93EF93FF930E94AA
:102680000712FF91EF91BF91AF919F918F917F9131
:102690006F915F914F913F912F910F900BBE0F90D3
:1026A0000FBE0F901F9018951F920F920FB60F92AA
:1026B0000BB60F9211242F933F934F935F936F9319
:1026C0007F938F939F93AF93BF93EF93FF930E945A
:1026D0000712FF91EF91BF91AF919F918F917F91E1
:1026E0006F915F914F913F912F910F900BBE0F9083
:1026F0000FBE0F901F9018951F920F920FB60F925A
:102700000BB60F9211242F933F934F935F936F93C8
:102710007F938F939F93AF93BF93EF93FF930E9409
:102720000712FF91EF91BF91AF919F918F917F9190
:102730006F915F914F913F912F910F900BBE0F9032
:102740000FBE0F901F901895FF920F931F93CF937A
:10275000DF93CDB7DEB72897CDBFDEBF19821A82CF
:102760001B821C828091655090916650A0916750A9
:10277000B09168500196A11DB11D80936550909352
:102780006650A0936750B093685080ED8093C00866
:1027900020E030E000E21EE3FF24FA94C901F801D2
:1027A000E20FF31F4081442314F4F88601C0188619
:1027B000800F911FFC0180818F83F9013196E00F1A
:1027C000F11F80818E83F9013296E00FF11F808125
:1027D0008D8349815A816B817C818D819E81AF81FE
:1027E000B885840F951FA61FB71F89839A83AB8373
:1027F000BC832D5F3F4F2C30310581F669817A8192
:102800008B819C8124E030E040E050E00E947939E7
:1028100029833A834B835C83298182E29EE3209360
:10282000223E2A81FC01319720832B810297FC01F3
:10283000208380E1E0E4F6E0868388E0E0E2F6E0F1
:102840008683000086E0E0ECF8E0838382818823C1
:10285000ECF7E0ECF8E0838180932C3EA0E2B6E058
:1028600088E015968C931597000016968C93169712
:10287000000082E0838382818823ECF7E0ECF8E0BB
:10288000838180932C3E80911E3E838382818823A6
:10289000ECF7E0ECF8E0838180932C3E80911D3EC4
:1028A000838382818823ECF7E0ECF8E083818093D6
:1028B0002C3E8091203E838382818823ECF7E0ECDC
:1028C000F8E0838180932C3E8091213E8383828136
:1028D0008823ECF7E0ECF8E0838180932C3E809134
:1028E000223E838382818823ECF7A0ECB8E0139624
:1028F0008C91139780932C3E88E0E0E2F6E085838C
:10290000E0E4F6E080E1858394E59C938683809102
:102910001D3E90911E3E039680931D3E90931E3E59
:1029200080911121E0E2FEE39081890F80931121D3
:10293000809112219181890F80931221809113211E
:102940009281890F809313212896CDBFDEBFDF913E
:10295000CF911F910F91FF9008952F923F924F9228
:102960005F926F927F928F929F92AF92BF92CF921F
:10297000DF92EF92FF920F931F93CF93DF9310920A
:102980001D3E10921E3E109265501092665010929D
:1029900067501092685083E191E210921321FC017C
:1029A000319710820297DC011C9281E00E94BA05E7
:1029B00084E00E94C40380ED8093C0088DE0809382
:1029C000203E83EF8093213E87E58093223E8091D5
:1029D000655090916650A0916750B09168508335D2
:1029E000E5E59E07E0E0AE07E0E0BE0708F0CCC0FA
:1029F0000F2EF0E4EF2EF6E0FF2EF02D40E256E031
:102A000028E0E0ECF8E00F2EF6E07F2EF02DCCE28F
:102A1000DEE36624689461F80F2EFDE1CF2EFEE31D
:102A2000DF2EF02D8E010C5010400F2EF5EF4F2EA3
:102A3000FFEF5F2EF02D4C0E5D1E0F2EF6EF2F2EAA
:102A4000FFEF3F2EF02D2C0E3D1E61E171E25B0188
:102A50000894A11CB11C88249924689481F8860EDE
:102A6000971E30E1D70116963C93DA0116962C9307
:102A700016970000738282818823ECF78381888314
:102A8000DA0115962C931597000016962C9316973D
:102A90000000638282818823ECF783818883D601DA
:102AA00011968C911197838382818823ECF783811F
:102AB0008883D6018C91838382818823ECF783817C
:102AC0008883D8018C91838382818823ECF783816A
:102AD0008883D2018C91838382818823ECF7838160
:102AE0008883D1018C91838382818823ECF7838151
:102AF0008883DA0115962C9330E1D70115963C9323
:102B000080911D3E90911E3E039680931D3E9093B2
:102B10001E3EDB018C91D8019C91890FDB018C93C7
:102B2000D5018C91A1E2BEE39C91890FD5018C93D4
:102B3000D4018C91A2E2BEE39C91890FD4018C93C5
:102B40008091655090916650A0916750B091685007
:102B50000196A11DB11D8093655090936650A0937E
:102B60006750B09368508091655090916650A091E5
:102B70006750B0916850833535E5930730E0A3077F
:102B800030E0B30708F46DCF0E94F30380E00E94A9
:102B9000BA05DF91CF911F910F91FF90EF90DF90D9
:102BA000CF90BF90AF909F908F907F906F905F90ED
:102BB0004F903F902F90089580FF05C020E4E0E003
:102BC000F6E0258304C020E4E0E0F6E0268381FF00
:102BD00005C022E0E0E2F6E0258304C022E0E0E266
:102BE000F6E0268382FF05C084E0E0E2F6E085831C
:102BF000089584E0E0E2F6E0868308952F923F9204
:102C00004F925F927F928F929F92AF92BF92CF929C
:102C1000DF92EF92FF920F931F93CF93DF93CDB785
:102C2000DEB7182F762EF42E1901898D9A8D809398
:102C30006350909364501092A6508B8D9C8D80931E
:102C4000A7509093A8508D8D882321F081E0809328
:102C5000484002C01092484081E00E94BA05812F8E
:102C60006F2D0E941F0C872D0E94FD038E2D0E9448
:102C7000390E84E00E94C40384E58093C00881E09B
:102C80000E94580C812F0E94DC15E0EAF6E022E059
:102C9000208B7724739472820F2EF0E84F2EF1E090
:102CA0005F2EF02D88E7D2018C93E0E0F9E080EF11
:102CB0008183C0A6D1A6A2A6B3A684A695A68D8917
:102CC0009E8986A797A7802F90E0019786A397A358
:102CD00026838FEF87838081807F88608083109236
:102CE0006550109266501092675010926850109282
:102CF000A050E0EAF0E0828187608283789481E0EE
:102D00000E94E70380E2E0E8F6E0818300E41AE055
:102D100083E2F80181836101EE24FF2460E874E816
:102D20008EE190E0A70196010E945739D80196964E
:102D30002D933C93979760E472E48FE090E0A701B5
:102D400096010E945739F80122AF33AFE0E4F8E072
:102D50008F89988D86A397A380EDD20111968C93CD
:102D60001197768210828CE081878081807F8960D4
:102D70008083F8018081807F81608083DF91CF91A3
:102D80001F910F91FF90EF90DF90CF90BF90AF9089
:102D90009F908F907F905F904F903F902F900895DD
:102DA0002F923F924F925F926F927F928F929F925B
:102DB000AF92BF92CF92DF92EF92FF920F93CF9399
:102DC000DF930F920F92CDB7DEB7962F49835A83C8
:102DD000522F702F3701260115012DB73EB729500C
:102DE00030402DBF3EBFEDB7FEB73196ADB7BEB791
:102DF00011968D929C9212972F89388D228333835E
:102E0000298D3A8D248335832B8D3C8D2683378302
:102E10002D8D208764EC492F29813A81052FE72EDB
:102E20006301520141010E94FE152DB73EB7275F95
:102E30003F4F2DBF3EBF0F900F90DF91CF910F916D
:102E4000FF90EF90DF90CF90BF90AF909F908F90CA
:102E50007F906F905F904F903F902F9008952F92AA
:102E60003F925F926F927F928F929F92AF92BF92AA
:102E7000CF92DF92EF92FF920F931F93CF93DF9346
:102E80000F920F92CDB7DEB7182F3B0149835A83BB
:102E9000522E898D9A8D8093635090936450109236
:102EA000A6508B8D9C8D8093A7509093A8508D8DAC
:102EB000882321F081E08093484002C0109248406E
:102EC00081E00E94BA0585E0D3016C910E941F0C3D
:102ED00086E0F30161810E941F0C87E0D301129606
:102EE0006C910E941F0C812F0E94FD03802F0E9475
:102EF000390E84E00E94C40384E58093C00881E019
:102F00000E94580C85E00E94DC15E0EAF6E022E021
:102F1000208B6624639462820F2EF0E82F2EF1E05E
:102F20003F2EF02D88E7F1018083E0E0F8E080EFAC
:102F30008183E0A6F1A6C2A6D3A6A4A6B5A686A6BE
:102F400097A6852D90E0019786A397A326838FEF00
:102F500087838081807F8860808310926550109283
:102F6000665010926750109268501092A05083E102
:102F700091E210921321FC01319710820297DC013B
:102F80001C92E0EAF0E0828187608283789481E09D
:102F90000E94E70380E2E0E8F6E0818300E41AE0C3
:102FA00083E2F801818389819A816C01EE24FF24F8
:102FB00060E874E88EE190E0A70196010E9457391D
:102FC000D80196962D933C93979760E472E48FE036
:102FD00090E0A70196010E945739F80122AF33AF64
:102FE000E0E4F8E08F89988D86A397A380ECD10167
:102FF00011968C931197668210828CE08187808174
:10300000807F89608083F8018081807F81608083F8
:103010000F900F90DF91CF911F910F91FF90EF9044
:10302000DF90CF90BF90AF909F908F907F906F90E8
:103030005F903F902F9008952F923F924F925F9212
:103040006F927F928F929F92AF92BF92CF92DF92B8
:10305000EF92FF920F931F93CF93DF9300D00F92C5
:10306000CDB7DEB7DC013B01942F322F28011701C9
:10307000C982DA82AB82BC824DB75EB747505040FE
:103080004DBF5EBF6DB77EB76F5F7F4FEDB7FEB7C9
:10309000818292824A8D5B8DFB01428353834C8DEA
:1030A0005D8D448355838E8D868384ECBD01A301A1
:1030B000292F032F72016101A980BA808B809C8027
:1030C0000E942F174DB75EB7495F5F4F4DBF5EBF80
:1030D0002496CDBFDEBFDF91CF911F910F91FF905E
:1030E000EF90DF90CF90BF90AF909F908F907F90A8
:1030F0006F905F904F903F902F9008956F927F92C6
:103100008F929F92AF92BF92CF92DF92EF92FF92F7
:103110000F931F93CF93DF93C82FB62ED42F49015F
:103120003801E0926350F09264501092A650C09221
:10313000A750D092A850AA2021F081E08093484067
:1031400002C01092484081E00E94BA058C2F6D2F7A
:103150000E941F0C8B2D0E94FD038C2F8550833005
:1031600018F481E00E94390E81E00E94580C8C2FE7
:103170000E94DC1584E00E94C40384E58093C008AB
:10318000E0EAF6E0EE24E394E28282E0808BE286DD
:10319000818780E2E0E8F6E08183C0E4DAE083E260
:1031A0008983940140E050E060E874E88EE190E0AB
:1031B0000E94573989019A01C8010EA31FA3969551
:1031C00087958AAF9BAFE0E4F8E066A277A288E734
:1031D000A0E8B1E011968C931197E68210828CE002
:1031E00081878881807F81608883109265501092EA
:1031F0006650109267501092685010925C40E0EA5E
:10320000F0E08281836082837894DF91CF911F9177
:103210000F91FF90EF90DF90CF90BF90AF909F9075
:103220008F907F906F9008958F929F92AF92CF92E0
:10323000DF92EF92FF920F931F93CF93DF93962F1E
:10324000FA01D901E8014701AC2C61EC492F9F013B
:103250008D017E0164010E947E18DF91CF911F9144
:103260000F91FF90EF90DF90CF90AF909F908F9055
:103270000895FC0181E0838384819581861B9109F7
:103280000895FC0181E0838384819581772767FD20
:103290007095861B970B0895FC0181E083838481E0
:1032A00095810895FC0181E0838384810895FC0168
:1032B00081E0838385810895FC01848114829AE2F0
:1032C0009A95F1F700C084830895FC01848191E010
:1032D000948395E59A95F1F7000084830895EF9221
:1032E000FF920F931F93CF93DF93EB014423C9F019
:1032F00004E010E0EE24FF248881806888838B81BD
:1033000080FFFDCFCE0160E00E943919E80EF91E62
:103310000150104089F7C701969587959695879536
:1033200009C08881806888838B8180FFFDCFCE01B2
:103330000E944C19DF91CF911F910F91FF90EF9058
:103340000895EF92FF920F931F93CF93DF93EB01BA
:103350004423E1F004E010E0EE24FF24888180683B
:1033600088838B8180FFFDCFCE0160E00E944119F0
:10337000E80EF91E0150104089F7C70199230CF49B
:10338000039695958795959587950AC0888180685D
:1033900088838B8180FFFDCFCE0160E00E944119C0
:1033A000DF91CF911F910F91FF90EF900895AAECBC
:1033B000B1E092E09C93E82FF0E084911C92089594
:1033C000CF93DF93EC0182E0C030D80759F480E25C
:1033D0000E94D719C0E0D2E08C8781E20E94D71901
:1033E0008D8708C084E20E94D7198C8785E20E94ED
:1033F000D7198D87DF91CF91089584E1E4E1F1E25F
:10340000DF011D928A95E9F70E945E1B80931421CB
:10341000909315210E94B01D0895E0E8F6E084E045
:103420008183868392E0908B828783E08187E0EAC4
:10343000F0E08281846082837894089584E191E24F
:1034400008952F923F924F925F926F927F928F9248
:103450009F92AF92BF92CF92DF92EF92FF920F9323
:103460001F93CF93DF93CDB7DEB72A97CDBFDEBFD3
:103470002C011B0169017A01211531054105510516
:1034800009F468C088249924540108E90F2EF6E154
:103490006F2EF1E27F2EF02D1C2D85E6C816D1048B
:1034A000E104F10408F014E6812F855F89839FEF22
:1034B00049169FEF590611F081E601C081E48A8325
:1034C0000B83F30180818C838F5F808384E392E19F
:1034D0008D839E834F825886E4E1F1E28081918161
:1034E00089879A87B101680D791DCE010196412F18
:1034F0000E94EC1C8330C9F0843018F48130E1F470
:1035000004C0853051F08034B9F4EBE1F1E2808100
:1035100091810196808391830FC0EDE1F1E280817A
:10352000918101968083918307C0EFE1F1E2808170
:103530009181019680839183812F90E0A0E0B0E09B
:10354000880E991EAA1EBB1EC81AD90AEA0AFB0ACF
:1035500009F0A2CF80E02A96CDBFDEBFDF91CF91E8
:103560001F910F91FF90EF90DF90CF90BF90AF90A1
:103570009F908F907F906F905F904F903F902F9093
:103580000895DF92EF92FF920F931F93CF93DF93F3
:103590007C010E943C1BD82E88230CF446C0F70106
:1035A0008583882371F0E70126968701095F1F4F05
:1035B0008150080F111D0E943C1B8993C017D10731
:1035C000D1F7F701C08583859485838394838585AE
:1035D0009685818392830E94531B882311F4109255
:1035E000172180910A20C81751F4F70121813281F7
:1035F00080910B2090910C2028173907C1F0C093BF
:103600000A20F7018181928180930B2090930C20F6
:10361000B701615F7F4F4D2D50E049505040C701C9
:103620000E94E0398D2D8B5003C080E001C080E006
:10363000DF91CF911F910F91FF90EF90DF90089550
:10364000109228211092292110922A210895209168
:10365000292130E0F901E55DFE4D8083C901019625
:1036600060E870E00E9444398093292180912A21EA
:103670008F5F80932A2108952091282130E0F9015D
:10368000E55DFE4D40812F5F3F4FC90160E870E06E
:103690000E9444398093282180912A21815080936F
:1036A0002A21842F089580912A210895BC0180E069
:1036B00090E048E050E00E94A91F0895CF93DF9367
:1036C0000F920F92CDB7DEB789E090E0BE016F5F39
:1036D0007F4F42E050E00E94A91F89819A810F909C
:1036E0000F90DF91CF910895882329F080E1E0E6E3
:1036F000F6E08683089580E1E0E6F6E085830895AC
:10370000DF92EF92FF920F931F93CF93DF938C0181
:10371000C62F7A01D22E822F90E0860F911D80381D
:1037200091058CF58FB780935740F89481E00E9403
:10373000741B80E60E94F41FCC2379F0C801019627
:10374000C1509C012C0F311DE901F80181918F01BD
:103750000E94F41F0C171D07C1F7DD2069F0E70177
:103760002196DA94CD0DD11DF70181917F010E9440
:10377000F41FEC16FD06C1F780E00E94741B8091D7
:1037800057408FBF7894DF91CF911F910F91FF9099
:10379000EF90DF900895CF93DF93D82FC62F8FB788
:1037A00080935740F89481E00E94741B8D2F806CA9
:1037B0000E94F41F8C2F0E94F41F80E00E94741B53
:1037C000809157408FBF7894DF91CF910895682FF3
:1037D00085E00E94CB1B08950F931F93CF93DF9337
:1037E000082FC62FD72F10E06991812F800F0E94DC
:1037F000CB1B1F5F1830C1F7DF91CF911F910F9145
:103800000895CF93DF93EC0180E090E0BE0148E0A3
:1038100050E00E94461F84E2BE010E94EC1BDF9133
:10382000CF910895CF93DF93C82FD72F0E94CB1B42
:103830008C2F8F5F6D2F0E94CB1BDF91CF9108954E
:103840000F931F93CF93DF930F920F92CDB7DEB7F5
:1038500089839A830E941E1A8C0189E090E0BE0140
:103860006F5F7F4F42E050E00E94461F69817A817E
:1038700080E20E94121C89819A81F80180839183E1
:103880000F900F90DF91CF911F910F910895CF93DB
:10389000C82F8FB780935740F89481E00E94741B23
:1038A0008C2F80680E94F41F0E94F41FC82F80E0B4
:1038B0000E94741B809157408FBF78948C2FCF91BA
:1038C000089581E00E94471C8F7108951F93CF9344
:1038D000DF93C82F162FD42F0E94471C6D2F6095A1
:1038E0006823D1236D2B8C2F0E94CB1BDF91CF91AE
:1038F0001F910895CF93DF93D82F8091640681FDA7
:103900004BC00E94611CC82F8151823020F0C13011
:1039100011F0C23021F40E94611C8C17E1F3D63102
:10392000F9F0D93189F0D83031F5E4E6F6E080815C
:103930008D7F808382E063E04FE10E94661C8AE015
:103940008A95F1F700C017C0C631A9F482E069E09A
:103950004FE10E94661C9AE09A95F1F700C00BC0F7
:10396000C93149F482E069E04FE10E94661C8AE0B7
:103970008A95F1F700C082E06D2F4FE10E94661C2E
:103980008FE693E00197F1F700C000000E94611CF0
:103990008D1721F480E403C084E401C083E4DF9147
:1039A000CF910895882349F088E00E947A1CE4E6CC
:1039B000F6E08081826080830895E4E6F6E080810D
:1039C0008D7F80838FE797E00197F1F700C00000BB
:1039D00086E10E947A1C0895CF92DF92EF92FF92C7
:1039E0000F931F93CF93DF937C016B01042F0E94F1
:1039F000611C182F0E941E1AEC011230F1F01231D6
:103A0000F1F088E00E947A1C89E10E947A1CC701CB
:103A10006AE0A601202F0E94801B82E062E04FE155
:103A20000E94661C8C818823E9F31C8282E00E943C
:103A3000471C82958695877003C084E401C084E4A6
:103A4000DF91CF911F910F91FF90EF90DF90CF907A
:103A50000895813091F0813028F08230C9F08330B0
:103A600061F521C08CE068E04FE30E94661C86E1AE
:103A700062E043E00E94661C08958CE06CE04FE336
:103A80000E94661C86E162E043E00E94661C089585
:103A90008CE06CE14FE30E94661C86E162E043E04B
:103AA0000E94661C08958CE060E04FE30E94661C53
:103AB00086E163E043E00E94661C0895CF93C82F1F
:103AC00088E06C2F4FE10E94661C0E94611C8630CA
:103AD00011F0893031F48FE693E00197F1F700C0DF
:103AE000000088E00E94471C90E08F7190706C2F5E
:103AF00070E08617970711F480E401C083E4CF914A
:103B00000895CF93C82F0E94471C8C2B8F5F0E9473
:103B1000471C80E090E0CF910895E4E6F6E08081D4
:103B20008160808380818D7F80838FED9BE0019712
:103B3000F1F700C0000080818E7F80839AE09A9523
:103B4000F1F700C08081816080838DE10E94471C75
:103B50008130D9F78CE10E94471C8730B1F7089576
:103B60000F931F93CF93DF93CDB7DEB7EA97CDBF07
:103B7000DEBF0E94E11FE0E6F6E080818260808384
:103B80008081816080830E948D1D8EE060E00E94B4
:103B9000CB1B82E063E04FE10E94661C81E00E9443
:103BA000471C8F718830D1F78EE260E440EC0E94B0
:103BB000661C8EE06CE00E94CB1B84E060E240E279
:103BC0000E94661C81E00E94291D81E00E945E1D0A
:103BD00086E10E947A1C82E264E372E10E94121C78
:103BE0000E945E1BBC0180E20E94121CCE01019665
:103BF0000E94561B84E2BE016F5F7F4F0E94EC1B48
:103C0000E2E7F6E0808181608083E9E6F6E080818A
:103C100083608083EAE6F6E0808184608083E0EA66
:103C2000F0E08281876082830E94611C863191F07E
:103C30008E01075F1F4FC80168EE71E00E94D939FD
:103C40000F920F92EDB7FEB7018312830E941E3AC6
:103C50000F900F90EA96CDBFDEBFDF91CF911F91FD
:103C60000F9108951F920F920FB60F920BB60F92FD
:103C700011246F927F928F929F92AF92BF92DF92A8
:103C8000EF92FF920F931F932F933F934F935F9366
:103C90006F937F938F939F93AF93BF93EF93FF9314
:103CA000CF93DF93CDB7DEB7E297CDBFDEBF0E94E3
:103CB0001E1A7C018FB780935740F89481E00E94D0
:103CC000741B8FE80E94F41F80E00E94F41F182FDD
:103CD00080E00E94741B112309F4AEC0AA24BB2407
:103CE0006894A7F80F2EF8E08F2EF2E09F2EF02DAB
:103CF00012FF02C01B7F9DC013FF82C00E94611C87
:103D0000863029F0863119F0813109F06FC087E0E3
:103D10000E94471CF701828B86E00E94471C881F87
:103D20008827881FF701838B882309F462C08FB727
:103D300080935740F89481E00E94741B80E20E94B7
:103D4000F41F80E00E94F41FD82E83508D37F0F5C9
:103D50000E94531B2D2D30E0A501481B510924174B
:103D600035077CF48D2D0E94271BDD2079F100E0C2
:103D700080E00E94F41F0E94271B0F5F0D15C1F702
:103D800025C00E941E1A3C01DD2039F000E080E0D1
:103D90000E94F41F0F5F0D15D1F7F30185859685FD
:103DA000019685879687CE010196B4010E94D93984
:103DB0000F920F9241E050E04C0F5D1FEDB7FEB740
:103DC000418352830E941E3A0F900F9080E00E9420
:103DD000741B809157408FBF7894F701858196813D
:103DE00001968583968381E0838303C081E0F70198
:103DF0008483177F86E10E947A1C8034D9F719C02A
:103E000016FF08C01F7BF701878590890196878779
:103E1000908B0FC011FF02C01D7F0BC010FF02C0AE
:103E20001E7F07C011232CF41F77F70181898F5F54
:103E3000818B112309F05CCF809157408FBF78941C
:103E40008FE00E94471CE296CDBFDEBFDF91CF918D
:103E5000FF91EF91BF91AF919F918F917F916F9162
:103E60005F914F913F912F911F910F91FF90EF9094
:103E7000DF90BF90AF909F908F907F906F900F904A
:103E80000BBE0F900FBE0F901F9018950F931F93AE
:103E9000CF93DF938C01E0ECF1E08485877F84870A
:103EA0004115510509F450C0E0E0F0E020E0A0EC3D
:103EB000B1E0D6E3C3E335E3CF01800F911FE60FF6
:103EC000F71FF0811F96EC911F97EE23DCF31F96EE
:103ED000EC911F97E1FF11C01A96DC931A97EF93AC
:103EE000FF930F932F93EBECF1E008ED21E004BF7B
:103EF00020832F910F91FF91EF911A96CC931A97EF
:103F00008C93892F8F7111968C93119712961C9216
:103F100012971496FC9314971A963C931A97EF9362
:103F2000FF930F932F93EBECF1E008ED21E004BF3A
:103F300020832F910F91FF91EF912F5FE22FF0E0FF
:103F4000E417F50708F4B8CFDF91CF911F910F91D7
:103F500008951F93CF93DF939C01E0ECF1E08485FB
:103F6000877F84874115510541F180E090E0C0E0F2
:103F7000D6E0DB01A80FB91F820F931F178511230D
:103F8000ECF38083892F8F7181831282D287EF9324
:103F9000FF930F932F93EBECF1E008ED21E004BFCA
:103FA00020832F910F91FF91EF9184818C93CF5FAC
:103FB0008C2F90E084179507E0F2DF91CF911F914D
:103FC0000895E0E6F6E08081806B8083E4E6F6E029
:103FD000808180618083A0ECB9E08C9181658C93B5
:103FE0008081806180830895E0ECF9E083838281A1
:103FF0008823ECF7E0ECF9E0838108950F93CF93E9
:10400000DF930F92CDB7DEB72FB72983F8941BBE8D
:10401000FC0108ED04BF608389818FBF0F90DF91A1
:10402000CF910F910895662311F090E201C090E0C6
:10403000842B892BE0E5F0E0828308956F71862B55
:10404000E0E5F0E085830895E0E5F0E09081282F39
:10405000209592239083908189230895682B81E491
:1040600090E00E94FE1F08951F93CF93DF93182FB7
:10407000C0E4D0E06881687F682B80E490E00E9413
:10408000FE1F88818123DF91CF911F910895E0E485
:10409000F0E09381917F9160892B83830895E0E51F
:1040A000F0E02681982F382F30952323662309F4DA
:1040B00090E0922BE0E5F0E09683813031F4E8E681
:1040C000F0E08081816080830895823029F4E0E609
:1040D000F0E0808181608083089583E590E063E073
:1040E0000E94FE1F089582E490E061E00E94FE1F9E
:1040F0000895CF92DF92EF92FF9220916950309114
:104100006A50C0904D40D0904E40E0904F40F090AB
:104110005040625070408040904040E050E00E942B
:104120002539DC01CB01C80ED91EEA1EFB1E6C2D01
:104130007D2D8E2D9F2DFF90EF90DF90CF900895D5
:104140003F924F925F926F927F928F929F92AF9227
:10415000BF92CF92DF92EF92FF920F931F93CF9374
:10416000DF9300D00F92CDB7DEB7DC01CB01342E48
:1041700009831A832B833C8380906F5090907050FA
:104180002C013D01440C551C661C771C440C551C2D
:10419000661C771C2091554030915640AA24BB24C0
:1041A00080916B5090916C50A0916D50B0916E5079
:1041B000880E991EAA1EBB1E40E050E0C301B2014A
:1041C0000E94573969017A01C80CD91CEA1CFB1CF2
:1041D0000091554010915640C701B60148E45EE396
:1041E0000E947F2B980140E050E0C301B2010E9481
:1041F0005739685B714C332041F4DB010D911D91FF
:104200002D913C9113973F7014C089819A81AB81A5
:10421000BC81FB0180839183A283B383C701B60174
:1042200048E45EE320E032E00E94CA2A00E010E0A9
:104230009801602F712F822F932F2496CDBFDEBF60
:10424000DF91CF911F910F91FF90EF90DF90CF9072
:10425000BF90AF909F908F907F906F905F904F90A6
:104260003F900895CF92DF92EF92FF920F931F93AA
:10427000CF93C82F062F69017A0180916B509091DE
:104280006C50A0916D50B0916E50BC01CD016F5F2C
:104290007F4F8F4F9F4F48E45EE30E947F2B8091BA
:1042A000483E9091493EA0914A3EB0914B3E8235A6
:1042B00022E5920721E6A20721E4B20709F063C0D4
:1042C00080912C4090912D40A0912E40B0912F4094
:1042D000823722E7920721E4A20721E6B20709F01C
:1042E00056C08091444090914540A0914640B09185
:1042F0004740803020E0920725E5A2072AEAB2076E
:1043000009F049C00023A1F4C13049F400913040C4
:104310001091314020913240309133403FC00091A4
:10432000344010913540209136403091374036C0AE
:10433000C13049F4C0923040D0923140E0923240D6
:10434000F092334008C0C0923440D0923540E092A1
:104350003640F092374080916B5090916C50A09114
:104360006D50B0916E50BC01CD016F5F7F4F8F4F8C
:104370009F4F48E45EE320E032E00E94CA2A0FEF3C
:104380001FEF98010BC00FEF1FEF980107C00FEF51
:104390001FEF980103C00FEF1FEF9801602F712FDF
:1043A000822F932FCF911F910F91FF90EF90DF906D
:1043B000CF900895EF92FF920F931F93CF93DF93C7
:1043C00010926B5010926C5010926D5010926E5073
:1043D00060E070E0CB0148E45EE30E947F2B8091B7
:1043E000483E893E31F18B3E21F1809146409091CB
:1043F00047402AEA8535920709F0B7C060910E4020
:1044000070910F40809110409091114060936B50DB
:1044100070936C5080936D5090936E5048E45EE3BF
:104420000E947F2B8091483E893E19F08B3E09F017
:104430009EC08091533E9091543E809355409093FE
:1044400056408091553E90E08093695090936A5019
:10445000E090563EF090573EE0926F50F0927050D0
:104460008091743E9091753EA091763EB091773EDA
:1044700080935D4090935E40A0935F40B093604016
:10448000C0916F50D09170506091583E70E080E0C4
:1044900090E020916C3E30916D3E40916E3E509187
:1044A0006F3E0E9425398B019C01AE0160E070E0F7
:1044B0008091643E9091653EA091663EB091673ECA
:1044C000840F951FA61FB71F800F911FA21FB31F38
:1044D00080934D4090934E40A0934F40B0935040F6
:1044E000E0916950F0916A50C701A0E0B0E04091BE
:1044F000683E5091693E60916A3E70916B3E481BE8
:10450000590B6A0B7B0BCB01BA01601B710B820B41
:10451000930B9F0140E050E00E9457392093584090
:104520003093594040935A4050935B4081E060E0A3
:1045300020E030E0A9010E943221AB01BC01809152
:10454000584090915940A0915A40B0915B408417D7
:104550009507A607B70720F41092A15080E008C085
:1045600081E08093A15080E003C081E001C081E040
:10457000DF91CF911F910F91FF90EF9008950F93CE
:104580001F93CF93DF93CDB7DEB72B97CDBFDEBFA1
:10459000782F692FE82FF92FDF010D900020E9F720
:1045A0001197AE1BBF0BA031B10508F09CC0282F9E
:1045B000392F01E910E5A80180E090E007C0D9019A
:1045C000ED919D01DA01ED93AD010196A72FB62F74
:1045D000FD0101900020E9F73197EA1BFB0B8E17D4
:1045E0009F0768F38F30910554F4FC01EF56FF4AA2
:1045F00080EA90E520E22193E817F907E1F780913E
:1046000091508E3291F0E2E9F0E521E081918E3215
:1046100021F02F5F2C30D1F705C0822F89508330D5
:1046200008F463C0222329F401C020E0822F90E225
:1046300010C0DE011196822F815090E08E569F4A65
:10464000F80131913D93E817F907D9F7283070F355
:104650000AC0E1E0F0E0EC0FFD1FE80FF11D9083D0
:104660008F5F8830B0F32C3009F02F5F38E081E99C
:1046700090E5FC01E20FF11D4081442319F43B3029
:1046800050F015C0E1E0F0E0EC0FFD1FE30FF11D6D
:1046900040832F5F0CC080E2E1E0F0E0EC0FFD1FF3
:1046A000E30FF11D80833F5F3B30B1F703C03F5FF5
:1046B0003B30F8F2DE011196CE010C96FD0120810F
:1046C000322F31563A3110F4205220833196E817B8
:1046D000F907A9F72D91F80121938F01A817B907C0
:1046E000C9F780E003C081E001C081E02B96CDBF17
:1046F000DEBFDF91CF911F910F9108954F925F928E
:104700006F927F928F929F92AF92BF92CF92DF92E1
:10471000EF92FF92CF93DF932B013C0120E83FEF14
:104720004FEF5FEF4222532264227522809158405E
:1047300090915940A0915A40B0915B40481659065B
:104740006A067B0608F077C053014201880C991C69
:10475000AA1CBB1C880C991CAA1CBB1CC8E4DEE369
:10476000C0906F50D090705020915540309156407D
:10477000EE24FF2480916B5090916C50A0916D506D
:10478000B0916E50C80ED91EEA1EFB1E40E050E0EC
:10479000C501B4010E945739C701B601620F731FEA
:1047A000841F951FAE010E947F2B88819981AA8169
:1047B000BB81BF700097A105B10599F021E0E22F00
:1047C000F0E0EE0FFF1FEE0FFF1FE85BF14C808162
:1047D0009181A281B381BF700097A105B10539F421
:1047E00001C020E0420E511C611C711C27C02F5FCC
:1047F00032F780E890E0A0E0B0E0480E591E6A1E53
:104800007B1E8091584090915940A0915A40B091A0
:104810005B4020E032E040E050E0820E931EA41E98
:10482000B51E481659066A067B0608F499CF44243B
:104830005524320103C0442455243201642D752DC2
:10484000862D972DDF91CF91FF90EF90DF90CF9045
:10485000BF90AF909F908F907F906F905F904F90A0
:104860000895CF92DF92EF92FF92CF93C82FDB0192
:10487000CA019170A070B0700097A105B10551F404
:10488000032E39E076956795579547953A95D1F778
:10489000302D0DC0032E39E07695679557954795D5
:1048A0003A95D1F7302D4F5F5F4F6F4F7F4FDB0150
:1048B000CA0187709070A070B0700097A105B10513
:1048C00059F46A017B01689412F8F694E794D7943E
:1048D000C7941694D1F70FC06A017B01689412F84F
:1048E000F694E794D794C7941694D1F70894C11C12
:1048F000D11CE11CF11C8091A1508823D1F081E0F2
:1049000060E020E030E0A9010E943221CC2339F49C
:104910009B01AC012C0D3D1D4E1D5F1D06C09B0172
:10492000AC012C193D094E095F0981E061E00E944C
:104930003221CF91FF90EF90DF90CF9008952F928A
:104940003F924F925F926F927F928F929F92AF921F
:10495000BF92CF92DF92EF92FF920F931F93CF936C
:10496000DF93CDB7DEB72C97CDBFDEBF882E7B019E
:1049700080915D4090915E40A0915F40B091604019
:1049800089879A87AB87BC870F2EF8E42F2EFEE32A
:104990003F2EF02DC82CCA94D22C932C5B01089486
:1049A000A11CB11C69857A858B859C850E94792024
:1049B0006D837E838F8398878091695090916A5030
:1049C000009709F413C14424552432011C2D8D8114
:1049D0009E81AF81B885840D951DA61DB71D898365
:1049E0009A83AB83BC83BC01CD014D2D592D0E9410
:1049F0007F2B8091554090915640009709F4E4C078
:104A0000D1018C91882309F410C14D2D592D20E03E
:104A100030E008C0A901485B514CFA01808188232D
:104A200009F406C1853E09F4C5C0DA011B968C91D4
:104A30001B978F3009F4BEC0123008F0FCC09C9167
:104A4000F7018081981709F0B5C0FA013196D501B8
:104A500081E0BA0141919D91491731F48F5F8B300C
:104A6000C9F78B016B0105C08B3009F0A3C08B0126
:104A70006B01F1E08F1609F041C089819A81AB8109
:104A8000BC818093A2509093A350A093A450B09364
:104A9000A550C901A0E0B0E08093494090934A40FE
:104AA000A0934B40B0934C40D60154964D915C91ED
:104AB000559760E070E0BA01552744275A968D91CA
:104AC0009C915B97A0E0B0E0842B952BA62BB72B95
:104AD0008093735090937450A0937550B093765018
:104AE000F601848D958DA68DB78D8093514090935E
:104AF0005240A0935340B0935440A5C0D601549661
:104B00008D919C915597A0E0B0E03C015524442440
:104B1000F601828D938DA0E0B0E0482A592A6A2AD6
:104B20007B2A85EE808369817A818B819C8148E430
:104B30005EE320E032E00E94CA2AD6015C964D91E5
:104B40005D916D917C915F9780E00E94312482E0BD
:104B500060E020E030E0A9010E943221DC01CB01BD
:104B6000481659066A067B0630F482E061E0A3012C
:104B700092010E943221C301B20140E000E010E046
:104B800098010E94A0206B017C01C301B20141E0A9
:104B900000E010E098010E94A020B7EFCB16BFEF15
:104BA000DB06BFEFEB06BFE0FB0608F047C02601BF
:104BB0003701E1CF205E3F4F8091554090915640A4
:104BC0002817390708F426CF0894411C511C611C92
:104BD000711C8091695090916A50A0E0B0E0481635
:104BE00059066A067B0608F4F2CEC12E69857A85DD
:104BF0008B859C8540E000E010E098010E94A02099
:104C000069877A878B879C87673FEFEF7E07EFEF97
:104C10008E07EFE09E07A8F46115710581059105E7
:104C200009F0C0CE00E010E00EC000E010E00BC0C4
:104C300000E010E008C000E010E005C000E010E077
:104C400002C000E010E0802F912F2C96CDBFDEBF78
:104C5000DF91CF911F910F91FF90EF90DF90CF9058
:104C6000BF90AF909F908F907F906F905F904F908C
:104C70003F902F9008950E94BF22882329F482E05C
:104C800061E970E50E949F2408954F925F926F92B0
:104C90007F92AF92BF92CF92DF92EF92FF920F93EB
:104CA0001F93CF93C82FCB010E94BF22882309F006
:104CB00057C081E061E970E50E949F24FC010097E4
:104CC00031F481E0CC2309F44EC080E04CC0C13007
:104CD00009F448C044885588662477243201552455
:104CE0004424828D938DA0E0B0E0482A592A6A2A94
:104CF0007B2A0F2EFCEAAF2EF1E2BF2EF02DC3016E
:104D0000B2010E9479206B017C01809169509091E1
:104D10006A500097A1F0C0E0C701B6016C0F711D89
:104D2000811D911DA5010E947F2BCF5F809169504D
:104D300090916A502C2F30E02817390768F3C3018F
:104D4000B20140E000E010E098010E94A0202B0199
:104D50003C01611571058105910589F680E003C06C
:104D600082E001C081E0CF911F910F91FF90EF9001
:104D7000DF90CF90BF90AF907F906F905F904F90FB
:104D800008952F923F924F925F926F927F928F92EF
:104D90009F92AF92BF92CF92DF92EF92FF920F93CA
:104DA0001F93CF93DF93CDB7DEB76097CDBFDEBF44
:104DB000FC016D837E8349015A0181E0BF010E949D
:104DC0004526813009F07BC00091735010917450DA
:104DD000209175503091765009831A832B833C8340
:104DE000CC24DD2476012401350148015901C50197
:104DF000B40140E000E010E098010E94A020DC0136
:104E0000CB018F3F1FEF91071FEFA1071FEFB107E6
:104E100041F00894C11CD11CE11CF11C4C015D0146
:104E2000E6CF89829A82AB82BC82530142012091F3
:104E3000695030916A5080915540909156406090F1
:104E4000554070905640BC0180E090E040E050E05A
:104E50000E942539A70196010E942539DC01CB016A
:104E60004091514050915240609153407091544054
:104E70008A019B01081B190B2A0B3B0BC901B801C6
:104E8000930140E050E00E945739022F69817A81F6
:104E90008B819C810E947920DC01CB01202E332460
:104EA000280E391EB10180E090E048E45EE30E94E4
:104EB0007F2B1F86188A19861A8611E04CC0823013
:104EC00009F40CC282E060E020E030E0A9010E9419
:104ED0003221009158401091594020915A40309110
:104EE0005B40061717072807390740F460915D40BB
:104EF00070915E4080915F40909160400E947E235F
:104F000069837A838B839C83611571058105910583
:104F100009F4E6C141E00FEF1FEF98010E94A020C5
:104F20002B813C8129873A8789819A818F87988B49
:104F3000109251401092524010925340109254409F
:104F400069817A818B819C810E947920DC01CB016F
:104F50001C0110E000E081149104A104B10409F4E3
:104F60008DC0442455243201C02E1B8790E0891641
:104F700092E0990690E0A90690E0B90688F000E07A
:104F800012E020E030E0400E511E621E731E80E0F1
:104F90009EEFAFEFBFEF880E991EAA1EBB1E0CC07E
:104FA000480C591C6A1C7B1C9501840111702070EF
:104FB000307088249924540180915140909152403E
:104FC000A0915340B091544080509E4FAF4FBF4F7F
:104FD0008093514090935240A0935340B0935440DB
:104FE000B10180E090E0A201401B510BAD81BE8178
:104FF0004A0F5B1F98010E94CA2AC39420916950EE
:1050000030916A508C2D90E08217930729F56981C1
:105010007A818B819C810E947E236B017C016115CA
:1050200071058105910509F45DC169817A818B81E2
:105030009C8141E0970186010E94A020C701B60132
:1050400041E00FEF1FEF98010E94A020C982DA8291
:10505000EB82FC82CC2403C00894211C311C82E02A
:1050600061E029813A814B815C810E943221811467
:105070009104A104B10409F079CF1B85112309F42F
:105080003FC06091A2507091A3508091A450909124
:10509000A55008E41EE3A8010E947F2BE09149403F
:1050A000F0914A40E00FF11F128A138A809151401B
:1050B00090915240A0915340B0915440448D558DF1
:1050C000668D778D6C017D01C41AD50AE60AF70A50
:1050D000848F958FA68FB78F6091A2507091A35047
:1050E0008091A4509091A550A80120E032E00E9448
:1050F000CA2A81E0B701A6010E94312480E0F9C0EC
:1051000000915D4010915E4020915F403091604081
:105110000B871C872D873E87772481E990E50F2E2A
:10512000FBE0AF2EBB24F02DA80EB91E8824689496
:1051300085F80F2EF8E44F2EFEE35F2EF02D282E7B
:10514000992E372C6F84788804C0CB86DC86ED8658
:10515000FE866B857C858D859E850E9479206D837A
:105160007E838F8398878091695090916A500097D1
:1051700009F477C01982CD80DE80EF80F884198130
:10518000C10ED11CE11CF11CC701B601A2010E9495
:105190007F2B8091554090915640009709F454C060
:1051A000332009F0A1C0A20100E010E006C0A80170
:1051B000485B514C222309F099C0DA018C91882375
:1051C00021F4E22DF92DDA0104C0853ED1F3232D1F
:1051D00030C081918D93EA15FB05D9F7FA018386DA
:1051E00014861586128A138A29853A85248B358B75
:1051F000628E738E8091514090915240A0915340A5
:10520000B0915440848F958FA68FB78FC701B60198
:10521000A20120E032E00E94CA2A40915140509100
:105220005240609153407091544081E00E9431247B
:1052300021E0005E1F4F8091554090915640081725
:10524000190708F4B4CF322E09810F5F098320912A
:10525000695030916A50802F90E08217930708F4CC
:105260008ACF6B857C858D859E8540E000E010E0CF
:1052700098010E94A0206B017C01673F1FEF71071E
:105280001FEF81071FE0910708F16F3F2FEF7207B3
:105290002FEF82072FEF920759F56B857C858D855F
:1052A0009E850E947E236B017C016B857C858D85AC
:1052B0009E8541E0970186010E94A020C701B601AA
:1052C00041E00FEF1FEF98010E94A020C114D1040C
:1052D000E104F10409F039CF84E00BC081E009C09A
:1052E00082E007C082E005C080E003C080E001C02A
:1052F00083E06096CDBFDEBFDF91CF911F910F910C
:10530000FF90EF90DF90CF90BF90AF909F908F90E5
:105310007F906F905F904F903F902F9008958F9265
:105320009F92AF92BF92CF92DF92EF92FF920F9334
:105330001F93CF93DF93842EA52EC62EC72FD22F77
:10534000780180640E94D1068C2F0E94D1068C2D9A
:105350000E94D1068A2D0E94D106882D0E94D10676
:105360008D2F0E94D1061016110664F500E010E0A2
:105370000F2EFDE0CF2EDD24F02D0F2EF4E3AF2E07
:10538000FEE3BF2EF02DC801B6010E944439EC01A6
:105390008FEF0E94D106F501EC0FFD1F8083808105
:1053A0008F3F49F0FE01EC5CF14C80818093353EEB
:1053B0008091353E08C00F5F1F4F0E151F0519F76E
:1053C0008FEF01C08FEFDF91CF911F910F91FF9071
:1053D000EF90DF90CF90BF90AF909F908F90089507
:1053E000FF920F931F93CF93DF9381E00E94BA0542
:1053F00081E00E9461038FEF93ECA9E0815090401F
:10540000A040E1F700C0000088E060E00E94640571
:1054100088E060E00E94B70480E063E00E94D5036A
:1054200081E00E94E7038AE090E0E0ECF8E03FEFE3
:10543000A0E4BEE3338322812223ECF723812C9363
:105440000197C1F780E00E94E7030E94F30388E020
:1054500060E00E94600480E063E00E94D50381E088
:105460000E94E703CBE0D0E002C0219769F080E022
:1054700040E050E0BA0125E908E010E00E948F29E1
:10548000813099F7FF2402C0FF24F3948FEF93EC4F
:10549000A9E081509040A040E1F700C00000CBE0BF
:1054A000D0E002C0219769F088E04AEA51E060E06C
:1054B00070E027E808E010E00E948F29813091F722
:1054C00002C0FF24F394C2E0D0E004E31EE38FEFB8
:1054D0000E94D106F801EC0FFD1F80832196C63093
:1054E000D105A9F78091383E813029F48091393E69
:1054F0008A3A21F405C0FF24F39402C0FF24F394F8
:10550000C5E3DEE387E340E050E0BA012FEF08E0B7
:1055100010E00E948F2981E040E050E060E070E4FC
:105520002FEF0E948F298881882361F7CBE0D0E09C
:1055300002C0219761F08AE340E050E0BA012FEF0A
:1055400008E010E00E948F29882399F702C0FF2409
:10555000F394C0E0D0E004E31EE38FEF0E94D10695
:10556000F801EC0FFD1F80832196C430D105A9F707
:105570008091343E80E00E94E7030E94F30388E0BC
:1055800060E00E94B7048F2DDF91CF911F910F91A2
:10559000FF9008956F927F928F929F92AF92BF92E9
:1055A000CF92DF92EF92FF920F931F93CF93DF93EF
:1055B0004B015C01742E652E690188E060E00E9459
:1055C000600480E00E94C40381E00E94E70380E061
:1055D00092E07C01EC18FD0880E0E81682E0F80615
:1055E00011F4EE24FF24CBE0D0E003C0219709F4AE
:1055F000FFCF88E1B501A4012FEF08E010E00E9481
:105600008F29882399F78FEF0E94D1068093343E2B
:105610008EEF0E94D1061C141D04BCF4872C962C1E
:1056200000E010E0C8016DE070E00E944439EC0138
:10563000F40181914F010E94D106CC5CD14C88834A
:105640000F5F1F4F0C151D0569F71E141F04ECF4A6
:1056500000E010E00F2EFDE0CF2EDD24F02D0F2E08
:10566000F4E38F2EFEE39F2EF02DC801B6010E94B9
:105670004439EC0180E00E94D106C80DD91D888311
:105680000F5F1F4F0E151F0581F78FEF8093343E7C
:10569000C0E0D0E004E31EE38FEF0E94D106F801E2
:1056A00080832196C230D105BCF380818F3FA1F366
:1056B0008091343E8091343E8F3F49F0C4E3DEE375
:1056C0008FEF0E94D106888388818F3FC9F780E0E1
:1056D0000E94E7030E94F30388E060E00E94B704A1
:1056E000DF91CF911F910F91FF90EF90DF90CF90BE
:1056F000BF90AF909F908F907F906F900895AF92E2
:10570000BF92CF92DF92EF92FF920F931F93CF93AE
:10571000DF936B017C01B42EA52E88E060E00E942F
:10572000600480E00E94C40381E00E94E703CBE0B4
:10573000D0E003C0219709F4FFCF81E1B701A601B2
:105740002FEF08E010E00E948F29882399F78091BD
:10575000343E8E3F49F0C4E3DEE38FEF0E94D10672
:10576000888388818E3FC9F70B2D1A2DC0E0D0E0C9
:105770008FEF0E94D106F80181938F012196F2E00C
:10578000C030DF07A9F71092403E8091403E8F3F26
:1057900049F0C0E4DEE38FEF0E94D1068883888160
:1057A0008F3FC9F780E00E94E7030E94F30388E07F
:1057B00060E00E94B704DF91CF911F910F91FF909D
:1057C000EF90DF90CF90BF90AF9008952F923F92CF
:1057D0004F925F926F927F928F929F92AF92BF9201
:1057E000CF92DF92EF92FF920F931F93CF93DF93AD
:1057F000CDB7DEB72A97CDBFDEBF6B017C014F83EB
:105800005887890188E060E00E94600480E00E947F
:10581000C40381E00E94E703C801112314F48150FE
:105820009E4F9C01232F330F330B25952B833C83F5
:1058300020E032E0C801B9010E9444392901481A28
:10584000590A30E0431632E0530631F08B819C81D7
:1058500001968B839C8302C04424552489E1B701BF
:10586000A6012FEF08E010E00E948F298823B1F7EE
:10587000EB81FC811E161F060CF0ACC03197ED8346
:10588000FE839F01322F2227330F8F8198858983D2
:105890009A83662477240F2EF5E38F2EFEE39F2E46
:1058A000F02D0F2EFCE0CF2EDD24F02D0F2EF4E393
:1058B000AF2EFEE3BF2EF02D80E092E01C012418F5
:1058C0003508EF81F885E20FF31FEF83F8878FEF3C
:1058D0000E94D106F40180838CEF0E94D106F4016E
:1058E00080832D813E812615370509F041C01214B1
:1058F0001304CCF4EF80F88400E010E0C801B60196
:105900000E94443989879A87F70181917F010E941B
:10591000D106E985FA85EA0DFB1D80830F5F1F4FD5
:105920000215130559F7141415049CF400E010E057
:10593000C801B6010E9444397C0180E00E94D10672
:10594000F501EE0DFF1D80830F5F1F4F0415150538
:1059500079F78FEF0E94D106F40180838FEF0E94C8
:10596000D106F4018083108280818F3FE1F423C04F
:10597000E980FA8000E010E0C801B6010E944439D5
:1059800089879A87F70181917F010E94D106E98575
:10599000FA85EA0DFB1D80830F5F1F4FF2E0003098
:1059A0001F0751F7D6CF8FEF0E94D106F4018083F5
:1059B00080818F3FC1F70894611C711C29813A8155
:1059C00020503E4F29833A838B819C81681679064B
:1059D00009F07DCFEE24FF246894E2F805E31EE38E
:1059E0008FEF0E94D106F80180830894E108F10846
:1059F000E114F104A9F78DEF0E94D1068093353EA2
:105A0000EE24FF246894E2F805E31EE38FEF0E9482
:105A1000D106F80180830894E108F108E114F1044B
:105A2000A9F71092353E8091353E8F3F51F005E346
:105A30001EE38FEF0E94D106F801808380818F3FA3
:105A4000C1F780E00E94E7030E94F30388E060E072
:105A50000E94B7042A96CDBFDEBFDF91CF911F9180
:105A60000F91FF90EF90DF90CF90BF90AF909F90FD
:105A70008F907F906F905F904F903F902F90089500
:105A80002F923F924F925F926F927F928F929F924E
:105A9000AF92BF92CF92DF92EF92FF920F931F933C
:105AA000CF93DF936B017C01C42F852E390188E0F1
:105AB00060E00E94600480E00E94C40381E00E94D4
:105AC000E70382E1B701A6012FEF08E010E00E9492
:105AD0008F298823B1F7161417040CF046C0AC2E9A
